:020000040800F2
:1000000000800020D95400082555000891490008B7
:100010009D490008A9490008B549000800000000F2
:10002000000000000000000000000000255500084E
:10003000255500080000000025550008255500083A
:1000400025550008255500082555000825550008A8
:100050002555000825550008255500082555000898
:100060002555000825550008255500082555000888
:100070002555000825550008255500082555000878
:100080002555000825550008255500082555000868
:100090002555000825550008255500082555000858
:1000A0002555000825550008255500082555000848
:1000B000A5470008CD47000825550008255500082C
:1000C0002555000825550008255500082555000828
:1000D00025550008154600088546000825550008E6
:1000E0002555000825550008255500087D480008BD
:1000F00031490008255500080000000000000000FC
:1001000000000000000000002555000825550008EB
:1001100000000000000000002555000869490008A3
:1001200025550008255500082555000825550008C7
:10013000255500083D4700082555000825550008AD
:10014000255500080000000000000000000000002D
:10015000000000000000000000000000000000009F
:10016000000000000000000025550008255500088B
:10017000255500080000000025550008000000007B
:100180002555000880B58AB000AF01214FF400303A
:100190000BF01CF801214FF480400BF037F84FF4BE
:1001A000C063BB6002233B7303237B730023BB73D9
:1001B0000223FB7307F1080319464FF090400CF03F
:1001C0006FF9072209214FF090400CF039FA07220D
:1001D0000A214FF090400CF033FA4FF416533B6174
:1001E00000237B610023BB610023FB6100237B6252
:1001F0000C233B6207F110031946164809F0C4FAB4
:1002000025233B710123FB713B1D184602F02CFC9A
:10021000002211490F4809F09FFB00BF40210D4803
:1002200009F0DCFB0346002BF8D001220B490948FA
:1002300009F092FB00BF0949064809F0CFFB0346CD
:10024000002BF8D10121034809F048FB00BF2837F3
:10025000BD4680BD003801400701070005010500CB
:1002600080B584B000AF78600021104809F036FBFB
:100270007B6800221A807B6800225A800023FB6082
:1002800008E07A68FB681344043300221A70FB68A4
:100290000133FB60FB68FE2BF3DD0121034809F00D
:1002A0001DFB00BF1037BD4680BD00BF00380140B8
:1002B00080B584B000AF78600021124809F00EFBD1
:1002C0007B6800221A807B6800225A807B680022AB
:1002D00083F803210023FB6008E07A68FB6813447D
:1002E000043300221A70FB680133FB60FB68FE2BAD
:1002F000F3DD0121034809F0F1FA00BF1037BD46D4
:1003000080BD00BF0038014080B5C4B000AF07F524
:100310008873A3F58673186007F58873A3F5867351
:100320001B6893F80331002B00F0CE820023C7F83E
:100330000C3158E007F58873A3F586731B681B889A
:100340001A4607F58873A3F586731B681344197959
:1003500007F58873A3F58272D7F80C3113440A4667
:100360001A7007F58873A3F58272D7F80C3113441D
:100370001B78002B19D107F58873A3F586731B68CA
:100380001B885A1CC34B83FB02131344D911D31788
:10039000C91A0B461B025B1AD11A8AB207F5887379
:1003A000A3F586731B681A8021E007F58873A3F50F
:1003B00086731B681B885A1CB64B83FB02131344BD
:1003C000D911D317C91A0B461B025B1AD11A8AB26C
:1003D00007F58873A3F586731B681A80D7F80C316C
:1003E0000133C7F80C31D7F80C31FF2BA2D907F134
:1003F0000C03184606F065F907F10C03A6491846E8
:100400000FF098FA0346002B05D007F10C031846AD
:1004100000F09CFA59E207F10C03A04918460FF0CE
:1004200089FA0346002B05D007F10C03184600F0AB
:10043000AFFA4AE207F10C03994918460FF07AFA2D
:100440000346002B05D007F10C03184600F0D4FA40
:100450003BE207F10C03934918460FF06BFA034691
:10046000002B05D007F10C03184600F0EBFA2CE244
:1004700007F10C038C4918460FF05CFA0346002B79
:1004800005D007F10C03184600F002FB1DE207F14E
:100490000C03864918460FF04DFA0346002B05D091
:1004A00007F10C03184600F02DFB0EE207F10C03D8
:1004B0007F4918460FF03EFA0346002B06D007F19D
:1004C0000C030021184600F097FBFEE107F10C0336
:1004D000784918460FF02EFA0346002B06D007F194
:1004E0000C030121184600F087FBEEE107F10C0335
:1004F000714918460FF01EFA0346002B06D007F18B
:100500000C030221184600F077FBDEE107F10C0333
:100510006A4918460FF00EFA0346002B06D007F181
:100520000C030321184600F067FBCEE107F10C0332
:10053000634918460FF0FEF90346002B05D007F17A
:100540000C03184600F04CFCBFE107F10C035D49B9
:1005500018460FF0EFF90346002B05D007F10C0306
:10056000184600F0B1FCB0E107F10C0356491846FB
:100570000FF0E0F90346002B05D007F10C031846F5
:1005800000F01AFDA1E107F10C03504918460FF0E5
:10059000D1F90346002B05D007F10C03184600F0F3
:1005A00083FD92E107F10C03494918460FF0C2F9A7
:1005B0000346002B05D007F10C03184600F00CFE93
:1005C00083E107F10C03434918460FF0B3F90346E2
:1005D000002B05D007F10C03184600F089FE74E1EA
:1005E00007F10C033C4918460FF0A4F90346002B11
:1005F00005D007F10C03184600F020FF65E107F174
:100600000C03364918460FF095F90346002B05D028
:1006100007F10C03184600F09DFF56E107F10C03AB
:100620002F4918460FF086F90346002B05D007F135
:100630000C03184601F050F847E107F10C03294973
:1006400018460FF077F90346002B05D007F10C038D
:10065000184601F07BF838E107F10C0322491846EF
:100660000FF068F90346002B05D007F10C0318467C
:1006700001F0D2F829E107F10C031C4918460FF0EC
:1006800059F90346002B33D007F10C03184601F04B
:1006900087F91AE1818080808C5E0108945E0108F0
:1006A0009C5E0108A45E0108AC5E0108B45E01080E
:1006B000BC5E0108C45E0108CC5E0108D45E01087E
:1006C000DC5E0108E45E0108EC5E0108F45E0108EE
:1006D000FC5E0108045F01080C5F0108145F01085B
:1006E0001C5F0108245F01082C5F0108345F0108CA
:1006F00007F10C03774918460FF01CF90346002B4D
:1007000006D007F10C030021184601F0F1F9DCE0F6
:1007100007F10C03704918460FF00CF90346002B43
:1007200006D007F10C030121184601F0E1F9CCE0F5
:1007300007F10C03694918460FF0FCF80346002B3B
:1007400006D007F10C030221184601F0D1F9BCE0F4
:1007500007F10C03624918460FF0ECF80346002B32
:1007600006D007F10C030321184601F0C1F9ACE0F3
:1007700007F10C035B4918460FF0DCF80346002B29
:1007800006D007F10C030421184601F0B1F99CE0F2
:1007900007F10C03544918460FF0CCF80346002B20
:1007A00006D007F10C030521184601F0A1F98CE0F1
:1007B00007F10C034D4918460FF0BCF80346002B17
:1007C00006D007F10C030621184601F091F97CE0F0
:1007D00007F10C03464918460FF0ACF80346002B0E
:1007E00005D007F10C03184601F03CFA6DE007F163
:1007F0000C03404918460FF09DF80346002B05D026
:1008000007F10C03184601F0BFFA5EE007F10C0394
:10081000394918460FF08EF80346002B05D007F132
:100820000C03184601F01AFB4FE007F10C033349A3
:1008300018460FF07FF80346002B05D007F10C0394
:10084000184601F077FB40E007F10C032C491846ED
:100850000FF070F80346002B05D007F10C03184683
:1008600001F0F2FB31E007F10C03264918460FF0C6
:1008700061F80346002B05D007F10C03184601F080
:100880005BFC22E007F10C031F4918460FF052F8F9
:100890000346002B05D007F10C03184601F0BEFCFF
:1008A00013E007F10C03194918460FF043F803460B
:1008B000002B05D007F10C03184601F0DBFC04E027
:1008C000134801F0F1FD00E000BF07F58877BD4651
:1008D00080BD00BF3C5F0108445F01084C5F010818
:1008E000545F01085C5F0108645F01086C5F0108E8
:1008F000745F01087C5F0108845F01088C5F010858
:10090000945F01089C5F0108A45F0108AC5F0108C7
:10091000B45F010880B582B000AF78603D2178688F
:100920000EF0C8FB0346002B01D0022309E03F2153
:1009300078680EF0BFFB0346002B01D0012300E0D6
:10094000002318460837BD4680BD000080B584B03E
:1009500000AF78607868FFF7DDFF0346FB73FB7B31
:10096000002B0BD101214FF400600AF06FFC7F20B7
:1009700005F0DAFE3F2005F0C5FE03E0034801F074
:1009800093FD00BF00BF1037BD4680BDBC5F0108AE
:1009900080B584B000AF78607868FFF7BBFF03468E
:1009A000FB73FB7B002B18D10AF022FF012005F01E
:1009B00004FA04F0E3FC0346BB73012005F0FDF9E3
:1009C0000AF050FFBB7B042B03D1084801F06CFDFB
:1009D00007E0074801F068FD03E0064801F064FD08
:1009E00000BF00BF1037BD4680BD00BFC45F010817
:1009F000CC5F0108BC5F010880B584B000AF7860AF
:100A00007868FFF787FF0346FB73FB7B002B09D158
:100A1000084801F049FD084801F046FD074801F08B
:100A200043FD03E0064801F03FFD00BF00BF103763
:100A3000BD4680BDD45F010808000020DC5F0108CE
:100A4000BC5F010880B584B000AF78607868FFF7BC
:100A500061FF0346FB73FB7B002B09D1084801F0C3
:100A600023FD084801F020FD074801F01DFD03E0CB
:100A7000064801F019FD00BF00BF1037BD4680BD1C
:100A8000E05F010810000020DC5F0108BC5F010886
:100A900080B58AB000AF78607868FFF73BFF034607
:100AA00087F8273097F82730002B03D0124801F041
:100AB000FBFC1DE0114B01221A700021104808F0C8
:100AC0000DFF4FF41653FB6000233B6100237B6155
:100AD0000023BB6100233B620C23FB6107F10C0385
:100AE0001946074808F050FE0121054808F0F6FEB7
:100AF0002837BD4680BD00BFBC5F0108080C002040
:100B00000038014080B584B000AF78607868FFF7A6
:100B100001FF0346FB73FB7B012B02D0022B1AD093
:100B200050E02C4B1B68082219462B4805F056FB59
:100B30002A4B00221A702A49284805F09DFD2649B3
:100B4000264805F099FD2749244805F095FD2348DE
:100B500001F0AAFC3AE0244978680EF09FFF786023
:100B6000214900200EF09AFF7860786805F03FF97F
:100B70000346BB60BB68002B03D0BB681B4A934293
:100B800003D91B4801F090FC20E0124ABB681360B7
:100B9000104B1B68082219460F4805F01FFB0F4B2E
:100BA00000221A700E490D4805F066FD0A490B48EF
:100BB00005F062FD0B49094805F05EFD074801F0AC
:100BC00073FC03E00B4801F06FFC00BF00BF10375F
:100BD000BD4680BDC00D0020540F0020F00E002047
:100BE000E85F0108DC5F0108F05F0108FFE0F50540
:100BF000F45F0108BC5F010880B586B000AF786083
:100C00000B46FB707868FFF785FE0346FB75FB7D9E
:100C1000012B50D0022B4AD1664978680EF03EFF76
:100C20007860644900200EF039FF7860786805F03C
:100C300033F987ED020BFB78002B0BD15E49D7E926
:100C40000223C1E914235C4BD3E914235B49C1E9B6
:100C5000022332E0FB78012B0BD15749D7E902235D
:100C6000C1E91623544BD3E916235449C1E904239F
:100C700023E0FB78022B0BD14F49D7E90223C1E9CE
:100C800018234D4BD3E918234C49C1E9062314E03E
:100C9000FB78032B11D14849D7E90223C1E91A2374
:100CA000454BD3E91A234549C1E9082305E04448E7
:100CB00001F0FAFB7BE000BF00E000BF414B0022E7
:100CC0001A70FB78032B6BD801A252F823F000BFF7
:100CD000E10C0008110D0008410D0008710D00081D
:100CE0003949384805F0C8FC334B93ED147B082193
:100CF000B0EE470AF0EE670A344805F0FDFA3349D2
:100D0000304805F0B9FC32492E4805F0B5FC4BE0FF
:100D100030492C4805F0B0FC274B93ED167B082199
:100D2000B0EE470AF0EE670A284805F0E5FA2749D1
:100D3000244805F0A1FC2649224805F09DFC33E03B
:100D40002549204805F098FC1B4B93ED187B0821A2
:100D5000B0EE470AF0EE670A1C4805F0CDFA1B49D1
:100D6000184805F089FC1A49164805F085FC1BE077
:100D70001A49144805F080FC0F4B93ED1A7B0821AB
:100D8000B0EE470AF0EE670A104805F0B5FA0F49D1
:100D90000C4805F071FC0E490A4805F06DFC03E0B3
:100DA000074801F081FB02E0064801F07DFB18379F
:100DB000BD4680BDF05F0108780E0020C00D002008
:100DC000BC5F0108F00E0020FC5F0108540F0020FA
:100DD000DC5F0108046001080C6001081460010870
:100DE00080B584B000AF78607868FFF793FD034664
:100DF000FB73FB7B012B02D0022B1BD04BE02A4B59
:100E0000B3F9323004221946284805F027FA284B56
:100E100000221A702749264805F02EFC2349244851
:100E200005F02AFC2449224805F026FC204801F060
:100E30003BFB34E0214978680EF030FE78601F49B2
:100E400000200EF02BFE7860786804F0D0FF034697
:100E50001AB2154B5A86144BB3F93220184B9A82AA
:100E6000114BB3F9323004221946104805F0F6F957
:100E70000F4B00221A700F490D4805F0FDFB0B497E
:100E80000B4805F0F9FB0C49094805F0F5FB08484B
:100E900001F00AFB03E00B4801F006FB00BF00BFB6
:100EA0001037BD4680BD00BFC00D0020540F00208C
:100EB000F00E00201C600108DC5F0108F05F0108F3
:100EC0000C0C0020BC5F010880B584B000AF7860D6
:100ED0007868FFF71FFD0346FB73FB7B022B0AD0EC
:100EE000022B24DC002B02D0012B24D01FE0294848
:100EF00006F0D2FC20E0284978680EF0CFFD78603B
:100F0000254900200EF0CAFD7860786804F06FFF74
:100F100003461A46214B9A62204B9B6A18460DF0F5
:100F200027FC02460B461B49C1E9102304E01C487C
:100F300001F0BAFA2AE000BF164B5B78002B06D00E
:100F4000144B00225A70174801F0AEFA1EE0164BFF
:100F500000221A701549144805F08EFB0D4BD3E999
:100F60001023104619460DF055FF03460722194677
:100F70000F4805F033F90E490B4805F07DFB0D498C
:100F8000094805F079FB084801F08EFA1037BD4694
:100F900080BD00BF780E0020F05F0108C00D00206A
:100FA000BC5F010824600108F00E00202C600108DD
:100FB000540F0020DC5F010880B584B000AF78607A
:100FC0007868FFF7A7FC0346FB73FB7B002B55D12A
:100FD0002E4B00221A702E492C4805F04DFB2D4B4C
:100FE000DB6A062219462C4805F038F92A492748B9
:100FF00005F042FB2949254805F03EFB254B9B6A3D
:1010000004221946244805F029F923491F4805F010
:1010100033FB22491D4805F02FFB1E4B5B6A08225B
:1010200019461D4805F0DAF81B49184805F024FB5D
:101030001A49164805F020FB164B1B6A0822194670
:10104000154805F0CBF81449104805F015FB134975
:101050000E4805F011FB0F4B1B6B062219460E487C
:1010600005F0FCF80C49094805F006FB0C49074857
:1010700005F002FB054801F017FA03E0094801F00A
:1010800013FA00BF00BF1037BD4680BDF00E002030
:10109000346001080C0C0020540F00203C60010853
:1010A000DC5F0108BC5F010880B584B000AF7860E8
:1010B0007868FFF72FFC0346FB73FB7B002B76D190
:1010C0003E4B00221A703E493C4805F0D5FA3D4B94
:1010D000B3F84830A3F5D543333B052219463A48C7
:1010E00005F0BCF83849354805F0C6FA37493348A9
:1010F00005F0C2FA334B93ED0A7B0421B0EE470AA8
:10110000F0EE670A304805F0F7F82F492B4805F054
:10111000B3FA2E49294805F0AFFA2A4B93ED0E7B1E
:101120000421B0EE470AF0EE670A274805F0E4F81C
:101130002549224805F0A0FA2449204805F09CFAE8
:10114000204B9B68082219461F4805F047F81E49A6
:101150001A4805F091FA1D49184805F08DFA194B07
:101160005B6808221946184805F038F816491348F4
:1011700005F082FA1549114805F07EFA114BD3E9C2
:101180000C23104619460DF045FE0346072219466A
:101190000D4805F023F80C49084805F06DFA0C4994
:1011A000064805F069FA054801F07EF902E00948B1
:1011B00001F07AF900BF1037BD4680BDF00E002067
:1011C00040600108780E0020540F00203C600108A8
:1011D000DC5F0108BC5F010880B584B000AF7860B7
:1011E0007868FFF797FB0346FB73FB7B002B68D106
:1011F000384B00221A703849364805F03DFA374B13
:10120000B3F90E3004221946354805F027F8344961
:10121000304805F031FA33492E4805F02DFA2F4BAE
:10122000B3F91030042219462D4805F017F82C495F
:10123000284805F021FA2B49264805F01DFA274BCE
:10124000B3F9123004221946254805F007F824495D
:10125000204805F011FA23491E4805F00DFA1F4BEE
:10126000B3F91430042219461D4804F0F7FF1C4955
:10127000184805F001FA1B49164805F0FDF9174B0F
:101280005B8905221946164804F0A8FF1449114845
:1012900005F0F2F913490F4805F0EEF90F4B9B8961
:1012A000052219460E4804F099FF0D49094805F03A
:1012B000E3F90D49074805F0DFF9064801F0F4F8B5
:1012C00003E00A4801F0F0F800BF00BF1037BD4648
:1012D00080BD00BFF00E002048600108603400208F
:1012E000540F00203C600108DC5F0108BC5F01086E
:1012F00080B584B000AF78607868FFF70BFB0346D9
:10130000FB73FB7B002B40F08380454B00221A705F
:101310004449434805F0B0F9434B1B781946424A0B
:101320000B465B000B441B01134410331B680A225D
:1013300019463E4804F092FF3C49394805F09CF9B3
:101340003B49374805F098F9374B1B781946364A20
:101350000B465B000B441B01134414331B680A2229
:101360001946324804F07AFF30492D4805F084F9D7
:101370002F492B4805F080F92B4B1B7819462A4A38
:101380000B465B000B441B01134418331B680A22F5
:101390001946264804F062FF2449214805F06CF9FB
:1013A00023491F4805F068F91F4B1B7819461E4A50
:1013B0000B465B000B441B01134432331B780222A3
:1013C00019461A4804F00AFF1849154805F054F95F
:1013D0001749134805F050F9134B1B781946124A68
:1013E0000B465B000B441B01134404331B680A22A9
:1013F00019460E4804F0F2FE0C49094805F03CF984
:101400000C49074805F038F9054801F04DF802E0AD
:10141000094801F049F800BF1037BD4680BD00BF44
:10142000F00E002050600108502C0020540F0020C6
:101430003C600108DC5F0108BC5F010880B584B036
:1014400000AF78607868FFF765FA0346FB73FB7BB3
:10145000002B6AD1384B00221A703849364805F003
:101460000BF9374B1B781946354A0B46DB005B1AE4
:101470009B0013440C331B680A221946314804F0C0
:10148000EDFE30492C4805F0F7F82F492A4805F0C1
:10149000F3F82B4B1B781946294A0B46DB005B1AE5
:1014A0009B00134408331B680A221946254804F0A0
:1014B000D5FE2449204805F0DFF823491E4805F0F1
:1014C000DBF81F4B1B7819461D4A0B46DB005B1AE5
:1014D0009B00134410331B6808221946194804F076
:1014E000BDFE1849144805F0C7F81749124805F021
:1014F000C3F8134B1B781946114A0B46DB005B1AE5
:101500009B00134414331B68082219460D4804F04D
:10151000A5FE0C49084805F0AFF80C49064805F04F
:10152000ABF8054800F0C0FF02E0094800F0BCFF3E
:1015300000BF1037BD4680BDF00E00205860010886
:10154000142D0020540F00203C600108DC5F0108CE
:10155000BC5F010880B584B000AF78607868FFF7A1
:10156000D9F90346FB72FB7A002B40F09A80504B6E
:1015700000221A704F494E4805F07EF84E4B1B78FA
:1015800019464D4A0B465B010B44DB001344043300
:101590001B684A4AA2FB03239B09062219464848B6
:1015A00004F01CFE4649424805F066F845494048AB
:1015B00005F062F8404B1B7819463F4A0B465B0129
:1015C0000B44DB00134409331B78022219463C48C4
:1015D00004F004FE3A49364805F04EF80023FB605B
:1015E00048E0354B1B7818463349FB681A0103461F
:1015F0005B010344DB0013440B440C331B78002BCA
:1016000035D131492A4805F037F82B4B1B7818465D
:101610002949FB681A0103465B010344DB001344BC
:101620000B440D331B7802221946254804F0D6FDE1
:1016300023491F4805F020F824491D4805F01CF8EF
:101640001D4B1B7818461C49FB681A0103465B01B9
:101650000344DB0013440B440E331B78022219466B
:10166000174804F0BBFD1649114805F005F8FB6862
:101670000133FB60104B1B7819460F4A0B465B0188
:101680000B44DB00134409331B781A46FB68934272
:10169000A7DB0F49064804F0EFFF054800F004FF00
:1016A00002E00C4800F000FF00BF1037BD4680BDCF
:1016B000F00E002060600108502D0020D34D621014
:1016C000540F00203C600108686001086C6001084C
:1016D000DC5F0108BC5F010880B584B000AF7860B2
:1016E0007868FFF717F90346FB73FB7B002B19D1D2
:1016F000104B00221A7010490E4804F0BDFF0F4B2A
:101700009B8A042219460E4804F068FD0C490948DA
:1017100004F0B2FF0B49074804F0AEFF054800F0A3
:10172000C3FE02E0084800F0BFFE00BF1037BD4610
:1017300080BD00BFF00E002070600108B8340020AA
:10174000540F0020DC5F0108BC5F010880B584B045
:1017500000AF78607868FFF7DDF80346FB73254B30
:1017600000221A70FB7B012B29D0022B23D12249A6
:1017700078680EF093F978601F4900200EF08EF91A
:101780007860786804F033FB0346BB81BB8940F680
:101790008B22934204D9BB8940F6E442934203D999
:1017A000164800F081FE21E0154ABB891380154AD6
:1017B000BB89938504E0144800F076FE16E000BF74
:1017C00012490C4804F058FF0D4B1B88042219469F
:1017D0000F4804F003FD0E49064804F04DFF0D4983
:1017E000044804F049FF034800F05EFE1037BD4690
:1017F00080BD00BFF00E0020F05F0108F45F01081B
:101800007C340020C00D0020BC5F01087860010816
:10181000540F0020DC5F010880B584B000AF786011
:101820007868FFF777F80346FB734F4B00221A7076
:10183000FB7B012B4CD0022B46D14C4978680EF033
:101840002DF97860494900200EF028F97860786811
:1018500004F0CDFA0346BB73BB7B052B03D9444888
:1018600000F022FE7DE0BB7B002B04D1002141482B
:101870000AF08AFB03E001213E480AF085FBBB7BAE
:10188000052B0ED13B4B01229A703A4B01225A7024
:10189000394B0122A3F84820374B0122A3F84620F8
:1018A00017E0BB7B194633480AF082FB0021314820
:1018B0000AF0DAFBBB7B9AB22F4BA3F846202E4BE3
:1018C0000022A3F8482004E02C4800F0EDFD48E099
:1018D00000BF2B49244804F0CFFE264B5B78002B39
:1018E00004D12849204804F0C7FE22E0214B5B7850
:1018F000012B04D124491C4804F0BEFE19E01D4B05
:101900005B78022B04D12149174804F0B5FE10E0A2
:10191000184B5B78032B04D11D49134804F0ACFE2F
:1019200007E0144B5B78042B03D11A490E4804F0EE
:10193000A3FE19490C4804F09FFE0E4B9B78002B28
:1019400004D01149084804F097FE03E00D49064809
:1019500004F092FE1149044804F08EFE024800F0A3
:10196000A3FD1037BD4680BDF00E0020F05F0108DA
:10197000F45F0108AC340020C00D0020BC5F0108FA
:1019800080600108886001088C600108906001088F
:1019900094600108986001083C600108DC5F010860
:1019A00080B584B000AF78607868FEF7B3FF034677
:1019B000FB73454B00221A70FB7B012B63D0022B7B
:1019C0005DD1424978680EF069F878603F4900209F
:1019D0000EF064F87860786804F009FA0346BB8179
:1019E000BB8940F6B372934204D9BB8940F6DC72DE
:1019F000934203D9364800F057FD62E0354B1B781F
:101A0000062B2ED801A252F823F000BF291A000895
:101A1000311A0008391A0008411A0008491A00084A
:101A2000511A0008591A00082B4ABB89938619E0FD
:101A3000294ABB89D38615E0274ABB89138711E061
:101A4000254ABB8953870DE0234ABB89938709E068
:101A5000214ABB89D38705E01F4ABB89A2F84030E1
:101A600000E000BF1B4B1B781A4A5B001344BA8985
:101A70005A80BB89194619480AF00CFB04E0184843
:101A800000F012FD1DE000BF0F4B00221A70154937
:101A90000D4804F0F1FD0F4B1B780E4A5B00134418
:101AA0005B8804221946104804F098FB0E4906484A
:101AB00004F0E2FD0D49044804F0DEFD024800F0A8
:101AC000F3FC1037BD4680BDF00E0020F05F01082A
:101AD000F45F0108540C0020C00D0020AC3400203D
:101AE000BC5F01089C600108540F0020DC5F010806
:101AF00080B584B000AF78600B46FB707868FEF765
:101B000009FF0346FB73FB7B012B64D0022B5ED1E4
:101B1000494978680DF0C2FF7860474900200DF010
:101B2000BDFF7860786804F062F90346BB81BB8929
:101B3000B3F57A6F04D3BB8941F20402934203D90F
:101B40003E4800F0B1FC73E0FB783D4A5B00134473
:101B5000BA895A80FB78062B2DD801A252F823F0BF
:101B60007D1B0008851B00088D1B0008951B0008C5
:101B70009D1B0008A51B0008AD1B0008314ABB894E
:101B8000938619E02F4ABB89D38615E02D4ABB897D
:101B9000138711E02B4ABB8953870DE0294ABB8983
:101BA000938709E0274ABB89D38705E0254ABB898B
:101BB000A2F8403000E000BF214B1B78FA789A422F
:101BC0000BD1BB89194620480AF064FA05E01F488A
:101BD00000F06AFC2CE000BF00E000BF1C4B0022BC
:101BE0001A701C491A4804F047FDFB780122194677
:101BF000194804F0F3FA1849154804F03DFD174957
:101C0000134804F039FDFB780D4A5B0013445B88F0
:101C100004221946104804F0E1FA0F490C4804F078
:101C20002BFD0F490A4804F027FD094800F03CFC51
:101C30001037BD4680BD00BFF05F0108F45F0108AA
:101C4000540C0020C00D0020AC340020BC5F010803
:101C5000F00E0020A4600108540F0020A8600108C5
:101C6000DC5F010880B584B000AF78607868FEF76B
:101C700051FE0346FB733A4B00221A70FB7B012B8B
:101C800054D0022B4ED1374978680DF007FF7860A9
:101C9000344900200DF002FF7860786804F0A7F85E
:101CA0000346BB73BB7B022B2ED0022B35DC002BF3
:101CB00002D0012B15D030E008F03EF84FF48051EF
:101CC0004FF090400AF0ADFC032127480AF09EFA3D
:101CD000264ABB7B1370BB7B9AB2254BA3F84220EC
:101CE0001FE008F029F8214ABB7B1370BB7B9AB236
:101CF0001F4BA3F8422001211B480AF087FA07F086
:101D0000BFFF07F0E3FF0CE0184ABB7B1370BB7BFF
:101D10009AB2174BA3F8422003E0164800F0C4FB28
:101D20001BE004E0144800F0BFFB00E000BF1349D3
:101D30000B4804F0A1FC0D4B1B78012219461048FA
:101D400004F04CFA0E49064804F096FC0D4904488C
:101D500004F092FC024800F0A7FB1037BD4680BD9E
:101D6000F00E0020F05F0108AC34002017000020C6
:101D7000C00D0020F45F0108BC5F0108AC600108E1
:101D8000540F0020DC5F010880B584B000AF78609C
:101D90007868FEF7BFFD0346FB73FB7B012B2CD05D
:101DA000022B26D1244978680DF078FE786022490C
:101DB00000200DF073FE7860786804F018F8034690
:101DC000BB73BB7B002B02D0BB7BA02B03D91B4872
:101DD00000F06AFB2CE01A4ABB7BD370BB7B9AB243
:101DE000184BA3F84420BB7B194615480AF0B0F9FC
:101DF00004E0154800F058FB1AE000BF114BB3F89F
:101E0000443003221946114804F0E8F9104B00222F
:101E10001A7010490E4804F02FFC0C490C4804F0CD
:101E20002BFC0D490A4804F027FC094800F03CFB54
:101E30001037BD4680BD00BFF05F0108F45F0108A8
:101E4000AC340020C00D0020BC5F0108540F0020FE
:101E5000F00E0020B4600108DC5F010880B584B09A
:101E600000AF78607868FEF755FD0346FB73284B9A
:101E700000221A70FB7B012B21D0022B1BD125499C
:101E800078680DF00BFE7860224900200DF006FE08
:101E90007860786803F0ABFF0346BB73BB7B022B13
:101EA00003D91D4800F000FB2FE0BB7B19461B48FF
:101EB00001F062FE04E01A4800F0F6FA25E000BFE7
:101EC0001849134804F0D8FB144B1B78012219461B
:101ED000154804F083F914490D4804F0CDFB13496B
:101EE0000B4804F0C9FB0D4B5B78012219460E48E4
:101EF00004F074F90C49064804F0BEFB0C49044890
:101F000004F0BAFB024800F0CFFA1037BD4680BD9E
:101F1000F00E0020F05F0108F45F0108400C002083
:101F2000BC5F0108BC600108540F00203C60010840
:101F3000DC5F010880B584B000AF78607868FEF798
:101F4000E9FC0346BB73354B00221A70BB7B012BA7
:101F500048D0022B42D1324978680DF09FFD78605D
:101F60002F4900200DF09AFD78602E4978680DF019
:101F70000BF90346002B06D02B4978680DF004F9C5
:101F80000346002B02D10023FB731DE0786803F0A9
:101F90002EFF0346FB7397F90F30002B03D1234824
:101FA00000F082FA36E097F90F30322B03DD1F483C
:101FB00000F07AFA2EE097F90F3013F1630F03DA8D
:101FC0001A4800F071FA25E0194AFB7B937097F9E3
:101FD0000F301AB2174BA3F84A2004E0164800F05D
:101FE00063FA17E000BF15490C4804F045FB104B9D
:101FF00093F9023002221946114804F02FF91049D2
:10200000064804F039FB0F49044804F035FB034847
:1020100000F04AFA1037BD4680BD00BFF00E002028
:10202000F05F010888600108C4600108F45F0108DE
:10203000400C0020C00D0020BC5F0108C8600108F2
:10204000540F0020DC5F010880B584B000AF7860D9
:102050007868FEF75FFC0346FB732E4B00221A7074
:10206000FB7B012B3CD0022B36D12B4978680DF03D
:1020700015FD7860284900200DF010FD7860786823
:1020800003F0B5FE0346BB7397F90E30002B03DA5D
:10209000224800F009FA3AE097F90E30642B03DD8C
:1020A0001E4800F001FA32E0BA7B1D4BDA70BA7BB1
:1020B0001C4B83F84C201A4BDB78642B02D101F0C7
:1020C000E9FD0EE0164BDB78002B02D001F0B2FDEB
:1020D00007E001F0DFFD04E0134800F0E5F916E049
:1020E00000BF12490B4804F0C7FA0D4BDB780322FE
:1020F00019460F4804F072F80D49064804F0BCFA7E
:102100000C49044804F0B8FA024800F0CDF9103741
:10211000BD4680BDF00E0020F05F0108F45F0108AD
:10212000400C0020C00D0020BC5F0108D0600108F9
:10213000540F0020DC5F010880B584B000AF7860E8
:102140007868FEF7E7FB0346FB732A4B00221A7000
:10215000FB7B012B25D0022B1FD1274978680DF07E
:102160009DFC7860244900200DF098FC7860786828
:1021700003F03DFE0346BB73BB7B032B03D91F4813
:1021800000F092F933E0BB7B19461D4804F0D1FE04
:102190001C4ABB7B82F84D3004E01B4800F084F9F8
:1021A00025E000BF1949134804F066FA144B1B7868
:1021B00001221946164804F011F815490D4804F09B
:1021C0005BFA14490B4804F057FA0D4B5B78012277
:1021D00019460F4804F002F80D49064804F04CFA7D
:1021E0000D49044804F048FA024800F05DF9103740
:1021F000BD4680BDF00E0020F05F0108F45F0108CD
:10220000700E0020C00D0020BC5F0108D8600108DE
:10221000540F00203C600108DC5F010880B584B0E9
:1022200000AF78607868FEF775FB0346FB730E4BD2
:1022300000221A70FB7B012B12D0022B0CD13D2106
:1022400078680CF037FFB860BB680133BB60B968D1
:10225000064807F069FF04E0054800F025F900E0B2
:1022600000BF1037BD4680BDF00E00202431002095
:10227000BC5F010880B584B000AF78607868FEF775
:1022800049FB0346FB73224B00221A70FB7B012B98
:1022900024D0022B1ED11F4978680DF0FFFB786017
:1022A0001C4900200DF0FAFB7860786803F09FFD70
:1022B0000346BB73BB7B022B03D9174800F0F4F82D
:1022C00023E0164ABB7B1370144B1A78144B83F827
:1022D0004E2004E0134800F0E7F816E000BF124972
:1022E0000B4804F0C9F90D4B1B78012219460F4821
:1022F00003F074FF0D49064804F0BEF90C49044888
:1023000004F0BAF9024800F0CFF81037BD4680BD9E
:10231000F00E0020F05F0108F45F0108090C0020B6
:10232000C00D0020BC5F0108E0600108540F0020D0
:10233000DC5F010880B500AF084B00221A70084826
:10234000FDF78EFF0748FDF7B3FF074B93F84E20CC
:10235000064B1A70FDF716FF00BF80BD080C002069
:10236000000A0020040B0020C00D0020090C0020F2
:1023700080B582B000AF78607B6893F80331002BA2
:102380000AD07868FDF7C0FF7B6893F80331013B02
:10239000DAB27B6883F8032100BF0837BD4680BDF1
:1023A00080B582B000AF78607B681B881A467B6876
:1023B00013441B799BB21946134807F0ABFA00BFD0
:1023C0000021114807F00AFB0346002BF8D17B6877
:1023D0001B8801339AB27B681A807B681B88FF2BAD
:1023E00002D17B6800221A807B681A887B685B8830
:1023F0009A4204D100220549034807F0ADFA00BF14
:102400000837BD4680BD00BF003801400701070006
:1024100080B582B000AF7860224807F08DFA03469D
:102420001A467B685B881946D2B27B680B441A71E6
:1024300020211C4807F0EBFA7B685B881A467B6812
:1024400013441B790D2B1BD17B6893F803310133A7
:10245000DAB27B6883F803217B685B8801339AB228
:102460007B685A807B685B88FF2B02D17B680022E7
:102470005A807B685B881A467B68134400221A7175
:102480007B685B8801339AB27B685A807B685B8883
:10249000FF2B02D17B6800225A8000BF0837BD465F
:1024A00080BD00BF0038014080B584B000AF7860C7
:1024B0000023FB6019E0FB687A681344164A5288CF
:1024C00011461A78144B0B441A71134B5B88013375
:1024D0009AB2114B5A80104B5B88FF2B02D10E4BE6
:1024E00000225A80FB680133FB6078680DF028F801
:1024F0000246FB689A42DED80849094807F095FA77
:102500000346002B04D101220449054807F024FAB0
:1025100000BF1037BD4680BD000A0020070107003C
:102520000038014080B582B000AF0346FB71124B0A
:102530005B881A46104B1344FA791A710E4B5B886C
:1025400001339AB20C4B5A800B4B5B88FF2B02D1A4
:10255000094B00225A800949094807F066FA0346E8
:10256000002B04D101220549054807F0F5F900BF09
:102570000837BD4680BD00BF000A002007010700E4
:10258000003801400000000080B584B000AF444B2B
:102590001B78002B00F04E82424B00221A70404BF9
:1025A0001B78012B40F096803F493E4804F064F8C8
:1025B0003E4B1B6B07EE903AF8EE677A17EE900AE7
:1025C0000CF0F8F84FF00002394B0CF075FA0246A7
:1025D0000B46384938480CF02DFD3749314804F096
:1025E0004BF836492F4804F047F8354BB3F94A30D9
:1025F00007EE903AF8EEE77A17EE900A0CF0DAF868
:102600004FF000022A4B0CF057FA02460B462949BC
:1026100029480CF00FFD2849224804F02DF82749DD
:10262000204804F029F8274BB3F9123007EE903A0E
:10263000F8EEE77A17EE900A0CF0BCF84FF00002C3
:10264000214B0CF039FA02460B4620491A480CF08F
:10265000F1FC1949134804F00FF81849114804F027
:102660000BF8184BB3F9143007EE903AF8EEE77A0E
:1026700017EE900A0CF09EF84FF000020C4B0CF095
:102680001BFA02460B460B490B480CF0D3FC0A49D7
:10269000044803F0F1FF0E49024803F0EDFFC5E1E5
:1026A000090C0020F00E0020E86001080C0C00204E
:1026B00000005940F0600108540F0020F860010844
:1026C000780E00206034002000002440FC600108E7
:1026D000DC5F0108BC4B1B78022B40F0A781BB4B91
:1026E0001B681A46BA49BB480CF0A4FCBA49B94861
:1026F00003F0C2FFB94B1B781946B84A0B465B0082
:102700000B441B01134404331B68B54AA2FB03238B
:102710009B09FB60FB68B34AA2FB0323D90AB24BB7
:10272000A3FB01231A0913465B001344DB00CA1AFA
:102730001346FB72FB7A02221946AC4803F04EFDA9
:10274000AA49A44803F098FFA949A24803F094FFBE
:10275000FB68A84AA2FB03235909A64BA3FB01234C
:102760005A0913461B019B1A9B00CA1A1346FB7297
:10277000FB7A022219469D4803F030FD9B4995489B
:1027800003F07AFF9A49934803F076FFF968994B72
:10279000A3FB01235A0913461B019B1A9B00CA1A6B
:1027A0001346FB72FB7A02221946904803F016FD8D
:1027B0008E49884803F060FF8749864803F05CFF34
:1027C0008D4B1B6B07EE903AF8EE677A17EE900A86
:1027D0000BF0F0FF4FF00002884B0CF06DF9024651
:1027E0000B46874981480CF025FC8049794803F065
:1027F00043FF7949774803F03FFF824BB3F94A30F2
:1028000007EE903AF8EEE77A17EE900A0BF0D2FF57
:102810004FF00002794B0CF04FF902460B46784915
:1028200072480CF007FC71496A4803F025FF6A49B9
:10283000684803F021FF744BB3F9123007EE903A69
:10284000F8EEE77A17EE900A0BF0B4FF4FF00002B3
:102850006E4B0CF031F902460B466D4963480CF0A3
:10286000E9FB62495B4803F007FF5B49594803F005
:1028700003FF654BB3F9143007EE903AF8EEE77AB0
:1028800017EE900A0BF096FF4FF000025B4B0CF036
:1028900013F902460B465A4954480CF0CBFB5349F6
:1028A0004C4803F0E9FE4C494A4803F0E5FE594B19
:1028B0001B781946574A0B46DB005B1A9B001344F2
:1028C0000C331B6818460BF063FF3DA3D3E90023CC
:1028D0000CF0F2F802460B46C7E90023D7E90023C3
:1028E0004D4942480CF0A6FB40493A4803F0C4FE6B
:1028F0003949384803F0C0FE464B1B781946454A13
:102900000B46DB005B1A9B00134408331B68184618
:102910000BF03EFF2AA3D3E900230CF0CDF80246CA
:102920000B46C7E90023D7E900233B492F480CF0A9
:1029300081FB2E49274803F09FFE2749254803F0D5
:102940009BFE344B1B781946324A0B46DB005B1A60
:102950009B00134414331B6818460BF019FF4FF00B
:1029600000022E4B0CF0A8F802460B46C7E90023E4
:10297000D7E900232A491D480CF05CFB1B49154888
:1029800003F07AFE1449134803F076FE134B1B78CC
:102990001946124A0B465B000B441B0113443233A9
:1029A0001B781A461F4911480CF044FB0F4909488F
:1029B00003F062FE1C49074803F05EFE36E000BFEC
:1029C00000000000D0126341090C0020C00D00205F
:1029D00004610108F00E00203C600108502C00202A
:1029E000D34D6210C5B3A291ABAAAAAA540F00207E
:1029F00008610108898888880C0C00200000594073
:102A0000F0600108780E00206034002000002440AF
:102A1000FC600108142D00200C61010800408F406B
:102A2000146101081C610108DC5F01080348FFF71D
:102A30003BFD00E000BF1037BD4680BDF00E00201A
:102A400080B483B000AF7860064A7B6843F0BF6310
:102A500043F40033D36000BF0C37BD465DF8047B00
:102A6000704700BF00ED00E080B487B000AF786031
:102A700000237B6100233B610F23FB607B68DB78D5
:102A8000002B3AD0284BDB68DB431B0A03F007031B
:102A90007B617B69C3F104033B61FA687B6922FABD
:102AA00003F3FB607B685B781A463B6902FA03F329
:102AB0007B617B689B781A46FB6813407A691343F5
:102AC0007B617B691B017B61184A7B681B78796994
:102AD000C9B213440A4683F800237B681B7803F0CD
:102AE0001F0312497A6812785209D2B210460122A5
:102AF00002FA03F341F820300FE07B681B7803F003
:102B00001F030A497A6812785209D2B2104601228C
:102B10009A4000F1200341F8232000BF1C37BD4636
:102B20005DF8047B704700BF00ED00E000E100E0CD
:102B300080B584B002AF78600B46FB707B681B6881
:102B40001021184601F0CBF97B6818684FF4005348
:102B500000934FF000730122EE2101F059F900BFFC
:102B60007B681B680221184601F09AF90346002B86
:102B700008D17B681B681021184601F091F90346C3
:102B8000002BEDD07B681B681021184601F088F9F6
:102B90000346012B09D17B681B681021184601F000
:102BA0009EF97B6801229A7116E07B681B68FA78AF
:102BB0001146184601F058F900BF7B681B682021B8
:102BC000184601F06DF90346002BF6D07B681B68B0
:102BD0002021184601F083F90837BD4680BD80B535
:102BE00088B002AFF860B9601346FB71FB681868E3
:102BF000FA794FF4105300934FF00073EE2101F077
:102C000007F900237B6128E04FF47A733B6102E00F
:102C10003B69013B3B61FB681B680421184601F0DE
:102C20003FF90346002B02D13B69002BF0DC3B69E6
:102C3000002B03D1FB6801229A7122E0FB681B681C
:102C4000184601F020F903461A46BB681A70BB68A3
:102C50000133BB607B6901337B61FB797A699A42FE
:102C6000D2DB00BFFB681B682021184601F018F971
:102C70000346002BF6D0FB681B682021184601F0A4
:102C80002EF91837BD4680BD80B584B000AF78609E
:102C9000A2217868FFF74CFF07F10C0302221946C6
:102CA0007868FFF79CFF3B7B1B021AB27B7B1BB251
:102CB00013431BB29AB27B681A81A4217868FFF78C
:102CC00037FF07F10C03022219467868FFF787FFE8
:102CD0003B7B1B021AB27B7B1BB213431BB29AB223
:102CE0007B685A81A6217868FFF722FF07F10C0361
:102CF000022219467868FFF772FF3B7B1B021AB26B
:102D00007B7B1BB213431BB29AB27B689A81A821CA
:102D10007868FFF70DFF07F10C0302221946786867
:102D2000FFF75DFF3B7B1B021AB27B7B1BB2134399
:102D30001BB29AB27B68DA81AA217868FFF7F8FEA5
:102D400007F10C03022219467868FFF748FF3B7B26
:102D50001B021AB27B7B1BB213431BB29AB27B6875
:102D60001A82AC217868FFF7E3FE07F10C03022218
:102D700019467868FFF733FF3B7B1B021AB27B7B57
:102D80001BB213431BB29AB27B685A8200BF103742
:102D9000BD4680BD2DE9B00FCDB000AFC7F8F4003F
:102DA000D7F8F4301B6AC7F81431D7F8F4305B6AEF
:102DB000C7F81031D7F8F4301B8A1B021A46D7F82F
:102DC00014319B1AC7F80C31D7F80C31DA179A4630
:102DD0009346D7F8F4305B8A9BB200221C46154616
:102DE00004FB0BF20AFB05F31344AAFB04894B44D2
:102DF000994642464B46002B07DAC9495118B96635
:102E000043F10003FB66D7E91A234FF000004FF0AF
:102E10000001D00D40EA4320D91502460B46134667
:102E200003F5FA63C7F80831D7F8F4305B899BB231
:102E30000022C7F8C830C7F8CC204FF000044FF08C
:102E40000005D7E9321213465D040B4645EAD33537
:102E50000B465C04D7F8F430DB899BB20022C7F83C
:102E6000C030C7F8C420D7F80C31DA17C7F8B8302B
:102E7000C7F8BC20D7E930894B46D7E92EAB52467C
:102E800002FB03F25B46414601FB03F31344424657
:102E90005146A2FB0112C7F8EC200A46C7F8E82009
:102EA000D7F8EC201344C7F8EC30D7E93A23002BCD
:102EB00007DA12F13F01396643F100037B66D7E977
:102EC00018234FF000004FF00001900940EA8360A2
:102ED000991102460B46A118B96545EB0303FB6542
:102EE000D7E91634C7E94034D7F8F4301B899BB2D0
:102EF0000022C7F8B030C7F8B4204FF000044FF0FC
:102F00000005D7E92C1213461D040B4645EA13456C
:102F10000B461C04D7F8F4309B899BB20022C7F8FB
:102F2000A830C7F8AC20D7F80C31DA17C7F8A030B2
:102F3000C7F8A420D7E92A894B46D7E928AB5246DF
:102F400002FB03F25B46414601FB03F31344424696
:102F50005146A2FB0112C7F8E4200A46C7F8E02058
:102F6000D7F8E4201344C7F8E430D7E93823002B1E
:102F700007DA12F17F01396543F100037B65D7E978
:102F800014234FF000004FF00001D00940EA4360E5
:102F9000D91102460B46A118B96445EB0303FB6443
:102FA000D7E91234C7E93E34D7F80831B3F5FA6FE0
:102FB00080F2BA80D7F80C31DA17C7F89830C7F822
:102FC0009C20D7F80C31DA17C7F89030C7F8942056
:102FD000D7E926452B46D7E92489424602FB03F26E
:102FE0004B46214601FB03F3134422464146A2FB14
:102FF0000112C7F8DC200A46C7F8D820D7F8DC2031
:103000001344C7F8DC30D7E93623002B08DA6FF019
:1030100000415118396443F100037B64D7E9102360
:103020004FF000004FF00001D00F40EA4300D917E5
:1030300002460B461346C7F82C31D7F80831A3F5E2
:10304000FA62D7F80831A3F5FA6303FB02F21346DC
:103050001B019B1A9B001344002B00DA0F331B113A
:10306000DA17BB63FA63D7E90E34C7E94834D7F8F7
:103070000831A3F5FA62D7F80831A3F5FA6302FB29
:1030800003F35B00DA173B637A63D7E90C34C7E9D3
:103090004634D7F80821234B9A4254DAD7F808313E
:1030A00003F2DC52D7F8083103F2DC5303FB02F2DF
:1030B00013461B019B1ADA17C7F88830C7F88C2013
:1030C000D7E94823D7E9224521465118B962294654
:1030D00043EB0101F962D7E90A34C7E94834D7F86C
:1030E000083103F2DC52D7F8083103F2DC5302FB5B
:1030F00003F3DB00DA17C7F88030C7F88420D7E97C
:103100004623D7E92045214651183962294643EB29
:1031100001017962D7E90834C7E9463413E000BFFA
:10312000FFFF7F0024FAFFFF0023C7F82C314FF088
:1031300000024FF00003C7E948234FF000024FF0B0
:103140000003C7E94623D7F80821D7F82C31D31A52
:10315000C7F80831D7E94001D7E94823841ABC6190
:1031600061EB0303FB61D7E90634C7E94034D7E9D3
:103170003E01D7E94623841A3C6161EB03037B617E
:10318000D7E90434C7E93E34D7F8F430D7F808213A
:103190009A62D7F810310022BB67FA67D7F8F83087
:1031A000D7E91E452A4602FB03F2D7F8FC30214638
:1031B00001FB03F31344D7F8F8202146A2FB0112C8
:1031C000C7F8D4200A46C7F8D020D7F8D420134433
:1031D000C7F8D430D7E93423002B07DA2149511836
:1031E000B96043F10003FB60D7E902234FF0000010
:1031F0004FF00001500D40EAC3205915D7E9402394
:10320000841A3C6761EB03037B67D7E91C23002B1F
:1032100008DA47F6FF715118396043F100037B600B
:10322000D7E900234FF000004FF00001D00B40EA37
:103230004340D91302460B46D7F8F430DA62D7F888
:10324000F430DB6AD7F8F420B2F914201A44D7F826
:10325000F430DA6200BF07F59A77BD46BDE8B00FDB
:10326000704700BFFFFF1F0080B582B000AF7860DD
:103270000B46FB70FB78012B02D0022B05D009E036
:1032800048217868FFF754FC04E058217868FFF77C
:103290004FFC00BF00BF0837BD4680BD00000000E6
:1032A000B0B588B000AF78600B46FB70002178683D
:1032B000FFF73EFC07F10C03032219467868FFF77D
:1032C0008EFC7B689B79012B00F091800023FB61D1
:1032D0003B7B1B04FA691343FB617B7B1B02FA698E
:1032E0001343FB61BB7B1A46FB691343FB61FB780D
:1032F000012B02D0022B3DD07AE07B68FA69DA61BB
:10330000FB6907EE903AF8EE677AC7ED067A7B68BC
:103310005B6A07EE903AF8EE677AC7ED057A78694E
:103320000BF048FA35A3D3E900230BF09BFA0246D1
:103330000B4614461D46B8690BF03CFA31A3D3E99D
:1033400000230BF08FFA02460B46204629460BF06D
:10335000D3F802460B46104619460BF07BFD034698
:103360003B61D7ED047AFCEEE77A17EE902A7B6892
:103370005A623DE07B68FA699A61FB6907EE903A10
:10338000F8EE677AC7ED067A7B681B6A07EE903A1B
:10339000F8EE677AC7ED057A78690BF00BFA4FF013
:1033A0000002154B0BF05EFA02460B4614461D4612
:1033B000B8690BF0FFF94FF000020F4B0BF052FA17
:1033C00002460B46204629460BF096F802460B466D
:1033D000104619460BF03EFD03463B61D7ED047ADB
:1033E000FCEEE77A17EE902A7B681A6200E000BFD5
:1033F0002037BD46B0BD00BF0000E03F333333335C
:103400003333EB3F333333333333C33F00000000F8
:1034100080B586B000AF78607B68DB6A18460BF039
:10342000B7F94FF00002324B0BF046FB02460B4659
:10343000C7E904234FF000024FF00003C7E902235D
:1034400025A3D3E90023D7E904010BF00BFA0246C8
:103450000B4610461946D7E904230BF003FA02463F
:103460000B46D7E902010BF047F802460B46C7E9C5
:1034700002231BA3D3E90023D7E904010BF0F2F9DF
:1034800002460B46D7E902010BF036F802460B461E
:10349000C7E9022314A3D3E90023D7E902010BF003
:1034A0002BF802460B46C7E902234FF00002104BEF
:1034B000D7E902010BF0D6F902460B461046194631
:1034C0000BF080FC03461A467B681A6300BF18376E
:1034D000BD4680BDAFF300808DEDB5A0F7C6C03E00
:1034E00020D26F5F07CEEF3FED0DBE3099AA11409D
:1034F0000000594080B582B000AF78607B682C4AEC
:103500001A607B6800225A717B6800221A717B68FE
:1035100000229A717B6800221A817B6800225A81FE
:103520007B6800229A817B680022DA817B68002216
:103530001A827B6800225A827B6800229A827B680A
:1035400000229A617B680022DA617B6800221A629D
:103550007B6800225A627B6800229A627B680022A4
:10356000DA621448FEF7A0FF786800F02DF87B6857
:103570009B79012B06D17B6800221A710E48FEF759
:1035800093FF11E07868FFF77FFB0C4B1B78002B53
:1035900004D10B4BB3F932207B689A827B680122FD
:1035A0001A710848FEF780FF0837BD4680BD00BF8E
:1035B000005400402061010840610108040000201F
:1035C000C00D00204C61010880B584B000AF786068
:1035D0001E217868FFF7ACFA7B689B79012B03D139
:1035E0007B6800221A7116E07B685B790A21184615
:1035F00008F072F90023FB6002E0FB680133FB6016
:103600007B685B79184608F089F90346012BF4D0F2
:103610007B6806221A7100BF1037BD4680BD0000CE
:1036200080B582B000AF78607B685B79184608F09F
:1036300075F90346012B63D07B689B79012B09D177
:103640007B6800229A717B681B79002B02D07B6813
:1036500001221A717B681B79013B052B52D801A20C
:1036600052F823F07D36000899360008B536000878
:10367000D1360008E1360008053700087B680222D1
:103680001A7102217868FFF7EFFD7B685B790A21E8
:10369000184608F021F936E07B6803221A710221EE
:1036A0007868FFF7FDFD7B685B790221184608F01A
:1036B00013F928E07B6804221A7101217868FFF76A
:1036C000D3FD7B685B790A21184608F005F91AE0FA
:1036D0007B6805221A7101217868FFF7E1FD12E08D
:1036E0007868FFF757FB7868FFF792FE7B68012246
:1036F0001A717B685B790221184608F0EDF802E048
:1037000000BF00E000BF0837BD4680BD80B582B075
:1037100000AF78607B68174A93420AD101214FF4C9
:10372000805007F0B3FD00214FF4805007F0AEFD4C
:103730001CE07B68104A93420AD101214FF480407B
:1037400007F0C4FD00214FF4804007F0BFFD0DE0FD
:103750007B680A4A934209D101214FF4004007F0E7
:10376000B5FD00214FF4004007F0B0FD00BF083761
:10377000BD4680BD0030014000380040003C0040A4
:1037800080B485B000AF786039600023FB817B682E
:103790001B88FB81FB8903F44153FB813B681A883A
:1037A0003B68DB8913439AB23B68DB8813439AB2C8
:1037B0003B681B8913439AB23B685B8913439AB2F7
:1037C0003B689B8913439AB2FB891343FB817B6857
:1037D000FA891A807B689B88FB81FB8923F47063DC
:1037E000FB813B689A88FB891343FB817B68FA89DC
:1037F0009A803B681A8A7B681A827B681B88FB81E7
:10380000FB8923F00403FB813B685A88FB8913433F
:10381000FB817B68FA891A807B689B8B9BB223F4BF
:1038200000639AB27B689A8300BF1437BD465DF887
:10383000047B704780B483B000AF78600B46FB70A8
:10384000FB78002B08D07B681B889BB243F04003B9
:103850009AB27B681A8007E07B681B889BB223F0D2
:1038600040039AB27B681A8000BF0C37BD465DF8F2
:10387000047B704780B483B000AF78600B467B80D8
:103880007B689B889BB223F480539AB27B689A80B2
:103890007B689B889AB27B8813439AB27B689A8034
:1038A00000BF0C37BD465DF8047B704780B485B01F
:1038B00000AF78600B46FB700023FB607B68FB6009
:1038C000FB680C33FB60FB68FA781A7000BF143792
:1038D000BD465DF8047B704780B485B000AF78606A
:1038E0000023FB607B68FB60FB680C33FB60FB68BC
:1038F0001B78DBB218461437BD465DF8047B704771
:1039000080B485B000AF78600B467B800023FB73EA
:103910007B681B899AB27B8813409BB2002B02D034
:103920000123FB7301E00023FB73FB7B1846143774
:10393000BD465DF8047B704780B483B000AF78600B
:103940000B467B807B88DB439AB27B681A8100BF81
:103950000C37BD465DF8047B7047000080B582B02F
:1039600000AF01214FF4001007F030FC4FF400735A
:103970003B6001233B7103237B710023BB71012357
:10398000FB713B461946064808F08AFD4FF400716A
:10399000034808F046FE00BF0837BD4680BD00BFA3
:1039A0000010004880B584B000AF00211E4801F02F
:1039B00045FF1D4801F0B8FD0121402007F046FCFD
:1039C0002B233B730123FB7300237B7307F10C0351
:1039D0001846FFF749F8154B1B685B09144AA2FB10
:1039E0000323DB099BB2013B9BB23B8000237B801E
:1039F0004FF6FF737B6000233B813B4619460A4824
:103A000001F076FE00220221074802F03FF8002272
:103A10000421054802F03AF80021034801F00EFFA6
:103A200000BF1037BD4680BD001800401C000020BC
:103A3000C55A7C0A80B582B000AF7860FFF78EFF70
:103A4000FFF7B0FF7B6802221A707B6800225A7071
:103A50007B6800221A710E4BB3F94A305AB27B6868
:103A60009A700B4B93F84C207B68DA707B68DB789C
:103A7000002B03D07B68DB78642B02D100F00AF9BD
:103A800002E000F0D7F800BF00BF0837BD4680BD98
:103A9000C00D002080B582B000AF7860052007F02F
:103AA0003DFF0346012B5AD0304B9B7D012B08D1A3
:103AB0004FF400712E4808F0B4FD7B6800225A7064
:103AC00050E07B681B78022B43D17B681B79002B6D
:103AD00047D1284B1B79002B3BD0244B9B8A40F6C7
:103AE000B73293420BD84FF40071214808F099FD8A
:103AF0007B6800225A707B6801221A7132E01D4BEC
:103B00009A6A7B6893F902301946642301FB03F338
:103B10009A4216DA7B6801225A707B68DB78642B44
:103B200005D14FF40071124808F06CFD11E07B687C
:103B3000DB78002B0DD14FF400710D4808F071FDBA
:103B400007E04FF400710A4808F06BFD7B68002223
:103B50005A704FF47A71052007F0BEFE02E000BFF4
:103B600000E000BF0837BD4680BD00BFB83400206C
:103B7000001000480C0C002080B582B000AF7860C7
:103B80000B46FB707B68FA781A70FB78022B49D0E1
:103B9000022B48DC002B02D0012B25D043E04FF450
:103BA0000071234808F03DFD00F074F87B68DB7875
:103BB000642B07D100F06EF84FF400711C4808F038
:103BC00030FD0DE07B68DB78002B02D000F032F88E
:103BD00006E000F05FF84FF40071154808F021FD91
:103BE0007B6800225A701EE07B68DB78642B07D16B
:103BF00000F050F84FF400710D4808F003FD0DE09F
:103C00007B68DB78002B02D000F014F806E000F0AF
:103C100041F84FF40071064808F003FD7B6801226B
:103C20005A7000E000BF00BF0837BD4680BD00BF2E
:103C30000010004880B500AF0021134801F0FEFDE0
:103C40000021114801F0DEFD4FF400710F4808F02B
:103C5000D9FC64210C4801F011FE0D4BDB781946AC
:103C6000094801F019FE01220221074801F00EFF68
:103C700001220421044801F009FF0121024801F05A
:103C8000DDFD00BF80BD00BF0018004000100048EF
:103C9000400C002080B500AF0021094801F0CEFDA6
:103CA00000220221064801F0F1FE0022042104480E
:103CB00001F0ECFE0021024801F0A4FD00BF80BD30
:103CC0000018004080B582B000AF78607B680E4A73
:103CD00093420AD101214FF4001007F0F7FA0021B6
:103CE0004FF4001007F0F2FA09E001214FF48000D0
:103CF00007F0ECFA00214FF4800007F0E7FA00BF6C
:103D00000837BD4680BD00BF0054004080B485B078
:103D100000AF786039600023FB607B681B6823F08C
:103D200001027B681A607B681B68FB60FA68294B9C
:103D30001340FB603B685A683B689B681B02134357
:103D4000FA681343FB607B68FA681A603B681B687B
:103D500023F070627B681A617B681B6843F0010284
:103D60007B681A600023FB607B68FA689A607B6856
:103D7000FA68DA603B689A693B681B691343FB6029
:103D80007B68FA689A607B689B6843F400427B68B2
:103D90009A603B68DB68FB607B681A68FB681A43C3
:103DA0007B681A607B685B68FB60FB6823F0784384
:103DB00023F40043FB603B685B69FA681343FB60D4
:103DC0007B68FA685A6000BF1437BD465DF8047B13
:103DD000704700BFFFE0CF0080B483B000AF7860D1
:103DE0000B46FB70FB78002B06D07B681B6843F00A
:103DF00001027B681A6005E07B681B6823F0010202
:103E00007B681A6000BF0C37BD465DF8047B7047C5
:103E100080B487B000AFF8607B600B467B811346AF
:103E20007B7200237B61FB685B687B617A690D4B69
:103E300013407B617B89C3F309027B7A1B0403F483
:103E40007F031A437B681A433B6A13437A6913431F
:103E50007B61FB687A695A6000BF1C37BD465DF81C
:103E6000047B7047009800FC80B483B000AF78609A
:103E70000B46FB70FA787B689A6200BF0C37BD4630
:103E80005DF8047B704780B483B000AF78607B68D6
:103E90005B6ADBB218460C37BD465DF8047B7047A1
:103EA00080B485B000AF786039600023BB60002328
:103EB000FB737B689B69BB60BA683B681340BB605F
:103EC000BB68002B02D00123FB7301E00023FB73CE
:103ED000FB7B18461437BD465DF8047B704780B401
:103EE00083B000AF786039607B683A68DA6100BF00
:103EF0000C37BD465DF8047B7047000080B582B08A
:103F000000AF01214FF4802007F060F901214FF448
:103F1000802007F05BF901214FF4801007F056F97B
:103F200001214FF4003007F051F901233B710223C6
:103F30007B710023BB710123FB714FF480433B6015
:103F40003B461946114808F0ABFA4FF400433B607A
:103F50003B4619460D4808F0A3FA4FF480733B60C6
:103F60003B4619460A4808F09BFA4FF480733B60C1
:103F70003B4619464FF0904008F092FA002000F0BE
:103F800009F800BF0837BD4680BD00BF00040048E7
:103F9000000C004880B582B000AF0346FB71FB798E
:103FA00003F00103002B05D04FF480411F4808F0B7
:103FB00029FB04E04FF480411C4808F032FBFB79F8
:103FC00003F00203002B05D04FF40041174808F01E
:103FD00019FB04E04FF40041144808F022FBFB7980
:103FE00003F00403002B05D04FF48071104808F053
:103FF00009FB04E04FF480710D4808F012FBFB79D7
:1040000003F00803002B06D04FF480714FF090406E
:1040100008F0F8FA05E04FF480714FF0904008F096
:1040200000FB00BF0837BD4680BD00BF000400484C
:10403000000C004880B483B000AF0346FB71FB79ED
:1040400003F00103002B07D01B4B9B8A9BB21A4A3B
:1040500083F480439BB29382FB7903F00203002B2D
:1040600007D0154B9B8A9AB21349144B53409BB20D
:104070008B82FB7903F00403002B07D0104B9B8A43
:104080009BB20F4A83F480739BB29382FB7903F057
:104090000803002B09D04FF090439B8A9BB24FF04E
:1040A000904283F480739BB2938200BF0C37BD466D
:1040B0005DF8047B704700BF000400480080FFFFEC
:1040C000000C004880B582B000AF01214FF4001011
:1040D00007F07CF800233B7101237B710023BB7147
:1040E0000123FB714FF480733B603B461946034844
:1040F00008F0D6F900BF0837BD4680BD0010004863
:1041000080B582B000AF01214FF4802007F05EF847
:1041100001233B7102237B710023BB710123FB71DF
:1041200004233B603B461946054808F0B9F90421D1
:10413000034808F076FA00BF0837BD4680BD00BFCF
:104140000004004880B582B000AF0121202007F0B4
:104150007DF837233B700123FB703B461846FEF782
:1041600083FC124B1B68124AA2FB03235B0B9BB21E
:10417000013BFB80FB88012219460E4801F02EFB13
:1041800009210C4801F04CFB00210A4801F03AFBE0
:1041900001220121074801F079FC0121054801F0C5
:1041A0004DFB00BF0837BD4680BD00BF1C0000208E
:1041B0005917B7D10014004080B500AF4FF480719B
:1041C0005A4808F003FA0346012B07D1584B5B8885
:1041D000002B09D0564B00225A8005E0544B5B88D7
:1041E00001339AB2524B5A80514B1B78052B00F287
:1041F0009A8001A252F823F01142000819420008E7
:104200003D4200084D4200088F420008E542000888
:10421000474B02221A7086E0454B5B88B3F57A7FE4
:104220007AD30421434808F0EDF901220F214248D6
:1042300000F06AF93E4B02221A706DE03C4B5B883D
:10424000002B6BD13A4B03221A7067E04FF4807158
:10425000364808F0BBF90346002B10D1364B5B788B
:104260001846FFF797FE0021334800F037F9304B2E
:104270005B88632B54D92E4B04221A7050E0012125
:104280002D4800F02BF92A4B00225A8048E0284B99
:104290005B88002B1DD107F0ABFA284B1B785A1C0A
:1042A000274B83FB021313449910D317C91A0B46EB
:1042B000DB005B1AD11ACAB2204B1A701F4B1B7855
:1042C000184600F03DF907F0CDFA194B03221A7099
:1042D00028E0174B5B88B3F5FA6F23D3144B052204
:1042E0001A701FE04FF48041124808F09AF94FF419
:1042F0000041104808F095F94FF48071114808F01A
:1043000090F94FF480714FF0904008F08AF9042141
:10431000084808F086F9FEE700BF04E000BF02E0AD
:1043200000BF00E000BF00BF80BD00BF001000481C
:10433000480C0020000400484C0C0020540C0020C5
:1043400093244992000C004880B500AF2C4B1B7899
:10435000032B07D10020FFF71DFE0021294800F0A4
:10436000BDF84CE0284B1B78002B03D0254B0122D5
:104370009A7002E0234B02229A70224B9B78032B07
:104380003DD801A252F823F099430008A143000848
:10439000AD430008D74300080020FFF7FBFD2EE0E7
:1043A000184B5B781846FFF7F5FD28E0154B9B8806
:1043B000B3F57A7F08D3134B5B781846FFF73AFEC4
:1043C000104B00229A801AE00E4B9B8801339AB260
:1043D0000C4B9A8013E00B4B9B88632B08D9094B3D
:1043E0005B781846FFF726FE064B00229A8005E010
:1043F000044B9B8801339AB2024B9A8000BF80BD68
:10440000642F00204C0C0020F713002080B500AF73
:10441000264B01221A70254B00225A80244B002281
:104420001A70244B9A8E224B5A80224BDA8E204BE4
:104430009A80204B1A8F1E4BDA801E4B5A8F1C4BD2
:104440001A811C4B9A8F1A4B5A811A4BDA8F184BD0
:104450009A81184BB3F84020154BDA81164B002295
:104460009A80154B00221A70FFF748FDFFF72AFECD
:10447000FFF746FEFFF766FE4FF480710F4808F025
:10448000A5F80346002B03D0084B00221A7007E062
:10449000064B01221A7000BF044B1B78022BFBD184
:1044A0000F20FFF777FD00BF80BD00BF480C002044
:1044B000540C0020C00D00204C0C002000100048BF
:1044C00080B500AFFFF778FE034B1B78002B01D0BF
:1044D000FFF73AFF00BF80BD4C0C002080B483B0D2
:1044E00000AF78600B46FB70FB78012B03D17B6833
:1044F00001221A7002E07B6800221A7000BF0C379C
:10450000BD465DF8047B704780B582B000AF78602F
:104510000B46FB701346BB70FB781846FFF73AFD5D
:10452000064B00229A807B68FA785A707B68BA78CA
:104530009A7000BF0837BD4680BD00BF4C0C0020FC
:1045400080B584B000AF0346FB710023FB73234AA0
:10455000FB791370224B1B79012B09D11F4B1B7860
:104560001E4A5B0013445B8819461D4807F092FD04
:104570001A4B1B78062B26D801A252F823F000BF55
:104580009D450008A3450008A9450008AF4500085F
:10459000B5450008BB450008C14500080123FB7371
:1045A00011E00323FB730EE00223FB730BE00623F1
:1045B000FB7308E00423FB7305E00C23FB7302E0AC
:1045C0000823FB7300BFFB7B022219460548FFF757
:1045D0009BFF00BF1037BD4680BD00BF540C0020BC
:1045E000AC3400204C0C002080B400AFBFF34F8FE0
:1045F00000BF064BDB6803F4E0620449044B13433D
:10460000CB60BFF34F8F00BFFEE700BF00ED00E0BF
:104610000400FA0580B500AF1349144805F005FA07
:104620000346002B13D0124B1B78002B0CD00F48E5
:1046300005F082F90346DAB20E4B1A700D4B1B7867
:10464000184604F0C3FC02E00B48FDF7E1FE0B49FD
:10465000064805F0EAF90346002B02D00848FDF7AA
:104660009FFE00BF80BD00BF05010500003801406E
:10467000080C0020700C0020040B0020070107002C
:10468000000A002080B500AF2349244805F0CDF989
:104690000346002B33D02049204805F016FA204B62
:1046A0001B78002B28D01D4805F046F90346DAB2E6
:1046B0001C4B1A701C4B5B8819461A4B1A781A4B04
:1046C0000B441A71184B5B8801339AB2164B5A800F
:1046D000154B5B88FF2B02D1134B00225A801349E4
:1046E000134805F0A2F90346002B08D101220F4917
:1046F0000F4805F031F902E00E4804F0C3FB0B4906
:10470000064805F092F90346002B02D00A4804F04F
:1047100081FB00BF80BD00BF0501050000440040D3
:10472000080C0020710C0020000A0020070107007F
:1047300000380140F00F00206C0F002080B500AF62
:104740000221134802F090F90346012B1ED10221E9
:104750000F4802F0A2F90F490D4802F02DF9034667
:104760001A460D4B1A800B4B1B680C4A93420DD115
:104770000B4B5B881846084BB3F90010084A4300FE
:1047800013440A46DA80064B01221A7400BF80BD2A
:10479000006001406C0C0020680C00202000050027
:1047A000B834002080B500AF01214FF0804001F007
:1047B000A2F90346002B06D001214FF0804001F002
:1047C00089F905F0F3FA00BF80BD000080B500AFA5
:1047D0000221264801F08FF90346002B18D0022150
:1047E000224801F077F9214801F0B8F803469AB25F
:1047F0001F4B1A801E4B1B8816339AB21C4B1A8013
:104800001B4B1B881946194801F038F805F046FB88
:104810000421164801F06FF90346002B23D0042130
:10482000124801F057F94FF090439B8A9BB24FF02A
:10483000904283F480539BB293820C4801F09AF823
:1048400003469AB20B4B1A800B4BB3F80421094B69
:104850001B8813449AB2074B1A80064B1B881946D3
:10486000024801F019F800BF80BD00BF00040040FD
:10487000640C0020660C00201030002080B500AFD2
:104880000221264801F037F90346002B34D00221DB
:10489000224801F01FF9214801F060F803469AB25E
:1048A0001F4B1A801F4BDB789AB21D4B1B88134499
:1048B0009AB21D4B1A801A4B1B8864339AB2184B5C
:1048C0001A80174B1B881946144800F0D7FF164B67
:1048D0001B881946114800F0DFFF124B5B78012B53
:1048E00005D14FF40071114807F08CFE04E04FF43D
:1048F00000710E4807F095FE0421084801F0FBF80E
:104900000346002B08D00421044801F0E3F84FF4DB
:104910000071064807F085FE00BF80BD001800400A
:10492000720C0020400C0020740C00200010004885
:1049300080B500AF01210A4801F0DDF80346002BE5
:104940000BD00121064801F0C5F8064B1B88013346
:104950009AB2044B1A8006F0F3FF00BF80BD00BF7F
:10496000001C00407834002080B500AF01210748CA
:1049700001F0C1F80346012B05D10121034801F0E4
:10498000E4F8FFF79DFD00BF80BD00BF00140040AC
:1049900080B500AFFFF728FE00BF80BD80B500AF37
:1049A000FFF722FE00BF80BD80B500AFFFF71CFE01
:1049B00000BF80BD80B500AFFFF716FE00BF80BD11
:1049C00080B582B000AF7860164800F0B0F80246BB
:1049D0007B681A607B6800229A807B680022DA80FC
:1049E0007B6800221A817B6800225A817B68002242
:1049F0009A627B680022DA627B6800221A637B6815
:104A000000225A637B6800221A877B6800225A873B
:104A10007B6800229A877B680022DA8700BF08370C
:104A2000BD4680BDC9365A0F80B485B000AF7860EE
:104A300039604FF6FF737B813B68002B01D1002367
:104A400030E07B685A1C7A601B783B813B891B02F3
:104A50001AB2B7F90A3053401BB27B810823FB60BE
:104A600013E0B7F90A30002B09DA7B895B001BB22F
:104A700083F4815383F001031BB27B8102E07B89C5
:104A80005B007B81FB68013BFB60FB68002BE8D18E
:104A90003B68013B3B603B68002BD2D17B89DB4309
:104AA0007B817B8918461437BD465DF8047B7047CF
:104AB00080B485B000AF0346FB80FA8813461B0222
:104AC0009B1AFB60FB680C4AA2FB03239B08FB605C
:104AD000FB680A4AA2FB03239B09FB60FB68FF2BD0
:104AE00001D9FF23FB60FB68DBB218461437BD46D3
:104AF0005DF8047B704700BFABAAAAAAD34D621031
:104B000080B485B000AF0346FB80FB881B0AFB81A5
:104B1000FB881B021AB2B7F90E3013431BB2FB819C
:104B2000FB8918461437BD465DF8047B704780B496
:104B300085B000AF78600023FB607B681B0EFB60D4
:104B40007B681B0A03F47F43FA681343FB607B68AE
:104B50001B0203F47F03FA681343FB607B681B06A8
:104B6000FA681343FB60FB6818461437BD465DF8CE
:104B7000047B704780B586B000AF78607B687B614E
:104B80007B683B613B6901221A703B6901333B61E1
:104B90003B6904221A703B6901333B61374B1A8829
:104BA0003B691A803B6902333B610322344938690F
:104BB0000AF0A6F93B6903333B61324BB3F84A2054
:104BC0003B691A803B6902333B612F4BB3F90E30CE
:104BD0009BB21A46920013445B009BB2BB81BA8918
:104BE0003B691A803B6902333B61284B9B8A284A08
:104BF000A2FB03235B099BB2DAB23B691A703B69E3
:104C000001333B61234B9B6A1BB27B817A893B69F1
:104C10001A803B6902333B617A893B691A803B69A0
:104C200002333B61184B9A8A3B691A803B69023315
:104C30003B613B6900221A703B6901333B613B6970
:104C400000221A70002314220021786905F0FCFB71
:104C50000346FB813B69013B3B61FB891B0A9BB21D
:104C6000DAB23B691A703B6901333B61FB89DAB206
:104C70003B691A7000BF1837BD4680BDBA0D0020D1
:104C80003C0C0020780E002060340020B834002056
:104C90001F85EB510C0C002080B588B000AF786008
:104CA0007B68FB617B68BB61BB6901221A70BB69D1
:104CB0000133BB61BB6902221A70BB690133BB615E
:104CC0007D4B1B7819467C4A0B46DB005B1A9B0028
:104CD00013440C331B6807EE903AF8EEE77AC7ED01
:104CE000037AFB68184609F065FD71A3D3E9002338
:104CF00009F0B8FD02460B46104619460AF0AAF81C
:104D00000346FB60FA68BB691A60BB690433BB6188
:104D1000694B1B781946684A0B46DB005B1A9B00FF
:104D2000134408331B6807EE903AF8EEE77AC7EDB4
:104D3000037AFB68184609F03DFD5DA3D3E9002323
:104D400009F090FD02460B46104619460AF082F81B
:104D50000346FB60FA68BB691A60BB690433BB6138
:104D6000554B1B781946544A0B46DB005B1A9B00D7
:104D7000134414331B68514A82FB03129211DB1750
:104D8000D31A1BB27B81B7F90A309BB203F59C534F
:104D900008339BB21BB27B817A89BB691A80BB69DD
:104DA0000233BB61464B1B781946454A0B465B00F4
:104DB0000B441B01134432331A78BB691A70BB6968
:104DC0000133BB613E4B1B7819463D4A0B465B00E5
:104DD0000B441B01134404331B68384AA2FB032312
:104DE0009B097B617B69374AA2FB0323D90A364BB7
:104DF000A3FB01231A0913465B001344DB00CA1A04
:104E00001346FB74BB69FA7C1A70BB690133BB6142
:104E10007B692E4AA2FB032359092C4BA3FB0123D8
:104E20005A0913461B019B1A9B00CA1A1346FB74AE
:104E3000BB69FA7C1A70BB690133BB617969234B8A
:104E4000A3FB01235A0913461B019B1A9B00CA1A94
:104E50001346FB74BB69FA7C1A70BB690133BB61F2
:104E6000BB6900221A70BB690133BB61BB690022B8
:104E70001A70002312220021F86905F0E5FA0346B2
:104E80003B82BB69013BBB613B8A1B0A9BB2DAB226
:104E9000BB691A70BB690133BB613B8ADAB2BB697B
:104EA0001A7000BF2037BD4680BD00BFAFF3008041
:104EB00048AFBC9AF2D77A3E142D0020D34D621031
:104EC000502C0020C5B3A291ABAAAAAA89888888D1
:104ED00080B582B000AF0346FB710E4B0E4A1A60DC
:104EE0000E4B00221A600E4B00221A600D4B00225E
:104EF0001A600948FFF764FD0748FFF761FD06489F
:104F0000FFF75EFD0448FFF75BFD00BF0837BD46B5
:104F100080BD00BF00000020780C0020780D00202C
:104F20007C0D0020800D0020F0B597B000AF7860B8
:104F3000B64BFB60B64B1B689BB21846FFF7E0FD13
:104F400003463B82B34B1B6BB34AA2FB0323DB0834
:104F50009BB21846FFF7D4FD03467B82AF4BB3F8F4
:104F600048301846FFF7CCFD0346BB82AC4BB3F983
:104F700012309BB21A46920013445B009BB2184653
:104F8000FFF7BEFD0346FB82A14B1B6803F0030342
:104F9000002B0DD000233B7600237B76A14B1B68B2
:104FA0001B0ADBB2BB769F4B1B68DBB2FB761AE0B9
:104FB0007B6893F82E301B01DBB23B767B689B8DC0
:104FC000954AA2FB0323DB089BB2DBB27B767B68AE
:104FD000B3F908301B121BB2DBB2BB767B68B3F9A6
:104FE0000830DBB2FB768A4B1B6803F003039B009F
:104FF0003B6500237B657DE08B4B1B7818468A4917
:105000003B6D1A0103465B010344DB0013440B4470
:105010000D3319787A6D13469B00134458333B4483
:105020003C3B0A461A70804B1B7818467E493B6D04
:1050300001331A0103465B010344DB0013440B44B4
:10504000083319787A6D13469B00134458333B4458
:105050003B3B0A461A70744B1B78184672493B6DED
:105060001A0103465B010344DB0013440B440E3377
:1050700019787A6D13469B00134458333B44383BF0
:105080000A461A70684B1B78184667493B6D1A012F
:1050900003465B010344DB0013440B440F3393F9D5
:1050A0000030D9B27A6D13469B00134458333B4409
:1050B000393B0A461A705C4B1B7818465A493B6DBF
:1050C0001A0103465B010344DB0013440B44103315
:1050D000B3F90030D9B27A6D13469B0013445833AC
:1050E0003B443A3B0A461A707B6D01337B653B6D4E
:1050F00001333B657B6D032B7FF77EAF454B9B6A8E
:105100004A4A82FB03129210DB17D31A9BB218464D
:10511000FFF7F6FC03463B86454B9B8A1846FFF794
:10512000C7FC034687F832307B689B7A87F83330B8
:105130007B681B681846FFF7FAFC03467B637B68B5
:10514000DB681846FFF7F3FC0346BB637B681B690B
:105150001846FFF7ECFC0346FB637B685B69184667
:10516000FFF7E5FC03463B647B68DB699BB21846AE
:10517000FFF7C6FC03461BB2A7F844307B681B6AE6
:105180009BB21846FFF7BCFC03461BB2A7F846309B
:105190007B685B6A9BB21846FFF7B2FC03461BB202
:1051A000A7F8483007F10C0304333A211846FFF7FB
:1051B0003BFC0346A7F84E30B7F84E301846FFF7D1
:1051C0009FFC0346A7F84A30114B1B6803F003030A
:1051D0009B01184A134407F10C049C4604F1400E4D
:1051E000654626460FCE28606960AA60EB601034E1
:1051F0000CF1100C7445F3D1054B1B680133044AC4
:10520000136000BF5C37BD46F0BD00BF0F5A36C902
:10521000800D00200C0C0020CDCCCCCC780E0020D2
:1052200060340020C00D0020502D002067666666A7
:10523000B8340020780C002080B500AF0348FFF799
:1052400099FC0348FFF728FD00BF80BD940D0020A6
:10525000A80D002080B500AF0121402005F0B6FF69
:1052600005F02CF900BF80BD80B500AF404B414A2E
:105270001A603F4938A3D3E90023C1E902233C491E
:1052800037A3D3E90023C1E9042339494FF00002D1
:105290004FF00003C1E90623354933A3D3E90023C6
:1052A000C1E90823324B344A9A62314B00225A86B4
:1052B0002F4B40F6B4729A862D4B40F6B972DA86BF
:1052C0002B4B40F6BE721A87294B40F6C3725A87A1
:1052D000274B40F6C8729A87254B40F6CD72DA8785
:1052E000234B40F6D272A3F84020214B0122A3F8B1
:1052F00042201F4B40F6B8329A851D4B40F6B8321B
:10530000DA851B4B40F6B8321A86194B0322A3F8F4
:105310004420174B0122A3F84820154B0122A3F883
:105320004620134B0522A3F84A20114B4B2283F849
:105330004C200F4B022283F84D200D4B002283F8A6
:105340004E20FFF787FF06F053FA00F079F806F0D9
:1053500089FA00BF80BD00BF2069A8476185503F22
:10536000E8B29131542A313F8070D04C4526843EBA
:10537000180E0020ED5F8400D65D0F0080B598B058
:1053800000AF042387F85D3005F098F8052129481F
:1053900005F0B0F80346274A1365264A3B461146F6
:1053A0005822184609F0ACFD00BF234BDB6803F020
:1053B0000103002BF9D107F08DFA204807F0B4FA69
:1053C000034687F85D30202007F00EFB0346012BD3
:1053D00002D1202007F022FB0023A7F85E3019E05D
:1053E000B7F85E305B0003F1006202F5FC32B7F8FB
:1053F0005E305B0060333B4433F8603C1946104636
:1054000007F0C4FA034687F85D30B7F85E30013321
:10541000A7F85E30B7F85E302B2B03D897F85D30D5
:10542000042BDDD007F070FA97F85D30184660372E
:10543000BD4680BDC00D00200020024000F80108DC
:1054400080B598B000AF0023A7F85E3014E0B7F83D
:105450005E3003F1806303F57C435B001A46B7F8C6
:105460005E3012885B0060333B4423F8602CB7F851
:105470005E300133A7F85E30B7F85E302B2BE6D9EB
:1054800005F01CF83B460521184605F033F8B865D1
:105490003B6DBA6D9A420BD00C4A0D4B1046194623
:1054A00058231A4609F02CFD0A4B01221A7009E014
:1054B000064B18463B465822194609F021FD054B7C
:1054C00000221A7000BF6037BD4680BDC00D0020AD
:1054D000180E0020040000200C488546002103E03F
:1054E0000B4B5B58435004310A480B4B42189A420D
:1054F000F6D30A4A02E0002342F8043B084B9A42E2
:10550000F9D305F019F802F009FA7047008000207D
:10551000DC68010800000020FC090020000A0020CF
:1055200014350020FEE7000080B582B000AF78603F
:105530007B68B3F1804F08D10121012005F0C6FE40
:105540000021012005F0C2FEB3E07B685B4A934274
:1055500008D10121022005F0B9FE0021022005F04A
:10556000B5FEA6E07B68564A934208D1012104208B
:1055700005F0ACFE0021042005F0A8FE99E07B6850
:10558000504A934208D10121082005F09FFE0021D6
:10559000082005F09BFE8CE07B684B4A934208D1C3
:1055A0000121102005F092FE0021102005F08EFE52
:1055B0007FE07B68454A934208D10121202005F015
:1055C00085FE0021202005F081FE72E07B68404AC4
:1055D000934208D10121402005F078FE00214020AF
:1055E00005F074FE65E07B683A4A934208D10121D8
:1055F000802005F06BFE0021802005F067FE58E05A
:105600007B68354A93420AD101214FF4807005F03E
:105610005DFE00214FF4807005F058FE49E07B6884
:105620002E4A93420AD101214FF4803005F02EFE1C
:1056300000214FF4803005F029FE3AE07B68284ACB
:1056400093420AD101214FF4003005F01FFE0021E2
:105650004FF4003005F01AFE2BE07B68214A93429C
:105660000AD101214FF4802005F010FE00214FF4F3
:10567000802005F00BFE1CE07B681B4A93420AD198
:1056800001214FF4007005F021FE00214FF400705D
:1056900005F01CFE0DE07B68144A934209D10121FC
:1056A0004FF4002005F0F2FD00214FF4002005F03A
:1056B000EDFD00BF0837BD4680BD00BF00040040BF
:1056C00000080040000C00400010004000140040A2
:1056D00000180040001C0040002000400040014035
:1056E0000044014000480140009C0040005C014033
:1056F00080B485B000AF786039600023FB817B689F
:105700001B88FB817B68B3F1804F0FD07B68294AEF
:1057100093420BD07B68284A934207D07B68274A84
:10572000934203D07B68264A934208D1FB8923F039
:105730007003FB813B685A88FB891343FB817B68BC
:10574000204A934210D07B681F4A93420CD07B685A
:105750001E4A934208D0FB8923F44073FB813B68C7
:105760001A89FB891343FB817B68FA891A803B689D
:105770005A687B68DA623B681A887B681A857B689E
:10578000134A934207D07B68124A934203D07B6846
:10579000114A934204D13B689B7A9AB27B681A867D
:1057A0007B6801229A8200BF1437BD465DF8047BF6
:1057B000704700BF0004004000080040000C00409B
:1057C000005C01400010004000140040009C0040BC
:1057D00000400140004401400048014080B483B0D3
:1057E00000AF78600B467B8013463B807B687A88ED
:1057F0001A857B683A889A8200BF0C37BD465DF8EF
:10580000047B704780B483B000AF786039607B68F8
:105810003A685A6200BF0C37BD465DF8047B70479A
:1058200080B483B000AF786039607B683A68DA6230
:1058300000BF0C37BD465DF8047B704780B483B071
:1058400000AF78600B46FB70FB78002B08D07B68BC
:105850001B889BB243F001039AB27B681A8007E071
:105860007B681B889BB223F001039AB27B681A8085
:1058700000BF0C37BD465DF8047B704780B483B031
:1058800000AF786039607B683A685A6300BF0C37B4
:10589000BD465DF8047B704780B483B000AF78608C
:1058A00039607B683A689A6300BF0C37BD465DF883
:1058B000047B704780B582B000AF786039603B6888
:1058C0001B88002B0FD13B6859883B689A883B683E
:1058D0001B89786800F04AF93B68DB8819467868CC
:1058E00000F060F836E03B681B88042B0FD13B6862
:1058F00059883B689A883B681B89786800F079F979
:105900003B68DB881946786800F068F822E03B685D
:105910001B88082B0FD13B6859883B689A883B68E5
:105920001B89786800F0B2F93B68DB881946786813
:1059300000F072F80EE03B6859883B689A883B6833
:105940001B89786800F0EAF93B68DB8819467868BB
:1059500000F07EF800BF0837BD4680BD80B483B03C
:1059600000AF78607B685B6B18460C37BD465DF80E
:10597000047B704780B483B000AF78607B689B6B1A
:1059800018460C37BD465DF8047B704780B483B081
:1059900000AF78607B681B6C18460C37BD465DF81D
:1059A000047B704780B483B000AF78600B467B8087
:1059B0007B681B8B9BB223F00C039AB27B681A8323
:1059C0007B681B8B9AB27B8813439AB27B681A83DD
:1059D00000BF0C37BD465DF8047B704780B483B0D0
:1059E00000AF78600B467B807B681B8B9BB223F4F7
:1059F00040639AB27B681A837B681B8B9AB27B8860
:105A00001B029BB213439AB27B681A8300BF0C3708
:105A1000BD465DF8047B704780B483B000AF78600A
:105A20000B467B807B689B8B9BB223F00C039AB266
:105A30007B689A837B689B8B9AB27B8813439AB26C
:105A40007B689A8300BF0C37BD465DF8047B7047C6
:105A500080B483B000AF78600B467B807B689B8B03
:105A60009BB223F440639AB27B689A837B689B8BDA
:105A70009AB27B881B029BB213439AB27B689A83CB
:105A800000BF0C37BD465DF8047B704780B483B01F
:105A900000AF78600B467B8013467B707B78002BD1
:105AA00008D07B689B899AB27B8813439AB27B6843
:105AB0009A8109E07B689B899AB27B88DB439BB221
:105AC00013409AB27B689A8100BF0C37BD465DF8DF
:105AD000047B704780B483B000AF78600B467B8056
:105AE0007B88DB439AB27B681A8200BF0C37BD46C5
:105AF0005DF8047B704780B485B000AF78600B46DA
:105B00007B800023FB730023BB8100237B817B68A8
:105B10001B8A9AB27B881340BB817B689B899AB2AF
:105B20007B8813407B81BB89002B05D07B89002BB0
:105B300002D00123FB7301E00023FB73FB7B1846BB
:105B40001437BD465DF8047B704780B483B000AF66
:105B500078600B467B807B88DB439AB27B681A8235
:105B600000BF0C37BD465DF8047B704780B487B03A
:105B700000AFF860084611461A4603467B810B4683
:105B80003B811346FB800023FB820023BB82FB6822
:105B90001B8C9BB223F001039AB2FB681A84FB684A
:105BA0001B8BFB82FB681B8CBB82FB8A23F0F303FD
:105BB000FB82FB881B019AB23B8913439AB2FB8A92
:105BC0001343FB82BB8A23F00A03BB827A89BB8A18
:105BD00013439BB243F00103BB82FB68FA8A1A832A
:105BE000FB68BA8A1A8400BF1C37BD465DF8047B87
:105BF000704780B487B000AFF860084611461A4677
:105C000003467B810B463B811346FB800023FB82CE
:105C10000023BB8200237B82FB681B8C9BB223F09A
:105C200010039AB2FB681A84FB681B8BFB82FB682B
:105C30001B8CBB827B891B017B82FB8A23F4407314
:105C40001B051B0DFB82FB881B039AB2FB8A1343C7
:105C5000FB823B891B029AB2FB8A1343FB82BB8AFD
:105C600023F0A003BB827A8ABB8A13439BB243F022
:105C70001003BB82FB68FA8A1A83FB68BA8A1A840B
:105C800000BF1C37BD465DF8047B704780B487B009
:105C900000AFF860084611461A4603467B810B4662
:105CA0003B811346FB800023FB820023BB82002341
:105CB0007B82FB681B8C9BB223F480739AB2FB68D7
:105CC0001A84FB689B8BFB82FB681B8CBB827B89E5
:105CD0001B027B82FB8A23F0F303FB82FB881B0100
:105CE0009AB23B8913439AB2FB8A1343FB82BB8A65
:105CF00023F42063BB827A8ABB8A13439BB243F4AA
:105D00008073BB82FB68FA8A9A83FB68BA8A1A841A
:105D100000BF1C37BD465DF8047B704780B487B078
:105D200000AFF860084611461A4603467B810B46D1
:105D30003B811346FB800023FB820023BB820023B0
:105D40007B82FB681B8C9BB223F480539AB2FB6866
:105D50001A84FB689B8BFB82FB681B8CBB827B8954
:105D60001B037B82FB8A23F440731B051B0DFB8204
:105D70003B891B029AB2FB8A1343FB82FB881B03FD
:105D80009AB2FB8A1343FB82BB8A23F400735B0441
:105D90005B0CBB827A8ABB8A13439BB243F4805369
:105DA000BB82FB68FA8A9A83FB68BA8A1A8400BFAE
:105DB0001C37BD465DF8047B704780B485B000AFEA
:105DC000786008E040F65843FB6000BFFB685A1E4D
:105DD000FA60002BFAD17B685A1E7A60002BF1D151
:105DE00000BF00BF1437BD465DF8047B704780B428
:105DF00087B000AF786001233B610023FB607B68C4
:105E00001B78002B01D100233DE07B681B782D2BF4
:105E100006D14FF0FF333B617B6801337B6006E0C6
:105E20007B681B782B2B02D17B6801337B600023BE
:105E30007B611FE07B681B78002B1FD07B681B7881
:105E4000392B03D87B681B782F2B01D800231AE04D
:105E5000FA6813469B0013445B00FB607B681B7869
:105E6000303BFA681344FB607B6801337B607B69DD
:105E700001337B617B69092BDCDD00E000BFFB683F
:105E80003A6902FB03F318461C37BD465DF8047BF4
:105E90007047000000000000B0B58AB000AF786025
:105EA00001233B620023FB610023BB614FF0000232
:105EB0004FF00003C7E904234FF00002994BC7E9F4
:105EC00002237B681B78002B04D14FF000024FF0B7
:105ED000000372E17B681B782D2B06D14FF0FF3356
:105EE0003B627B6801337B6014E07B681B782B2B63
:105EF00003D17B6801337B600CE07B681B78392B16
:105F000003D87B681B782F2B04D84FF000024FF08A
:105F1000000352E10023FB6100237B6251E07B68B8
:105F20001B78002B09D1FB693A6A02FB03F3184680
:105F300008F02EFC02460B463FE17B681B782E2BB7
:105F400008D17B6801337B60FB693A6A02FB03F38B
:105F5000FB613AE07B681B78452B03D07B681B789C
:105F6000652B0FD17B6801337B60FB693A6A02FBCA
:105F700003F3FB61F86908F00BFC02460B46C7E926
:105F800004239FE07B681B78392B03D87B681B7840
:105F90002F2B04D84FF000024FF000030DE1FA69F7
:105FA00013469B0013445B00FB617B681B78303B0E
:105FB000FA691344FB617B6801337B607B6A0133C0
:105FC0007B627B6A092BAADD00BF0023BB614FF017
:105FD0000002544BC7E9022300237B626EE07B681A
:105FE0001B78002B19D1BB693A6A02FB03F3BB6132
:105FF000F86908F0CDFB04460D46B86908F0C8FB07
:10600000D7E9022308F058FD02460B4620462946F0
:1060100008F072FA02460B46CFE07B681B78452BEE
:1060200003D07B681B78652B1ED17B6801337B60B6
:10603000BB693A6A02FB03F3BB61F86908F0A8FB8D
:1060400004460D46B86908F0A3FBD7E9022308F01F
:1060500033FD02460B462046294608F04DFA02461B
:106060000B46C7E904232DE07B681B78392B03D846
:106070007B681B782F2B04D84FF000024FF00003F1
:106080009BE0BA6913469B0013445B00BB617B68CD
:106090001B78303BBA691344BB614FF00002224BBE
:1060A000D7E9020108F0DEFB02460B46C7E90223EE
:1060B0007B6801337B607B6A01337B627B6A092BDF
:1060C0008DDD00BF4FF00002164BC7E9022300230D
:1060D000FB6101233B627B681B782D2B06D14FF0BF
:1060E000FF333B627B6801337B6006E07B681B7893
:1060F0002B2B02D17B6801337B6000237B6227E07E
:106100007B681B78002B27D07B681B78392B03D842
:106110007B681B782F2B09D84FF000024FF000034B
:106120004BE000BF0000F03F00002440FA69134636
:106130009B0013445B00FB617B681B78303BFA6972
:106140001344FB617B6801337B607B6A01337B62B4
:106150007B6A022BD4DD00E000BF00237B621CE0E1
:106160003B6A012B0BD14FF000021B4BD7E9020118
:1061700008F078FB02460B46C7E902230AE014A3A5
:10618000D3E90023D7E9020108F06CFB02460B4675
:10619000C7E902237B6A01337B627A6AFB699A4210
:1061A000DEDBD7E90223D7E9040108F05BFB0246F6
:1061B0000B46C7E90423D7E9042343EC172BB0EEC1
:1061C000470AF0EE670A2837BD46B0BDAFF300803E
:1061D0009A9999999999B93F0000244080B489B05F
:1061E00000AFF860B9601346FB71BB68BB61012367
:1061F000FB6122E0BA69184BA3FB0213D9080B46D6
:106200009B000B445B00D31A7B617B69DAB2F9799E
:10621000FB69CB1A1946FB680B443032D2B21A70B4
:10622000BA697B69D31ABB61BB690B4AA2FB032322
:10623000DB08BB61FB690133FB61FB79FA699A42B8
:10624000D8DDFB79FA68134400221A7000BF2437A6
:10625000BD465DF8047B7047CDCCCCCC80B489B012
:1062600000AFF860B9601346FB71BB68002B06DA1B
:10627000FB682D221A70BB685B42BB6104E0FB68BF
:106280002B221A70BB68BB610023FB6122E0BA6954
:10629000184BA3FB0213D9080B469B000B445B0071
:1062A000D31A7B617B69DAB2F979FB69CB1A19469B
:1062B000FB680B443032D2B21A70BA697B69D31AC8
:1062C000BB61BB690B4AA2FB0323DB08BB61FB6913
:1062D0000133FB61FB79FA699A42D8DBFB79013320
:1062E000FA68134400221A7000BF2437BD465DF8D7
:1062F000047B7047CDCCCCCC80B58AB000AFF860C1
:1063000087ED000B0B46FB724FF000024FF00003CD
:10631000D7E9000108F00EFD0346002B06D0FB680C
:10632000AF491A460B461B8813804FE14FF000021D
:106330004FF00003D7E9000108F01AFD0346002BD7
:1063400002D00123FB6102E04FF0FF33FB61F869EB
:1063500008F01EFA02460B46D7E9000108F082FA5F
:1063600002460B46C7E908234FF000029D4BD7E9D0
:10637000080108F007FD0346002B00F0948000237D
:10638000FB760DE04FF00002974BD7E9080108F0CB
:1063900093FB02460B46C7E90823FB7E0133FB76DD
:1063A0004FF00002904BD7E9080108F0EBFC0346E0
:1063B000002BE7D1D7E9080108F02CFD0346BB7696
:1063C000BB7E184608F0D4F902460B46D7E908010F
:1063D00008F090F802460B46C7E90823FB7A1846F6
:1063E00008F0C6F902460B4643EC112B9FED7A0BE1
:1063F00006F056FC51EC100BD7E9082308F032FAEE
:1064000002460B4643EC172BB0EE470AF0EE670A44
:1064100006F062FB53EC102B1046194608F0FAFC0C
:1064200003467B61BB7EFA6902FB03F30122194636
:10643000F868FFF713FFFB680233FB60F86809F0A8
:106440007FF803461A46FB68134468491A460B4610
:106450001B881380FB680133FB60FB7A1A4679695D
:10646000F868FFF7BBFEFB7AFA681344FB60F86834
:1064700009F066F803461A46FB6813445C4A118823
:10648000927819809A70FB680233FB60FB7E0222CF
:106490001946F868FFF7A2FEFB680233FB60FB6851
:1064A00000221A7092E00023FB760DE04FF000020C
:1064B0004D4BD7E9080108F0D5F902460B46C7E96C
:1064C0000823FB7E0133FB764FF00002454BD7E9F2
:1064D000080108F039FC0346002BE7D1D7E9080191
:1064E00008F098FC0346BB76BB7E184608F040F9DE
:1064F00002460B46D7E9080107F0FCFF02460B46AF
:10650000C7E90823FB7A184608F032F902460B4621
:1065100043EC112B9FED300B06F0C2FB51EC100B3E
:10652000D7E9082308F09EF902460B4643EC172BE7
:10653000B0EE470AF0EE670A06F0CEFA53EC102BE5
:106540001046194608F066FC03467B61BB7EFA697B
:1065500002FB03F301221946F868FFF77FFEFB6890
:106560000233FB60F86808F0EBFF03461A46FB684D
:1065700013441E491A460B461B881380FB680133DF
:10658000FB60FB7A1A467969F868FFF727FEFB7A09
:10659000FA681344FB60F86808F0D2FF03461A4615
:1065A000FB681344134A1188927819809A70FB682B
:1065B0000233FB60FB7E02221946F868FFF70EFEED
:1065C000FB680233FB60FB6800221A702837BD4667
:1065D00080BD00BFAFF30080000000000000244039
:1065E000586101080000F03F000024405C61010890
:1065F000606101086461010880B487B000AFF86091
:10660000B9601346FB71BB683B6101237B6124E0E9
:10661000FA797B69D31A9B00BA6822FA03F33B61CB
:106620003B6903F00F033B613B69092B09D83B69C8
:10663000DAB27B69013BF9680B443032D2B21A708E
:1066400008E03B69DAB27B69013BF9680B443732F9
:10665000D2B21A707B6901337B61FB797A699A4205
:10666000D6DDFB79FA68134400221A7000BF1C378C
:10667000BD465DF8047B704780B483B000AF78609E
:10668000396002E07B6801337B607B681B78002BFC
:10669000F8D109E03B681A787B681A707B6801338F
:1066A0007B603B6801333B603B681B78002BF1D17A
:1066B0007B6800221A7000BF0C37BD465DF8047B72
:1066C000704780B483B000AF786010E07B681B78BF
:1066D000602B09D97B681B787A2B05D87B681B78DF
:1066E000203BDAB27B681A707B6801337B607B6881
:1066F0001B78002BEAD100BF00BF0C37BD465DF808
:10670000047B704780B483B000AF0346FB71FB7914
:10671000044A03F07F03136000BF0C37BD465DF8E9
:10672000047B7047002C004080B483B000AF034668
:10673000FB71FB7963F07F03DAB2044B1A6000BF90
:106740000C37BD465DF8047B704700BF002C00404D
:1067500080B582B000AF78607B68154A93420AD159
:1067600001214FF0807004F091FD00214FF0807006
:1067700004F08CFD18E07B680E4A93420AD1012197
:106780004FF0007004F082FD00214FF0007004F023
:106790007DFD09E001214FF0806004F077FD0021CC
:1067A0004FF0806004F072FD00BF0837BD4680BD29
:1067B000006001400064014080B487B000AFF86021
:1067C000B9607A6000237B61FB6820337B61BB6822
:1067D0009B007A6913447B617B681A687B685B68FD
:1067E0001A437B689B6842EA03017B68DA687B692D
:1067F0000A431A6000BF1C37BD465DF8047B704732
:1068000080B487B000AFF860B9607A6000237B6124
:10681000BB680D4A93420DD0BB681B0C7B61FB68C3
:106820001A6C7B699B00796801FA03F31A43FB68D1
:106830001A6402E0FB687A685A6400BF1C37BD46E0
:106840005DF8047B704700BF0001080080B483B08E
:1068500000AF78600B46FB70FB78002B06D07B689E
:106860005B6843F001027B685A6005E07B685B6807
:1068700023F001027B685A6000BF0C37BD465DF80B
:10688000047B704780B483B000AF78600B46FB7028
:10689000FB78002B06D07B681B6843F000427B68C6
:1068A0001A6005E07B681B6823F000427B681A6071
:1068B00000BF0C37BD465DF8047B704780B485B0DF
:1068C00000AF7860094B1B68FB60FB6823F44073E2
:1068D000FB60FA687B681343FB60044AFB68136043
:1068E00000BF1437BD465DF8047B7047006001406F
:1068F00080B485B000AF786039607B685B68FB600E
:10690000FB6823F00603FB60FA683B681343FB60F7
:106910007B68FA685A6000BF1437BD465DF8047B97
:10692000704780B483B000AF78607B685B6843F0E9
:1069300010027B685A6000BF0C37BD465DF8047BCF
:10694000704780B483B000AF78607B685B6843F4C5
:1069500000427B685A6000BF0C37BD465DF8047B7F
:10696000704780B483B000AF786039603B689AB2FA
:106970007B685A6100BF0C37BD465DF8047B7047E9
:1069800080B483B000AF78600B46FB70FB78002BBF
:1069900006D07B685B6843F020027B685A6005E0A4
:1069A0007B685B6823F020027B685A6000BF0C376D
:1069B000BD465DF8047B704780B485B000AF786059
:1069C00039600023FB607B681B6EFB60FB681B0A61
:1069D0001B0C1B04FA68120E012101FA02F21A4381
:1069E0003B681A60FB681BB218461437BD465DF859
:1069F000047B704780B483B000AF78600B46FB70B7
:106A0000FB78002B06D07B681B6843F480627B68B0
:106A10001A6005E07B681B6823F480627B681A605B
:106A200000BF0C37BD465DF8047B704780B485B06D
:106A300000AFF860B9601346FB71FB79002B06D0FC
:106A4000FB681A68BB681A43FB681A6006E0FB68BB
:106A50001A68BB68DB431A40FB681A6000BF143732
:106A6000BD465DF8047B704780B485B000AF7860A8
:106A700039600023FB737B689A683B681340002BE6
:106A800002D00123FB7301E00023FB73FB7B18465C
:106A90001437BD465DF8047B704780B483B000AF07
:106AA000786039607B68DA683B681A437B68DA6033
:106AB00000BF0C37BD465DF8047B704780B582B0DF
:106AC00000AF01214FF4003004F080FB01233B7143
:106AD0000023BB7102237B710123FB7120233B60E8
:106AE0003B4619464FF0904005F0DAFC20214FF06C
:106AF000904005F096FD00BF0837BD4680BD000000
:106B0000B0B588B000AFCC4B1B78002B00F076817D
:106B1000CA4B1B79002B00F07381C74BB3F94A3085
:106B200007EE903AB8EEE77ADFEDC56AC7EE267A4F
:106B3000C7ED077AC14BB3F90E3007EE903AB8EEC5
:106B4000E77AF2EE046AC7EE267AC7ED067ABB4B07
:106B5000B3F9143007EE903AB8EEE77ADFEDB86A91
:106B6000C7EE267AC7ED057AF86907F023FE0446DA
:106B70000D46B86907F01EFE02460B464FF00000B6
:106B8000B04907F0B7FC02460B46104619464FF0D5
:106B90000002AD4B07F090FF02460B462046294607
:106BA00007F0A8FC02460B461046194608F052F9B9
:106BB00003463B61386907F0FDFD93A3D3E9002349
:106BC00007F07AFF02460B461046194608F042F9D4
:106BD0000346FB60D7ED077A9FED9C7A67EE877AD4
:106BE000C7ED027AB86807F0E5FD04460D46F8697E
:106BF00007F0E0FD86A3D3E9002307F07DFC024601
:106C00000B462046294607F057FF02460B46104622
:106C1000194608F01FF90346BB60B86807F0CAFDC3
:106C200002460B4643EC102B05F0A6FF53EC102B4D
:106C30001046194608F00EF90346BB60B86807F025
:106C4000B9FD75A3D3E9002307F00CFE02460B46FD
:106C50001046194608F0FEF80346BB6097ED067A29
:106C6000D7ED027A67EE277A17EE900A07F0A2FDB9
:106C70006BA3D3E9002307F0F5FD02460B4610464F
:106C8000194608F0E7F803467B60786807F092FD44
:106C90004FF000026B4B07F0E5FD02460B46104635
:106CA00019464FF000026A4B07F006FF02460B46FA
:106CB0001046194608F0CEF803463B61386907F0E4
:106CC00079FD02460B4643EC102B05F0A5FF53EC73
:106CD000102B1046194608F0BDF803463B61386991
:106CE00007F068FD50A3D3E9002307F0BBFD02467F
:106CF0000B461046194608F0ADF803463B6178682C
:106D000007F058FD4FF000024E4B07F0ABFD024676
:106D10000B46104619464FF000024D4B07F0CCFED3
:106D200002460B4643EC172BB0EE470AF0EE670A1B
:106D300005F072FF53EC102B3DA1D1E9000107F0E3
:106D4000D9FB02460B4614461D46386907F032FD52
:106D500022462B4607F0B0FE02460B461046194667
:106D600008F078F803463B61386907F023FD26A355
:106D7000D3E9002307F0A0FE02460B461046194651
:106D800008F068F80346FB60F86807F013FD044656
:106D90000D46F86907F00EFD4FF000024FF08043FA
:106DA00007F0A8FB02460B462046294607F0E0FF05
:106DB0000346002B1CD0F86807F0FCFC04460D4687
:106DC000786907F0F7FC4FF000024FF0804307F0BE
:106DD00091FB02460B462046294607F0C9FF0346B1
:106DE000002B05D020214FF0904005F00BFC08E06F
:106DF00020214FF0904005F014FC02E000BF00E0BD
:106E000000BF2037BD46B0BD9A9999999999F13F35
:106E1000E17A14AE47616E40C7BAB88D067018406B
:106E20007B14AE47E17A843F9A99999999A96D406C
:106E300052EFA99CF6443140780E002060340020C7
:106E40000000C842000059400000144000008D417D
:106E50000018834080B500AF154B1B78002B22D063
:106E6000144B1B79002B20D0124BB3F9103013F5C3
:106E70007A7F0FDD0F4BB3F90E3040F2B6329342FA
:106E800008DD20214FF0904005F0BCFB0A4B0122A9
:106E90005A700BE020214FF0904005F0C2FB064BEA
:106EA00000225A7002E000BF00E000BF80BD00BFBA
:106EB000780E002060340020700E002080B582B073
:106EC00000AF7860FFF7FAFD054B93F84D30194697
:106ED000786800F02EF800BF0837BD4680BD00BFBF
:106EE000C00D002080B582B000AF7860082004F0AB
:106EF00015FD0346012B16D07B689B78012B14D01F
:106F00007B681B78022B02D1FFF7FAFD05E07B6856
:106F10001B78032B01D1FFF79DFF4FF47A710820F6
:106F200004F0DAFC02E000BF00E000BF0837BD4615
:106F300080BD80B582B000AF78600B46FB70FB78F7
:106F4000002B02D0012B0CD017E020214FF09040F5
:106F500005F067FB7B6801229A707B6800225A70FB
:106F600017E020214FF0904005F04CFB7B68012298
:106F70009A707B6801225A700BE020214FF09040FC
:106F800005F04FFB7B6800229A707B6800225A70E4
:106F900000BF7B68FA781A7000BF0837BD4680BD15
:106FA00080B582B000AF01214FF4003004F00EF93B
:106FB00001214FF4003004F009F901214FF40030B1
:106FC00004F004F900233B7103237B710023FB7160
:106FD00010233B603B4619464FF0904005F060FAA5
:106FE00002233B603B4619464FF0904005F058FAAB
:106FF00001233B603B4619464FF0904005F050FAA4
:1070000000BF0837BD4680BD80B586B000AF1848C8
:10701000FEF78AFA0121082004F018F9002114482B
:10702000FEF70CFC0123BB810023BB820023FB8104
:107030004FF0FF333B6107F10C0319460C48FEF794
:1070400057FB0C233B8000237B800123BB80002364
:10705000FB8000233B813B4619460548FEF72AFC8E
:1070600000210348FEF7CEFB00BF1837BD4680BDA8
:10707000000C004080B586B000AF0121012004F073
:10708000C5F800233B6130237B600C237B614FF408
:10709000C063BB600023FB603B1D1946002005F068
:1070A00069F9002005F0DEF90121002005F094F9CE
:1070B00000BF1837BD4680BD80B58AB000AF03461B
:1070C000FB71032387F82430002387F8273001233E
:1070D00087F8263002233B6207F1200319464FF060
:1070E000904005F0DDF94FF44053BB610023FB6194
:1070F0004FF4C0633B6100237B613023FB60FB796D
:10710000032B17D801A252F823F000BF1D7100080D
:1071100023710008297100082F7100083023FB60DB
:1071200008E02023FB6005E01023FB6002E0002361
:10713000FB6000BF07F10C031946002005F01AF9A7
:107140000121002005F048F900BF2837BD4680BD69
:1071500080B582B000AF00233B7103237B71012314
:10716000BB710023FB7101233B603B4619464FF086
:10717000904005F095F901233B7103237B710023B7
:10718000BB710123FB7110233B603B4619464FF056
:10719000904005F085F910214FF0904005F032FA4B
:1071A00000BF0837BD4680BD80B582B000AF002368
:1071B0003B7103237B710123BB710023FB711023FF
:1071C0003B603B4619464FF0904005F069F90123BA
:1071D0003B7103237B710023BB710123FB710123EE
:1071E0003B603B4619464FF0904005F059F90121AC
:1071F0004FF0904005F006FA00BF0837BD4680BD4D
:1072000080B582B000AF01233B7102237B71012363
:10721000BB710023FB7101233B603B4619464FF0D5
:10722000904005F03DF901214FF0904005F0F9F94B
:1072300001233B7102237B710123BB710023FB718E
:1072400010233B603B4619464FF0904005F028F96B
:1072500010214FF0904005F0E4F901233B71022327
:107260007B710023BB710123FB7102233B603B4612
:1072700019464FF0904005F013F902214FF090406D
:1072800005F0CFF900BF0837BD4680BDB0B584B06A
:1072900000AF78607B68DB68184607F069FA024641
:1072A0000B46C7E902237B68D3E906234FF00000B1
:1072B000324907F01FF902460B4610461946D7E936
:1072C000022307F0CFFA02460B4614461D467B68A0
:1072D0005B68184607F04CFA7B68D3E9062307F091
:1072E000C1FA02460B462046294607F005F9024638
:1072F0000B46C7E90223D7E9020107F08BFD0246DE
:107300007B68DA607B681B69184607F031FA024631
:107310000B46C7E902237B68D3E908234FF000003E
:10732000164907F0E7F802460B4610461946D7E91A
:10733000022307F097FA02460B4614461D467B6867
:107340009B68184607F014FA7B68D3E9082307F016
:1073500089FA02460B462046294607F0CDF8024638
:107360000B46C7E90223D7E9020107F053FD0246A5
:107370007B681A6100BF1037BD46B0BD0000F03F0A
:1073800080B58AB000AF78607B68DB68184607F08C
:10739000EFF902460B46C7E908237B681B691846CC
:1073A00007F0E6F902460B46C7E9062322A3D3E914
:1073B0000023C7E90423D7E90623D7E9040107F02E
:1073C00051FA02460B46C7E90423D7E90823D7E957
:1073D000040107F071FB02460B46C7E904237968F4
:1073E000D7E90423C1E90C237B68D3E91023D7E94B
:1073F000040107F037FA02460B46C7E902237B680F
:10740000D3E91001D7E9042307F074F802460B46CC
:10741000D7E9020107F050FB02460B46C7E90223F9
:107420007968D7E90223C1E90A2300BF2837BD469E
:1074300080BD00BFAFF300800000000080B0EF40CF
:1074400080B586B000AF78604FF000024FF00003C7
:10745000C7E904234FF000024FF00003C7E90223FD
:107460007B68D3E90A23C7E9022329A3D3E90023D0
:10747000D7E9020107F072FC0346002B2FD026A3A8
:10748000D3E90023C7E9042325A3D3E90023D7E9DF
:10749000020107F0E7F902460B46D7E9040107F0BD
:1074A0002BF802460B46C7E904231FA3D3E90023A8
:1074B000D7E9020107F0D6F902460B4610461946F5
:1074C000D7E9022307F0CEF902460B46D7E90401BB
:1074D00007F012F802460B46C7E9042305E04FF017
:1074E00000024FF00003C7E90423D7E90423D7E9DA
:1074F000020107F001F802460B46C7E9022379684A
:10750000D7E90223C1E90E2300BF1837BD4680BD6D
:1075100000000000006AD840CB10C7BAB8615EC056
:10752000B1DE45EBEA86843FF414E5C42C0E8CBE34
:10753000B0B588B000AF78607B6893ED0E7BB0EE9D
:10754000470AF0EE670A05F067FB87ED060B7B68DC
:10755000D3E914457B68D3E91601D7E9062307F080
:1075600081F902460B462046294606F0C5FF024631
:107570000B4614461D467B68D3E91801D7E906235C
:1075800007F070F902460B4610461946D7E9062364
:1075900007F068F902460B462046294606F0ACFF84
:1075A00002460B4614461D467B68D3E91A01D7E90B
:1075B000062307F057F902460B4610461946D7E94D
:1075C000062307F04FF902460B4610461946D7E945
:1075D000062307F047F902460B462046294606F0E7
:1075E0008BFF02460B464FF00000144907F064FA87
:1075F00002460B46C7E904234FF00002104BD7E9BF
:10760000040107F02FF902460B461046194607F011
:10761000D9FB0346FB81FA897B68A3F84820FB89E4
:10762000A3F5D543333B9BB2FB817B68FA89A3F872
:107630004A2000BF2037BD46B0BD00BF0000F03F6C
:10764000000059400000000080B582B000AF7860B3
:107650007B6801221A707B6800225A7079684FF0AB
:1076600000024FF00003C1E90A237B68284A5A60F0
:107670007B6800229A6079684FF00002254BC1E9CF
:10768000062379684FF00002224BC1E90823224B00
:10769000D3E902237968C1E914231F4BD3E90423FA
:1076A0007968C1E916231C4BD3E906237968C1E93F
:1076B0001823194BD3E908237968C1E91A23164B1B
:1076C0009B6A184607F054F802460B467968C1E9F0
:1076D0001023FFF765FCFFF797FCFFF7CBFCFFF7E4
:1076E0008FFD796808A3D3E90023C1E906237968EF
:1076F00005A3D3E90023C1E9082300BF0837BD462D
:1077000080BD00BFAFF300809A9999999999B93FCC
:10771000C02709000000F03FC00D002080B582B0F6
:1077200000AF7860042004F0F9F80346012B00F064
:10773000A2807B681B78013B052B00F2A18001A28F
:1077400052F823F05D77000877770008A1770008EA
:10775000DF770008097800083F7800087B6802227C
:107760001A707B6800225A70FFF74AFD0A21042034
:1077700004F0B2F884E00020FFF79EFC00214248AC
:10778000FEF740F801214048FEF758F8FFF7E0FC0B
:107790007B6803221A700221042004F09DF86FE038
:1077A000002004F03FFE0346B3F5804F65D1364814
:1077B000FEF7ECF80346354A1360344B1A687B68D1
:1077C0005A6000213048FEF739F87B6804221A70AD
:1077D000FFF716FD0A21042004F07EF84DE000209A
:1077E000FFF76AFC00212848FEF70CF80121264823
:1077F000FEF724F8FFF7D8FC7B6805221A700221F7
:10780000042004F069F83BE0002004F00BFE03467E
:10781000B3F5804F33D11C48FEF7B8F803461B4A36
:1078200013601A4B1A687B689A6000211648FEF7AD
:1078300005F8FFF7E5FC7B6806221A701FE07B68FD
:107840005B78002B0CD17868FFF720FD7868FFF794
:1078500097FD7868FFF7F4FD7868FFF769FE02E0AE
:107860000B48FAF721FE7B6801221A7002210420DE
:1078700004F032F804E000BF02E000BF00E000BF07
:107880000837BD4680BD00BF000C0040E80E002058
:10789000686101080000000080B584B000AF786026
:1078A0007B68D3E90C23C7E9022318A3D3E900239B
:1078B000D7E9020107F066FA0346002B09D115A3A8
:1078C000D3E90023D7E9020107F03EFA0346002B73
:1078D00003D07B6801225A700FE07B6800225A7047
:1078E0007968D7E90223C1E91023D7E9020107F03B
:1078F00091FA0346044A936200BF00BF1037BD46A9
:1079000080BD00BFAFF30080C00D0020000000006C
:10791000C0202F41000000005E362E4180B500AF30
:10792000FDF7A2FCFCF772FD03F0DAFEB54B9B6895
:10793000B44A43F48053936045F2555001F058FC2B
:10794000042001F065FC01F081FC01220F21AE480A
:10795000FCF7DAFDFAF7EEFCAC48FAF7A5FDAC4807
:10796000FAF7A2FDAB48FAF79FFDAB4B1B78012B52
:1079700003D1AA48FAF798FD02E0A948FAF794FD66
:1079800001F056FCA748FBF7B5FDA748FFF75CFEE2
:10799000A64803F0ADF9A64804F0D8FEA548FCF7C8
:1079A00049F8A548FFF78AFA01F0C4F8A34B1B7801
:1079B000002B0AD103220F219348FCF7A5FD01F00B
:1079C00037FC9F48FAF7D4FCF9E79E4804F088FAA0
:1079D00001F02EFC00BF9C4B1A889B4B5B889A429F
:1079E000F9D102F04DF9994802F051FB984B1B7800
:1079F0001846FDF76DFA02F069F901F019FC954897
:107A000001F0BCFC9448FAF74FFD002200217E48AB
:107A1000FCF77AFD0020FCF793FD01217A48FCF782
:107A20005DFD01F005FC8D4B1B78012B1CD18B4BB0
:107A300000221A708A4B1B781A4613465B001344C7
:107A40001B01874A134404331846FDF76DFA844B33
:107A50001B7801335A4203F0030302F0030258BFBC
:107A60005342DAB27E4B1A706F48FFF757FE01F0AF
:107A7000DDFA7348FAF77CFC03F0A0FE6948FBF7D7
:107A8000CFFD6A4803F076F9694804F0ADFE694815
:107A9000FCF700F86848FFF725FA724B1B78012BBA
:107AA00013D1704B00221A70694B1B78012B0CD13B
:107AB0006B4B1B7801335A4203F0030302F00302BD
:107AC00058BF5342DAB2664B1A70674B1B78012BD2
:107AD00040F08280644B00221A705D4B1B78012BB2
:107AE0006AD1FDF7A9FB1221604802F041FA142186
:107AF0005F4802F03DFA554B5022A3F838234DE081
:107B0000524B1B781946514A522301FB03F313448D
:107B100003331B781A464D4BB3F938339A4244DC91
:107B20004A4BB3F938339AB2484B1B781846474949
:107B3000522300FB03F30B4403331B789BB2D31A8D
:107B40009BB21AB2414BA3F83823404B1B781A461C
:107B5000522302FB03F33D4A13441A1D3B4B1B788F
:107B600018463A49522300FB03F30B4403331B78B6
:107B70009BB21946104602F0FBF9344B1B785A1C95
:107B80003C4B83FB02139910D317C91A0B469B0079
:107B90000B445B00D11ACAB22C4B1A702B4B1A78CB
:107BA0002A4B5B789A42ABD100E000BF324B1B8876
:107BB00001339AB2304B1A80FAF7E6FC254801F0FF
:107BC00013FC2E4B1B780133002B03F00103B8BFCD
:107BD0005B42DAB2294B1A701C4B93F83733002BF7
:107BE0003FF41FAF194802F0EBFB0346012B7FF671
:107BF00018AF164B002283F837231120FAF792FCB6
:107C00000FE700BF002004E04C0C00207461010865
:107C10000800002094610108040000209861010818
:107C2000BC6101080C0C0020780E0020603400209C
:107C3000B8340020400C0020700E0020680F002097
:107C4000040B0020AC340020000A00202431002066
:107C500017000020642F0020E86101080C3000208C
:107C6000502C0020F4130020F5130020A80D002054
:107C7000940D002067666666BA0D0020142D002062
:107C800080B485B000AF78600B46FB701346BB70C4
:107C90000023FB810023BB81FB78BB600EE0BB6847
:107CA0007A6813441B789AB2FB891344FB81BA8922
:107CB000FB891344BB81BB680133BB60BB78BA68E6
:107CC0009A42ECDDBB891B021AB2B7F90E3013439E
:107CD0001BB29BB218461437BD465DF8047B704753
:107CE00080B58AB000AF01214FF4003003F06EFA86
:107CF00001214FF4003003F0A9FA0C23BB600223EA
:107D00003B7303237B730023BB730123FB7307F1D6
:107D1000080319464FF0904004F0C2FB07220221ED
:107D20004FF0904004F08CFC072203214FF090406C
:107D300004F086FC4FF416533B6100237B61002363
:107D4000BB610023FB6100237B620C233B6207F1D4
:107D500010031946184801F017FD26233B71012333
:107D6000FB713B1D1846FAF77FFE00228021124866
:107D700001F0F2FD00BF40210F4801F02FFE034645
:107D8000002BF8D001220D490B4801F0E5FD00BFA2
:107D90002021094801F022FE0346002BF8D10749B3
:107DA000054801F092FE0121034801F097FD00BF54
:107DB0002837BD4680BD00BF0044004005010500D6
:107DC00080B485B000AF78607B6800221A807B6841
:107DD00000225A800023FB6008E07A68FB681344A5
:107DE000043300221A70FB680133FB60FB687F2BB1
:107DF000F3DD00BF00BF1437BD465DF8047B70475C
:107E000080B485B000AF78607B6800221A807B6800
:107E100000225A800023FB6008E07A68FB68134464
:107E2000043300221A70FB680133FB60FB68B3F572
:107E3000806FF2DB00BF00BF1437BD465DF8047BE6
:107E40007047000080B582B000AF284B00221A8036
:107E5000264B00225A80254B01221A71234B002207
:107E6000DA80224B002283F80824204B002283F87A
:107E700009241E4B0022A3F80A241C4B0022A3F85D
:107E80000C241A4B0022A3F80E24184B002283F86E
:107E900010240023FB8007E0FB88144A13440022CF
:107EA0001A72FB880133FB80FB88B3F5806FF3D334
:107EB0000123FB8011E0FB880C4A40F20E4101FBDC
:107EC00003F31344094A0433111D40F20E421846CD
:107ED00007F016F8FB880133FB80FB88052BEAD9F5
:107EE00000BF00BF0837BD4680BD00BFF8130020AB
:107EF00080B483B000AF78600B46FB707B685B8812
:107F0000B3F5806F02D37B6801221A707B685B88AF
:107F10001A467B681344FA781A717B681B78013B18
:107F2000072B00F2CA8001A252F823F04D7F00080F
:107F3000757F00089D7F0008B97F0008D57F000885
:107F40003380000861800008B38000087B6800224D
:107F50005A80FB78B52B09D17B685B8801339AB2D4
:107F60007B685A807B6802221A70A6E07B68002238
:107F70005A80A2E0FB78622B09D17B685B880133D1
:107F80009AB27B685A807B6803221A7095E07B68FE
:107F900000225A807B6801221A708EE07B68FA7892
:107FA00083F804247B685B8801339AB27B685A802B
:107FB0007B6804221A7080E07B68FA7883F80524D5
:107FC0007B685B8801339AB27B685A807B680522A4
:107FD0001A7072E07B6893F80C34002B09D1FB789F
:107FE0009AB27B68A3F806247B68012283F80C24EC
:107FF00018E0FB789BB21B029AB27B68B3F8063498
:1080000013449AB27B68A3F806247B68B3F806246D
:108010007B68A3F808247B6806221A707B6800221C
:1080200083F80C247B685B8801339AB27B685A80A2
:1080300043E07B68B3F80834013B9AB27B68A3F84D
:1080400008247B68B3F80834002B02D17B68072230
:108050001A707B685B8801339AB27B685A802CE087
:108060007B6893F80C34002B0FD1FB789AB27B68B5
:10807000A3F80A247B68012283F80C247B685B88C0
:1080800001339AB27B685A8017E0FB789BB21B02DF
:108090009AB27B68B3F80A3413449AB27B68A3F8A7
:1080A0000A247B68002283F80C247B6808221A705B
:1080B00003E07B6800225A8000BF00BF0C37BD463A
:1080C0005DF8047B704700BF80B584B000AF034605
:1080D0000A46FB711346BB710023FB734FF47A71A0
:1080E000062003F0F9FB64E0374B1A88364B5B88B7
:1080F0009A425ED0344B1B881946334A40F20E43F5
:1081000001FB03F3134403F581631B78052B40D176
:108110002D4B1B8819462C4A40F20E4301FB03F3FA
:1081200013440E331B78FA799A4232D1264B1B88BE
:108130001946254A40F20E4301FB03F313440F3363
:108140001B78BA799A4224D11F4B1B8819461E4AC4
:1081500040F20E4301FB03F3134403F209431B787F
:10816000012B02D10123FB7301E00023FB73164BAB
:108170001B885A1C154B83FB0231D317C91A0B46B7
:108180005B000B445B00D11A8AB20F4B1A80FB7B59
:1081900016E00D4B1B885A1C0C4B83FB0231D31786
:1081A000C91A0B465B000B445B00D11A8AB2064B1E
:1081B0001A80062003F0B2FB0346012B94D0FB7B10
:1081C00018461037BD4680BDF8130020ABAAAA2A76
:1081D00080B483B000AF78607B689B7A032B01D0BA
:1081E000002307E07B6893F82E30032B01D800238F
:1081F00000E0012318460C37BD465DF8047B70474C
:1082000080B485B000AF78600023FB737B6803F017
:108210000803002B03D0FB7B43F00103FB737B6857
:1082200003F04003002B03D0FB7B43F00203FB73FE
:108230007B6803F48053002B04D17B6803F4006354
:10824000002B03D0FB7B43F00403FB737B681B0A0A
:1082500003F00703012B03D1FB7B43F00803FB73FF
:108260007B681B0903F00303012B03D0FB7B43F066
:108270001003FB737B681B0A03F00703022B03D96F
:10828000FB7B43F02003FB73FB7B18461437BD4692
:108290005DF8047B7047000080B588B000AFB5235F
:1082A0003B7062237B700623BB700023FB7014239A
:1082B0003B7100237B710123BB710023FB71002301
:1082C0003B7200237B72D023BB720823FB72002316
:1082D0003B7300237B738023BB732523FB73002335
:1082E0003B7400237B740123BB740023FB740123C4
:1082F0003B7500237B750023BB750023FB750023B2
:108300003B7600237B763B46192202211846FFF775
:10831000B7FC0346FB83FB8BDBB2BB76FB8B1B0AF4
:108320009BB2DBB2FB76104B5A880F4B1A803B4650
:108330001C21184600F00CFE00BF0C4B1A880B4B9A
:108340005B889A42F9D14FF4FA71062003F0C4FA1F
:1083500000BF062003F0E2FA0346012BF9D000BF6C
:1083600000BF2037BD4680BDF81300206C0F0020F1
:1083700080B58CB000AFB5233B7162237B710623BF
:10838000BB712423FB7124233B7200237B72FF23E8
:10839000BB72FF23FB7207233B7302237B73002313
:1083A000BB730023FB7300233B7400237B741023F7
:1083B000BB742723FB7400233B7500237B750023CC
:1083C000BB750023FB75FA233B7600237B76FA23EB
:1083D000BB760023FB7664233B7700237B772C233B
:1083E000BB770123FB77002387F820303C2387F8F5
:1083F0002130002387F82230002387F82330002320
:1084000087F82430002387F82530C82387F82630E2
:10841000002387F82730002387F82830002387F8C7
:108420002930002387F82A30002387F82B300023D7
:1084300087F82C30002387F82D30152387F82E304D
:10844000B12387F82F30154B5A88144B1A803B1DE7
:108450002C21184600F07CFD00BF114B1A88104BF0
:108460005B889A42F9D124210620FFF72DFE0346AE
:10847000002B02D10B4B03221A703221062003F08D
:108480002BFA00BF062003F049FA0346012BF9D06E
:1084900000BF00BF3037BD4680BD00BFF8130020CD
:1084A0006C0F0020680F002080B58EB000AFB523A0
:1084B0003B7162237B710623BB712323FB7128234D
:1084C0003B7200237B720023BB720023FB724C23A0
:1084D0003B7366237B730023BB730023FB73002372
:1084E0003B7400237B740023BB740023FB740423C0
:1084F0003B7510237B750623BB750023FB75012399
:108500003B7600237B760023BB760023FB76DC23BF
:108510003B7706237B770023BB770023FB77002381
:1085200087F82030002387F82130002387F8223095
:10853000002387F82330002387F82430002387F8AE
:108540002530002387F82630002387F8273064235E
:1085500087F82830002387F82930002387F82A304D
:10856000002387F82B30002387F82C30002387F86E
:108570002D30002387F82E30002387F82F3000237A
:1085800087F83030002387F831303B1D2D2202213F
:108590001846FFF775FB0346FB86FB8EDBB287F8B8
:1085A0003230FB8E1B0A9BB2DBB287F83330154B9F
:1085B0005A88144B1A803B1D3021184600F0C8FC25
:1085C00000BF114B1A88104B5B889A42F9D12321C6
:1085D0000620FFF779FD0346002B02D10B4B032247
:1085E0001A703221062003F077F900BF062003F04D
:1085F00095F90346012BF9D000BF00BF3837BD46BF
:1086000080BD00BFF81300206C0F0020680F002011
:1086100080B584B000AFB5233B7062237B70062326
:10862000BB700823FB7006233B7100237B71FA2388
:10863000BB710023FB7101233B7200237B7201237A
:10864000BB720023FB7210233B7396237B73154B85
:108650005A88144B1A803B460E21184600F078FCCD
:1086600000BF114B1A88104B5B889A42F9D1082140
:108670000620FFF729FD0346002B02D10B4B0322F6
:108680001A703221062003F027F900BF062003F0FC
:1086900045F90346012BF9D000BF00BF1037BD4696
:1086A00080BD00BFF81300206C0F0020680F002071
:1086B00080B588B000AF0346FB710B46BB71134613
:1086C0007B71B5233B7362237B730623BB7301234A
:1086D000FB7308233B7400237B74FB79BB74BB7969
:1086E000FB7400233B757B797B750023BB750023EE
:1086F000FB7500233B7600237B7607F10C030D22EC
:1087000002211846FFF7BCFA0346FB83FB8BDBB262
:10871000BB76FB8B1B0A9BB2DBB2FB76154B5A88F0
:10872000144B1A8007F10C031021184600F010FCBE
:1087300000BF114B1A88104B5B889A42F9D1012176
:108740000620FFF7C1FC0346002B02D10B4B03228E
:108750001A703221062003F0BFF800BF062003F094
:10876000DDF80346012BF9D000BF00BF2037BD461E
:1087700080BD00BFF81300206C0F0020680F0020A0
:1087800090B587B000AF786039600023FB733B6819
:1087900093F80434012B40F0E6803B6893F80534ED
:1087A000352B40F0E0803B680A337B617B687A6957
:1087B00012681A607B6904337B617B6804337A69D1
:1087C00012781A707B6901337B617B6805337A69A3
:1087D00012781A707B6901337B617B6901337B619D
:1087E0007B6901337B6100233B6174E0FB7B1B01F0
:1087F00008337A6813447A6912781A707B690133F6
:108800007B61FB7B1B0108337A68134401337A696F
:1088100012781A707B6901337B61FB7B1B01083383
:108820007A68134402337A6912781A707B690133CB
:108830007B61FB7B1B0108337A68134403337A693D
:1088400012781A707B6901337B61FB7B1B01083353
:108850007A68134404337A69128892B21A807B6969
:1088600002337B61FB7B1B0108337A6813440633B8
:108870007A69128892B21A807B6902337B61FB7B32
:1088800001331B017A6813447A6912681A60FB7B12
:108890007A6801331B0113441B68FC7B1846FFF701
:1088A000AFFC034619467A68631C1B01134404336A
:1088B0000A461A707B6904337B61FB7B7A681B0173
:1088C000134408331B78002B02D1FB7B0133FB736D
:1088D0003B6901333B61FB7B0F2B05D87B685B79E0
:1088E0001A463B69934281DB7B68FA7B5A717B684D
:1088F0005B793B6133E07A683B691B0113440833C1
:1089000001221A707A683B691B0113440933002263
:108910001A707A683B691B0113440A3300221A70EB
:108920007A683B691B0113440B3300221A707A6882
:108930003B691B0113440C3300221A807A683B699F
:108940001B0113440E3300221A807A683B690133FD
:108950001B01134400221A603B6901333B613B69F0
:108960000F2BC8DD00E000BF1C37BD4690BD80B4B2
:1089700085B000AF786039603B6893F80434012B10
:1089800040F082803B6893F80534062B7CD13B682D
:108990000A33FB607B68FA6812681A60FB6804336C
:1089A000FB607B680433FA6812681A60FB68043362
:1089B000FB607B680833FA68128892B21A80FB6801
:1089C0000233FB607B680A33FA6812781A70FB681E
:1089D0000133FB607B680B33FA6812781A70FB680E
:1089E0000133FB607B680C33FA6812681A60FB681D
:1089F0000433FB607B681033FA6812681A60FB6806
:108A00000433FB607B681433FA6812681A60FB68F1
:108A10000433FB607B681833FA6812681A60FB68DD
:108A20000433FB607B681C33FA6812681A60FB68C9
:108A30000433FB607B682033FA6812681A60FB68B5
:108A40000433FB607B682433FA6812681A60FB68A1
:108A50000433FB607B682833FA6812681A60FB688D
:108A60000433FB607B682C33FA68128892B21A8058
:108A7000FB680233FB60FB680133FB607B682E33CD
:108A8000FA6812781A7000E000BF1437BD465DF82E
:108A9000047B704780B485B000AF786039603B6874
:108AA00093F80434012B3FD13B6893F80534022B33
:108AB0003AD13B680A33FB607B68FA6812681A6037
:108AC000FB680433FB607B680433FA6812681A6041
:108AD000FB680433FB607B680833FA6812681A602D
:108AE000FB680433FB607B680C33FA6812681A6019
:108AF000FB680433FB607B681033FA6812681A6005
:108B0000FB680433FB607B681433FA6812681A60F0
:108B1000FB680433FB607B681433FA6812681A60E0
:108B2000FB680433FB6000E000BF1437BD465DF80E
:108B3000047B7047F0B583B000AF6420FDF73DF9CA
:108B40000023FB71624B00221A706248FFF738F96C
:108B50006148FFF755F9FFF775F9FFF7C1F800F025
:108B6000C9F800F027F95C48FFF74AF9FFF76AF9FE
:108B7000FFF792FB564B01221A70FFF7F9FB544B9B
:108B80001B78032B06D1FB7943F00103FB71504B9B
:108B900001221A70FFF788FC4D4B1B78032B06D17E
:108BA000FB7943F00203FB71494B01221A70FFF776
:108BB0002FFD474B1B78032B06D1FB7943F00403B1
:108BC000FB71434B01221A70042202210120FFF79E
:108BD0006FFD3F4B1B78032B06D1FB7943F0080355
:108BE000FB713B4B01221A70042235210120FFF753
:108BF0005FFD374B1B78032B06D1FB7943F0100345
:108C0000FB71334B01221A70012206210120FFF76C
:108C10004FFD2F4B1B78032B06D1FB7943F020032C
:108C2000FB712B4B01221A7000F094F8FB79002B9A
:108C30000AD101E000F0FAF9284B5B78002BF9D05B
:108C40002748F9F731FC3EE0214B00221A70254BF2
:108C500000221A70234806F073FC03461A46214B83
:108C60001344214A14469C4604F1200E65462646CC
:108C70000FCE28606960AA60EB6010340CF1100C14
:108C80007445F3D16546234607CB28606960AA6026
:108C90001B88AB81FB79022219461448FDF7ACFC16
:108CA0001249104806F0E6F90E4806F049FC034662
:108CB0001A460C4B13440E4A1188927819809A7008
:108CC0000848F9F7F1FB00BF0C37BD46F0BD00BF07
:108CD000680F00206C0F0020F00F0020502C0020A7
:108CE000F0610108F00E00201C620108540F002002
:108CF0004C62010880B584B000AFB5233B7162239C
:108D00007B710623BB710423FB7104233B72002398
:108D10007B72FF23BB728723FB7200233B7300230C
:108D20007B739423BB73F523FB733B1D0C21184607
:108D300000F00EF900BF064B1A88054B5B889A427B
:108D4000F9D16420FDF739F800BF1037BD4680BD6A
:108D50006C0F002080B584B000AFB5233B71622357
:108D60007B710623BB710423FB7104233B72002338
:108D70007B720023BB720023FB7209233B73002329
:108D80007B731723BB737623FB733B1D0C211846A3
:108D900000F0DEF800BF064B1A88054B5B889A424C
:108DA000F9D16420FDF709F800BF1037BD4680BD3A
:108DB0006C0F002080B584B000AFB5233B716223F7
:108DC0007B710623BB710423FB7104233B720023D8
:108DD0007B72FF23BB728723FB7208233B73002344
:108DE0007B739C23BB730523FB733B1D0C2118462F
:108DF00000F0AEF800BF064B1A88054B5B889A421C
:108E0000F9D16420FCF7D9FF00BF1037BD4680BD03
:108E10006C0F002080B582B000AF78607B681B8843
:108E20001A467B6813441B799BB21946134800F01D
:108E300071FD00BF0021114800F0D0FD0346002B5A
:108E4000F8D17B681B8801335A4203F07F0302F09C
:108E50007F0258BF53429AB27B681A807B681A8897
:108E60007B685B889A4204D100220549034800F0E0
:108E700073FD00BF0837BD4680BD00BF0044004001
:108E80000701070080B582B000AF78602D4800F080
:108E900053FD03461A467B685B881946D2B27B684D
:108EA0000B441A71284B5B881A4640F20E4302FBB2
:108EB00003F3254A13441A1D7B685B8819467B68B7
:108EC0000B441B7919461046FFF712F81E4B5B88BE
:108ED00019461D4A40F20E4301FB03F313440433C9
:108EE0001B78082B1BD1184B5B885A1C174B83FB34
:108EF0000231D317C91A0B465B000B445B00D11A31
:108F00008AB2114B5A80104B5B8819460E4A40F2C8
:108F10000E4301FB03F31344043301221A707B68F0
:108F20005B8801339AB27B685A807B685B88B3F5B3
:108F3000806F02D17B6800225A8000BF0837BD468F
:108F400080BD00BF00440040F8130020ABAAAA2A4D
:108F500080B584B000AF78600B467B8000BF184BB3
:108F60001A88174B5B889A42F9D10023FB811AE0DB
:108F7000134B5B8819467B681A78114B0B441A71A6
:108F80007B6801337B600E4B5B8801339AB20C4BDC
:108F90005A800B4B5B88802B02D1094B00225A80F0
:108FA000FB890133FB81FA897B889A42E0D3012255
:108FB0000449054800F0D0FC00BF1037BD4680BD15
:108FC0006C0F0020070107000044004080B582B00C
:108FD00000AF0346FB71124B5B881A46104B1344DB
:108FE000FA791A710E4B5B8801339AB20C4B5A8096
:108FF0000B4B5B88802B02D1094B00225A80094918
:10900000094800F012FD0346002B04D10122054956
:10901000054800F0A1FC00BF0837BD4680BD00BF79
:109020006C0F0020070107000044004080B500AF2E
:10903000664B1A88654B5B889A4200F0C480634B8C
:109040001B881946614A40F20E4301FB03F31344A7
:1090500003F581631B78012B40F0A2805B4B1B88DA
:1090600019465A4A40F20E4301FB03F3134403F23C
:1090700009431B78352B07D0352B00F39380022B47
:1090800067D0062B2BD08DE0514B5B781A461346E8
:109090005B011344DB004E4A13441A1D4B4B1B88E3
:1090A000194640F20E4301FB03F348490B440433D5
:1090B00019461046FFF764FB454B5A78444B1A702B
:1090C000434B5B780133002B03F00103B8BF5B42D5
:1090D000DAB23F4B5A703F4B01221A7063E03E4BAD
:1090E0005B781A4613465B0013441B013A4A13444B
:1090F0001A1D364B1B88194640F20E4301FB03F341
:1091000032490B44043319461046FFF730FC324B0A
:109110005B781A4613465B0013441B012E4A134426
:1091200004331846FFF754F803461A462B4B1A70BF
:10913000294B5B7801335A4203F0030302F0030228
:1091400058BF5342DAB2244B5A70254B01221A7091
:1091500029E0244B5B781A461346DB009B1A9B00E0
:10916000204A13441A1D194B1B88194640F20E431E
:1091700001FB03F315490B44043319461046FFF76E
:1091800089FC184B5B780133002B03F00103B8BF57
:109190005B42DAB2134B5A70134B01221A7002E091
:1091A00000BF00E000BF094B1B885A1C0F4B83FB1C
:1091B0000231D317C91A0B465B000B445B00D11A6E
:1091C0008AB2024B1A8000BF80BD00BFF813002096
:1091D000502D0020F6130020502C0020F713002003
:1091E000F4130020142D0020F5130020ABAAAA2AA6
:1091F00080B483B000AF0346FB80044AFB88136051
:1092000000BF0C37BD465DF8047B7047003000405E
:1092100080B483B000AF0346FB71044AFB7953600E
:1092200000BF0C37BD465DF8047B7047003000403E
:1092300080B400AF044B4AF6AA221A6000BFBD46B4
:109240005DF8047B704700BF0030004080B400AF81
:10925000044B4CF6CC421A6000BFBD465DF8047B5F
:10926000704700BF0030004080B485B000AF786028
:109270000023FB6008E07A68FB689B00134400222F
:109280005A60FB680133FB60FB681D2BF3DD7B68D4
:10929000002283F884207B680022A3F87C207B686E
:1092A00000225A8000BF1437BD465DF8047B70472A
:1092B00080B586B000AF786039603B68DA687B685B
:1092C000D3F88830D31A7B613B681A697B68D3F87E
:1092D0008C30D31A3B613B685A697B68D3F8903075
:1092E000D31AFB607B69244A82FB03125211DB17FD
:1092F000D31A7B613B69204A82FB03125211DB17B0
:10930000D31A3B61FB681C4A82FB03125211DB1724
:10931000D31AFB607B6903FB03F37B613B6903FBAF
:1093200003F33B61FB6803FB03F3FB607A693B6972
:109330001A44FB68134407EE903AF8EEE77A17EE0A
:10934000900A05F037FA02460B4643EC102B03F067
:109350001FFD53EC102B1046194605F07BFD03460C
:10936000BB60D7ED027AFCEEE77A17EE903A18462A
:109370001837BD4680BD00BF1F85EB5180B582B058
:1093800000AF78607B680022C3F880207B680022F1
:109390001A707B680022C3F888207B680022C3F81B
:1093A0008C207B680022C3F890207B680022C3F8E1
:1093B00080207B680022A3F87C207B68002283F851
:1093C00084207B6800225A807868FFF74DFF054BA8
:1093D0001B78002B02D17B6805221A7000BF08376A
:1093E000BD4680BD480C002080B582B000AF7860DB
:1093F0007B68B3F87C301D2B03D17B68012283F896
:109400008420A54B1B781946A34A0B46DB005B1A48
:109410009B00134414331B687A68B2F87C20104612
:109420009E4A82FB03129211DB17D21A79688300DD
:109430000B445A607B681B78052B00F2158101A252
:1094400052F823F05D940008759400088B9500088D
:10945000039600086996000869960008904B9B786F
:10946000012B03D102218E4802F0A2FD7B6801226C
:109470001A70F9E08B4B1B78012B06D17B685B8857
:1094800001339AB27B685A8002E07B6800225A80DE
:109490007B6893F88430012B40F0E1807B685B8827
:1094A000042B40F2DC80804B1B7819467E4A0B4629
:1094B0005B000B441B01134410331A687B68C3F82C
:1094C0008820794B1B781946774A0B465B000B4482
:1094D0001B01134414331A687B68C3F88C20724B49
:1094E0001B781946704A0B465B000B441B01134462
:1094F00018331A687B68C3F890206B4B1B781946A9
:10950000654A0B46DB005B1A9B0013440C331A6858
:109510007B68C3F89420644B1B7819465E4A0B465F
:10952000DB005B1A9B00134408331A687B68C3F89E
:1095300098205D4B1B781946574A0B46DB005B1A97
:109540009B00134410331B68544A82FB0312921190
:10955000DB17D21A7B68C3F89C20534B1B78194643
:109560004D4A0B46DB005B1A9B00134414331B6807
:109570004A4A82FB03129211DB17D21A7B68C3F8A6
:10958000A0207B6802221A7069E0464B1B78002BF2
:1095900006D17B6801221A707B6800225A8060E045
:1095A0007B68B3F87C307A689B0013445A687B6808
:1095B000D3F8A03003F57A739A4252DD3A4B1B7808
:1095C0001A4613465B0013441B01374A1344043305
:1095D00019467868FFF76CFE0346B3F57A7F40D9E9
:1095E0007B6803221A702E4B9B78012B39D1022104
:1095F0002B4802F0DDFC002200212C48FAF784FF02
:109600002FE0294B1B781A4613465B0013441B01BD
:10961000254A1344043319467868FFF749FE034688
:10962000234A13601E4B5B78022B0AD1204B1B6828
:1096300042F21072934216D90321194802F0B8FC85
:1096400011E0174B5B78032B0DD1194B1B68194A9E
:10965000934208D90421124802F0AAFC03E000BF9B
:1096600002E000BF00E000BF7B68B3F87C305A1C0A
:10967000114B83FB021313441911D317C91A0B465C
:109680001B015B1A5B00D11A8AB27B68A3F87C20AD
:1096900000BF0837BD4680BD142D0020D34D621099
:1096A000AC340020F7130020502C00204C0C00207C
:1096B00008300020400D03008988888880B485B078
:1096C00000AF78600023FB60094B1B68FB60FB6800
:1096D00023F0E003FB60FA687B681343FB60044AF5
:1096E000FB68136000BF1437BD465DF8047B70470C
:1096F0000070004080B483B000AF0346FB71044AA1
:10970000FB79136000BF0C37BD465DF8047B7047E2
:1097100010000E4280B483B000AF78600B46FB703F
:10972000FB78002B06D00A4B1A6809497B68134363
:109730000B6006E0064B1A687B68DB430449134064
:109740000B6000BF0C37BD465DF8047B704700BF5F
:109750000070004080B485B000AF78600023FB73D8
:10976000084B5A687B681340002B02D00123FB731F
:1097700001E00023FB73FB7B18461437BD465DF800
:10978000047B70470070004080B592B000AF7860F5
:10979000396000237B6400233B640023FB637B6808
:1097A0001B6823F001027B681A607B685B68FB63BF
:1097B000FB6B23F44053FB633B689B68FA6B1343DA
:1097C000FB637B68FA6B5A607B681B68FB63FB6B0F
:1097D00023F4B05323F00C03FB633B685A683B68E7
:1097E000DB681A433B681B691343FA6B1343FB6343
:1097F0007B68FA6B1A607B689B68FB63FB6B23F4E6
:109800004073FB633B685B69FA6B1343FB637B68E4
:10981000FA6B9A6007F10C03184601F053FB7B6862
:109820002C4A934202D13B6B3B6408E07B682A4A96
:10983000934202D17B6B3B6401E0BB6B3B647B6872
:109840001B6803F40043002B11D03B6C5A003B68AB
:109850001B68B2FBF3F37B643B6C5B003A681268F5
:10986000B3FBF2F101FB02F29B1AFB630EE03B68D3
:109870001B683A6CB2FBF3F37B643B681A683B6C81
:10988000B3FBF2F101FB02F29B1AFB633B681B681E
:109890005B08FA6B9A4202D37B6C01337B647B6872
:1098A0001B6803F40043002B0BD07B6C5B0803F0B8
:1098B0000703FB637A6C4FF6F0731340FA6B1343A4
:1098C0007B647B6C9AB27B689A8100BF4837BD4647
:1098D00080BD00BF003801400044004080B483B028
:1098E00000AF78600B46FB70FB78002B06D07B68DE
:1098F0001B6843F001027B681A6005E07B681B6807
:1099000023F001027B681A6000BF0C37BD465DF88A
:10991000047B704780B483B000AF78600B467B80D7
:109920007B88C3F308039AB27B681A8500BF0C37A3
:10993000BD465DF8047B704780B483B000AF7860AB
:109940007B689B8C9BB2C3F308039BB218460C3711
:10995000BD465DF8047B704780B489B000AFF86005
:10996000B9601346FB710023BB6100237B610023B8
:109970003B610023FB61FB68FB61BB689BB21B0A78
:109980009BB2BB61BB68DBB27B6101227B6902FADF
:1099900003F33B61BB69022B03D1FB690433FB6119
:1099A00005E0BB69032B02D1FB690833FB61FB793E
:1099B000002B06D0FB691968FB693A690A431A60F3
:1099C00006E0FB6919683B69DA43FB690A401A60E3
:1099D00000BF2437BD465DF8047B704780B485B076
:1099E00000AF786039600023FB737B68DA693B68FD
:1099F0001340002B02D00123FB7301E00023FB7313
:109A0000FB7B18461437BD465DF8047B704780B475
:109A100083B000AF786039607B683A681A6200BF33
:109A20000C37BD465DF8047B704780B487B000AF4B
:109A3000786039600023FB6000237B610023BB60FA
:109A40000023FB743B689BB21B0A9BB2BB603B6864
:109A5000DBB27B6101227B6902FA03F37B61BB68A5
:109A6000012B05D17B681B687A6913407B610DE08F
:109A7000BB68022B05D17B685B687A6913407B6108
:109A800004E07B689B687A6913407B613B681B0C30
:109A9000FB600122FB6802FA03F3FB607B68DB6971
:109AA000FA681340FB607B69002B05D0FB68002B34
:109AB00002D00123FB7401E00023FB74FB7C1846F9
:109AC0001C37BD465DF8047B704780B485B000AF9D
:109AD000786039600023FB600023BB603B681B0C8F
:109AE000FB600122FB6802FA03F3BB607B68BA6883
:109AF0001A6200BF1437BD465DF8047B704780B51D
:109B000082B000AF01214FF4003001F05FFB012370
:109B10003B7101237B710023BB710123FB714FF467
:109B200080533B603B4619464FF0904002F0B8FC32
:109B30004FF480514FF0904002F073FD00BF0837A2
:109B4000BD4680BD80B584B000AF4FF08040FBF7CC
:109B5000EBFC0121012001F079FB1C233B73012365
:109B6000FB7300237B7307F10C031846F8F77CFFA7
:109B700000233B8000237B8042F6C6537B6000239A
:109B80003B813B4619464FF08040FBF7B1FD002278
:109B900001214FF08040FBF779FF00214FF080401A
:109BA000FBF74CFE00BF1037BD4680BD80B584B0CA
:109BB00000AF00211B48FBF741FE1A48FBF7B4FC3D
:109BC0000121022001F042FB1D233B730123FB73A3
:109BD00000237B7307F10C031846F8F745FF124B7F
:109BE0001B685B09114AA2FB03239BB2013B9BB29A
:109BF0003B8000237B804FF6FF737B6000233B811B
:109C00003B4619460748FBF773FD0022062105482D
:109C1000FBF73CFF00210348FBF710FE00BF1037A5
:109C2000BD4680BD000400401C00002005704F00B0
:109C300080B485B000AF78607B6800221A807B68B2
:109C400000225A807B68002283F806217B680B2261
:109C5000A3F804210023FB6008E07A68FB68134442
:109C6000043300221A70FB680133FB60FB68FE2B93
:109C7000F3DD00BF00BF1437BD465DF8047B7047BD
:109C800080B500AFFFF73BFF0D4BB3F84230DAB2BF
:109C90000C4B1A700B4B1B78022B02D1FFF752FFB3
:109CA0000BE0084B1B78012B05D10748FFF7C0FFDD
:109CB000FFF77CFF01E000F03FF800BF80BD00BF70
:109CC000C00D0020170000201030002080B500AF2C
:109CD000174B1B78022B0BD1012201214FF0804042
:109CE000FBF7D4FE01214FF08040FBF7A7FD1CE0FD
:109CF0000F4B1B78012B18D100210E48FBF79EFD5E
:109D000000210C48FBF77EFD16210A48FBF7B6FD43
:109D10000B210848FBF7C0FD012206210548FBF78F
:109D2000B5FE01210348FBF789FD00BF80BD00BFE0
:109D3000170000200004004080B500AF4FF08043C2
:109D40009B899BB203F00103002B05D00022012167
:109D50004FF08040FBF79AFE4FF080439B899BB207
:109D600003F00603002B04D0002206210E48FBF767
:109D70008DFE4FF080431B889BB203F00103002B44
:109D800004D000214FF08040FBF758FD064B1B88A4
:109D90009BB203F00103002B03D000210248FBF724
:109DA0004DFD00BF80BD00BF0004004080B483B003
:109DB00000AF324B1B680133304A13602F4B1B68D6
:109DC00003F00103002B12D02D4B1B781A462D4BAC
:109DD0001B681340002B30D14FF090439B8A9BB2FD
:109DE0004FF0904283F480539BB2938225E0244B42
:109DF0001B78012B11D1224B80221A70224B1B6839
:109E00005A1C21490A601B781A461E4B1A601F4BC8
:109E10001B6801331D4A136005E0194B1B785B0872
:109E2000DAB2174B1A704FF090439B8A9BB24FF0F7
:109E3000904283F480539BB29382144B1B683F2B58
:109E400015D9124B00221A60114B1B6803F0030353
:109E50007B600F4B1B6801330D4A13607B689B01CD
:109E60000C4A1344084A13600B4B01221A7000BFBE
:109E70000C37BD465DF8047B704700BF18310020E9
:109E80001800002020310020000000201C3100209C
:109E90007C0D0020780C00200C30002080B400AF36
:109EA000314B93F80631002B17D12F4B1A882E4BCC
:109EB0005B889A4204D12C4B0B22A3F804214DE07D
:109EC000294B0622A3F80421274B93F806310133CE
:109ED000DAB2254B83F8062140E0234B93F8063194
:109EE000082B22D8204B1B881A461F4B13441B7982
:109EF0001A461D4B93F80631013B42FA03F303F077
:109F00000103002B04D0184B0B22A3F8042103E01B
:109F1000154B0622A3F80421134B93F806310133A5
:109F2000DAB2114B83F8062118E00F4B0B22A3F88D
:109F300004210D4B002283F806210B4B1B885A1C71
:109F40000A4B83FB02131344D911D317C91A0B46CA
:109F50001B025B1AD11A8AB2034B1A8000BFBD469E
:109F60005DF8047B704700BF103000208180808046
:109F700080B485B000AF78600B467B800023FB6027
:109F80001DE0FB687A681344124A528811461A7819
:109F9000104B0B441A710F4B5B885A1C0E4B83FB02
:109FA00002131344D911D317C91A0B461B025B1AAB
:109FB000D11A8AB2074B5A80FB680133FB607B8859
:109FC000FA689A42DDDB00BF00BF1437BD465DF87A
:109FD000047B7047103000208180808080B59AB06B
:109FE00000AFF860B9601346FB710023A7F8663034
:109FF0000023A7F86430FB79652B41D8FB79002B4F
:10A000003ED0FB7903F00103DBB2002B38D10023F3
:10A01000A7F866300023BB74FB795B08DBB2A7F8B6
:10A0200064301FE0B7F866305B001A46BB689918C9
:10A0300007F110030222184605F0F0FA07F11003A9
:10A0400010220021184605F0F3FD0246B7F86630ED
:10A05000D2B268333B4403F8542CB7F8663001336E
:10A06000A7F86630B7F86620B7F864309A42D9D3BB
:10A07000B7F8642007F114031946F86804F040FFAC
:10A08000B7F86630DBB218466837BD4680BD80B48D
:10A0900085B000AF78607B6800221A707B68002270
:10A0A0005A707B68002283F836237B68002283F88D
:10A0B00037237B685022A3F838230023FB6028E075
:10A0C0007A68FB68522101FB03F313440233002238
:10A0D0001A707A68FB68522101FB03F313440333BF
:10A0E00000221A700023BB600DE07A68FB685221E1
:10A0F00001FB03F31A44BB681344043300221A70B3
:10A10000BB680133BB60BB684F2BEEDDFB680133DE
:10A11000FB60FB68092BD3DD00BF00BF1437BD46D1
:10A120005DF8047B7047000090B59FB000AF786089
:10A1300039607B6893F83733012B03D11320F8F78C
:10A14000F1F934E100237B672AE07B6F3A6813441E
:10A150001B780D2B06D107F108027B6F13440022F8
:10A160001A7020E07B6F3A6813441B78002B04D1EF
:10A170007B68012283F8362319E17B6F3A68134428
:10A180001B780A2B09D07B6F3A681344197807F1C2
:10A1900008027B6F13440A461A707B6F01337B679A
:10A1A0007B6F642BD1DD7B6F652B04D17B68012233
:10A1B00083F83623FBE007F10803184605F0C0F9E1
:10A1C000034687F8733097F873305B0887F872306E
:10A1D0007B685B781A46522302FB03F303337A68E9
:10A1E0001344043397F8732007F108011846FFF76A
:10A1F000F5FE0346002B04D17B68012283F8362349
:10A20000D5E07B685B7819467A68522301FB03F33B
:10A210001344023397F872201A707B685B781846F3
:10A2200097F872300533D9B27A68522300FB03F3F2
:10A23000134403330A461A707B685B7819467A68C0
:10A24000522301FB03F31344043301221A707B6889
:10A250005B7819467A68522301FB03F313440533F4
:10A2600003221A707B685B7819467A68522301FBD7
:10A2700003F31344063397F872201A707B685B78F7
:10A28000184697F8723003337968522200FB02F2C5
:10A290000A441344043300221A707B685B78184622
:10A2A00097F8723004337968522200FB02F20A44B4
:10A2B0001344043300221A707B685B781A465223D9
:10A2C00002FB03F37A681344181D7B685B78194618
:10A2D0007A68522301FB03F3134403331B789AB2C9
:10A2E0000023002100F0B0F80346A7F87030B7F85B
:10A2F00070301B0A9AB27B685B781C4697F8723004
:10A300000333D0B27968522204FB02F20A441344A8
:10A31000043302461A707B685B781C4697F87230EB
:10A320000433B7F87020D0B27968522204FB02F2ED
:10A330000A441344043302461A7097F8723002221A
:10A3400019461C48FBF74AFF07F10803194918464C
:10A3500005F084F807F1080317491846FCF78CF953
:10A3600007F108031846F8F79FF87B685B785A1CDA
:10A37000124B83FB02139910D317C91A0B469B008B
:10A380000B445B00D11ACAB27B685A70786800F03F
:10A3900017F8034687F86F3097F86F30012B06D80F
:10A3A0007B68012283F837231320F8F7BBF87C374A
:10A3B000BD4690BD540F0020506201086766666676
:10A3C00080B485B000AF78607B685B781A467B68A4
:10A3D0001B78D31AFB60FB68002B02DAFB680A3398
:10A3E000FB60FB68C3F10A03FB60FB68DBB2184645
:10A3F0001437BD465DF8047B7047000080B485B01B
:10A4000000AF78600B46FB707B681B881B0A9BB211
:10A41000DBB20C4A32F81330FB817B681B881B02CD
:10A420001AB2FB781BB213431AB2B7F90E3053407D
:10A430001BB29AB27B681A8000BF1437BD465DF824
:10A44000047B70475C62010880B586B000AFF8609D
:10A45000084611461A4603467B810B463B8113464C
:10A46000FB804FF6FF73BB820023FB821CE07B89DD
:10A47000FA6813441A7807F1140311461846FFF7D7
:10A48000BDFFFB88002B09D07B890133FA8893FB41
:10A49000F2F101FB02F29B1A7B8102E07B8901331E
:10A4A0007B81FB8A0133FB82FA8A3B899A42DED3A5
:10A4B000BB8A18461837BD4680BD000080B400AF87
:10A4C0000A4B4FF0FF321A60084B094A5A61074B9A
:10A4D00000221A71054B4FF0FF321A61034B012223
:10A4E0009A6000BFBD465DF8047B704700300240B3
:10A4F000B71DC10480B485B000AF78603960002317
:10A50000FB600023FB6009E0FB689B007A68134452
:10A51000084A1B681360FB680133FB60FA683B68FC
:10A520009A42F1D3034B1B6818461437BD465DF8B9
:10A53000047B70470030024080B500AF204BD3F859
:10A5400088301F4A43F47003C2F888301D4B1B68E3
:10A550001C4A43F0010313601A4B5B68194A03F469
:10A560007F035360174B1B68164A23F0847323F450
:10A5700080331360134B1B68124A23F4802313604B
:10A58000104B5B680F4A23F4FE0353600D4BDB6AEC
:10A590000C4A23F00F03D3620A4B1B6B094A23F0CA
:10A5A000F02323F073031363064B00229A6000F03C
:10A5B0000BF8034B4FF000629A6000BF80BD00BFF4
:10A5C00000ED00E00010024080B483B000AF002333
:10A5D0007B6000233B60334B1B68324A43F480337B
:10A5E0001360304B1B6803F400333B607B6801331E
:10A5F0007B603B68002B03D17B68B3F5A06FF0D183
:10A60000284B1B6803F40033002B02D001233B606E
:10A6100001E000233B603B68012B3CD1224B01222F
:10A620001A60204B1F4A5B6853601E4B1D4A5B68D3
:10A6300053601C4B5B681B4A43F480635360194BA7
:10A640005B68184A23F47C135360164B5B68154A09
:10A6500043F4A0235360134B1B68124A43F08073EA
:10A66000136000BF0F4B1B6803F00073002BF9D081
:10A670000C4B5B680B4A23F003035360094B5B6888
:10A68000084A43F00203536000BF064B5B6803F0C7
:10A690000C03082BF9D100BF0C37BD465DF8047BD5
:10A6A000704700BF001002400020024080B584B017
:10A6B00002AF78607B681B6830211846F9F70FFC01
:10A6C0007B6818684FF4005300934FF0007300222A
:10A6D0005021F9F79DFB00BF7B681B6820211846BD
:10A6E000F9F7DEFB0346002B08D17B681B680021CD
:10A6F0001846F9F7D5FB0346002BEDD17B681B68A4
:10A7000010211846F9F7CCFB0346012B08D17B68D2
:10A710001B6810211846F9F7E2FB7B680122DA7109
:10A7200000BF0837BD4680BD90B587B002AF7860E6
:10A730007B681B6810211846F9F7D1FB7B68186805
:10A740004FF4105300934FF0007304225021F9F797
:10A750005FFB0023FB8141E04FF47A73BB8102E091
:10A76000BB89013BBB817B681B6804211846F9F754
:10A7700097FB0346002B0BD17B681B681021184602
:10A78000F9F78EFB0346002B02D1BB89002BE7D1E2
:10A790007B681B6810211846F9F782FB0346012BE2
:10A7A00002D0BB89002B09D17B681B681021184699
:10A7B000F9F795FB7B680122DA714CE07B681B6836
:10A7C000FC891846F9F75FFB03461A4604F11003AB
:10A7D0003B4403F8082CFB890133FB81FB89032BE5
:10A7E000BAD900BF7B681B6820211846F9F758FBCF
:10A7F0000346002BF6D03B7A03F04003002B03D036
:10A800007B6801221A7202E07B6800221A723B7A8E
:10A810001B029BB2C3F30D039AB27B685A817B681B
:10A820005A897B7A9BB213439AB27B685A81BB7A6E
:10A830009BB21B029AB27B689A817B689A89FB7AE9
:10A840009BB213439AB27B689A817B689B899B0871
:10A850009AB27B689A811437BD4690BD0000000013
:10A8600080B584B000AF78607B685B8907EE903A72
:10A87000F8EE677A17EE900A03F09CFF4FF00002A3
:10A88000414B03F0EFFF02460B46104619463AA330
:10A89000D3E9002304F010F902460B46104619468E
:10A8A00004F0D8FA0346FB607B689B8907EE903A78
:10A8B000F8EE677A17EE900A03F07CFF30A3D3E935
:10A8C000002303F0CFFF02460B46104619462AA389
:10A8D000D3E9002304F0F0F802460B46104619466F
:10A8E0004FF00002294B03F005FE02460B461046CE
:10A8F000194604F0AFFA0346BB60F86803F05AFF4C
:10A900004FF00002224B03F0ADFF02460B4643EC32
:10A91000172BB0EE470AF0EE670A02F0DDF853ECB1
:10A92000102B1046194604F04DFA03461AB27B6804
:10A93000DA81B86803F03EFF4FF00002124B03F0DB
:10A9400091FF02460B4643EC172BB0EE470AF0EEA0
:10A95000670A02F0C1F853EC102B1046194604F0B8
:10A9600031FA03461AB27B681A8200BF1037BD461F
:10A9700080BD00BFAFF300800000000080FFCF402B
:10A980000000000000A06440000059400000444066
:10A99000000024400000000080B584B000AF87EDC7
:10A9A000000B4FF000024FF00003C7E902239FEDB8
:10A9B0005C1B97ED000B02F073F951EC100B6FA3C9
:10A9C000D3E9002303F04EFF02460B46D7E902010C
:10A9D00003F092FD02460B46C7E90223D7E90023A4
:10A9E0004FF00000644904F067F802460B46104639
:10A9F00019464DA3D3E9002303F034FF02460B466A
:10AA0000D7E9020103F078FD02460B46C7E90223AD
:10AA100047A3D3E90023D7E9020103F06DFD024605
:10AA20000B46C7E9022344A3D3E90023D7E9000179
:10AA300003F018FF02460B46D7E9020103F05CFD64
:10AA400002460B46C7E902239FED3D1B97ED000B25
:10AA500002F026F951EC100B3BA3D3E9002303F0DD
:10AA600001FF02460B46D7E9020103F045FD02460D
:10AA70000B46C7E902239FED361B97ED000B02F052
:10AA80000FF951EC100B34A3D3E9002303F0EAFED5
:10AA900002460B46D7E9020103F02EFD02460B46A3
:10AAA000C7E902239FED2E1B97ED000B02F0F8F88B
:10AAB00051EC100B2CA3D3E9002303F0D3FE024684
:10AAC0000B46D7E9020103F017FD02460B46C7E922
:10AAD000022397ED000B02F09FF851EC100B24A31A
:10AAE000D3E9002303F0BEFE02460B46D7E902017C
:10AAF00003F002FD02460B46C7E9022397ED020B65
:10AB000002F03AF887ED020BD7E9022343EC172B4A
:10AB1000B0EE470AF0EE670A1037BD4680BD00BFB1
:10AB200000000000000000C037E15E99138CB7C040
:10AB300041076533EA8A33403D49C7BC0E099CBFD3
:10AB4000000000000000004027369D60370DF13EF8
:10AB50000000000000000840079E8DC06921083EEB
:10AB6000000000000000104012AB01BA2E4A4ABD9E
:10AB7000E62329E961B805400000F03FA5BDC117F3
:10AB80002629A6C080B58EB000AF786039607B689A
:10AB9000B3F90E30184603F0FBFD4FF00002324BC4
:10ABA00003F08AFF02460B46C7E90C237B68B3F922
:10ABB000143003F5D5433333184603F0E9FD4FF065
:10ABC00000022A4B03F078FF02460B46C7E90A232E
:10ABD0003B68B3F84830184603F0CAFD4FF0000256
:10ABE000224B03F069FF02460B46C7E9082397EDA5
:10ABF0000A0BFFF7D1FE87ED060B97ED080BFFF769
:10AC0000CBFE87ED040BD7E90623D7E90C0103F04F
:10AC100029FE02460B4610461946D7E9042303F0E5
:10AC20004BFF02460B46C7E902234FF000020E4BD2
:10AC3000D7E9020103F016FE02460B4643EC172B40
:10AC4000B0EE470AF0EE670A01F046FF53EC102B16
:10AC50001046194604F0B6F803461AB27B685A82C9
:10AC600000BF3837BD4680BD000024400000594079
:10AC700080B582B000AF78607B68B3F9103013F50F
:10AC80007A6F0DDC184BB3F94A309AB27B68B3F98E
:10AC900016309BB213449BB21AB27B689A8211E0C1
:10ACA0007B68B3F910207B689A827B68B3F9103017
:10ACB0009AB20D4BB3F94A309BB2D31A9BB21AB277
:10ACC0007B68DA82094B1B78022B04D1064978682D
:10ACD000FFF758FF04E07B68B3F90E207B685A82C7
:10ACE00000BF0837BD4680BD780E00201700002049
:10ACF00080B582B000AF78607B681D4A1A607B68BF
:10AD000000221A717B6801225A717B680022DA7175
:10AD10007B6800221A727B6800225A817B680022BD
:10AD20009A817B6842F20F72DA817B6842F20F727D
:10AD30001A827B6842F20F725A827B6842F20F726B
:10AD40009A827B6801221A71786800F013F87B6898
:10AD5000DB79012B03D17B6800221A7104E07B6848
:10AD60001B79012BF0D100BF00BF0837BD4680BD65
:10AD70000058004080B582B000AF78607B685B7996
:10AD8000184600F0CBFD0346012B52D07B68DB79DF
:10AD9000012B05D17B680022DA717B6801221A71D0
:10ADA0007B681B79042B46D801A252F823F000BF20
:10ADB00037AE0008C5AD0008E7AD000813AE0008C7
:10ADC00037AE00087868FFF771FC7B68DB79002BF1
:10ADD00002D17B6802221A717B685B796421184674
:10ADE00000F07AFD2AE07868FFF79EFC7B68DB794B
:10ADF000002B22D17B681B7A002B03D17B680322B6
:10AE00001A711AE07B685B790521184600F064FD31
:10AE100013E07868FFF724FD7868FFF729FF7B6867
:10AE200001221A717B685B790A21184600F054FDF3
:10AE300004E000BF02E000BF00E000BF0837BD46ED
:10AE400080BD00BF80B483B000AF7860084B5B6802
:10AE5000074A23F078435360054B5A6804497B68DE
:10AE600013434B6000BF0C37BD465DF8047B704751
:10AE70000010024080B485B000AF78600023FB6012
:10AE80007B681B0FFB60FB68002B06D10C4B1B6B18
:10AE90000B4A23F01003136305E0094B1B6B084AB0
:10AEA00023F020031363064B1A6B05497B68134399
:10AEB0000B6300BF1437BD465DF8047B704700BFCD
:10AEC0000010024080B489B000AF78600023FB61BD
:10AED0000023BB6100237B6100233B610023FB60F7
:10AEE000924B5B6803F00C03FB61FB69082B11D0EC
:10AEF000FB69082B36D8FB69002B03D0FB69042BB8
:10AF000004D02FE07B688A4A1A602FE07B68894A68
:10AF10001A602BE0854B5B6803F47013BB61834BB5
:10AF20005B6803F480337B61BB699B0C0233BB61BC
:10AF30007B69002B06D1BB697F4A03FB02F27B6869
:10AF40001A6013E0794BDB6A03F00F0301333B61B6
:10AF5000784A3B69B2FBF3F3BA6903FB02F27B6800
:10AF60001A6003E07B68724A1A6000BF6F4B5B682F
:10AF700003F0F003FB61FB691B09FB616F4AFB698E
:10AF800013441B78DBB2FB607B681A68FB68DA400D
:10AF90007B685A60654B5B6803F4E063FB61FB69A7
:10AFA0001B0AFB61654AFB6913441B78DBB2FB603B
:10AFB0007B685A68FB68DA407B689A605B4B5B6829
:10AFC00003F46053FB61FB69DB0AFB615B4AFB69CD
:10AFD00013441B78DBB2FB607B685A68FB68DA407D
:10AFE0007B68DA60514B5B6803F44043FB61FB69AB
:10AFF0009B0BFB61524AFB6913441B78DBB2FB607D
:10B000007B68DA68FB68B2FBF3F27B681A61474B36
:10B010005B6803F07843FB61FB69DB0E03F00F0311
:10B02000FB61484AFB6913441B78DBB2FB607B6819
:10B030001A68FB68B2FBF3F27B685A613B4B1B6BEF
:10B0400003F04003402B04D07B6848F212029A615F
:10B0500003E07B684FF400429A61344B1B6B03F0B2
:10B060001003102B03D07B68314ADA6103E07B6860
:10B070001A687B68DA612D4B1B6B03F02003202BD1
:10B0800003D07B682A4A1A6203E07B681A687B68EF
:10B090001A62264B1B6B03F00303002B04D17B6861
:10B0A000DA687B685A621EE0204B1B6B03F00303D7
:10B0B000012B04D17B681A687B685A6213E01B4B32
:10B0C0001B6B03F00303022B04D17B684FF4004297
:10B0D0005A6208E0154B1B6B03F00303032B02D1EC
:10B0E0007B68134A5A62114B1B6B03F44033002BED
:10B0F00004D17B689A687B689A622FE00B4B1B6BCC
:10B1000003F44033B3F5803F04D17B681A687B6851
:10B110009A6223E0054B1B6B03F44033B3F5003F09
:10B1200012D17B684FF400429A6217E0001002408F
:10B1300000127A000024F40000093D0030000020D5
:10B1400040000020440000201E4B1B6B03F44033E2
:10B15000B3F5403F02D17B681B4A9A62194B1B6BC7
:10B1600003F44023002B04D17B689A687B68DA6281
:10B1700021E0144B1B6B03F44023B3F5802F04D163
:10B180007B681A687B68DA6215E00E4B1B6B03F470
:10B190004023B3F5002F04D17B684FF40042DA62FC
:10B1A00009E0084B1B6B03F44023B3F5402F02D199
:10B1B0007B68054ADA6200BF2437BD465DF8047B30
:10B1C000704700BF0010024000127A0080B483B0C4
:10B1D00000AF78600B46FB70FB78002B06D00A4B63
:10B1E0005A6909497B6813434B6106E0064B5A696B
:10B1F0007B68DB43044913404B6100BF0C37BD46FD
:10B200005DF8047B704700BF0010024080B483B03B
:10B2100000AF78600B46FB70FB78002B06D00A4B22
:10B220009A6909497B6813438B6106E0064B9A696A
:10B230007B68DB43044913408B6100BF0C37BD467C
:10B240005DF8047B704700BF0010024080B483B0FB
:10B2500000AF78600B46FB70FB78002B06D00A4BE2
:10B26000DA6909497B681343CB6106E0064BDA696A
:10B270007B68DB4304491340CB6100BF0C37BD46FC
:10B280005DF8047B704700BF0010024080B483B0BB
:10B2900000AF78600B46FB70FB78002B06D00A4BA2
:10B2A000DA6809497B681343CB6006E0064BDA682D
:10B2B0007B68DB4304491340CB6000BF0C37BD46BD
:10B2C0005DF8047B704700BF0010024080B483B07B
:10B2D00000AF78600B46FB70FB78002B06D00A4B62
:10B2E0001A6909497B6813430B6106E0064B1A692A
:10B2F0007B68DB43044913400B6100BF0C37BD463C
:10B300005DF8047B704700BF0010024080B500AFBD
:10B31000E020FEF7D3F90120FEF7ECF900BF04208E
:10B32000FEF718FA0346012BF9D000BF00BF80BD1D
:10B3300080B483B000AF00237B600DE00B4A7B68D4
:10B34000002102F82310094A7B689B001344002265
:10B350005A807B6801337B607B68092BEEDD00BF80
:10B3600000BF0C37BD465DF8047B70478434002075
:10B3700080B586B000AF01218020FFF767FF2C2346
:10B380003B740123FB7405237B7407F110031846FB
:10B39000F7F76AFB114B1B685B09114AA2FB0323F9
:10B3A000DB099BB2013BFB82FB8ABB800023FB8055
:10B3B0006323BB600023BB813B1D19460948FAF794
:10B3C00097F9012201210748FAF760FB012105489E
:10B3D000FAF734FA00BF1837BD4680BD1C000020C4
:10B3E000C55A7C0A001C004080B58AB000AF10200E
:10B3F000FFF740FD01214FF40010FFF727FF012167
:10B400004FF48020FFF7E2FE04220821234801F0D8
:10B4100017F904220921214801F012F94FF4807331
:10B420003B62022387F82430012387F8253001236B
:10B4300087F82630002387F8273007F120031946C4
:10B44000164801F02DF84FF400733B6207F120031A
:10B450001946124801F024F800211148F8F7BCFC05
:10B460000F48F8F72FFC00233B610023FB6000230B
:10B47000BB6000237B610023BB610023FB61094BA0
:10B480007B603B1D19460648F8F740FC0121044843
:10B49000F8F7A2FC00BF2837BD4680BD0004004875
:10B4A00000540040895E801080B58AB000AF2A4801
:10B4B000FFF7E0FC01214FF48000FFF7C7FE0121F8
:10B4C0004FF48000FFF782FE04220621234801F09A
:10B4D000B7F804220721214801F0B2F840233B626B
:10B4E000022387F82430012387F82530012387F8C9
:10B4F0002630002387F8273007F120031946174824
:10B5000000F0CEFF80233B6207F120031946134869
:10B5100000F0C6FF00211248F8F75EFC1048F8F76B
:10B52000D1FB00233B610023FB600023BB600023B1
:10B530007B610023BB610023FB610A4B7B603B1DE9
:10B5400019460748F8F7E2FB01210548F8F744FCE3
:10B5500000BF2837BD4680BD200000100014004801
:10B5600000580040895E801080B588B000AF00238D
:10B57000FB6100215748FBF769F95648FBF7E8F8EB
:10B5800001214FF48020FFF721FE01214FF480209C
:10B59000FFF71CFE03233B720023FB7202237B6038
:10B5A0003B1D19464C4800F07BFF01237B603B1D8F
:10B5B0001946494800F074FF01214FF08050FFF711
:10B5C00045FE01214FF40070FEF7A4F801214FF071
:10B5D0008070FFF71BFE4FF07840FFF733FC002030
:10B5E000FBF76CF901213B48FBF704FA0A20FAF754
:10B5F000E4FB01213748FBF729F901213548FBF726
:10B6000041F91423FB6100BF4FF000413148FBF7C3
:10B610002BFA0346002B05D1FB69013BFB61FB695B
:10B62000002BF1D1FB69002B4DD04FF04063FB6044
:10B6300000233B6100237B610023BB6107F10C0306
:10B640001A4600212348FBF7B7F800222349214876
:10B65000FBF7D6F821491F48FBF783F900211D4865
:10B66000FBF78EF900211B48FBF70CF90021194864
:10B67000FBF73EF91748FBF754F93C23FB6105E063
:10B68000FB69013BFB610120FAF797FB012111489F
:10B69000FBF7EAF90346002B02D1FB69002BEFD13F
:10B6A000FB69002B11D03D233B700123FB700E235F
:10B6B0007B703B461846F7F7D7F90122022105486F
:10B6C000FBF7B4F902E000BF00E000BF2037BD4641
:10B6D00080BD00BF0060014000040048600007001A
:10B6E00080B500AF174B1B78012B0CD1164B40F6E1
:10B6F000B8321A80144B40F6B8325A80124B40F6DA
:10B70000B8329A800BE0114B9A8D0F4B1A800F4B79
:10B71000DA8D0D4B5A800D4B1A8E0B4B9A80FFF72A
:10B72000F5FD4FF44070F7F78BF9FFF701FEFFF7D7
:10B730001FFEFFF759FEFFF7B7FEFFF715FF00BF2B
:10B7400080BD00BF040000207C340020C00D00201C
:10B7500080B485B000AF0346FB80B7F9063003F52F
:10B76000FF437F33FB60134B1B881A46FB6802FBC9
:10B7700003F3FB60FB68104A82FB03121A44D213E6
:10B78000DB17D31AFB600B4B5B881A46FB6802FB86
:10B7900003F3FB60074B9B881A46FB6893FBF2F3AD
:10B7A000FB60FB689BB218461437BD465DF8047B0E
:10B7B000704700BF7C3400200180008080B500AF5E
:10B7C000072000F0ABF80346012B0BD006490748D1
:10B7D000FBF7C7F80548FBF7B4F86421072000F031
:10B7E0007BF800E000BF80BD200005000060014044
:10B7F00080B500AF00211348FEF770F80021124811
:10B80000FEF76CF800214FF08040FAF717F800219E
:10B810000E48FAF713F800210D48FAF70FF8002147
:10B820000C48FAF70BF800210B48FAF707F800214B
:10B830000A48FAF703F800210948FBF707F800BFA8
:10B8400080BD00BF004400400038014000040040BB
:10B85000000C004000140040001C00400018004094
:10B860000060014080B500AF01211348FEF736F8B3
:10B8700001211248FEF732F801214FF08040F9F71C
:10B88000DDFF01210E48F9F7D9FF01210D48F9F735
:10B89000D5FF01210C48F9F7D1FF01210B48F9F739
:10B8A000CDFF01210A48F9F7C9FF01210948FAF73C
:10B8B000CDFF00BF80BD00BF004400400038014004
:10B8C00000040040000C004000140040001C004038
:10B8D000001800400060014080B483B000AF034610
:10B8E0000A46FB711346BB800A4B1988FB79BA885C
:10B8F0000A4491B2084A9B0013440A465A80FB79D5
:10B90000054A012102F8231000BF0C37BD465DF83F
:10B91000047B7047783400208434002080B483B0E6
:10B9200000AF0346FB71FB79044A12F82330184636
:10B930000C37BD465DF8047B704700BF843400209F
:10B9400080B483B000AF00237B6016E0104A7B68B0
:10B9500012F82330012B0DD10D4A7B689B00134454
:10B960005A880C4B1B889A4204D1094A7B680021F3
:10B9700002F823107B6801337B607B68092BE5DDCF
:10B9800000BF00BF0C37BD465DF8047B704700BFA9
:10B99000843400207834002080B582B000AF0121CB
:10B9A0004FF40030FFF712FC01214FF40030FFF795
:10B9B0000DFC01214FF40030FFF708FC01233B711F
:10B9C00002237B710023BB710123FB7140233B6089
:10B9D0003B461946124800F063FD80233B603B461E
:10B9E00019460F4800F05CFD4FF400633B603B4696
:10B9F00019464FF0904000F053FD4021084800F0F8
:10BA000010FE8021064800F00CFE4FF400614FF05C
:10BA1000904000F006FE00BF0837BD4680BD00BF65
:10BA20000004004880B588B000AF01214FF4805079
:10BA3000FFF7ECFB052203212D4800F001FE052253
:10BA400005212B4800F0FCFD05220421284800F0C8
:10BA5000F7FD02233B7703237B770023BB77022389
:10BA6000FB770823BB6107F118031946204800F053
:10BA700017FD2023BB6107F1180319461C4800F08D
:10BA80000FFD1023BB6107F118031946184800F099
:10BA900007FD00211748F7F7CDFE1648F7F736FEE9
:10BAA0000023BB804FF48273FB804FF4E0633B8143
:10BAB00000237B810023BB814FF40073FB8138237B
:10BAC0003B8200237B820723BB823B1D194609482A
:10BAD000F7F756FE4FF480510648F7F7CBFE0121E9
:10BAE0000448F7F7A7FE00BF2037BD4680BD00BF62
:10BAF000000400480030014080B584B000AF034628
:10BB00000A46FB711346BB71FB79FB73FB7B03F0A9
:10BB10007F03FB73FB7B23F04003FB734FF4004177
:10BB20004FF0904000F07DFDFB7B19461648F7F77B
:10BB3000BDFE00BF01211448F7F7E2FE0346002BCB
:10BB4000F8D01148F7F7C8FEBB7919460E48F7F749
:10BB5000ADFE00BF01210C48F7F7D2FE0346002BD3
:10BB6000F8D00948F7F7B8FE0346BB734FF400411D
:10BB70004FF0904000F046FD0120FAF71EF9BB7B24
:10BB800018461037BD4680BD0030014080B584B0F6
:10BB900000AF0346FB71FB79FB73FB7B63F07F0314
:10BBA000FB73FB7B23F04003FB734FF400414FF02A
:10BBB000904000F036FDFB7B19461848F7F776FEFB
:10BBC00000BF01211548F7F79BFE0346002BF8D074
:10BBD0001248F7F781FE01211048F7F7ADFE00216A
:10BBE0000E48F7F763FE00BF01210C48F7F788FE07
:10BBF0000346002BF8D00948F7F76EFE0346BB73E7
:10BC00004FF400414FF0904000F0FCFC0120FAF7A7
:10BC1000D4F8BB7B18461037BD4680BD00300140CC
:10BC200080B584B000AF0346FB710023FB73002393
:10BC3000BB73FB7B03F07F03FB73FB7B23F04003B1
:10BC4000FB73FA7BFB791343FB734FF400414FF016
:10BC5000904000F0E6FCFB7B19460F48F7F726FE04
:10BC600000BF01210C48F7F74BFE0346002BF8D02C
:10BC70000948F7F731FE0346BB734FF400414FF01C
:10BC8000904000F0BFFC0120FAF797F8BB7B184604
:10BC90001037BD4680BD00BF0030014080B582B086
:10BCA00000AF01214FF48020FFF790FA01214FF4FB
:10BCB0008020FFF78BFA01214FF48020FFF786FAEE
:10BCC00001214FF40030FFF781FA00213748F7F7E0
:10BCD000B1FD3648F7F71AFD01233B7103237B7151
:10BCE0000023BB710123FB7108233B603B461946CF
:10BCF0002F4800F0D5FB20233B603B4619462C48DB
:10BD000000F0CEFB4FF400433B603B4619464FF03A
:10BD1000904000F0C5FB00233B7110233B603B4685
:10BD20001946234800F0BCFB0821214800F06AFCBA
:10BD300020211F4800F075FC4FF400414FF0904067
:10BD400000F060FC0120FAF738F84FF400414FF0A2
:10BD5000904000F066FC4FF400414FF0904000F03E
:10BD600051FC0120FAF729F84FF400414FF09040C0
:10BD700000F057FC00BF10210D4800F027FC0346DF
:10BD8000012BF8D0FFF74EFE3020FFF749FF00BF30
:10BD90001021074800F01AFC0346012BF8D0054893
:10BDA00000F080F800BF0837BD4680BD003001407C
:10BDB00000040048AC34002080B500AF2E210020E4
:10BDC000FFF79AFE0B210120FFF796FE2E2102209D
:10BDD000FFF792FE47210320FFF78EFED3210420B8
:10BDE000FFF78AFE91210520FFF786FEFF2106203E
:10BDF000FFF782FE32210820FFF77EFE00210A2095
:10BE0000FFF77AFE00210C20FFF776FE244B1B780B
:10BE1000022B08D1F7211020FFF76EFE4A211120D6
:10BE2000FFF76AFE0BE01E4B1B78012B07D1FA21AE
:10BE30001020FFF761FE0A211120FFF75DFE10219F
:10BE40001220FFF759FE22211320FFF755FEF8219B
:10BE50001420FFF751FE30211720FFF74DFE182167
:10BE60001820FFF749FE10212220FFF745FEE921A7
:10BE70002320FFF741FE2A212420FFF73DFE002169
:10BE80002520FFF739FE1F212620FFF735FE602110
:10BE90003E20FFF731FE3E20FFF778FE00BF80BD59
:10BEA0001700002080B584B000AF78603D20FFF718
:10BEB000B7FE0346FB7397F90F30002B03DA7B685C
:10BEC00000221A7102E07B6801221A71FB7B1B09B8
:10BED000FB737B68FA7B1A7000BF1037BD4680BDCC
:10BEE00080B582B000AF78607B6800221A71FFF7DE
:10BEF00053FDFFF7D3FE7B681B79002B0BD11E4847
:10BF0000F6F7D2FA0021786800F0AEF800217868E0
:10BF100000F04EF82DE0FFF74FFF184B1B78174A43
:10BF20005B0013445B881946786800F0B3F8144B43
:10BF3000B3F84430DBB21946786800F009F9104BC9
:10BF4000B3F84830DBB21946786800F08DF80C4B36
:10BF5000B3F84630DBB21946786800F029F80121C1
:10BF6000786800F011F80748F6F79EFA7868FFF74E
:10BF700099FF0837BD4680BD5C640108540C002061
:10BF8000C00D00207C64010880B582B000AF7860ED
:10BF90000B46FB70FB78012B03D13520FFF740FEE9
:10BFA00002E03620FFF73CFE00BF0837BD4680BDEB
:10BFB00080B582B000AF78600B46FB70FB78002B39
:10BFC0000ED14FF400614FF0904000F02AFB402169
:10BFD000244800F026FB8021224800F022FB3AE0B2
:10BFE0004FF400614FF0904000F00CFBFB78013BF8
:10BFF000032B2FD801A252F823F000BF0DC0000878
:10C000001FC0000831C0000843C000084021154887
:10C0100000F007FB8021134800F003FB1BE04021E8
:10C02000104800F0EFFA80210E4800F0FAFA12E012
:10C0300040210C4800F0F5FA80210A4800F0E2FAAD
:10C0400009E04021074800F0DDFA8021054800F0B2
:10C05000D9FA00E000BF7B68FA785A7000BF083751
:10C06000BD4680BD0004004880B483B000AF786056
:10C070000B46FB70FB78002B03D07B6801229A7083
:10C0800002E07B6800229A7000BF0C37BD465DF865
:10C09000047B704780B584B000AF78600B467B802E
:10C0A0007B88B3F57A6F4AD37B8841F204029342CE
:10C0B00045D87B881B04FB60FB68234AA2FB032353
:10C0C0001B0AFB60214BB3F84230012B03D1FB6804
:10C0D000203BFB6007E01D4BB3F84230022B02D13E
:10C0E000FB68133BFB60FB681B0CFB72FB681B0AC5
:10C0F000BB72FB687B727868FFF7D4FE7B681B78A5
:10C100003B723B7A022B03D100217868FFF73CFF9A
:10C110007B7A19460F20FFF7EFFCBB7A19460E20F9
:10C12000FFF7EAFCFB7A19460D20FFF7E5FC3B7AA6
:10C13000022B05D101217868FFF726FF00E000BF40
:10C140001037BD4680BD00BFFDC00FFCC00D0020F4
:10C1500080B586B000AF78600B46FB700023FB759E
:10C160000023BB7500237B7500233B61FB78264AC7
:10C1700002FB03F3FB600023FB751BE00023BB7590
:10C1800012E0BB7D083344F67C5202FB03F33B61B3
:10C19000FB7D3A6902FA03F33B613A69FB689A4214
:10C1A0000CD8BB7D0133BB75BB7D072BE9D9FB7D6B
:10C1B0000133FB75FB7D072BE0D900E000BFFB7D61
:10C1C0001B017B757A7DBB7D13437B757868FFF718
:10C1D00069FE7B681B78FB72FB7A022B03D100217E
:10C1E0007868FFF7D1FE7B7D19461520FFF784FCA8
:10C1F000FB7A022B03D101217868FFF7C5FE00BF4F
:10C200001837BD4680BD00BFA086010080B584B050
:10C2100000AF78600B46FB707868FFF743FE7B68E1
:10C220001B78BB73BB7B022B03D100217868FFF71F
:10C23000ABFE1220FFF7AAFC0346FB73FB7B23F047
:10C240007003FB73FB781B015AB297F90F3013434D
:10C250005BB2FB73FB7B19461220FFF74DFCFB78AA
:10C26000032B02D11123FB7301E01023FB73FB7B33
:10C2700019462220FFF740FCBB7B022B03D1012192
:10C280007868FFF781FE00BF1037BD4680BD000013
:10C2900080B485B000AF78600B4B1B68002B02D1D7
:10C2A000094B0A4A1A60084B1B68FB60064B1A6868
:10C2B0007B681344044A1360FB6818461437BD4674
:10C2C0005DF8047B704700BFB434002014350020B3
:10C2D00080B483B000AF78604FF0FF3318460C375E
:10C2E000BD465DF8047B704780B483B000AF7860D2
:10C2F00039603B684FF400525A60002318460C37EF
:10C30000BD465DF8047B704780B483B000AF7860B1
:10C31000012318460C37BD465DF8047B704780B496
:10C3200085B000AFF860B9607A6000231846143712
:10C33000BD465DF8047B704780B485B000AFF860FF
:10C34000B9607A60002318461437BD465DF8047B57
:10C35000704780B485B000AFF860B9607A607B68E0
:10C3600018461437BD465DF8047B704780B400AFB3
:10C37000FEE7000080B485B000AF7860396000232C
:10C38000FB60144B1B68FB6043F6FE727B6802FA8D
:10C3900003F3DB43FA681340FB603B681A683B68B1
:10C3A0005B681A433B689B681A433B68DB681A4327
:10C3B0003B681B691A437B6802FA03F3FA6813436C
:10C3C000FB60044AFB68136000BF1437BD465DF88C
:10C3D000047B70471C00014080B483B000AF7860DC
:10C3E0000B46FB70FB78002B0AD00D4B1B6801211C
:10C3F0007A6801FA02F21146094A0B43136009E018
:10C40000074B1A6801217B6801FA03F3DB430449F7
:10C4100013400B6000BF0C37BD465DF8047B7047CE
:10C420001C00014080B485B000AF78600023FB6041
:10C430000B4B1A684FF480417B6801FA03F31340F9
:10C44000002B03D04FF48043FB6001E00023FB602E
:10C45000FB6818461437BD465DF8047B704700BF83
:10C460001C00014080B483B000AF0346FB71FB7930
:10C47000002B06D0094B1B68084A43F400031360E5
:10C4800005E0064B1B68054A23F40003136000BF58
:10C490000C37BD465DF8047B704700BF1C000140AF
:10C4A00080B487B000AF7860396000237B610023DF
:10C4B0003B610023FB6000237B617CE001227B6900
:10C4C00002FA03F33B613B681B683A691340FB6067
:10C4D000FA683B699A426BD13B681B79012B03D008
:10C4E0003B681B79022B34D17B689A687B695B00BF
:10C4F000032101FA03F3DB431A407B689A607B68EF
:10C500009A683B685B7919467B695B0001FA03F323
:10C510001A437B689A607B689B889AB27B699BB25E
:10C52000194601238B409BB2DB439BB213409AB266
:10C530007B689A807B689B889AB23B689B79194696
:10C540007B699BB201FA03F39BB213439AB27B68F7
:10C550009A807B681A687B695B00032101FA03F308
:10C56000DB431A407B681A607B681A683B681B795A
:10C5700019467B695B0001FA03F31A437B681A6072
:10C580007B68DA687B699BB25B00032101FA03F3E5
:10C59000DB431A407B68DA607B68DA683B68DB79EA
:10C5A00019467B695B0001FA03F31A437B68DA6082
:10C5B0007B6901337B617B690F2B7FF67FAF00BF07
:10C5C00000BF1C37BD465DF8047B704780B485B062
:10C5D00000AF78600B467B800023FB737B681B8A6F
:10C5E0009AB27B8813409BB2002B02D00123FB73CD
:10C5F00001E00023FB73FB7B18461437BD465DF852
:10C60000047B704780B483B000AF78600B467B80BA
:10C610007A887B689A6100BF0C37BD465DF8047B61
:10C62000704780B483B000AF78600B467B807B6836
:10C630007A881A8500BF0C37BD465DF8047B7047C9
:10C6400080B485B000AF78600B467B8013467B706A
:10C650000023FB600023BB607A787B8803F007032C
:10C660009B0002FA03F3FB607B88DB089BB21A464F
:10C670007B68083253F822207B8803F007039B0075
:10C680000F2101FA03F3DB437988C90889B2084610
:10C6900002EA03017B6800F1080243F822107B885C
:10C6A000DB089BB21A467B68083253F82230FA68DE
:10C6B0001343BB607B88DB089BB21A467B68083259
:10C6C000B96843F8221000BF1437BD465DF8047BFB
:10C6D0007047000080B586B000AF786000233B61F2
:10C6E00000237B610CE07A687B695B001344B3F93B
:10C6F00006301A463B6913443B617B6901337B6119
:10C700007B69042BEFDD3B690F4A82FB0312521059
:10C71000DB17D31A3B613B691BB21846FFF718F8C9
:10C7200003461A467B685A827B685B8AFB81FB89D9
:10C730001A4652001344FB817B68FA899A8200BF33
:10C740001837BD4680BD00BF6766666680B584B099
:10C7500000AF78607B6800221A707B6800225A80E4
:10C760007B6800229A807B6800225A827B680022C4
:10C770009A827B6800221A747B6800229A750023D3
:10C78000FB8121E015491648FAF7EBF81448FAF74F
:10C79000D8F800BF7B681B7C002BFBD07B68002295
:10C7A0001A747B685B885A1C0E4B83FB021359106A
:10C7B000D317C91A0B469B000B44D11A8AB27B6867
:10C7C0005A80FB890133FB81FB89042BDAD9786815
:10C7D000FFF780FF00BF1037BD4680BD2000050079
:10C7E000006001406766666680B582B000AF786021
:10C7F0007B681B7C002B5ED07B6800221A747868F3
:10C80000FFF768FF7B685B885A1C2F4B83FB021382
:10C810005910D317C91A0B469B000B44D11A8AB280
:10C820007B685A807B681B78022B3BD0022B47DC4D
:10C83000002B02D0012B1ED042E07B689B8A40F681
:10C84000B732934206D87B689B8801339AB27B68E3
:10C850009A8002E07B6800229A807B689B88642B28
:10C860002BD97B6801221A707B6800229A807B6832
:10C8700001229A7521E07B689B8AB3F5166F06D278
:10C880007B689B8801339AB27B689A8002E07B6860
:10C8900000229A807B689B88642B10D97B680222D7
:10C8A0001A700CE000210948FFF782FB04210848B8
:10C8B000FFF7B7FEFEE700BF02E000BF00E000BFE9
:10C8C0000837BD4680BD00BF67666666AC34002091
:10C8D0000004004880B400AF084B1B6903F08003DC
:10C8E000002B05D0054B064A5A60044B054A5A6096
:10C8F00000BFBD465DF8047B704700BF00200240CA
:10C9000023016745AB89EFCD80B400AF054B1B69B0
:10C91000044A43F08003136100BFBD465DF8047B09
:10C92000704700BF0020024080B584B000AF78603F
:10C930000423FB734FF4302000F0ACF80346FB7384
:10C94000FB7B042B1AD1104B1B690F4A43F00203E7
:10C9500013610D4A7B6853610B4B1B690A4A43F014
:10C96000400313614FF4302000F094F80346FB734A
:10C97000054B1B69044A23F002031361FB7B184635
:10C980001037BD4680BD00BF0020024080B584B096
:10C9900000AF78600B467B800423FB734FF430209C
:10C9A00000F078F80346FB73FB7B042B14D10D4B8E
:10C9B0001B690C4A43F0010313617B687A881A8073
:10C9C0004FF4302000F066F80346FB73054B1B69FB
:10C9D000044A23F001031361FB7B18461037BD4660
:10C9E00080BD00BF0020024080B485B000AF7860F9
:10C9F0000023FB73084BDA687B681340002B02D0DE
:10CA00000123FB7301E00023FB73FB7B1846143703
:10CA1000BD465DF8047B70470020024080B483B0BF
:10CA200000AF7860044A7B68D36000BF0C37BD4616
:10CA30005DF8047B704700BF0020024080B483B0E3
:10CA400000AF0423FB71124BDB6803F00103012BE1
:10CA500002D10123FB7113E00D4BDB6803F01003DF
:10CA6000002B02D00223FB710AE0094BDB6803F0C4
:10CA70000403002B02D00323FB7101E00423FB71AC
:10CA8000FB7918460C37BD465DF8047B704700BF44
:10CA90000020024080B584B000AF78600423FB73AF
:10CAA000FFF7CCFF0346FB7306E0FFF7C7FF034623
:10CAB000FB737B68013B7B60FB7B012B02D17B68B6
:10CAC000002BF2D17B68002B01D10523FB73FB7B8C
:10CAD00018461037BD4680BD53EC102BC3F30A5CDB
:10CAE000ACF2FF31132910B510EE100A9E4622DC7D
:10CAF000002909DB1F4C44FA01FC03EA0C04204323
:10CB000010D143EC102B10BD03F0004E013104BFD7
:10CB10004EF07F5E4EF4401E00207346024643EC0A
:10CB2000102B10BD4FF4002343FA01F18E442EEA7E
:10CB30000C0E0020F1E7332908DDB1F5806FE0D15C
:10CB4000194601F0D9FC41EC100B10BDACF2134CAE
:10CB50004FF0FF3424FA0CFC12EA0C0FD1D0012361
:10CB6000C1F1330103FA01F1401828BF9E4420EAC5
:10CB70000C00D2E7FFFF0F0008B52DED048BB0EEDF
:10CB8000408AF0EE608A00F037F9B0EE409AF0EE9D
:10CB9000609AB0EE480AF0EE680A01F0FFFB78B147
:10CBA00019A3D3E9002351EC180B02F0EBF870B98C
:10CBB00017A3D3E9002351EC180B02F0C5F898B97C
:10CBC000B0EE490AF0EE690ABDEC048B08BD9FED9A
:10CBD0000A9B02F08FF9B0EE490AF0EE690ABDEC4B
:10CBE000048B2223036008BD02F084F922239FED09
:10CBF000049B0360E4E700BF000000000000F07F3A
:10CC00000000000000000000EF39FAFE422E8640CE
:10CC100051302DD5104987C038B52DED028B55EC1C
:10CC2000104B00F0D9FA22462B4620462946B0EE9A
:10CC3000408AF0EE608A02F0AFF898B90022002333
:10CC40002046294602F09EF860B9002200232046C3
:10CC5000294602F06FF860B102F04CF99FED0C8BA1
:10CC600022230360B0EE480AF0EE680ABDEC028BA6
:10CC700038BD02F03FF9BDEC028B034621221A6059
:10CC80000548BDE8384001F097BB00BFAFF3008016
:10CC9000000000000000F0FF7068010800000000C4
:10CCA000F8B52DED028B55EC114B57EC106B00F0E5
:10CCB000AFFC22462B4620462946B0EE408AF0EED5
:10CCC000608A02F069F878B90022002330463946BC
:10CCD00002F030F8F0B1002200232046294602F08D
:10CCE00029F840B19FED288BB0EE480AF0EE680AB3
:10CCF000BDEC028BF8BD45EC104B01F04FFB00285A
:10CD0000F2D0204629460022002302F01DF8002818
:10CD1000EAD02EE0B0EE480AF0EE680A01F03EFBE1
:10CD2000A0B151EC180B0022002302F003F80028F8
:10CD3000DAD047EC106B01F031FB0028D4D045EC81
:10CD4000104B01F02BFB0028CED012E047EC106B0B
:10CD500001F024FB0028E4D045EC104B01F01EFB51
:10CD60000028DED053EC182B51EC180B02F014F80D
:10CD700020B902F0BFF822230360B5E702F0BAF849
:10CD800021230360B0E700BF000000000000F03F77
:10CD900038B52DED028B55EC104B01F0F3F922461E
:10CDA0002B4620462946B0EE408AF0EE608A01F01C
:10CDB000F3FF30B9002200232046294601F0C4FFCA
:10CDC00030B9B0EE480AF0EE680ABDEC028B38BD0F
:10CDD00002F090F80022002321210160104619463C
:10CDE00001F06AFE41EC180BB0EE480AF0EE680A5A
:10CDF000BDEC028B38BD00BF2DE9F04F55EC104B58
:10CE00002DED028BDC4925F000428A4283B04FEAC7
:10CE1000D5760ED9D9498A4274D9C5F31303234371
:10CE200010EE102A40F06281002E66D09FEDBA0B02
:10CE300063E0D34B9A4200F22281D24B9A4240F2F5
:10CE40003D8122462B462046294601F00BFDB4A326
:10CE5000D3E9002306460F4601F004FDB2A3D3E94F
:10CE6000002301F047FB32463B4601F0FBFCB0A338
:10CE7000D3E9002301F040FB32463B4601F0F2FCCF
:10CE8000ADA3D3E9002301F035FB32463B4601F068
:10CE9000E9FCABA3D3E9002301F02EFB32463B466D
:10CEA00001F0E0FC02460B462046294601F022FB39
:10CEB0000A460146914688460A464B462046294680
:10CEC00001F0D0FC002206460F464FF0804340465A
:10CED000494601F00FFB02460B463046394601F049
:10CEE000EBFD22462B4601F005FB02460B460020D7
:10CEF000A54901F0FFFA41EC100B03B0BDEC028B29
:10CF0000BDE8F08F90A3D3E9002310EE100A294664
:10CF100001F038FF0746002840F0F4808CA3D3E9E5
:10CF200000232046294601F00FFF002840F04981E8
:10CF3000964B204603EBC606294687A3D3E9002378
:10CF400001F090FCD6E9002301F0D6FA01F03AFF97
:10CF5000019001F01DFC82A3D3E9002306460F4691
:10CF600001F080FC02460B462046294601F0C2FA39
:10CF70007DA3D3E90023804689463046394601F037
:10CF800071FC41EC180B53EC182B4046494601F05C
:10CF9000B1FA02460B4682468B4601F063FC60A361
:10CFA000D3E9002304460D4601F05CFC5EA3D3E9FF
:10CFB000002301F09FFA22462B4601F053FC5CA3AC
:10CFC000D3E9002301F098FA22462B4601F04AFCEF
:10CFD00059A3D3E9002301F08DFA22462B4601F034
:10CFE00041FC57A3D3E9002301F086FA22462B46E1
:10CFF00001F038FC02460B465046594601F07AFAD9
:10D00000019B0F46064654465D4601463A46002BB4
:10D010003FF450AF32463B465046594601F022FCA1
:10D02000324604463B460D4600204FF0804101F059
:10D0300061FA02460B462046294601F03DFD0246B4
:10D040000B4651EC180B01F055FA42464B4601F0E5
:10D0500051FA02460B4600204B4901F04BFA019C65
:10D060006FF47F739C420246C0F2988001EB045338
:10D0700043EC102B03B0BDEC028BBDE8F08F444BAA
:10D080009A423FF655AF434B03EBC603D3E9002367
:10D0900010EE100A294601F02DFA3F4BF40023440C
:10D0A00093ED007BC6F1010AAAEB06038046894690
:10D0B0000193B0EE478AF0EE678A64E72CA3D3E9C8
:10D0C000002310EE100A294601F016FA2E4B00221A
:10D0D00001F058FE00283FF4B4AE2B4B002220464E
:10D0E000294601F009FA41EC100B06E72B462046D1
:10D0F000294601F001FA41EC100B03B0BDEC028BA4
:10D10000BDE8F08F002003B0BDEC028BBDE8F04F0E
:10D1100001F030B9AFF30080000000000000000013
:10D12000D0A4BE726937663EF16BD2C541BDBB3E2D
:10D130002CDE25AF6A56113F93BDBE166CC1663F0B
:10D140003E5555555555C53FEF39FAFE422E86409E
:10D1500051302DD5104987C0FE822B654715F73F0A
:10D160000000E0FE422EE63F763C7935EF39EA3D9D
:10D170009C7500883CE4377E412E8640FFFFEF7FA0
:10D18000422ED63FFFFFEF3D0000F03FA8640108AC
:10D19000B1A2F03FB8640108C8640108019800F525
:10D1A0007A7A01EB0A531046194600224FF0B87301
:10D1B00001F058FB41EC100B03B0BDEC028BBDE855
:10D1C000F08F384603B0BDEC028BBDE8F04F01F0A4
:10D1D000C7B800BF000000002DE9F04F51EC100B64
:10D1E0002DED028BB1F5801F85B00F4658DA21F086
:10D1F0000043034310EE102A00F0FC800029C0F227
:10D200003C81E14B002201F02DFBE04B0F469F4299
:10D210006FF0350249DC3E15C7F3130707F51523F8
:10D22000A6F2FF3603F66473164403F4801306EB8C
:10D23000135683F07F5383F4401343EA070100221F
:10D24000D34B01F057F9BB1CC3F31303022B8246E7
:10D250008B4635DC0022002301F06CFD002800F035
:10D26000D680002E00F06081304601F091FAB0A324
:10D27000D3E9002306460F4601F0F4FAAEA3D3E942
:10D28000002304460D463046394601F0EBFA0246CB
:10D290000B462046294601F02FF941EC100B0AE01D
:10D2A000BA4B9F424FF00002B5DD02460B4601F03B
:10D2B00023F941EC100B05B0BDEC028BBDE8F08FFB
:10D2C000A7F5C223A3F27A43019300224FF08043D3
:10D2D00001F012F902460B465046594601F0ECFBAC
:10D2E00041EC180B304601F053FA53EC182BCDE902
:10D2F000020151EC180B01F0B5FA02460B468046CC
:10D30000894601F0AFFA8EA3D3E9002304460D4607
:10D3100001F0A8FA8CA3D3E9002301F0EDF822462E
:10D320002B4601F09FFA8AA3D3E9002301F0E4F829
:10D3300022462B4601F096FA87A3D3E9002301F099
:10D34000DBF842464B4601F08DFA85A3D3E9002372
:10D35000804689462046294601F084FA82A3D3E913
:10D36000002301F0C9F822462B4601F07BFA80A386
:10D37000D3E9002301F0C0F822462B4601F072FAEF
:10D380000B4602464946404601F0B6F8C7F5D72796
:10D39000019B51371F43002F804689465FDD7D4B3F
:10D3A00000225046594601F05DFA52465B4601F0B4
:10D3B00059FA04460D46002E69D122462B464046B6
:10D3C000494601F099F853EC182B01F04BFA02464C
:10D3D0000B462046294601F08DF802460B46504682
:10D3E000594601F087F841EC100B05B0BDEC028BFB
:10D3F000BDE8F08F002200236749002001F05CFBAC
:10D4000041EC100B05B0BDEC028BBDE8F08F5AA3C8
:10D41000D3E900235046594601F024FA02460B4650
:10D4200000205C4901F066F8524604460D465B4612
:10D430005046594601F016FA02460B462046294648
:10D4400001F010FA04460D46002E59D102460B4653
:10D450005046594601F04EF841EC100B2BE7002ED8
:10D4600040F09C8002460B465046594601F042F877
:10D4700053EC182B01F0F6F9AFE70B4601F03AF840
:10D480000022002301F018FB41EC100B13E728A346
:10D49000D3E90023DDE9020101F0E4F922462B463D
:10D4A00006460F464046494601F026F853EC182B35
:10D4B00001F0D8F920A3D3E9002380468946DDE9AD
:10D4C000020101F0CFF902460B464046494601F001
:10D4D00013F802460B462046294601F00BF8524647
:10D4E0005B4601F007F802460B463046394601F02C
:10D4F00001F841EC100B05B0BDEC028BBDE8F08FDC
:10D50000304601F045F90AA3D3E900238046894655
:10D5100001F0A8F908A3D3E9002306460F464046C8
:10D52000494601F09FF9D4E79FED150BC3E600BF14
:10D530000000E0FE422EE63F763C7935EF39EA3DC9
:10D5400044523EDF12F1C23FDE03CB966446C73F32
:10D55000599322942449D23F935555555555E53F4B
:10D560009FC678D0099AC33FAF788E1DC571CC3F56
:10D5700004FA97999999D93F555555555555D53F21
:10D58000000000000000000000005043FFFFEF7F9C
:10D590000000F03F0000E03F000050C318A3D3E9B3
:10D5A0000023DDE9020101F05DF942464B460446E5
:10D5B0000D465046594600F09DFF53EC182B01F0E4
:10D5C00051F911A3D3E9002306460F46DDE9020114
:10D5D00001F048F902460B463046394600F08AFF12
:10D5E00052465B4600F086FF02460B46204629461F
:10D5F00000F080FF41EC100B5DE600BFAFF3008050
:10D600000000E0FE422EE63F763C7935EF39EA3DF8
:10D610002DE9F04F55EC114B2DED0C8B25F0004A08
:10D620005AEA040157EC106B87B015D1B3197E4844
:10D6300087F400225241994270EB020324D2224621
:10D640002B463046394600F057FF41EC100B07B02F
:10D65000BDEC0C8BBDE8F08F744927F0004989457B
:10D6600010EE102AB84616DD08F1404808F580187B
:10D6700058EA0208E3D123196B4985F4002252418C
:10D68000984571EB0203DAD39FED650B07B0BDEC53
:10D690000C8BBDE8F08F11EE103AAB4642D06349D7
:10D6A0008A45E1DC00F09480B8F1000F73DB0021C3
:10D6B00000917BB95D4B9A4500F08E805C4B9A459A
:10D6C00000F0A280BBF1804F00F0C284594B9B4513
:10D6D00000F0D78347EC106B029200F055FE029ADF
:10D6E00062B3009A4FEAD873013B0493134300F0EE
:10D6F0009280514B9A4540F3A58003F104739A45FB
:10D700004E4B40F33F84994540F3B484BBF1000F86
:10D7100040F3B484002007B0BDEC0C8BBDE8F04FA3
:10D7200000F028BE002E8AD1B9E747EC106B0092BA
:10D7300000F02AFE009A002A6DD10092B9F1000F84
:10D7400004D03B4B28F040429A42CAD1BBF1000FB3
:10D7500007DA53EC102B3649002001F0ADF941EC0B
:10D76000100BB8F1000FBFF672AF009B09F14049F2
:10D7700009F5801959EA030340F0908453EC102B0B
:10D780001046194600F0B6FE02460B4601F094F929
:10D7900041EC100B5BE72A498A452FDCA1F154715B
:10D7A0008A450FDD4FEA2A51A1F2FF31142940F3D7
:10D7B0006784C1F1340123FA01F000FA01F19942C2
:10D7C00000F0A58400210091002B3FF477AF81E7A2
:10D7D000002B3FF469AF47E709F1404303F580139D
:10D7E00013433FF451AF154B994540F38483BBF18C
:10D7F000000FC0F2618445EC104B28E70221009134
:10D80000002B3FF457AF65E7BBF1000FC0F2168461
:10D8100047EC106B1BE732463B46B1E7AFF30080A5
:10D82000000000000000F03F0000F0FF0000F07F6B
:10D830000000F03F0000E03F0000E041FFFFEF3F4D
:10D84000FFFF3F43E44B08EA0303002253B951ECC6
:10D85000100BE24B01F006F841EC100B10EE909A21
:10D860006FF034024FEA2953A3F2FF339A18DC4BCE
:10D870000592C9F3130949F07F56994546F44016BD
:10D8800007DDD84B994540F31B8401320592A6F57C
:10D8900080169FEDB96B9FEDBA7B53EC162BB0EE63
:10D8A00047CAF0EE67CA0027B0EE47DAF0EE67DA53
:10D8B0005BEC10ABB3465046594643EC1A2B00F0D4
:10D8C00019FE53EC1A2B804689465046594600F003
:10D8D00013FE02460B460020C34901F0EDF841EC6F
:10D8E0001B0B404653EC1B2B494600F0BBFF41ECA1
:10D8F000180B0A460146CDE902120021029176106A
:10D900004BEC19AB46F00056DDE902AB06F50023FF
:10D910000020D91906460F4602460B465046594686
:10D9200000F0A0FF02460B464046494600F0E2FDEB
:10D9300053EC1A2B804689463046394600F0DAFD12
:10D9400002460B4651EC190B00F0D4FD52465B46E3
:10D9500000F088FF02460B464046494600F0CAFDEB
:10D9600053EC1B2B00F07EFF53EC182B41EC1B0BF0
:10D9700051EC180B00F076FF83A3D3E90023064691
:10D980000F4600F06FFF82A3D3E9002300F0B4FD3F
:10D9900032463B4600F066FF7FA3D3E9002300F048
:10D9A000ABFD32463B4600F05DFF7DA3D3E900238B
:10D9B00000F0A2FD32463B4600F054FF7AA3D3E9C3
:10D9C000002300F099FD32463B4600F04BFF78A360
:10D9D000D3E9002300F090FD3246804689463B465D
:10D9E0003046394600F03EFF02460B464046494667
:10D9F00000F038FF524606460F465B4651EC180BC6
:10DA000000F07AFD53EC1B2B00F02CFF32463B4616
:10DA100000F072FD524641EC1A0B5B4650465946E7
:10DA200000F020FF714B00228046894600F064FD23
:10DA300053EC1A2B00F060FD50460F465946DDE9C5
:10DA400002AB3B46524600F00DFF684B41EC190B10
:10DA500000225046394600F04DFD42464B4600F04C
:10DA600049FD02460B4651EC1A0B00F043FD53EC06
:10DA7000182B00F0F7FE52463B4606460F4651EC87
:10DA80001B0B00F0EFFE02460B463046394600F015
:10DA900033FD8046894642464B4651EC190B00F057
:10DAA0002BFD45A3D3E9002350460F4600F0DAFED4
:10DAB00053EC192B41EC190B5046394600F01AFD76
:10DAC00002460B464046494600F014FD3CA3D3E90C
:10DAD000002300F0C7FE02460B4616465046394664
:10DAE0001F4639A3D3E9002300F0BCFE02460B46D3
:10DAF0003046394600F000FD53EC1D2B00F0FCFCD5
:10DB000080460598894600F043FE424682468B4691
:10DB10004B4651EC190B00F0EFFC53EC1C2B00F0C2
:10DB2000EBFC52465B4600F0E7FC52465B460020A9
:10DB300006460F4600F0DEFC53EC1C2B00F0DAFC2E
:10DB400053EC192B00F0D6FC02460B4640464946E2
:10DB500000F0D0FC009B049A013B134382468B46A5
:10DB600040F0C2819FED1A7BB0EE478AF0EE678AE3
:10DB70003EE000BFAFF30080000000000000F03F77
:10DB80000000000000000000EF4E454A287ECA3F1A
:10DB900065DBC9934A86CD3F01411DA96074D13F21
:10DBA0004D268F515555D53FFFAB6FDBB66DDB3F33
:10DBB000033333333333E33F000000E009C7EE3F64
:10DBC000FD033ADC09C7EE3FF5015B14E02F3EBED2
:10DBD000000000000000F0BF0000F07F00004043A4
:10DBE0008E98030079B60B000000F03F000008405B
:10DBF0000023CDE900450093DDE900892046424637
:10DC00004B46294600F076FC32463B4600F02AFEA1
:10DC100022462B4604460D465046594600F022FE49
:10DC200002460B462046294600F066FC4246044662
:10DC30000D464B463046394600F014FE26462F4628
:10DC400004460D462B4630463946224600F054FC29
:10DC5000C74B9942804689468A4640F31F8101F1AD
:10DC60003F4303F5E003034340F03E82AAA3D3E918
:10DC700000233046394600F03FFC02460B46404642
:10DC800049469046994622462B4600F033FC024610
:10DC90000B464046494601F075F8002840F02482C2
:10DCA000CAF30A534FF48012A3F2FE3342FA03F38D
:10DCB0005344B049C3F30A52A2F2FF3241FA02FCC4
:10DCC000C3F3130141F48011C2F1140241FA02F2CC
:10DCD000002023EA0C01BAF1000F00920B46024625
:10DCE00002DA0099494200912046294600F002FCE0
:10DCF000009B1B05029302460B4604460D46304628
:10DD0000394600F0F9FB89464FF0000884A3D3E9B7
:10DD100000234046494600F0A5FD22462B46824698
:10DD20008B464046494600F0E5FB02460B4630462E
:10DD3000394600F0DFFB7CA3D3E9002300F092FD1D
:10DD40007BA3D3E9002304460D464046494600F034
:10DD500089FD02460B462046294600F0CDFB0646CB
:10DD60000F4632463B465046594600F0C5FB5246E8
:10DD70005B4604460D4600F0BDFB02460B463046AE
:10DD8000394600F0B7FB2246804689462B4620469E
:10DD9000294600F067FD68A3D3E9002306460F4635
:10DDA00000F060FD66A3D3E9002300F0A3FB324638
:10DDB0003B4600F057FD64A3D3E9002300F09CFB31
:10DDC00032463B4600F04EFD61A3D3E9002300F04C
:10DDD00091FB32463B4600F045FD5FA3D3E90023AB
:10DDE00000F08AFB32463B4600F03CFD02460B4603
:10DDF0002046294600F07EFB06460F4632463B464B
:10DE00002046294600F02EFD02460B463046394694
:10DE100016461F4600224FF0804300F06BFB02467F
:10DE20000B463046394600F047FE424606460F464E
:10DE30004B462046294600F015FD42464B4600F071
:10DE40005BFB02460B463046394600F053FB224648
:10DE50002B4600F04FFB02460B460020464900F0DF
:10DE600049FB029A0B461344B3F5801FC0F2478169
:10DE7000194653EC182B00F0F5FC41EC100BFFF7A2
:10DE8000E6BBB8F1000FFFF625AC47EC106B07B00E
:10DE9000BDEC0C8BBDE8F04F00F074B9DFF8E0C0CA
:10DEA00021F00043634540F3DD80344B0B440343D2
:10DEB0000AD122462B4600F01DFB32463B4600F0BD
:10DEC00057FF00283FF4ECAE51EC180B0022002362
:10DED00000F03AFF003818BF012007B0BDEC0C8BF2
:10DEE000BDE8F04F00F03CBA9FED1D7BB0EE478AD5
:10DEF000F0EE678A7CE6BBF1000F9FED1B0BBFF6CF
:10DF0000A6AB05F1004300EE104A00EE903AFFF791
:10DF10009EBB00BFAFF30080FE822B654715973C88
:10DF200000000000432EE63FEF39FAFE422EE63FA6
:10DF3000396CA80C615C20BED0A4BE726937663E05
:10DF4000F16BD2C541BDBB3E2CDE25AF6A56113FF9
:10DF500093BDBE166CC1663F3E5555555555C53FE0
:10DF6000000000000000F03F000000000000000082
:10DF7000FFFF8F40FFFF0F000000F03F00346F3FB6
:10DF8000FFCB9040994575DB7B4B99453FF7BEAB86
:10DF900051EC100B784B002200F0ACFA66A3D3E9E9
:10DFA000002306460F4600F05DFC65A3D3E900237D
:10DFB00082468B463046394600F054FC6F4B41ECAC
:10DFC000180B00223046394600F04CFC02460B4646
:10DFD0005DA1D1E9000100F08DFA32463B4600F028
:10DFE00041FC02460B460020654900F083FA3246A8
:10DFF000804689463B463046394600F033FC0246AF
:10E000000B464046494600F02DFC51A3D3E90023BE
:10E0100000F028FC02460B4651EC180B00F06AFA9F
:10E020008046894642464B465046594600F064FABF
:10E03000002052465B4606460F4683E54E490020C7
:10E0400032463B4600F038FD41EC100BFFF7FFBABB
:10E0500032463B463046394600F004FC41EC100B9A
:10E06000FFF7F5BA464A934262DCDDE900120291FD
:10E07000009149E6BBF1000FFFF64CAB00202CE706
:10E08000002B7FF452ABC1F114014AFA01F000FAFF
:10E0900001F1514545D00093FFF710BB009B012BC8
:10E0A0007FF4D5AA10EE901A10EE102A01F1004369
:10E0B00043EC102BFFF7CBBA9FED270BFFF7C7BA46
:10E0C0009FED277BB0EE47CAF0EE67CA9FED267B37
:10E0D000B0EE47DAF0EE67DA9FED257B4FF480274C
:10E0E00053EC172BFFF7E4BB51EC180B0022002375
:10E0F00000F02AFE003818BF0120FFF70CBB41ECEE
:10E10000100B009800F060F951EC100BB1E600F034
:10E110000100C0F102010091002B3FF4CFAAFFF7EC
:10E12000D9BA00F00100C0F102030093FFF7C6BAAC
:10E130001B15B7E5AFF30080000000604715F73FFF
:10E1400044DF5DF80BAE543E555555555555D53FFA
:10E15000FE822B654715F73F00000000000000001D
:10E160000000004003B8E23F06D0CF43EBFD4C3E39
:10E17000000000000000F83F0000F03F0000D03F2A
:10E180000000E03F2DE9F041634A55EC104BAA43F3
:10E1900000F09F80002D10EE10CA2B4654DD29158B
:10E1A00063D0C3F31303A1F2FF37C90743F480130D
:10E1B00004D45B0003EBDC734FEA4C0C4FEADC72D7
:10E1C000002602EB43037F104FEA4C0C4FF0160E73
:10E1D00034464FF40012A118994202DC5B1A8C18E5
:10E1E00016445B00BEF1010E03EBDC734FEA5202F2
:10E1F0004FEA4C0CEFD1754620204FF000420AE068
:10E2000044D04FEADC71013801EB43034FEA4C0C78
:10E210004FEA520243D0A34202EB0E01F0DD002987
:10E2200001EB020E0ADBA0461B1B614588BF03F110
:10E23000FF33ACEB010C15444446E2E7BEF1000F9E
:10E24000F1DB04F10108EFE725F00042224338D06A
:10E25000002D4ED129464FEADC22153913464FEAEC
:10E260004C5C002AF7D0D60250D400205B00DD02BF
:10E27000044600F10100F9D51A4663460CFA00FC89
:10E28000C0F12000C340091B13438AE76145B8D899
:10E29000002901EB020ED1DB98460023C9E753EABF
:10E2A0000C0310D168087110F30701F17F5101F5DB
:10E2B000001148BF40F0004001EB0753024643EC19
:10E2C000102BBDE8F0816A1C16BF681C013640089F
:10E2D000E9E710EE102A10EE100A2B46294600F04E
:10E2E000C1FA22462B4600F007F941EC100BBDE8BD
:10E2F000F08110EE102A2046294600F0FBF8024675
:10E300000B4600F0D9FB41EC100BDAE76346202006
:10E310004FF0FF34B6E700BF0000F07FD0B50646EF
:10E320000F46144600F0E6FD0346394630461C60B1
:10E33000D0BD00BF30B5144683B01D4608B103F10F
:10E340000043CDE90023DDE900232046294600F003
:10E3500089FA222203B0BDE83040FFF7DFBF00BFDB
:10E3600008B500224FF08053FFF7E4FF41EC100B9B
:10E3700008BD00BF08B500224FF0E043FFF7DAFF09
:10E3800041EC100B08BD00BF51EC100B10EE102A31
:10E3900021F0004343EC102B704700BF82B08DED9D
:10E3A000000B019840F0004000F58010C00F02B053
:10E3B000704700BF000000009FED010B704700BFD9
:10E3C000000000000000F87F38B553EC102BC3F3B9
:10E3D0000A5104469C4689BB10EE101A23F0004CEB
:10E3E0005CEA010129D0194600223D4B3D4D10EE5B
:10E3F000100A00F037FAAC4202460B4616DB8C4698
:10E40000C1F30A513639214440F2FE70814221DCC9
:10E41000002947DC11F1350F34DA4CF250318C42CF
:10E4200018DC002B26A1D1E9000144DB24A3D3E9A9
:10E43000002300F017FA41EC100B38BD40F2FF70DA
:10E440008142E0D110EE100A194600F055F841EC77
:10E45000100B38BD002B1CA1D1E9000107DB1AA36A
:10E46000D3E9002300F0FEF941EC100B38BD18A1F0
:10E47000D1E9000114A3D3E9002300F0F3F941EC42
:10E48000100BF3E72CF0FF4C2CF4E00C36314CEA87
:10E490000153104619460022134B00F0E3F941ECFA
:10E4A000100B38BD2CF0FF4C2CF4E00C4CEA01535F
:10E4B00043EC102B38BD08A1D1E90001B6E700BF3D
:10E4C00059F3F8C21F6EA5019C7500883CE4377EA5
:10E4D0009C7500883CE437FE59F3F8C21F6EA58195
:10E4E00000005043B03CFFFF0000903C81F0004131
:10E4F00002E000BF83F0004330B54FEA41044FEA29
:10E50000430594EA050F08BF90EA020F1FBF54EAC3
:10E51000000C55EA020C7FEA645C7FEA655C00F05F
:10E52000E2804FEA5454D4EB5555B8BF6D420CDD30
:10E530002C4480EA020281EA030382EA000083EAB3
:10E54000010180EA020281EA0303362D88BF30BD53
:10E5500011F0004F4FEA01314FF4801C4CEA1131A9
:10E5600002D0404261EB410113F0004F4FEA033308
:10E570004CEA133302D0524263EB430394EA050F93
:10E5800000F0A780A4F10104D5F1200E0DDB02FA02
:10E590000EFC22FA05F2801841F1000103FA0EF296
:10E5A000801843FA05F359410EE0A5F120050EF15C
:10E5B000200E012A03FA0EFC28BF4CF0020C43FA8D
:10E5C00005F3C01851EBE37101F0004507D54FF09A
:10E5D000000EDCF1000C7EEB00006EEB0101B1F5EA
:10E5E000801F1BD3B1F5001F0CD349085FEA300030
:10E5F0004FEA3C0C04F101044FEA445212F5800F3B
:10E6000080F09A80BCF1004F08BF5FEA500C50F1D7
:10E61000000041EB045141EA050130BD5FEA4C0CBA
:10E62000404141EB0101013C28BFB1F5801FE9D217
:10E6300091F0000F04BF01460020B1FA81F308BF3A
:10E640002033A3F10B03B3F120020CDA0C3208DD06
:10E6500002F1140CC2F10C0201FA0CF021FA02F1E1
:10E660000CE002F11402D8BFC2F1200C01FA02F151
:10E6700020FA0CFCDCBF41EA0C019040E41AA2BF76
:10E6800001EB0451294330BD6FEA04041F3C1CDA3E
:10E690000C340EDC04F11404C4F1200220FA04F05E
:10E6A00001FA02F340EA030021FA04F345EA030108
:10E6B00030BDC4F10C04C4F1200220FA02F001FACA
:10E6C00004F340EA0300294630BD21FA04F029464C
:10E6D00030BD94F0000F83F4801306BF81F48011E5
:10E6E0000134013D4EE77FEA645C18BF7FEA655C58
:10E6F00029D094EA050F08BF90EA020F05D054EA2A
:10E70000000C04BF1946104630BD91EA030F1EBF2E
:10E710000021002030BD5FEA545C05D14000494132
:10E7200028BF41F0004130BD14F580043CBF01F525
:10E73000801130BD01F0004545F0FE4141F470010B
:10E740004FF0000030BD7FEA645C1ABF19461046E6
:10E750007FEA655C1CBF0B46024650EA013406BFE7
:10E7600052EA033591EA030F41F4002130BD00BFA6
:10E7700090F0000F04BF0021704730B54FF4806463
:10E7800004F132044FF000054FF0000150E700BFE4
:10E7900090F0000F04BF0021704730B54FF4806443
:10E7A00004F1320410F0004548BF40424FF0000130
:10E7B0003EE700BF42004FEAE2014FEA31014FEA73
:10E7C00002701FBF12F07F4393F07F4F81F06051C2
:10E7D000704732F07F4208BF704793F07F4F04BF0D
:10E7E00041F40021704730B54FF4607401F00045EA
:10E7F00021F000411CE700BF50EA010208BF70474A
:10E8000030B54FF000050AE050EA010208BF70473A
:10E8100030B511F0004502D5404261EB41014FF4A3
:10E82000806404F132045FEA915C3FF4D8AE4FF0AB
:10E8300003025FEADC0C18BF03325FEADC0C18BF8E
:10E84000033202EBDC02C2F1200300FA03FC20FADF
:10E8500002F001FA03FE40EA0E0021FA02F114442C
:10E86000BDE600BF70B54FF0FF0C4CF4E06C1CEA45
:10E8700011541DBF1CEA135594EA0C0F95EA0C0FB6
:10E8800000F0DEF82C4481EA030621EA4C5123EA29
:10E890004C5350EA013518BF52EA033541F4801158
:10E8A00043F4801338D0A0FB02CE4FF00005E1FB0B
:10E8B00002E506F00042E0FB03E54FF00006E1FB55
:10E8C00003569CF0000F18BF4EF0010EA4F1FF0498
:10E8D000B6F5007F64F5407404D25FEA4E0E6D41D8
:10E8E00046EB060642EAC62141EA55514FEAC520E9
:10E8F00040EA5E504FEACE2EB4F1FD0C88BFBCF565
:10E90000E06F1ED8BEF1004F08BF5FEA500E50F115
:10E91000000041EB045170BD06F0004646EA0101DB
:10E9200040EA020081EA0301B4EB5C04C2BFD4EB0D
:10E930000C0541EA045170BD41F480114FF0000E06
:10E94000013C00F3AB8014F1360FDEBF002001F074
:10E95000004170BDC4F10004203C35DA0C341BDCEE
:10E9600004F11404C4F1200500FA05F320FA04F0C0
:10E9700001FA05F240EA020001F0004221F00041F4
:10E9800010EBD37021FA04F642EB06015EEA430E67
:10E9900008BF20EAD37070BDC4F10C04C4F1200597
:10E9A00000FA04F320FA05F001FA04F240EA02004A
:10E9B00001F0004110EBD37041F100015EEA430E1B
:10E9C00008BF20EAD37070BDC4F1200500FA05F23B
:10E9D0004EEA020E20FA04F301FA05F243EA0203BA
:10E9E00021FA04F001F0004121FA04F220EA0200C9
:10E9F00000EBD3705EEA430E08BF20EAD37070BD0F
:10EA000094F0000F0FD101F00046400041EB0101EE
:10EA100011F4801F08BF013CF7D041EA060195F0D0
:10EA2000000F18BF704703F00046520043EB03038A
:10EA300013F4801F08BF013DF7D043EA0603704777
:10EA400094EA0C0F0CEA135518BF95EA0C0F0CD082
:10EA500050EA410618BF52EA4306D1D181EA0301C8
:10EA600001F000414FF0000070BD50EA410606BFC2
:10EA70001046194652EA430619D094EA0C0F02D107
:10EA800050EA013613D195EA0C0F05D152EA03364C
:10EA90001CBF104619460AD181EA030101F000416A
:10EAA00041F0FE4141F470014FF0000070BD41F0B3
:10EAB000FE4141F4780170BD70B54FF0FF0C4CF48D
:10EAC000E06C1CEA11541DBF1CEA135594EA0C0FAC
:10EAD00095EA0C0F00F0A7F8A4EB050481EA030EF9
:10EAE00052EA03354FEA013100F088804FEA0333E0
:10EAF0004FF0805545EA131343EA12634FEA0222AE
:10EB000045EA111545EA10654FEA00260EF000416E
:10EB10009D4208BF964244F1FD0404F5407402D2C0
:10EB20005B084FEA3202B61A65EB03055B084FEA51
:10EB300032024FF480104FF4002CB6EB020E75EB4E
:10EB4000030E22BFB61A754640EA0C005B084FEA76
:10EB50003202B6EB020E75EB030E22BFB61A7546F3
:10EB600040EA5C005B084FEA3202B6EB020E75EB3E
:10EB7000030E22BFB61A754640EA9C005B084FEAB6
:10EB80003202B6EB020E75EB030E22BFB61A7546C3
:10EB900040EADC0055EA060E18D04FEA051545EAB2
:10EBA00016754FEA06164FEAC30343EA52734FEA5B
:10EBB000C2025FEA1C1CC0D111F4801F0BD141EAD4
:10EBC00000014FF000004FF0004CB6E711F4801F39
:10EBD00004BF01430020B4F1FD0C88BFBCF5E06F19
:10EBE0003FF6AFAEB5EB030C04BFB6EB020C5FEA29
:10EBF000500C50F1000041EB045170BD0EF0004E7E
:10EC00004EEA113114EB5C04C2BFD4EB0C0541EAAF
:10EC1000045170BD41F480114FF0000E013C90E6AC
:10EC200045EA060E8DE60CEA135594EA0C0F08BF70
:10EC300095EA0C0F3FF43BAF94EA0C0F0AD150EA6F
:10EC400001347FF434AF95EA0C0F7FF425AF104602
:10EC500019462CE795EA0C0F06D152EA03353FF42A
:10EC6000FDAE1046194622E750EA410618BF52EAA7
:10EC700043067FF4C5AE50EA41047FF40DAF52EA7B
:10EC800043057FF4EBAE12E74FF0FF3C06E000BF18
:10EC90004FF0010C02E000BF4FF0010C4DF804CD25
:10ECA0004FEA410C7FEA6C5C4FEA430C18BF7FEAE5
:10ECB0006C5C1BD001B050EA410C0CBF52EA430C13
:10ECC00091EA030F02BF90EA020F0020704710F193
:10ECD000000F91EA030F58BF994208BF90422CBF22
:10ECE000D8176FEAE37040F0010070474FEA410C1B
:10ECF0007FEA6C5C02D150EA013C07D14FEA430C39
:10ED00007FEA6C5CD6D152EA033CD3D05DF8040BA9
:10ED1000704700BF8446104662468C4619466346DB
:10ED200000E000BF01B5FFF7B7FF002848BF10F1B2
:10ED3000000F01BD4DF808EDFFF7F4FF0CBF0120F7
:10ED400000205DF808FB00BF4DF808EDFFF7EAFF73
:10ED500034BF012000205DF808FB00BF4DF808ED2E
:10ED6000FFF7E0FF94BF012000205DF808FB00BF23
:10ED70004DF808EDFFF7CEFF94BF012000205DF8AD
:10ED800008FB00BF4DF808EDFFF7C4FF34BF0120BA
:10ED900000205DF808FB00BF4FEA410C7FEA6C5C85
:10EDA00002D150EA013C0AD14FEA430C7FEA6C5C85
:10EDB00002D152EA033C02D14FF0000070474FF0FD
:10EDC000010070474FEA410212F5001215D211D529
:10EDD0006FF47873B3EB625212D94FEAC12343F058
:10EDE000004343EA505311F0004F23FA02F018BFDA
:10EDF000404270474FF00000704750EA013005D1A3
:10EE000011F0004008BF6FF0004070474FF0000065
:10EE1000704700BF4A0011D212F5001211D20DD571
:10EE20006FF47873B3EB62520ED44FEAC12343F010
:10EE3000004343EA505323FA02F070474FF00000BA
:10EE4000704750EA013002D14FF0FF3070474FF069
:10EE5000000070474FEA4102B2F1E04324BFB3F52E
:10EE6000001CDCF1FE5C0DD901F0004C4FEAC00241
:10EE70004CEA5070B2F1004F40EB830008BF20F025
:10EE80000100704711F0804F21D113F13872BCBFDF
:10EE900001F00040704741F480114FEA5252C2F134
:10EEA0001802C2F1200C10FA0CF320FA02F018BF7D
:10EEB00040F001004FEAC1234FEAD32303FA0CFCD0
:10EEC00040EA0C0023FA02F34FEA4303CCE77FEA5F
:10EED000625307D150EA01331EBF4FF0FE4040F4A9
:10EEE0004000704701F0004040F0FE4040F4000058
:10EEF000704700BF014B1868704700BF54000020E6
:10EF0000844641EA000313F003036DD1403A41D334
:10EF100051F8043B40F8043B51F8043B40F8043BF3
:10EF200051F8043B40F8043B51F8043B40F8043BE3
:10EF300051F8043B40F8043B51F8043B40F8043BD3
:10EF400051F8043B40F8043B51F8043B40F8043BC3
:10EF500051F8043B40F8043B51F8043B40F8043BB3
:10EF600051F8043B40F8043B51F8043B40F8043BA3
:10EF700051F8043B40F8043B51F8043B40F8043B93
:10EF800051F8043B40F8043B51F8043B40F8043B83
:10EF9000403ABDD2303211D351F8043B40F8043B23
:10EFA00051F8043B40F8043B51F8043B40F8043B63
:10EFB00051F8043B40F8043B103AEDD20C3205D333
:10EFC00051F8043B40F8043B043AF9D2043208D02B
:10EFD000D2071CBF11F8013B00F8013B01D30B889D
:10EFE00003806046704700BF082A13D38B078DD07B
:10EFF00010F003038AD0C3F10403D21ADB071CBF4D
:10F0000011F8013B00F8013B80D331F8023B20F8B6
:10F01000023B7BE7043AD9D3013A11F8013B00F8EF
:10F02000013BF9D20B7803704B7843708B78837077
:10F03000604670470EB410B59DB06FF000411FAB35
:10F04000CDE906010491094953F8042B0290084CBC
:10F050000868019302A9059400F002FE029B0022B9
:10F060001A701DB0BDE8104003B070475400002076
:10F070000802FFFF830710B5044610D10268A2F111
:10F08000013323EA020313F0803F08D150F8042F24
:10F09000A2F1013323EA020313F0803FF6D0037894
:10F0A0001BB110F8013F002BFBD100F0D7F920462F
:10F0B00010BD00BF11F0FF01034644D0820732D1DA
:10F0C00010B5046841EA012E4EEA0E4E8EEA0402A3
:10F0D000A2F1013323EA0203A4F1013222EA04027D
:10F0E000134313F0803F0FD150F8044F84EA0E0C05
:10F0F000A4F10133ACF1013223EA040322EA0C0249
:10F10000134313F0803FEFD0037823B936E010F8B3
:10F11000013F002B32D09942F9D110BD8A4211D063
:10F120009A071846CCD0184613F8012B002AF5D1BF
:10F13000104670479907184607D0184601330278E1
:10F14000002AF7D170478207F7D10268A2F1013394
:10F1500023EA020313F0803F08D150F8042FA2F1F4
:10F16000013323EA020313F0803FF6D00378002B2B
:10F17000E8D010F8013F002BFBD17047184610BDB6
:10F18000A2EB0300704700BF02780B78012A28BF6A
:10F190009A42F5D16DE9044540EA0104CDE90267E0
:10F1A0006FF0000C4FEA447212B380EA010414F0CD
:10F1B000070F6AD100F0070420F0070004F00305F0
:10F1C00021F007014FEAC505F0E8042314F0040F0D
:10F1D000F1E804670CFA05F462EA040266EA040640
:10F1E0000AD063EA0403624667EA0407664603E05E
:10F1F000F0E80423F1E8046782FA4CF582EA060499
:10F20000A4FA8CF46CBB83FA4CF583EA0705A5FAE3
:10F210008CF595B950E9022351E9026782FA4CF561
:10F2200082EA0604A4FA8CF483FA4CF583EA070513
:10F23000A5FA8CF52543DBD09CB92DBAB5FA85F437
:10F2400024F0070427FA04F1DDE9026723FA04F346
:10F2500003F0FF0001F0FF01FDE80445A0EB010011
:10F26000704724BAB4FA84F424F0070426FA04F1AF
:10F27000DDE9026722FA04F202F0FF0001F0FF016B
:10F28000FDE80445A0EB0100704714F0030F3CD1EA
:10F2900010F0030428D150F8082B51F8083B82FAEB
:10F2A0004CF582EA0305A5FA8CF55DB950F8042CFB
:10F2B00051F8043C82FA4CF582EA0305A5FA8CF574
:10F2C000002DE8D02DBAB5FA85F424F0070423FA0E
:10F2D00004F122FA04F202F0FF0001F0FF01FDE860
:10F2E0000445A0EB010070474FEAC40420F003007E
:10F2F00050F8082B21F0030151F8083B0CFA04F4F4
:10F3000062EA040263EA0403C9E710F003041AD0B6
:10F31000A1EB040120F00300E40750F8042B06D011
:10F320000FD28B785FFAA2F4E41A06D12BB1CB7816
:10F330005FFAB2F4E41A00D11BB920465DF8104B15
:10F34000704701F1040150F8042BCC0721F00301B0
:10F3500051F8043B48D824D222F07F4482FA4CF57D
:10F3600094EA1325A5FA8CF50AD165B951F8043B46
:10F3700084EA0204B4EB036F0ED150F8042BEBE7E0
:10F380004FEA132355E035F07F454DD10878FDE86D
:10F390000445C0F1000070474FEA126203F0FF031A
:10F3A00047E002EA1C4482FA4CF594EA1345A5FAB8
:10F3B0008CF50AD165B951F8043B84EA0204B4EB38
:10F3C000034F0CD150F8042BEBE74FEA134330E026
:10F3D00015EA1C4528D10B884FEA124229E04FEA72
:10F3E000124203EA1C4324E002F0FF0482FA4CF5C7
:10F3F00094EA1365A5FA8CF50AD165B951F8043B76
:10F4000084EA0204B4EB032F09D150F8042BEBE794
:10F410004FEA13630DE015F0FF0F05D10B684FEABB
:10F42000122223F07F4304E04FF00000FDE8044582
:10F43000704712BA1BBA82FA4CF482EA0304A4FAA7
:10F440008CF5B5FA85F402FA04F203FA04F34FEAF4
:10F450001260FDE80445A0EB1360704780EA0102EA
:10F46000844612F0030F4FD111F0030F32D14DF843
:10F47000044D11F0040F51F8043B0BD0A3F10132FD
:10F480009A4312F0803F04BF4CF8043B51F8043B10
:10F4900016D100BF51F8044BA3F101329A4312F088
:10F4A000803FA4F101320BD14CF8043BA24312F08F
:10F4B000803F04BF51F8043B4CF8044BEAD023468C
:10F4C0000CF8013B13F0FF0F4FEA3323F8D15DF83E
:10F4D000044B704711F0010F06D011F8012B0CF806
:10F4E000012B002A08BF704711F0020FBFD031F87E
:10F4F000022B12F0FF0F16BF2CF8022B8CF8002005
:10F5000012F47F4FB3D1704711F8012B0CF8012B87
:10F51000002AF9D1704700BF000000000000000081
:10F5200000000000000000000000000000000000DB
:10F5300000000000000000000000000000000000CB
:10F5400090F800F06DE9024520F007016FF0000C23
:10F5500010F0070491F820F040F049804FF00004CB
:10F560006FF00700D1E9002391F840F000F10800A6
:10F5700082FA4CF2A4FA8CF283FA4CF3A2FA8CF3DE
:10F580004BBBD1E9022382FA4CF200F10800A4FA45
:10F590008CF283FA4CF3A2FA8CF3E3B9D1E9042399
:10F5A00082FA4CF200F10800A4FA8CF283FA4CF3D0
:10F5B000A2FA8CF37BB9D1E9062301F1200182FA8A
:10F5C0004CF200F10800A4FA8CF283FA4CF3A2FA90
:10F5D0008CF3002BC6D0002A04BF04301A4612BA9E
:10F5E000B2FA82F2FDE8024500EBD2007047D1E9A1
:10F5F000002304F00305C4F100004FEAC50514F030
:10F60000040F91F840F00CFA05F562EA05021CBF00
:10F6100063EA050362464FF00004A9E730B540EA0B
:10F620000104A30701D1032A0FD8844601F1FF3E4C
:10F6300007E01EF8011F03F8011B541EC1B19C46D0
:10F6400022466346002AF4D130BD0B468446194653
:10F6500053F8045BA5F1013424EA050414F0803F5B
:10F66000E4D1043A032A4CF8045B1946EFD8DDE7ED
:10F670006244002CE8D003F8011B9342FBD130BD5B
:10F680002DE9F04F012BADF21C4D1D4681460F4672
:10F69000904640F245810123002419464FF0FF3087
:10F6A0009C4606E0A3EB000C1C46012163189D421A
:10F6B00010D908EB000218F80360525C9642F1D3AF
:10F6C00000F082804FF0010C2046614664446318CC
:10F6D0009D42EED8CDF808C04FF0010C00246146E1
:10F6E0004FF0FF36634606E0A3EB060C1C460121F3
:10F6F00063189D420FD908EB010218F803E0925DF0
:10F700009645F1D866D04FF0010C26466146644418
:10F7100063189D42EFD8013600F1010BB34502D8C2
:10F72000CDF808C0B34605AB0DF2144243F8045FB0
:10F730009342FBD1002D00F0F8806C1E06AE08F15C
:10F74000FF3208EB0400019612F8011FD3432B444B
:10F750004344904246F82130F6D1029B5A4608EBCA
:10F760000301404603F074FC002840F08280029BB5
:10F770000BF1FF32EB1A824606460592039309EB22
:10F78000060E019A1EF8043052F8233043B3BAF142
:10F79000000F04D0029A9342039A38BF13461E44C6
:10F7A0004FF0000A7B1BB342E9D209EB070045F496
:10F7B000006104F0DDF807447B1BB342DFD2002078
:10F7C0000DF21C4DBDE8F08F8C4512BF0131644431
:10F7D00001216BE761450ABF64180131012187E708
:10F7E000D3455B4638BF5346A34211D2591E9A19DE
:10F7F00041444A4402E00133A34209D212F8010B0A
:10F8000011F801CF8445F6D0CBF101021644C6E7CA
:10F81000D345059B40F282800BEB06024A4408EB7D
:10F820000B01CDF810B002E0534516D0034612F894
:10F83000010D11F801CD844503F1010B03F1FF30F7
:10F84000F2D05B46DDF810B00AF1010A9A450BD8F8
:10F85000029BDDF80CA01E44A4E753460AF1010AFE
:10F860009A45DDF810B0F3D970460DF21C4DBDE895
:10F87000F08FA5EB0B035B4538BF5B460133049368
:10F880000BF1FF330293CBF101030026039345F400
:10F89000006A09EB0601019A0B5D52F823306BB147
:10F8A0001E447B1B9E42F4D909EB0700514604F02D
:10F8B0005FF807447B1B9E42EBD980E7A34514D237
:10F8C000029B0BEB060208EB030C4A445B4602E08A
:10F8D0000133A34209D212F8010B1CF801EF86454F
:10F8E000F6D0039A16441E44DBE7BBF1000F10D09C
:10F8F0000BEB0600484408EB0B0201E0434508D03F
:10F9000012F801ED10F801CDE6451346F6D0049B40
:10F91000C6E708460DF21C4DBDE8F08F5B4693E745
:10F92000012302934FF0000BFDE606AB4FF0FF34CE
:10F93000019312E72DE9F0410D46097890B0044695
:10F94000002953D06A78002A00F08380AB78002B1E
:10F9500050D0E878002800F083802B79002B57D016
:10F960002846FFF7EDFD064640F40071204603F0FF
:10F97000FFFF86425CD8FE2E00F28780801B27188E
:10F980004022711C684603F095FB7EB16A1E5FFA47
:10F9900086FC901912F8013F03F03F0340336B449B
:10F9A000A91A6144824203F8401CF3D1013CA35DD3
:10F9B00003F03F0340336B4413F8400C0444A74268
:10F9C00003D23AE04444A74237D314F806C00CF0FF
:10F9D0003F0C0CF140030DEB030C20463246294648
:10F9E0001CF8408C03F034FB0028EBD1204610B00B
:10F9F000BDE8F081007842EA014200E00C4640EAAE
:10FA00000343611CA0B19A426078F7D1013CEDE755
:10FA100022786AB1296809BA01E099421ED042EA07
:10FA20000323204614F8012F002AF6D1994215D05D
:10FA30000024204610B0BDE8F081BB5DB819002B52
:10FA4000F6D04FF4006103F093FF0744BC42ADD9F8
:10FA5000EEE710B0BDE8F041FFF72CBBC41EC5E7D0
:10FA6000120442EA016242EA03232178024600E0DE
:10FA70002C4641EA0200651C02020029D8D0B3EBF3
:10FA8000002F6178F4D1023CB0E7014633462A46A4
:10FA9000204610B0BDE8F041FFF7F2BD024A1268FF
:10FAA00001235C3200F002B854000020F0B4074695
:10FAB00010B33E468C4616F8010B01E0A04216D06A
:10FAC0001CF8014B002CF9D1D8B116F8015B0C469B
:10FAD00001E0002BF9D014F8013B9D42F9D14DB162
:10FAE000002306F8013C16603846F0BC70475BB155
:10FAF0003746DEE72E46F6E71768002FD9D138469D
:10FB0000F3E7F0BC10607047166038463B70ECE7D6
:10FB10002DE9F04F814645488E4675461EF801CBCB
:10FB200010F80C4014F00804F7D1BCF12D0FE34697
:10FB300054D0BCF12B0F08BF9EF800B06FF0004806
:10FB400008BF05F1020E1BB1102B4FD01F4604E079
:10FB5000BBF1300F55D00A231F460025B8FBF7F63E
:10FB6000284607FB168A07E0864215D329D007FBF3
:10FB700000C001251EF801BBABF1300CBCF1090F30
:10FB800006D9ABF1410CBCF1190F08D8ABF1370C19
:10FB900063450DDD002DE7DA4FF0FF35EAE7ABF105
:10FBA000610CBCF1190F03D8ABF1570C6345F1DCC4
:10FBB000002D0BDB04B140420AB195BB1160BDE8DA
:10FBC000F08FE245D3DA4FF0FF35D3E72223C9F8AF
:10FBD00000301AB30EF1FF314046EFE79EF800B057
:10FBE0004FF0004805F1020E0124ACE7BBF1300FE5
:10FBF000ACD19EF8000000F0DF00582807D01F4667
:10FC0000ABE79EF8003003F0DF03582B0BD1102731
:10FC10009EF801B03B460EF1020E9EE74046BDE85D
:10FC2000F08F8046D6E708231F4696E73D6501081A
:10FC3000012A09D0242A07D88446074813460068B9
:10FC40000A466146FFF764BF10B5FFF753F9162364
:10FC50000360002010BD00BF540000200000000021
:10FC60002DE9F04F2DED0A8BCFB00C4691460AEEF0
:10FC7000101A09930AEE900A02F0E2FE0368139349
:10FC80001846FFF75DFCA38912901A0603D5236975
:10FC9000002B00F0A0874D469FEDA57B2B7800241C
:10FCA00025AACDE92344CDE91544CDE917448DEDCE
:10FCB000107B1AEE909A0E9422929046149405941A
:10FCC000002B00F0EC81AB4604E01BF8013F002B59
:10FCD00000F01A81252BF8D1BBEB050640F0188106
:10FCE0009BF80030002B00F0DA8100234FF0FF3248
:10FCF0009BF801708DF86B3006930BF1010B0492A9
:10FD00009A462B2420210BF1010BA7F120035A2B3B
:10FD100000F23C81DFE813F0D5023A013A01D0024B
:10FD20003A013A013A016A003A013A016502FE02DB
:10FD30003A017002E4023A01DF025B005B005B0003
:10FD40005B005B005B005B005B005B003A013A011B
:10FD50003A013A013A013A013A01D2013A01360236
:10FD60008500D201D201D2013A013A013A013A01A9
:10FD7000CB023A013A01C6003A013A013A01400287
:10FD80003A0175023A013A014F073A013A013A0144
:10FD90003A013A013A013A013A01D2013A013602F6
:10FDA0008700D201D201D201BE02870080003A0151
:10FDB000B1023A019902C800870280003A0140026C
:10FDC0007D002A073A013A012E073A017D00A7F18A
:10FDD000300300221BF8017B02EB820203EB42029C
:10FDE000A7F13003092BF5D906928EE7484602F0B9
:10FDF00027FE436817931846FFF7A2FB18900646A4
:10FE0000484602F01DFE836815932021002E40F025
:10FE1000C2859BF8007076E79BF800704AF0200AD4
:10FE200071E74AF0100A1AF0200F099B00F09A813E
:10FE3000073323F007031A465B6852F8084B099210
:10FE40001E46002BC0F26B85049B013301F03A8003
:10FE50002AF08003039354EA060300F0E7840A2C97
:10FE600076F1000380F0908730340123DDF80CA098
:10FE70008DF8374107930DF23715049907989DF8CF
:10FE80006B3081424FF00002B8BF014608920391E7
:10FE90000C920F920D92002B00F08980039A013290
:10FEA000039284E04AF0100A1AF0200600F04B8119
:10FEB000099B073323F007035E6853F8084B099347
:10FEC0002AF480630393002300228DF86B20049AA8
:10FED000551C00F02682039921F0800A54EA06019D
:10FEE00040F01D82002A41F02980002B40F0A484BC
:10FEF000039B13F00103079300F0428530238DF834
:10FF000037310DF23715B8E7BBEB050600F0C780B7
:10FF1000249B33442493239B0133072BC8E90056C9
:10FF2000239309DC08F10808059B33440593D7E6C1
:10FF300000000000000000001AEE101A22AA484635
:10FF400003F028FD90B90DF19408EDE71AEE101AB0
:10FF500022AA484603F01EFD002800F09180089B6D
:10FF600023B108991AEE900A02F064FC1AEE103AD6
:10FF70009B8913F0400F059B18BF4FF0FF3305938B
:10FF800005984FB0BDEC0A8BBDE8F08F002F00F054
:10FF9000868000238DF8D4708DF86B300122CDE976
:10FFA0000723039204930C930F930D9335AD1AF02E
:10FFB00002020A9202D0039A023203921AF08402D9
:10FFC0000B9205D1069A0399561A002E00F30D8361
:10FFD000249C8BB1239B0DF16B0201330134C8F8D3
:10FFE0000020072B4FF0010224942393C8F804202B
:10FFF00000F3338308F108080A9B83B1239B1BAAF3
:020000040801F1
:1000000001330234C8F80020072B4FF00202249479
:100010002393C8F8042000F32D8308F108080B9BF4
:10002000802B00F00F82049B079A9E1A002E00F38B
:1000300050821AF4807F40F0AB81079BC8F80430EF
:100040001C44239BC8F800500133072B24942393AE
:1000500000F3BE8208F108081AF0040F05D0069BD1
:10006000039A9D1A002D00F31283DDE905320399EE
:100070008A42ACBF9B185B180593002C7FF466AFD7
:1000800000232393089B1BB10899484602F0D2FB3A
:100090000DF194085D462B78002B7FF414AE249B61
:1000A000002B3FF463AF1AEE104A1AEE101A1AEE44
:1000B000900A22AA03F06EFCA3895AE7099B073332
:1000C00023F00703B3EC027B8DED107BDDE910120A
:1000D000099322F000430BEE101A0BEE903A4FF00A
:1000E000FF32B0EE4B9AF0EE6B9AA54B51EC190B28
:1000F000FEF752FE002840F06784A14B51EC190B2B
:100100004FF0FF32FEF72AFE002840F05D84DDE963
:10011000100100220023FEF717FE002840F0A587FB
:100120009DF86B30974D984A2AF0800A0321472F9B
:10013000C8BF1546002208920391079104920C92C1
:100140000F920D92A7E61AF0100340F033841AF0D4
:10015000400200F05B87099A52F8044B09921E4650
:10016000A4B2ADE653F8044B09931AF0100F40F017
:100170000E841AF0400F00F0068444F3C036334674
:1001800024B25EE6099A002352F8041B8DF86B3006
:100190008DF8D410099201E7099C54F8045B0026FD
:1001A0008DF86B60002D00F0D986049B5A1C00F07E
:1001B00046851A463146284602F0FAFE0890002885
:1001C00001F07A80089B0496591B079121EAE1719E
:1001D0009DF86B300994039108960C960F960D9636
:1001E00059E6099B53F8042B0692002A80F2C38338
:1001F000069A0993524206929BF800704AF0040A4C
:1002000081E54AF010030393039B13F0200600F0EE
:100210007383099B073323F007035E6853F8084B89
:100220000993012350E6099B53F8044B09933023AB
:100230004AF0020278278DF86C30544B14930392E5
:100240008DF86D70002602233EE61AF0200F40F074
:1002500082841AF0100F40F078861AF0400F40F0B8
:100260004C871AF4007F00F07086099B059953F8BB
:10027000042B099311705D460DE79BF800706C2FFD
:1002800003BF9BF801704AF0200A0BF1010B4AF002
:10029000100A38E59BF80070682F03BF9BF80170C7
:1002A0004AF4007A0BF1010B4AF0400A2BE59BF867
:1002B00000704AF0080A26E59BF800704AF0010A2F
:1002C00021E59DF86B30002B7FF4A3AD9BF8007007
:1002D0008DF86B1017E59BF800704AF0800A12E564
:1002E0005A4612F8017B2A2F01F0F381A7F130035F
:1002F000092B934698BF002200F2F4871BF8017B7C
:1003000002EB820203EB4202A7F13003092BF5D97D
:100310000492FAE49BF800708DF86B40F3E4CDF89A
:100320000CA0012B3FF49BAD022B4EAD12D1149AC1
:1003300004F00F032409D35C05F8013D44EA067478
:10034000360954EA0603F3D14EAB5B1BDDF80CA073
:10035000079392E504F00703E40844EA4674F608BC
:10036000303354EA06012A4605F8013DF2D10399DB
:10037000C80700F14C824EAB5B1B8A4607937CE5B5
:10038000FFFFEF7FD8640108DC640108E86401081E
:10039000652F40F3D780DDE9100100220023FEF72E
:1003A000C9FC002800F0B481239BBC4AC8F8002097
:1003B000013301340122072B24942393C8F804202D
:1003C00000F3848508F108081C9B0E9A934280F282
:1003D000CD82129B139A1C44C8E90023239B2494CA
:1003E0000133072B239300F3E98308F108080E9BE0
:1003F0005D1E002D7FF730AE102D239B41F347810A
:10040000A74F0A97224610261AEE104A05E008F177
:100410000808103D102D40F3678501331032072B7B
:10042000C8E90076CDE92332F1DD22AA214648460B
:1004300003F0B0FA00287FF492ADDDE923320DF12C
:100440009408E6E7069B039A9E1A002E7FF7EBAD11
:10045000102E239B41F34F8091490B9522461AEEB3
:10046000105A0A910C4604E0103E102E08F10808BC
:1004700019DD013310321021072BCDE92332C8F8E2
:100480000040C8F80410EFDD22AA294648460DF1C5
:10049000940803F07FFA00287FF461AD103E102E1F
:1004A000DDE92332E5DC0B9D144601330A9AC8F8D6
:1004B00000203444072BCDE92334C8F8046000F34E
:1004C0002F85049B079A9E1A002E08F108087FF7D3
:1004D000B0AD102E239B40F3C48571480A9042466C
:1004E00021461AEE108A044604E0103E102E02F156
:1004F000080216DD013310311020072BCDE923311E
:1005000014605060F1DD22AA4146484603F042FAE9
:1005100000287FF424AD103E102EDDE9233125AAFA
:10052000E8DC90460C4601330A9AC8F800203444AF
:10053000072BCDE92334C8F8046000F3CF8108F11C
:10054000080876E50E9B012B40F37C81239EC8F8BA
:100550000050013601340123072E24942396C8F855
:10056000043000F3E78108F10808129B139A013662
:100570001C44072EC8E90023CDE9236400F3E88179
:1005800008F10808DDE9100100220023FEF7D2FB84
:10059000002840F076810E9B0136013B01351C445A
:1005A000072EC8F800502396C8F80430249400F3AE
:1005B0005A8108F10808169BC8F8043001361C441B
:1005C000072E1EABCDE92364C8F800307FF742AD9B
:1005D0001AEE101A22AA484603F0DCF900287FF42C
:1005E000BEAC249C0DF1940836E5102EDDE92332D3
:1005F00022DD199510241AEE105A04E0103E102E38
:1006000008F1080817DD013326491032072BC8E925
:100610000014CDE92332F1DD22AA294648460DF126
:10062000940803F0B7F900287FF499AC103E102E1F
:10063000DDE92332E7DC199DC8F804600133B41802
:10064000072B184AC8F80020CDE9233400F3E183D2
:100650009DF86B3008F10808BBE41AEE101A22AAC4
:10066000484603F097F900287FF479AC249C0DF1FB
:100670009408C1E41AEE101A22AA484603F08AF937
:1006800000287FF46CAC249C0DF19408C7E4102D75
:10069000239B26DD1AEE107A10260AE01865010861
:1006A0002C6501081C650108103D102D08F1080893
:1006B00017DD0133C24A1034072BC8E90026CDE903
:1006C0002334F1DD22AA394648460DF1940803F09F
:1006D00061F900287FF443AC103D102DDDE923348F
:1006E000E7DC0133B64AC8F804502C44072BCDE9A7
:1006F0002334C8F800207FF7B8AC1AEE101A22AAEB
:10070000484603F047F900287FF429AC249CACE468
:100710001C9A002A40F39683DDE90D739F42A8BF1F
:100720001F46002F0BDD239B01333C44072BC8E9F8
:1007300000572494239300F35C8508F108080D9E6C
:10074000002FA8BFF61B002E00F353820D9B1AF456
:10075000806F2B44079340F083821C9B0E9A934238
:1007600003DB1AF0010F00F0B884129A13991444B5
:10077000C8E90012239A24940132072A239200F335
:10078000768508F108080E9A0799AE18761AD51AD8
:10079000AE42A8BF2E46002E0DDD239BC8F80010E8
:1007A00001333444072BC8F804602494239300F3E6
:1007B0009D8508F10808002EA8BFAD1B002D7FF70E
:1007C0004BAC102D239B40F362877E4F0A97224645
:1007D00010261AEE104A05E008F10808103D102D09
:1007E00040F3828301331032072BC8E90076CDE94C
:1007F0002332F1DD22AA2146484603F0CBF8002837
:100800007FF4ADABDDE923320DF19408E6E7302B40
:100810003FF49AAD3023023A05F8013C4EAB9B1AE7
:10082000DDF80CA007931546FFF727BB049B002BB0
:100830007FF41AABDDF80CA00023049307934EADB0
:10084000FFF71BBB1AF0010F7FF480AE239EC8F8A0
:100850000050013601340123072E24942396C8F852
:1008600004307FF7A6AE1AEE101A22AA484603F00B
:1008700091F800287FF473ABDDE923640DF194084F
:1008800099E60E9B5D1E002D7FF795AE102D40F36F
:1008900015874C4ACDF810A023461AEE10AA0A92EA
:1008A0001027144605E008F10808103D102D40F30C
:1008B0009D8301361033072EC8E90047CDE9236335
:1008C000F1DD22AA5146484603F064F800287FF47F
:1008D00046ABDDE923630DF19408E6E71AEE101A42
:1008E00022AA484603F056F800287FF438AB249C2F
:1008F0000DF19408FFF79DBB039B13F0100340F02C
:100900002381039A12F0400200F09B83099A52F867
:10091000044B09921E46A4B20123FFF7D5BA2D233A
:1009200064428DF86B3066EB4606CDF80CA00123CF
:10093000FFF7CDBA1AEE101A22AA484603F02AF899
:1009400000287FF40CABDDE923640DF194080CE67C
:100950001AEE101A22AA484603F01CF800287FF469
:10096000FEAADDE923640DF194080BE61AF0010FED
:100970003FF472AB2DE59BF800700993FFF7C3B904
:100980004EADFFF77ABA1AF4007F40F0B083E61755
:100990003346FFF756BA159B002B3FF43AAA159B36
:1009A0001B78002B3FF435AA9BF800704AF4806A4C
:1009B000FFF7A9B9099B53F8044B0993FFF780BAD5
:1009C0001C6501082C650108DDE9100102460B4693
:1009D000FEF7E2F9002840F0C385612F00F086851C
:1009E000412F00F09484049B013327F020030393EC
:1009F00000F0B083472B00F08285DDE910014AF456
:100A00008072002907924FF00003C0F2248541EC68
:100A1000180B0A930893039B462B00F0F883452B91
:100A200000F04E85B0EE480AF0EE680A20AB019364
:100A30001DAB0093049A1CAB0221484600F00CFF4A
:100A4000039B472B054640F069861AF0010F564676
:100A5000DDF81CA040F00B85209B5B1B0E93039BD5
:100A6000472B00F08B83039B462B00F00F841C9BCD
:100A70000D930D9B039A013B412A1C9300F0D785EF
:100A8000FAB20021002BB8BF0D9B8DF87820BABFB9
:100A9000C3F101032D222B22092B8DF8792040F37D
:100AA000B7850DF18704DFF898C3224610468CFB0A
:100AB0000321DA17C2EBA10202EB8201A3EB410191
:100AC000303100F8011C19466329134600F1FF324A
:100AD000ECDC3033D9B2831E9C4202F8011C40F298
:100AE000048613460DF17A0201E013F8011B02F8A7
:100AF000011B9C42F9D10DF189030DF17A021B1AF9
:100B000013441EAA9B1A16930E9B169A012B1A4485
:100B1000079240F3B785079B129A13440793079AED
:100B2000002326F4806622EAE27246F4807A0C936F
:100B300003920F930D930A9B002B40F0458304937F
:100B40009DF86B30FFF7A7B9099B53F8044B099345
:100B50000123FFF7B9B9099B059853F8041B0993C2
:100B6000C217C1E900025D46FFF795BACDF80CA0A7
:100B7000FFF74ABBAF4B14931AF0200600F0EF804A
:100B8000099B073323F007035E6853F8084B09936A
:100B90001AF0010F09D054EA060306D030238DF86D
:100BA0006D704AF0020A8DF86C302AF4806303936A
:100BB0000223FFF789B9A04B1493DDE71AEE101A50
:100BC00022AA484602F0E6FE00287FF4C8A9249C29
:100BD0000DF194080BE41AEE900A402101F034FF65
:100BE00020602061002800F0848540236361FFF7C6
:100BF00052B8102E239B40F3698590480A904246D4
:100C000021461AEE108A1027044604E00832103EEE
:100C1000102E40F32F8201331031072BC2E9004719
:100C2000CDE92331F2DD22AA4146484602F0B2FE68
:100C300000287FF494A9DDE9233125AAE7E72846B7
:100C400004960994FEF77CFC20EAE0719DF86B3075
:100C50000790039108960C960F960D96FFF71BB917
:100C60000E9BCDF828B0DDF83CB0079E159FCDF85F
:100C70001CA0EB1804934246DDF860A00C9B0B957A
:100C80001AEE108AA446BBF1000F30D093BB013F8F
:100C90000BF1FF3B179BC2E9003A239B0133D4447D
:100CA000072BCDF890C0239362DC0832049B387880
:100CB0009B1B8342A8BF0346002B1C460CDD2398D8
:100CC00001309C440728C2E90063CDF890C023900E
:100CD00000F3198138780832002CACBF051B05469B
:100CE000002D0BDC06440C9BBBF1000FCED1002B7A
:100CF00000F033820C9B013B0C93CBE7102D239823
:100D00001FDD1024634604E0103D102D02F108029F
:100D100016DD0130494910330728C2E90014CDE936
:100D20002303F1DD22AA4146484602F033FE0028A3
:100D30007FF415A9103D102DDDE9230325AAE8DC79
:100D40009C4601303D4B5560AC440728CDE9230C4F
:100D5000136000F34082387808320644C3E71AF083
:100D6000100300F0A480099B53F8044B09930FE78C
:100D700022AA4146484602F00DFE00287FF4EFA863
:100D8000DDF890C025AA91E7039B079703F48063E1
:100D9000002209EE109ACDF82080DDF854900DF570
:100DA0009C7A174698460CE00023204631460A22DA
:100DB00004F0EAFE0A2C76F100031CD304460E462A
:100DC000AA4620460A220023314604F0DDFE3032D6
:100DD0000AF1FF3501370AF8012CB8F1000FE3D012
:100DE00099F800309F42DFD1FF2FDDD00A2C76F139
:100DF000000380F050814EAB5B1BCDF854900E97F2
:100E000019EE109ADDE90778DDF80CA00793FFF7DB
:100E100034B81AEE101A22AA484602F0BBFD002888
:100E20007FF49DA89DF86B30249C0DF19408FFF78A
:100E3000D0B800BFE8640108FC6401082C65010813
:100E400067666666239BC049C8F800100133013409
:100E50000121072B24942393C8F8041000F32F8159
:100E600008F10808002A40F08A800E9A0AF001036F
:100E700013433FF4F1A8129B139A1C44C8E90023C2
:100E8000239B24940133072B239300F33F8108F124
:100E900008080E9AC8F8005001331444072BCDE916
:100EA0002334C8F804207FF7D5A8FFF791BB1AF0C8
:100EB000400200F0B980099A52F8044B09921E468C
:100EC000A4B265E6CDF80CA0FEF7C9BF1AEE101A61
:100ED00022AA484602F05EFD00287FF440A8249C28
:100EE0000DF19408FFF770BA144601330A9AC8F856
:100EF00000202C44072BC8F80450CDE923347FF799
:100F0000A9A8FFF765BB22AA4146484602F042FD68
:100F100000287FF424A83878DDF890C025AADBE605
:100F20001AEE101A22AA484602F034FD00287FF477
:100F300016A8249C0DF19408FFF775B8012BCDF885
:100F40000CA07FF4F1A9FEF78FBF099B059953F818
:100F5000042B5D4611600993FFF79DB8049A08952C
:100F6000062A294628BF062204952B460392774D70
:100F7000099407920C910F910D91FEF78CBF129B73
:100F800013991C44C8E90013239B24940133072BB5
:100F9000239300F3BB8008F10808002ABFF679AF5D
:100FA0005642103280F2AE8369480A90214642468A
:100FB00010271AEE108A044604E00832103E102E64
:100FC00040F3AF8201331031072BC2E90047CDE96E
:100FD0002331F2DD22AA4146484602F0DBFC00281C
:100FE0007EF4BDAFDDE9233125AAE7E7DDF810A0E7
:100FF0001C4601360A9BC8F800302C44072ECDE968
:101000002364C8F804507FF7D4AA2CE4099B1AF48F
:10101000007614BF53F8044B53F8044B09931CBFDC
:101020001646E4B2FEF74CBF099B1AF4007614BFD3
:1010300053F8044B53F8044B09931CBF1646E4B213
:10104000A6E5039B13F40076099B14BF53F8044BE9
:1010500053F8044B09931CBF1646E4B20123FEF774
:1010600033BF3B4A0A92FFF75EBA2D238DF86B30EF
:10107000FFF758B890460C4601330A9AC8F800208A
:101080003444072BCDE92334C8F804604DDC08F163
:101090000808FFF75BBB189B1799ED1A1A462846FC
:1010A000FEF7BCFA99F801300BB109F101092046AD
:1010B00031460A220023002704F066FD7EE61AEE80
:1010C000101A22AA484602F065FC00287EF447AFB9
:1010D0001C9A249C0DF19408C4E60E9A0799AE1848
:1010E000761AD51AAE42A8BF2E46FFF764BB44F36A
:1010F000C016334664B2FEF7A4BE099B059953F8A7
:10110000042B099311805D46FEF7C5BF1AEE101A35
:1011100022AA484602F03EFC00287EF420AFDDE91A
:1011200023341C9A0DF1940837E71AEE101A22AAFC
:10113000484602F02FFC00287EF411AF249C0DF1EC
:101140009408FFF703BB00BF18650108106501088C
:101150002C650108062304934FE40B9D0E9BDDF8DC
:101160001CA0DDF828B01597EB189E429046324639
:1011700028BF1A4664460792FFF7EFBA1C9B0D93EF
:10118000DA1C02DB049A934204DD023F27F02003BD
:1011900003936EE4DDE90D329342C0F29980F007CB
:1011A00040F1DB81129A13440793710503D50D9B1F
:1011B000002B00F3FF81079B23EAE3730393672768
:1011C00000230C930F93B6E42D2300228DF86B308F
:1011D0000492FEF763BE22AA4146484602F0DAFBBB
:1011E00000287EF4BCAE3878DDF890C025AA06440D
:1011F00079E51AEE101A22AA484602F0CBFB002825
:101200007EF4ADAE249C0DF19408FFF798BA20ABA4
:1012100001931DAB0093049AB0EE480AF0EE680A01
:101220001CAB0321484600F017FB0378302B054622
:1012300000F003821C9B049A56461344DDF81CA060
:10124000EC1851EC180B00220023FDF773FD08B1D8
:10125000234602E4209BA342BFF4FFAB30215A1C7B
:1012600020921970209B9C42F9D8FFF7F6BB1AEE2A
:10127000101A22AA484602F08DFB00287EF46FAEB9
:101280001C9B249C0DF19408FFF77DBA1C9A0D92CB
:10129000002A40F3FF81049906F001030B4340F05C
:1012A000B1810D9B07936627730500F18481079B2D
:1012B00023EAE373039383E7049B0393079309945F
:1012C0009DF86B3004900C900F900D90FEF7E3BDED
:1012D0000E9B129A9A180D9B0792002B40F3BB812C
:1012E0006727E1E700230493FEF70FBD1AEE101AFB
:1012F00022AA484602F04EFB00287EF430AE1C9D28
:101300000E9B249C5D1B0DF19408FFF754BA30230B
:101310008DF86C3058238DF86D30049B632B4AF0A8
:10132000020400F3A7800023089335ADDDE9101215
:101330004AF481730793002A27F02003A2460393FF
:10134000C0F28A80002342EC181B0A93612F00F040
:101350001581412F7FF45FABB0EE480AF0EE680ACA
:101360001CA802F0BDFA00224FF07F5351EC100B85
:10137000FDF778FA02460B4643EC192B00220023B6
:10138000FDF7D8FC08B101231C93B74B0B93049BCA
:101390001995CDE90CB7CDE90EA80CEE109ADDF841
:1013A0002CB059EC198B5E1E2C4605E00022002360
:1013B000013EFDF7BFFCE0B9AC4B00224046494678
:1013C000FDF750FA89468046FDF7FCFC0546FDF71F
:1013D000DFF90B46024649464046FDF78BF81BF8FD
:1013E0000530A24604F8013B731C37468046894607
:1013F000DCD149EC198B9E4BDDF830B0DDF83C8038
:10140000CDF830A051EC190B00223E46DDF838A093
:101410000D9F0D951CEE109A199DFDF7B3FC98BB1E
:1014200051EC190B924B0022FDF784FC10B10D9B7F
:10143000D90729D4002E334606DB0133234430225A
:1014400004F8012BA342FBD1631B56460E93DDF833
:101450001CA0FFF704BB0893DDE9103408EE103A36
:1014600004F1004308EE903A2D230A936EE7049BA3
:10147000EC18E6E6591C484601F0E6FA0546002855
:1014800000F04381089051E70C9B20930B9B14F8CC
:10149000012CD97B8A42234609D1302003F8010C64
:1014A000209B5A1E209213F8012C9142F6D0392A23
:1014B0000BBF0B9A0132927AD2B203F8012CC3E728
:1014C000049BB0EE480AF0EE680A5C1C20AB019366
:1014D0001DAB009322461CAB0221484600F0BCF92C
:1014E000054656462C44DDF81CA0AAE630238DF8AC
:1014F0006C3078230FE75F4A0A92FEF7D6BF049B51
:10150000002B08BF01230493119B4AF48072002B27
:101510000792C0F2D9809DED108B08900A90FFF7DA
:1015200081BA0C46904601330A9AC8F80020344428
:10153000072BCDE92334C8F804607FF7A8AC1AEE76
:10154000101A22AA484602F025FA00287EF407ADB8
:10155000DDE923340DF194089BE40D9B079324E609
:10156000119B454D454A002BB6BF2D239DF86B308E
:101570008DF86B302AF0800AFEF7D8BD1CA8B0EEBB
:10158000480AF0EE680A02F0ABF900224FF07F53F0
:1015900051EC100BFDF766F902460B4643EC192B94
:1015A00000220023FDF7C6FB08B101231C93344B36
:1015B0000B93ECE6672715990B78FF2B00F0B080B2
:1015C00000240D9A204603E001300131FF2B08D0A2
:1015D000934206DAD21A4B78002BF5D10B780134FE
:1015E000F4E715910D920F900C940C9A0F9B18999B
:1015F0001344079A01FB0323079323EAE37303933E
:10160000FFF799BA129BD3181944079166274BE646
:10161000002956D130228DF87A200DF17B0230332B
:1016200002F8013B1EABD31A1693FFF76DBA07F110
:101630000F02D2B20121FFF725BA51EC180B00229C
:101640000023FDF777FB00287FF4F4AD049BC3F182
:1016500001031C93EFE5C3F101031A4422EAE2738C
:10166000079203936727ABE5FC6401080000304054
:101670000000E03F2C650108E0640108E464010813
:10168000E8640108F4077FF54AAAFFF744BA264A3E
:101690000A922AE4049A06F0010656EA020304D1EB
:1016A00001230393662707938AE5129B01331A44AB
:1016B00022EAE27307920393662781E51A4B0A93A5
:1016C00097E40DF17A02AAE70890C5E6164A0A9255
:1016D000D2E4099B9BF80170934653F8042B0993BD
:1016E00042EAE2720492FEF70EBB02231693FFF762
:1016F0000BBA1AEE902A0C2313604FF0FF330593B8
:10170000FEF73EBC084A0A920DE71AEE101A8B89C2
:1017100043F0400213468A81FEF72BBC049CE0E6AE
:1017200000230C930F9360E72C6501082DE9F04F1F
:1017300003690C69A34283B0C0F28780013C01F1C8
:101740001405A30000F11408009355F8243058F84C
:101750002420013381469A4208EB840005EB84077C
:101760000190B2FBF3F63BD30023AE4640469B46C6
:101770005EF804AB02681FFA8AFC06FB0C334FEAE2
:10178000134C4FEA1A4A06FB0ACA1FFA83FCABEB5A
:101790000C0C1FFA8AF31CFA82FCC3EB124202EB18
:1017A0002C421FFA8CFC4CEA0243774540F8043B7C
:1017B0004FEA224B4FEA1A43DAD2009B58F8033023
:1017C00073B9019B043B984504D307E0984504F1A5
:1017D000FF3403D253F80429002AF7D0C9F8104087
:1017E000484601F04DFF00282BDB01364046002320
:1017F00055F8041BD0F800C08AB29A1A0B0C12FAE2
:101800008CF2C3EB1C4303EB224392B242EA034245
:10181000AF4240F8042B4FEA2343E9D258F8242082
:1018200008EB84036AB9043B984504D307E0984564
:1018300004F1FF3403D253F80429002AF7D0C9F881
:101840001040304603B0BDE8F08F002003B0BDE883
:10185000F08F00BF000000002DE9F04F2DED068B4A
:1018600095B08DED020B0191016C249D099259EC0C
:10187000108B0446069341B1426C4A6001239340A9
:101880008B6001F09BFC00232364B9F1000AB4BF14
:10189000012300232B607C4BBCBF2AF0004ACDF80B
:1018A0000CA033EA0A0300F0B2809DED027B002217
:1018B00051EC170BB0EE479AF0EE679A0023FDF754
:1018C00039FA074680B1069A01231360259B002B45
:1018D00000F0DB826D481860431E0093009815B03D
:1018E000BDEC068BBDE8F08F12AA13A92046B0EE1E
:1018F000490AF0EE690A01F08BFFB0EE498AF0EE7A
:10190000698A5FEA1A56054640F09980DDE9127649
:101910003E4406F23240202840F3AB83C0F1400041
:101920000AFA00FA06F2124028FA00F04AEA000029
:10193000FCF71EFF0123013E0D93A1F1F871544BFA
:101940000022FCF7D7FD4AA3D3E90023FCF78AFF66
:1019500049A3D3E90023FCF7CFFD804630468946F2
:10196000FCF716FF46A3D3E90023FCF77BFF0246F2
:101970000B4640464946FCF7BFFD80468946FDF7C9
:1019800021FA00228346002340464946FDF7DCF950
:10199000002840F06D82BBF1160F00F25C823D4BD7
:1019A00003EBCB03D3E9002351EC190BFDF7CCF982
:1019B000002875D00023BE1B0C93731E0BF1FF3B58
:1019C000049300F14F8200230893BBF1000F6EDAFD
:1019D000089BCDF814B0A3EB0B030893CBF10003E5
:1019E0000B93019B092B4FF0000B69D8052B40F39B
:1019F0003E83043B01930026019B023B032B00F234
:101A00009986DFE813F04E044B0443042604069A3B
:101A100042F20F73CAF3130A13605AEA08031DD186
:101A2000259B002B00F07D861B4B00930833259AE5
:101A30000098136015B0BDEC068BBDE8F08F18EE72
:101A4000903AC3F3130351EC190B43F07F510D97F8
:101A5000A6F2FF36129F41F4401170E7259B002B40
:101A600040F0DB830D4B009338E700BFAFF30080FD
:101A700061436F63A787D23FB3C8608B288AC63F94
:101A8000FB799F501344D33F0000F07F1965010894
:101A90000000F83F906701084466010840660108AD
:101AA000BE1B731E049300F19A840C900890049B53
:101AB0005B44CDE9043B00230B93019B092B95D993
:101AC000002301264FF0FF3201930A9607920993F3
:101AD000079B0F9300216164204601F049FB0090B1
:101AE000002800F02F86009B2364079B0E2B00F23A
:101AF000F980002E00F0F6800599002940F37184EA
:101B0000BD4B01F00F0203EBC2034FEA2118C905D8
:101B1000D3E9006740F10384B84B51EC190BD3E9CA
:101B20000823FCF7C9FF41EC180B08F00F084FF031
:101B3000030AB8F1000F13D0DFF8C09218F0010FBC
:101B400009D030463946D9E90023FCF78BFE0AF16B
:101B5000010A06460F465FEA680809F10809EDD157
:101B600051EC180B32463B46FCF7A6FF41EC1A0B32
:101B70000C9B5BB157EC1A6BA14B1AEE100A0022BA
:101B80003946FDF7E1F8002840F052855046FCF751
:101B9000FFFD53EC1A2BFCF765FE9A4B0022FCF775
:101BA000ABFC079B8046A1F15079002B00F0F3833A
:101BB000059B1093079B0E930A9B002B00F0C0849B
:101BC0000E9A8D4B9049DDF800A003EBC20353E958
:101BD00002230020FCF770FF42464B46FCF78AFCCC
:101BE00059EC1A8B41EC180B49461AEE100AFDF716
:101BF000E9F80746FCF7CCFD02460B461AEE100A40
