Archive member included to satisfy reference by file (symbol)

c:/storage/toolchains/gcc-arm-none-eabi-10.3-2021.10-win32/bin/../lib/gcc/arm-none-eabi/10.3.1/../../../../arm-none-eabi/lib/thumb/v7e-m+fp/hard\libm.a(lib_a-s_round.o)
                              ..\obj\utilities.o (round)
c:/storage/toolchains/gcc-arm-none-eabi-10.3-2021.10-win32/bin/../lib/gcc/arm-none-eabi/10.3.1/../../../../arm-none-eabi/lib/thumb/v7e-m+fp/hard\libm.a(lib_a-w_exp.o)
                              ..\obj\defroster.o (exp)
c:/storage/toolchains/gcc-arm-none-eabi-10.3-2021.10-win32/bin/../lib/gcc/arm-none-eabi/10.3.1/../../../../arm-none-eabi/lib/thumb/v7e-m+fp/hard\libm.a(lib_a-w_log.o)
                              ..\obj\defroster.o (log)
c:/storage/toolchains/gcc-arm-none-eabi-10.3-2021.10-win32/bin/../lib/gcc/arm-none-eabi/10.3.1/../../../../arm-none-eabi/lib/thumb/v7e-m+fp/hard\libm.a(lib_a-w_pow.o)
                              ..\obj\utilities.o (pow)
c:/storage/toolchains/gcc-arm-none-eabi-10.3-2021.10-win32/bin/../lib/gcc/arm-none-eabi/10.3.1/../../../../arm-none-eabi/lib/thumb/v7e-m+fp/hard\libm.a(lib_a-w_sqrt.o)
                              ..\obj\flight.o (sqrt)
c:/storage/toolchains/gcc-arm-none-eabi-10.3-2021.10-win32/bin/../lib/gcc/arm-none-eabi/10.3.1/../../../../arm-none-eabi/lib/thumb/v7e-m+fp/hard\libm.a(lib_a-e_exp.o)
                              c:/storage/toolchains/gcc-arm-none-eabi-10.3-2021.10-win32/bin/../lib/gcc/arm-none-eabi/10.3.1/../../../../arm-none-eabi/lib/thumb/v7e-m+fp/hard\libm.a(lib_a-w_exp.o) (__ieee754_exp)
c:/storage/toolchains/gcc-arm-none-eabi-10.3-2021.10-win32/bin/../lib/gcc/arm-none-eabi/10.3.1/../../../../arm-none-eabi/lib/thumb/v7e-m+fp/hard\libm.a(lib_a-e_log.o)
                              c:/storage/toolchains/gcc-arm-none-eabi-10.3-2021.10-win32/bin/../lib/gcc/arm-none-eabi/10.3.1/../../../../arm-none-eabi/lib/thumb/v7e-m+fp/hard\libm.a(lib_a-w_log.o) (__ieee754_log)
c:/storage/toolchains/gcc-arm-none-eabi-10.3-2021.10-win32/bin/../lib/gcc/arm-none-eabi/10.3.1/../../../../arm-none-eabi/lib/thumb/v7e-m+fp/hard\libm.a(lib_a-e_pow.o)
                              c:/storage/toolchains/gcc-arm-none-eabi-10.3-2021.10-win32/bin/../lib/gcc/arm-none-eabi/10.3.1/../../../../arm-none-eabi/lib/thumb/v7e-m+fp/hard\libm.a(lib_a-w_pow.o) (__ieee754_pow)
c:/storage/toolchains/gcc-arm-none-eabi-10.3-2021.10-win32/bin/../lib/gcc/arm-none-eabi/10.3.1/../../../../arm-none-eabi/lib/thumb/v7e-m+fp/hard\libm.a(lib_a-e_sqrt.o)
                              c:/storage/toolchains/gcc-arm-none-eabi-10.3-2021.10-win32/bin/../lib/gcc/arm-none-eabi/10.3.1/../../../../arm-none-eabi/lib/thumb/v7e-m+fp/hard\libm.a(lib_a-w_sqrt.o) (__ieee754_sqrt)
c:/storage/toolchains/gcc-arm-none-eabi-10.3-2021.10-win32/bin/../lib/gcc/arm-none-eabi/10.3.1/../../../../arm-none-eabi/lib/thumb/v7e-m+fp/hard\libm.a(lib_a-math_err.o)
                              c:/storage/toolchains/gcc-arm-none-eabi-10.3-2021.10-win32/bin/../lib/gcc/arm-none-eabi/10.3.1/../../../../arm-none-eabi/lib/thumb/v7e-m+fp/hard\libm.a(lib_a-e_exp.o) (__math_uflow)
c:/storage/toolchains/gcc-arm-none-eabi-10.3-2021.10-win32/bin/../lib/gcc/arm-none-eabi/10.3.1/../../../../arm-none-eabi/lib/thumb/v7e-m+fp/hard\libm.a(lib_a-s_fabs.o)
                              c:/storage/toolchains/gcc-arm-none-eabi-10.3-2021.10-win32/bin/../lib/gcc/arm-none-eabi/10.3.1/../../../../arm-none-eabi/lib/thumb/v7e-m+fp/hard\libm.a(lib_a-e_pow.o) (fabs)
c:/storage/toolchains/gcc-arm-none-eabi-10.3-2021.10-win32/bin/../lib/gcc/arm-none-eabi/10.3.1/../../../../arm-none-eabi/lib/thumb/v7e-m+fp/hard\libm.a(lib_a-s_finite.o)
                              c:/storage/toolchains/gcc-arm-none-eabi-10.3-2021.10-win32/bin/../lib/gcc/arm-none-eabi/10.3.1/../../../../arm-none-eabi/lib/thumb/v7e-m+fp/hard\libm.a(lib_a-w_exp.o) (finite)
c:/storage/toolchains/gcc-arm-none-eabi-10.3-2021.10-win32/bin/../lib/gcc/arm-none-eabi/10.3.1/../../../../arm-none-eabi/lib/thumb/v7e-m+fp/hard\libm.a(lib_a-s_nan.o)
                              c:/storage/toolchains/gcc-arm-none-eabi-10.3-2021.10-win32/bin/../lib/gcc/arm-none-eabi/10.3.1/../../../../arm-none-eabi/lib/thumb/v7e-m+fp/hard\libm.a(lib_a-w_log.o) (nan)
c:/storage/toolchains/gcc-arm-none-eabi-10.3-2021.10-win32/bin/../lib/gcc/arm-none-eabi/10.3.1/../../../../arm-none-eabi/lib/thumb/v7e-m+fp/hard\libm.a(lib_a-s_scalbn.o)
                              c:/storage/toolchains/gcc-arm-none-eabi-10.3-2021.10-win32/bin/../lib/gcc/arm-none-eabi/10.3.1/../../../../arm-none-eabi/lib/thumb/v7e-m+fp/hard\libm.a(lib_a-e_pow.o) (scalbn)
c:/storage/toolchains/gcc-arm-none-eabi-10.3-2021.10-win32/bin/../lib/gcc/arm-none-eabi/10.3.1/thumb/v7e-m+fp/hard\libgcc.a(_arm_muldf3.o)
                              ..\obj\MS5607.o (__aeabi_dmul)
c:/storage/toolchains/gcc-arm-none-eabi-10.3-2021.10-win32/bin/../lib/gcc/arm-none-eabi/10.3.1/thumb/v7e-m+fp/hard\libgcc.a(_arm_addsubdf3.o)
                              ..\obj\utilities.o (__aeabi_dsub)
c:/storage/toolchains/gcc-arm-none-eabi-10.3-2021.10-win32/bin/../lib/gcc/arm-none-eabi/10.3.1/thumb/v7e-m+fp/hard\libgcc.a(_arm_muldivdf3.o)
                              ..\obj\mfg.o (__aeabi_ddiv)
c:/storage/toolchains/gcc-arm-none-eabi-10.3-2021.10-win32/bin/../lib/gcc/arm-none-eabi/10.3.1/thumb/v7e-m+fp/hard\libgcc.a(_arm_cmpdf2.o)
                              ..\obj\utilities.o (__aeabi_dcmpeq)
c:/storage/toolchains/gcc-arm-none-eabi-10.3-2021.10-win32/bin/../lib/gcc/arm-none-eabi/10.3.1/thumb/v7e-m+fp/hard\libgcc.a(_arm_unorddf2.o)
                              c:/storage/toolchains/gcc-arm-none-eabi-10.3-2021.10-win32/bin/../lib/gcc/arm-none-eabi/10.3.1/../../../../arm-none-eabi/lib/thumb/v7e-m+fp/hard\libm.a(lib_a-w_log.o) (__aeabi_dcmpun)
c:/storage/toolchains/gcc-arm-none-eabi-10.3-2021.10-win32/bin/../lib/gcc/arm-none-eabi/10.3.1/thumb/v7e-m+fp/hard\libgcc.a(_arm_fixdfsi.o)
                              ..\obj\MS5607.o (__aeabi_d2iz)
c:/storage/toolchains/gcc-arm-none-eabi-10.3-2021.10-win32/bin/../lib/gcc/arm-none-eabi/10.3.1/thumb/v7e-m+fp/hard\libgcc.a(_arm_fixunsdfsi.o)
                              ..\obj\mfg.o (__aeabi_d2uiz)
c:/storage/toolchains/gcc-arm-none-eabi-10.3-2021.10-win32/bin/../lib/gcc/arm-none-eabi/10.3.1/thumb/v7e-m+fp/hard\libgcc.a(_arm_truncdfsf2.o)
                              ..\obj\MS5607.o (__aeabi_d2f)
c:/storage/toolchains/gcc-arm-none-eabi-10.3-2021.10-win32/bin/../lib/gcc/arm-none-eabi/10.3.1/../../../../arm-none-eabi/lib/thumb/v7e-m+fp/hard\libg.a(lib_a-errno.o)
                              c:/storage/toolchains/gcc-arm-none-eabi-10.3-2021.10-win32/bin/../lib/gcc/arm-none-eabi/10.3.1/../../../../arm-none-eabi/lib/thumb/v7e-m+fp/hard\libm.a(lib_a-w_exp.o) (__errno)
c:/storage/toolchains/gcc-arm-none-eabi-10.3-2021.10-win32/bin/../lib/gcc/arm-none-eabi/10.3.1/../../../../arm-none-eabi/lib/thumb/v7e-m+fp/hard\libg.a(lib_a-impure.o)
                              c:/storage/toolchains/gcc-arm-none-eabi-10.3-2021.10-win32/bin/../lib/gcc/arm-none-eabi/10.3.1/../../../../arm-none-eabi/lib/thumb/v7e-m+fp/hard\libg.a(lib_a-errno.o) (_impure_ptr)
c:/storage/toolchains/gcc-arm-none-eabi-10.3-2021.10-win32/bin/../lib/gcc/arm-none-eabi/10.3.1/../../../../arm-none-eabi/lib/thumb/v7e-m+fp/hard\libg.a(lib_a-memcpy.o)
                              ..\obj\packets.o (memcpy)
c:/storage/toolchains/gcc-arm-none-eabi-10.3-2021.10-win32/bin/../lib/gcc/arm-none-eabi/10.3.1/../../../../arm-none-eabi/lib/thumb/v7e-m+fp/hard\libg.a(lib_a-sprintf.o)
                              ..\obj\mfg.o (sprintf)
c:/storage/toolchains/gcc-arm-none-eabi-10.3-2021.10-win32/bin/../lib/gcc/arm-none-eabi/10.3.1/../../../../arm-none-eabi/lib/thumb/v7e-m+fp/hard\libg.a(lib_a-strcat.o)
                              ..\obj\ublox.o (strcat)
c:/storage/toolchains/gcc-arm-none-eabi-10.3-2021.10-win32/bin/../lib/gcc/arm-none-eabi/10.3.1/../../../../arm-none-eabi/lib/thumb/v7e-m+fp/hard\libg.a(lib_a-strchr.o)
                              ..\obj\mfg.o (strchr)
c:/storage/toolchains/gcc-arm-none-eabi-10.3-2021.10-win32/bin/../lib/gcc/arm-none-eabi/10.3.1/../../../../arm-none-eabi/lib/thumb/v7e-m+fp/hard\libg.a(lib_a-strcmp.o)
                              ..\obj\mfg.o (strcmp)
c:/storage/toolchains/gcc-arm-none-eabi-10.3-2021.10-win32/bin/../lib/gcc/arm-none-eabi/10.3.1/../../../../arm-none-eabi/lib/thumb/v7e-m+fp/hard\libg.a(lib_a-strcpy.o)
                              ..\obj\xdata.o (strcpy)
c:/storage/toolchains/gcc-arm-none-eabi-10.3-2021.10-win32/bin/../lib/gcc/arm-none-eabi/10.3.1/../../../../arm-none-eabi/lib/thumb/v7e-m+fp/hard\libg.a(lib_a-strlen.o)
                              ..\obj\mfg.o (strlen)
c:/storage/toolchains/gcc-arm-none-eabi-10.3-2021.10-win32/bin/../lib/gcc/arm-none-eabi/10.3.1/../../../../arm-none-eabi/lib/thumb/v7e-m+fp/hard\libg.a(lib_a-strncpy.o)
                              ..\obj\xdata.o (strncpy)
c:/storage/toolchains/gcc-arm-none-eabi-10.3-2021.10-win32/bin/../lib/gcc/arm-none-eabi/10.3.1/../../../../arm-none-eabi/lib/thumb/v7e-m+fp/hard\libg.a(lib_a-strstr.o)
                              ..\obj\mfg.o (strstr)
c:/storage/toolchains/gcc-arm-none-eabi-10.3-2021.10-win32/bin/../lib/gcc/arm-none-eabi/10.3.1/../../../../arm-none-eabi/lib/thumb/v7e-m+fp/hard\libg.a(lib_a-strtok.o)
                              ..\obj\mfg.o (strtok)
c:/storage/toolchains/gcc-arm-none-eabi-10.3-2021.10-win32/bin/../lib/gcc/arm-none-eabi/10.3.1/../../../../arm-none-eabi/lib/thumb/v7e-m+fp/hard\libg.a(lib_a-strtok_r.o)
                              c:/storage/toolchains/gcc-arm-none-eabi-10.3-2021.10-win32/bin/../lib/gcc/arm-none-eabi/10.3.1/../../../../arm-none-eabi/lib/thumb/v7e-m+fp/hard\libg.a(lib_a-strtok.o) (__strtok_r)
c:/storage/toolchains/gcc-arm-none-eabi-10.3-2021.10-win32/bin/../lib/gcc/arm-none-eabi/10.3.1/../../../../arm-none-eabi/lib/thumb/v7e-m+fp/hard\libg.a(lib_a-strtol.o)
                              ..\obj\xdata.o (strtol)
c:/storage/toolchains/gcc-arm-none-eabi-10.3-2021.10-win32/bin/../lib/gcc/arm-none-eabi/10.3.1/../../../../arm-none-eabi/lib/thumb/v7e-m+fp/hard\libg.a(lib_a-svfprintf.o)
                              c:/storage/toolchains/gcc-arm-none-eabi-10.3-2021.10-win32/bin/../lib/gcc/arm-none-eabi/10.3.1/../../../../arm-none-eabi/lib/thumb/v7e-m+fp/hard\libg.a(lib_a-sprintf.o) (_svfprintf_r)
c:/storage/toolchains/gcc-arm-none-eabi-10.3-2021.10-win32/bin/../lib/gcc/arm-none-eabi/10.3.1/../../../../arm-none-eabi/lib/thumb/v7e-m+fp/hard\libg.a(lib_a-ctype_.o)
                              c:/storage/toolchains/gcc-arm-none-eabi-10.3-2021.10-win32/bin/../lib/gcc/arm-none-eabi/10.3.1/../../../../arm-none-eabi/lib/thumb/v7e-m+fp/hard\libg.a(lib_a-strtol.o) (_ctype_)
c:/storage/toolchains/gcc-arm-none-eabi-10.3-2021.10-win32/bin/../lib/gcc/arm-none-eabi/10.3.1/../../../../arm-none-eabi/lib/thumb/v7e-m+fp/hard\libg.a(lib_a-dtoa.o)
                              c:/storage/toolchains/gcc-arm-none-eabi-10.3-2021.10-win32/bin/../lib/gcc/arm-none-eabi/10.3.1/../../../../arm-none-eabi/lib/thumb/v7e-m+fp/hard\libg.a(lib_a-svfprintf.o) (_dtoa_r)
c:/storage/toolchains/gcc-arm-none-eabi-10.3-2021.10-win32/bin/../lib/gcc/arm-none-eabi/10.3.1/../../../../arm-none-eabi/lib/thumb/v7e-m+fp/hard\libg.a(lib_a-freer.o)
                              c:/storage/toolchains/gcc-arm-none-eabi-10.3-2021.10-win32/bin/../lib/gcc/arm-none-eabi/10.3.1/../../../../arm-none-eabi/lib/thumb/v7e-m+fp/hard\libg.a(lib_a-svfprintf.o) (_free_r)
c:/storage/toolchains/gcc-arm-none-eabi-10.3-2021.10-win32/bin/../lib/gcc/arm-none-eabi/10.3.1/../../../../arm-none-eabi/lib/thumb/v7e-m+fp/hard\libg.a(lib_a-localeconv.o)
                              c:/storage/toolchains/gcc-arm-none-eabi-10.3-2021.10-win32/bin/../lib/gcc/arm-none-eabi/10.3.1/../../../../arm-none-eabi/lib/thumb/v7e-m+fp/hard\libg.a(lib_a-svfprintf.o) (_localeconv_r)
c:/storage/toolchains/gcc-arm-none-eabi-10.3-2021.10-win32/bin/../lib/gcc/arm-none-eabi/10.3.1/../../../../arm-none-eabi/lib/thumb/v7e-m+fp/hard\libg.a(lib_a-mallocr.o)
                              c:/storage/toolchains/gcc-arm-none-eabi-10.3-2021.10-win32/bin/../lib/gcc/arm-none-eabi/10.3.1/../../../../arm-none-eabi/lib/thumb/v7e-m+fp/hard\libg.a(lib_a-svfprintf.o) (_malloc_r)
c:/storage/toolchains/gcc-arm-none-eabi-10.3-2021.10-win32/bin/../lib/gcc/arm-none-eabi/10.3.1/../../../../arm-none-eabi/lib/thumb/v7e-m+fp/hard\libg.a(lib_a-memchr.o)
                              c:/storage/toolchains/gcc-arm-none-eabi-10.3-2021.10-win32/bin/../lib/gcc/arm-none-eabi/10.3.1/../../../../arm-none-eabi/lib/thumb/v7e-m+fp/hard\libg.a(lib_a-svfprintf.o) (memchr)
c:/storage/toolchains/gcc-arm-none-eabi-10.3-2021.10-win32/bin/../lib/gcc/arm-none-eabi/10.3.1/../../../../arm-none-eabi/lib/thumb/v7e-m+fp/hard\libg.a(lib_a-memcmp.o)
                              c:/storage/toolchains/gcc-arm-none-eabi-10.3-2021.10-win32/bin/../lib/gcc/arm-none-eabi/10.3.1/../../../../arm-none-eabi/lib/thumb/v7e-m+fp/hard\libg.a(lib_a-strstr.o) (memcmp)
c:/storage/toolchains/gcc-arm-none-eabi-10.3-2021.10-win32/bin/../lib/gcc/arm-none-eabi/10.3.1/../../../../arm-none-eabi/lib/thumb/v7e-m+fp/hard\libg.a(lib_a-memset.o)
                              c:/storage/toolchains/gcc-arm-none-eabi-10.3-2021.10-win32/bin/../lib/gcc/arm-none-eabi/10.3.1/../../../../arm-none-eabi/lib/thumb/v7e-m+fp/hard\libg.a(lib_a-strstr.o) (memset)
c:/storage/toolchains/gcc-arm-none-eabi-10.3-2021.10-win32/bin/../lib/gcc/arm-none-eabi/10.3.1/../../../../arm-none-eabi/lib/thumb/v7e-m+fp/hard\libg.a(lib_a-mlock.o)
                              c:/storage/toolchains/gcc-arm-none-eabi-10.3-2021.10-win32/bin/../lib/gcc/arm-none-eabi/10.3.1/../../../../arm-none-eabi/lib/thumb/v7e-m+fp/hard\libg.a(lib_a-freer.o) (__malloc_lock)
c:/storage/toolchains/gcc-arm-none-eabi-10.3-2021.10-win32/bin/../lib/gcc/arm-none-eabi/10.3.1/../../../../arm-none-eabi/lib/thumb/v7e-m+fp/hard\libg.a(lib_a-mprec.o)
                              c:/storage/toolchains/gcc-arm-none-eabi-10.3-2021.10-win32/bin/../lib/gcc/arm-none-eabi/10.3.1/../../../../arm-none-eabi/lib/thumb/v7e-m+fp/hard\libg.a(lib_a-dtoa.o) (_Balloc)
c:/storage/toolchains/gcc-arm-none-eabi-10.3-2021.10-win32/bin/../lib/gcc/arm-none-eabi/10.3.1/../../../../arm-none-eabi/lib/thumb/v7e-m+fp/hard\libg.a(lib_a-s_frexp.o)
                              c:/storage/toolchains/gcc-arm-none-eabi-10.3-2021.10-win32/bin/../lib/gcc/arm-none-eabi/10.3.1/../../../../arm-none-eabi/lib/thumb/v7e-m+fp/hard\libg.a(lib_a-svfprintf.o) (frexp)
c:/storage/toolchains/gcc-arm-none-eabi-10.3-2021.10-win32/bin/../lib/gcc/arm-none-eabi/10.3.1/../../../../arm-none-eabi/lib/thumb/v7e-m+fp/hard\libg.a(lib_a-sbrkr.o)
                              c:/storage/toolchains/gcc-arm-none-eabi-10.3-2021.10-win32/bin/../lib/gcc/arm-none-eabi/10.3.1/../../../../arm-none-eabi/lib/thumb/v7e-m+fp/hard\libg.a(lib_a-freer.o) (_sbrk_r)
c:/storage/toolchains/gcc-arm-none-eabi-10.3-2021.10-win32/bin/../lib/gcc/arm-none-eabi/10.3.1/../../../../arm-none-eabi/lib/thumb/v7e-m+fp/hard\libg.a(lib_a-strnlen.o)
                              c:/storage/toolchains/gcc-arm-none-eabi-10.3-2021.10-win32/bin/../lib/gcc/arm-none-eabi/10.3.1/../../../../arm-none-eabi/lib/thumb/v7e-m+fp/hard\libg.a(lib_a-strstr.o) (strnlen)
c:/storage/toolchains/gcc-arm-none-eabi-10.3-2021.10-win32/bin/../lib/gcc/arm-none-eabi/10.3.1/../../../../arm-none-eabi/lib/thumb/v7e-m+fp/hard\libg.a(lib_a-svfiprintf.o)
                              c:/storage/toolchains/gcc-arm-none-eabi-10.3-2021.10-win32/bin/../lib/gcc/arm-none-eabi/10.3.1/../../../../arm-none-eabi/lib/thumb/v7e-m+fp/hard\libg.a(lib_a-svfprintf.o) (__ssprint_r)
c:/storage/toolchains/gcc-arm-none-eabi-10.3-2021.10-win32/bin/../lib/gcc/arm-none-eabi/10.3.1/../../../../arm-none-eabi/lib/thumb/v7e-m+fp/hard\libg.a(lib_a-assert.o)
                              c:/storage/toolchains/gcc-arm-none-eabi-10.3-2021.10-win32/bin/../lib/gcc/arm-none-eabi/10.3.1/../../../../arm-none-eabi/lib/thumb/v7e-m+fp/hard\libg.a(lib_a-dtoa.o) (__assert_func)
c:/storage/toolchains/gcc-arm-none-eabi-10.3-2021.10-win32/bin/../lib/gcc/arm-none-eabi/10.3.1/../../../../arm-none-eabi/lib/thumb/v7e-m+fp/hard\libg.a(lib_a-callocr.o)
                              c:/storage/toolchains/gcc-arm-none-eabi-10.3-2021.10-win32/bin/../lib/gcc/arm-none-eabi/10.3.1/../../../../arm-none-eabi/lib/thumb/v7e-m+fp/hard\libg.a(lib_a-mprec.o) (_calloc_r)
c:/storage/toolchains/gcc-arm-none-eabi-10.3-2021.10-win32/bin/../lib/gcc/arm-none-eabi/10.3.1/../../../../arm-none-eabi/lib/thumb/v7e-m+fp/hard\libg.a(lib_a-fiprintf.o)
                              c:/storage/toolchains/gcc-arm-none-eabi-10.3-2021.10-win32/bin/../lib/gcc/arm-none-eabi/10.3.1/../../../../arm-none-eabi/lib/thumb/v7e-m+fp/hard\libg.a(lib_a-assert.o) (fiprintf)
c:/storage/toolchains/gcc-arm-none-eabi-10.3-2021.10-win32/bin/../lib/gcc/arm-none-eabi/10.3.1/../../../../arm-none-eabi/lib/thumb/v7e-m+fp/hard\libg.a(lib_a-locale.o)
                              c:/storage/toolchains/gcc-arm-none-eabi-10.3-2021.10-win32/bin/../lib/gcc/arm-none-eabi/10.3.1/../../../../arm-none-eabi/lib/thumb/v7e-m+fp/hard\libg.a(lib_a-localeconv.o) (__global_locale)
c:/storage/toolchains/gcc-arm-none-eabi-10.3-2021.10-win32/bin/../lib/gcc/arm-none-eabi/10.3.1/../../../../arm-none-eabi/lib/thumb/v7e-m+fp/hard\libg.a(lib_a-lock.o)
                              c:/storage/toolchains/gcc-arm-none-eabi-10.3-2021.10-win32/bin/../lib/gcc/arm-none-eabi/10.3.1/../../../../arm-none-eabi/lib/thumb/v7e-m+fp/hard\libg.a(lib_a-mlock.o) (__retarget_lock_acquire_recursive)
c:/storage/toolchains/gcc-arm-none-eabi-10.3-2021.10-win32/bin/../lib/gcc/arm-none-eabi/10.3.1/../../../../arm-none-eabi/lib/thumb/v7e-m+fp/hard\libg.a(lib_a-mbtowc_r.o)
                              c:/storage/toolchains/gcc-arm-none-eabi-10.3-2021.10-win32/bin/../lib/gcc/arm-none-eabi/10.3.1/../../../../arm-none-eabi/lib/thumb/v7e-m+fp/hard\libg.a(lib_a-locale.o) (__ascii_mbtowc)
c:/storage/toolchains/gcc-arm-none-eabi-10.3-2021.10-win32/bin/../lib/gcc/arm-none-eabi/10.3.1/../../../../arm-none-eabi/lib/thumb/v7e-m+fp/hard\libg.a(lib_a-memmove.o)
                              c:/storage/toolchains/gcc-arm-none-eabi-10.3-2021.10-win32/bin/../lib/gcc/arm-none-eabi/10.3.1/../../../../arm-none-eabi/lib/thumb/v7e-m+fp/hard\libg.a(lib_a-svfiprintf.o) (memmove)
c:/storage/toolchains/gcc-arm-none-eabi-10.3-2021.10-win32/bin/../lib/gcc/arm-none-eabi/10.3.1/../../../../arm-none-eabi/lib/thumb/v7e-m+fp/hard\libg.a(lib_a-reallocr.o)
                              c:/storage/toolchains/gcc-arm-none-eabi-10.3-2021.10-win32/bin/../lib/gcc/arm-none-eabi/10.3.1/../../../../arm-none-eabi/lib/thumb/v7e-m+fp/hard\libg.a(lib_a-svfiprintf.o) (_realloc_r)
c:/storage/toolchains/gcc-arm-none-eabi-10.3-2021.10-win32/bin/../lib/gcc/arm-none-eabi/10.3.1/../../../../arm-none-eabi/lib/thumb/v7e-m+fp/hard\libg.a(lib_a-reent.o)
                              c:/storage/toolchains/gcc-arm-none-eabi-10.3-2021.10-win32/bin/../lib/gcc/arm-none-eabi/10.3.1/../../../../arm-none-eabi/lib/thumb/v7e-m+fp/hard\libg.a(lib_a-sbrkr.o) (errno)
c:/storage/toolchains/gcc-arm-none-eabi-10.3-2021.10-win32/bin/../lib/gcc/arm-none-eabi/10.3.1/../../../../arm-none-eabi/lib/thumb/v7e-m+fp/hard\libg.a(lib_a-vfiprintf.o)
                              c:/storage/toolchains/gcc-arm-none-eabi-10.3-2021.10-win32/bin/../lib/gcc/arm-none-eabi/10.3.1/../../../../arm-none-eabi/lib/thumb/v7e-m+fp/hard\libg.a(lib_a-fiprintf.o) (_vfiprintf_r)
c:/storage/toolchains/gcc-arm-none-eabi-10.3-2021.10-win32/bin/../lib/gcc/arm-none-eabi/10.3.1/../../../../arm-none-eabi/lib/thumb/v7e-m+fp/hard\libg.a(lib_a-wctomb_r.o)
                              c:/storage/toolchains/gcc-arm-none-eabi-10.3-2021.10-win32/bin/../lib/gcc/arm-none-eabi/10.3.1/../../../../arm-none-eabi/lib/thumb/v7e-m+fp/hard\libg.a(lib_a-locale.o) (__ascii_wctomb)
c:/storage/toolchains/gcc-arm-none-eabi-10.3-2021.10-win32/bin/../lib/gcc/arm-none-eabi/10.3.1/../../../../arm-none-eabi/lib/thumb/v7e-m+fp/hard\libg.a(lib_a-wsetup.o)
                              c:/storage/toolchains/gcc-arm-none-eabi-10.3-2021.10-win32/bin/../lib/gcc/arm-none-eabi/10.3.1/../../../../arm-none-eabi/lib/thumb/v7e-m+fp/hard\libg.a(lib_a-vfiprintf.o) (__swsetup_r)
c:/storage/toolchains/gcc-arm-none-eabi-10.3-2021.10-win32/bin/../lib/gcc/arm-none-eabi/10.3.1/../../../../arm-none-eabi/lib/thumb/v7e-m+fp/hard\libg.a(lib_a-fflush.o)
                              c:/storage/toolchains/gcc-arm-none-eabi-10.3-2021.10-win32/bin/../lib/gcc/arm-none-eabi/10.3.1/../../../../arm-none-eabi/lib/thumb/v7e-m+fp/hard\libg.a(lib_a-vfiprintf.o) (_fflush_r)
c:/storage/toolchains/gcc-arm-none-eabi-10.3-2021.10-win32/bin/../lib/gcc/arm-none-eabi/10.3.1/../../../../arm-none-eabi/lib/thumb/v7e-m+fp/hard\libg.a(lib_a-findfp.o)
                              c:/storage/toolchains/gcc-arm-none-eabi-10.3-2021.10-win32/bin/../lib/gcc/arm-none-eabi/10.3.1/../../../../arm-none-eabi/lib/thumb/v7e-m+fp/hard\libg.a(lib_a-vfiprintf.o) (__sinit)
c:/storage/toolchains/gcc-arm-none-eabi-10.3-2021.10-win32/bin/../lib/gcc/arm-none-eabi/10.3.1/../../../../arm-none-eabi/lib/thumb/v7e-m+fp/hard\libg.a(lib_a-fputwc.o)
                              c:/storage/toolchains/gcc-arm-none-eabi-10.3-2021.10-win32/bin/../lib/gcc/arm-none-eabi/10.3.1/../../../../arm-none-eabi/lib/thumb/v7e-m+fp/hard\libg.a(lib_a-vfiprintf.o) (_fputwc_r)
c:/storage/toolchains/gcc-arm-none-eabi-10.3-2021.10-win32/bin/../lib/gcc/arm-none-eabi/10.3.1/../../../../arm-none-eabi/lib/thumb/v7e-m+fp/hard\libg.a(lib_a-fvwrite.o)
                              c:/storage/toolchains/gcc-arm-none-eabi-10.3-2021.10-win32/bin/../lib/gcc/arm-none-eabi/10.3.1/../../../../arm-none-eabi/lib/thumb/v7e-m+fp/hard\libg.a(lib_a-vfiprintf.o) (__sfvwrite_r)
c:/storage/toolchains/gcc-arm-none-eabi-10.3-2021.10-win32/bin/../lib/gcc/arm-none-eabi/10.3.1/../../../../arm-none-eabi/lib/thumb/v7e-m+fp/hard\libg.a(lib_a-fwalk.o)
                              c:/storage/toolchains/gcc-arm-none-eabi-10.3-2021.10-win32/bin/../lib/gcc/arm-none-eabi/10.3.1/../../../../arm-none-eabi/lib/thumb/v7e-m+fp/hard\libg.a(lib_a-findfp.o) (_fwalk)
c:/storage/toolchains/gcc-arm-none-eabi-10.3-2021.10-win32/bin/../lib/gcc/arm-none-eabi/10.3.1/../../../../arm-none-eabi/lib/thumb/v7e-m+fp/hard\libg.a(lib_a-makebuf.o)
                              c:/storage/toolchains/gcc-arm-none-eabi-10.3-2021.10-win32/bin/../lib/gcc/arm-none-eabi/10.3.1/../../../../arm-none-eabi/lib/thumb/v7e-m+fp/hard\libg.a(lib_a-wsetup.o) (__smakebuf_r)
c:/storage/toolchains/gcc-arm-none-eabi-10.3-2021.10-win32/bin/../lib/gcc/arm-none-eabi/10.3.1/../../../../arm-none-eabi/lib/thumb/v7e-m+fp/hard\libg.a(lib_a-stdio.o)
                              c:/storage/toolchains/gcc-arm-none-eabi-10.3-2021.10-win32/bin/../lib/gcc/arm-none-eabi/10.3.1/../../../../arm-none-eabi/lib/thumb/v7e-m+fp/hard\libg.a(lib_a-findfp.o) (__sread)
c:/storage/toolchains/gcc-arm-none-eabi-10.3-2021.10-win32/bin/../lib/gcc/arm-none-eabi/10.3.1/../../../../arm-none-eabi/lib/thumb/v7e-m+fp/hard\libg.a(lib_a-wbuf.o)
                              c:/storage/toolchains/gcc-arm-none-eabi-10.3-2021.10-win32/bin/../lib/gcc/arm-none-eabi/10.3.1/../../../../arm-none-eabi/lib/thumb/v7e-m+fp/hard\libg.a(lib_a-fputwc.o) (__swbuf_r)
c:/storage/toolchains/gcc-arm-none-eabi-10.3-2021.10-win32/bin/../lib/gcc/arm-none-eabi/10.3.1/../../../../arm-none-eabi/lib/thumb/v7e-m+fp/hard\libg.a(lib_a-wcrtomb.o)
                              c:/storage/toolchains/gcc-arm-none-eabi-10.3-2021.10-win32/bin/../lib/gcc/arm-none-eabi/10.3.1/../../../../arm-none-eabi/lib/thumb/v7e-m+fp/hard\libg.a(lib_a-fputwc.o) (_wcrtomb_r)
c:/storage/toolchains/gcc-arm-none-eabi-10.3-2021.10-win32/bin/../lib/gcc/arm-none-eabi/10.3.1/../../../../arm-none-eabi/lib/thumb/v7e-m+fp/hard\libg.a(lib_a-writer.o)
                              c:/storage/toolchains/gcc-arm-none-eabi-10.3-2021.10-win32/bin/../lib/gcc/arm-none-eabi/10.3.1/../../../../arm-none-eabi/lib/thumb/v7e-m+fp/hard\libg.a(lib_a-stdio.o) (_write_r)
c:/storage/toolchains/gcc-arm-none-eabi-10.3-2021.10-win32/bin/../lib/gcc/arm-none-eabi/10.3.1/../../../../arm-none-eabi/lib/thumb/v7e-m+fp/hard\libg.a(lib_a-closer.o)
                              c:/storage/toolchains/gcc-arm-none-eabi-10.3-2021.10-win32/bin/../lib/gcc/arm-none-eabi/10.3.1/../../../../arm-none-eabi/lib/thumb/v7e-m+fp/hard\libg.a(lib_a-stdio.o) (_close_r)
c:/storage/toolchains/gcc-arm-none-eabi-10.3-2021.10-win32/bin/../lib/gcc/arm-none-eabi/10.3.1/../../../../arm-none-eabi/lib/thumb/v7e-m+fp/hard\libg.a(lib_a-fclose.o)
                              c:/storage/toolchains/gcc-arm-none-eabi-10.3-2021.10-win32/bin/../lib/gcc/arm-none-eabi/10.3.1/../../../../arm-none-eabi/lib/thumb/v7e-m+fp/hard\libg.a(lib_a-findfp.o) (_fclose_r)
c:/storage/toolchains/gcc-arm-none-eabi-10.3-2021.10-win32/bin/../lib/gcc/arm-none-eabi/10.3.1/../../../../arm-none-eabi/lib/thumb/v7e-m+fp/hard\libg.a(lib_a-fstatr.o)
                              c:/storage/toolchains/gcc-arm-none-eabi-10.3-2021.10-win32/bin/../lib/gcc/arm-none-eabi/10.3.1/../../../../arm-none-eabi/lib/thumb/v7e-m+fp/hard\libg.a(lib_a-makebuf.o) (_fstat_r)
c:/storage/toolchains/gcc-arm-none-eabi-10.3-2021.10-win32/bin/../lib/gcc/arm-none-eabi/10.3.1/../../../../arm-none-eabi/lib/thumb/v7e-m+fp/hard\libg.a(lib_a-isattyr.o)
                              c:/storage/toolchains/gcc-arm-none-eabi-10.3-2021.10-win32/bin/../lib/gcc/arm-none-eabi/10.3.1/../../../../arm-none-eabi/lib/thumb/v7e-m+fp/hard\libg.a(lib_a-makebuf.o) (_isatty_r)
c:/storage/toolchains/gcc-arm-none-eabi-10.3-2021.10-win32/bin/../lib/gcc/arm-none-eabi/10.3.1/../../../../arm-none-eabi/lib/thumb/v7e-m+fp/hard\libg.a(lib_a-lseekr.o)
                              c:/storage/toolchains/gcc-arm-none-eabi-10.3-2021.10-win32/bin/../lib/gcc/arm-none-eabi/10.3.1/../../../../arm-none-eabi/lib/thumb/v7e-m+fp/hard\libg.a(lib_a-stdio.o) (_lseek_r)
c:/storage/toolchains/gcc-arm-none-eabi-10.3-2021.10-win32/bin/../lib/gcc/arm-none-eabi/10.3.1/../../../../arm-none-eabi/lib/thumb/v7e-m+fp/hard\libg.a(lib_a-readr.o)
                              c:/storage/toolchains/gcc-arm-none-eabi-10.3-2021.10-win32/bin/../lib/gcc/arm-none-eabi/10.3.1/../../../../arm-none-eabi/lib/thumb/v7e-m+fp/hard\libg.a(lib_a-stdio.o) (_read_r)
c:/storage/toolchains/gcc-arm-none-eabi-10.3-2021.10-win32/bin/../lib/gcc/arm-none-eabi/10.3.1/thumb/v7e-m+fp/hard\libgcc.a(_aeabi_uldivmod.o)
                              c:/storage/toolchains/gcc-arm-none-eabi-10.3-2021.10-win32/bin/../lib/gcc/arm-none-eabi/10.3.1/../../../../arm-none-eabi/lib/thumb/v7e-m+fp/hard\libg.a(lib_a-svfprintf.o) (__aeabi_uldivmod)
c:/storage/toolchains/gcc-arm-none-eabi-10.3-2021.10-win32/bin/../lib/gcc/arm-none-eabi/10.3.1/thumb/v7e-m+fp/hard\libgcc.a(_udivmoddi4.o)
                              c:/storage/toolchains/gcc-arm-none-eabi-10.3-2021.10-win32/bin/../lib/gcc/arm-none-eabi/10.3.1/thumb/v7e-m+fp/hard\libgcc.a(_aeabi_uldivmod.o) (__udivmoddi4)
c:/storage/toolchains/gcc-arm-none-eabi-10.3-2021.10-win32/bin/../lib/gcc/arm-none-eabi/10.3.1/thumb/v7e-m+fp/hard\libgcc.a(_dvmd_tls.o)
                              c:/storage/toolchains/gcc-arm-none-eabi-10.3-2021.10-win32/bin/../lib/gcc/arm-none-eabi/10.3.1/thumb/v7e-m+fp/hard\libgcc.a(_aeabi_uldivmod.o) (__aeabi_ldiv0)

Discarded input sections

 .text          0x00000000        0x0 ..\obj\stm32f37x_dbgmcu.o
 .data          0x00000000        0x0 ..\obj\stm32f37x_dbgmcu.o
 .bss           0x00000000        0x0 ..\obj\stm32f37x_dbgmcu.o
 .text.DBGMCU_GetREVID
                0x00000000       0x18 ..\obj\stm32f37x_dbgmcu.o
 .text.DBGMCU_GetDEVID
                0x00000000       0x1c ..\obj\stm32f37x_dbgmcu.o
 .text.DBGMCU_Config
                0x00000000       0x40 ..\obj\stm32f37x_dbgmcu.o
 .text.DBGMCU_APB1PeriphConfig
                0x00000000       0x40 ..\obj\stm32f37x_dbgmcu.o
 .text.DBGMCU_APB2PeriphConfig
                0x00000000       0x40 ..\obj\stm32f37x_dbgmcu.o
 .debug_info    0x00000000      0x1cc ..\obj\stm32f37x_dbgmcu.o
 .debug_abbrev  0x00000000       0xe5 ..\obj\stm32f37x_dbgmcu.o
 .debug_aranges
                0x00000000       0x40 ..\obj\stm32f37x_dbgmcu.o
 .debug_ranges  0x00000000       0x30 ..\obj\stm32f37x_dbgmcu.o
Memory Configuration

Name             Origin             Length             Attributes
rom              0x08000000         0x0001f800         xr
ram              0x20000000         0x00008000         xrw
ram1             0x10000000         0x00010000         xrw
*default*        0x00000000         0xffffffff

Linker script and memory map

                0x20008000                _eram = 0x20008000

.text           0x08000000    0x168d4
 *(.isr_vector)
 .isr_vector    0x08000000      0x184 ..\obj\startup_stm32f37x.o
                0x08000000                g_pfnVectors
 *(.text*)
 .text.InitUSART
                0x08000184       0xdc ..\obj\mfg.o
 .text.ClearTxBuffer
                0x08000260       0x50 ..\obj\mfg.o
 .text.ClearRxBuffer
                0x080002b0       0x58 ..\obj\mfg.o
 .text.MessageHandler
                0x08000308      0x60c ..\obj\mfg.o
 .text.GetCommandType
                0x08000914       0x36 ..\obj\mfg.o
 *fill*         0x0800094a        0x2 
 .text.RST_Handler
                0x0800094c       0x44 ..\obj\mfg.o
 .text.SAV_Handler
                0x08000990       0x68 ..\obj\mfg.o
 .text.VER_Handler
                0x080009f8       0x4c ..\obj\mfg.o
 .text.SWN_Handler
                0x08000a44       0x4c ..\obj\mfg.o
 .text.GPS_Handler
                0x08000a90       0x74 ..\obj\mfg.o
 .text.SRN_Handler
                0x08000b04       0xf4 ..\obj\mfg.o
 .text.STX_Handler
                0x08000bf8      0x1e8 ..\obj\mfg.o
 .text.CPB_Handler
                0x08000de0       0xe8 ..\obj\mfg.o
 .text.CTP_Handler
                0x08000ec8       0xf0 ..\obj\mfg.o
 .text.SPP_Handler
                0x08000fb8       0xf0 ..\obj\mfg.o
 .text.SPT_Handler
                0x080010a8      0x130 ..\obj\mfg.o
 .text.SPH_Handler
                0x080011d8      0x118 ..\obj\mfg.o
 .text.SOL_Handler
                0x080012f0      0x14c ..\obj\mfg.o
 .text.LLH_Handler
                0x0800143c      0x118 ..\obj\mfg.o
 .text.SAT_Handler
                0x08001554      0x184 ..\obj\mfg.o
 .text.BAT_Handler
                0x080016d8       0x74 ..\obj\mfg.o
 .text.VDD_Handler
                0x0800174c       0xcc ..\obj\mfg.o
 .text.TXP_Handler
                0x08001818      0x188 ..\obj\mfg.o
 .text.TXF_Handler
                0x080019a0      0x150 ..\obj\mfg.o
 .text.TXX_Handler
                0x08001af0      0x174 ..\obj\mfg.o
 .text.TXM_Handler
                0x08001c64      0x124 ..\obj\mfg.o
 .text.TXD_Handler
                0x08001d88       0xd4 ..\obj\mfg.o
 .text.HTR_Handler
                0x08001e5c       0xd8 ..\obj\mfg.o
 .text.HSP_Handler
                0x08001f34      0x114 ..\obj\mfg.o
 .text.PWM_Handler
                0x08002048       0xf0 ..\obj\mfg.o
 .text.DFM_Handler
                0x08002138       0xe4 ..\obj\mfg.o
 .text.XDATA_Handler
                0x0800221c       0x58 ..\obj\mfg.o
 .text.DAT_Handler
                0x08002274       0xc0 ..\obj\mfg.o
 .text.Mfg_Init
                0x08002334       0x3c ..\obj\mfg.o
                0x08002334                Mfg_Init
 .text.Mfg_Handler
                0x08002370       0x30 ..\obj\mfg.o
                0x08002370                Mfg_Handler
 .text.Mfg_TxHandler
                0x080023a0       0x70 ..\obj\mfg.o
                0x080023a0                Mfg_TxHandler
 .text.Mfg_RxHandler
                0x08002410       0x98 ..\obj\mfg.o
                0x08002410                Mfg_RxHandler
 .text.Mfg_TransmitMessage
                0x080024a8       0x7c ..\obj\mfg.o
                0x080024a8                Mfg_TransmitMessage
 .text.Mfg_SendByte
                0x08002524       0x60 ..\obj\mfg.o
                0x08002524                Mfg_SendByte
 *fill*         0x08002584        0x4 
 .text.Mfg_TransmitASCII
                0x08002588      0x4b8 ..\obj\mfg.o
                0x08002588                Mfg_TransmitASCII
 .text.NVIC_PriorityGroupConfig
                0x08002a40       0x28 ..\obj\stm32f37x_misc.o
                0x08002a40                NVIC_PriorityGroupConfig
 .text.NVIC_Init
                0x08002a68       0xc8 ..\obj\stm32f37x_misc.o
                0x08002a68                NVIC_Init
 .text.WriteI2C
                0x08002b30       0xae ..\obj\MS5607.o
 .text.ReadI2C  0x08002bde       0xaa ..\obj\MS5607.o
 .text.GetCalibrationCoefficients
                0x08002c88      0x10c ..\obj\MS5607.o
 .text.CalculateSensorData
                0x08002d94      0x4d4 ..\obj\MS5607.o
 .text.StartConversion
                0x08003268       0x34 ..\obj\MS5607.o
 *fill*         0x0800329c        0x4 
 .text.GetConversion
                0x080032a0      0x16c ..\obj\MS5607.o
 *fill*         0x0800340c        0x4 
 .text.CorrectPressure
                0x08003410       0xe4 ..\obj\MS5607.o
 .text.MS5607_Init
                0x080034f4       0xd4 ..\obj\MS5607.o
                0x080034f4                MS5607_Init
 .text.MS5607_Reset
                0x080035c8       0x56 ..\obj\MS5607.o
                0x080035c8                MS5607_Reset
 *fill*         0x0800361e        0x2 
 .text.MS5607_Handler
                0x08003620       0xec ..\obj\MS5607.o
                0x08003620                MS5607_Handler
 .text.SPI_I2S_DeInit
                0x0800370c       0x74 ..\obj\stm32f37x_spi.o
                0x0800370c                SPI_I2S_DeInit
 .text.SPI_Init
                0x08003780       0xb4 ..\obj\stm32f37x_spi.o
                0x08003780                SPI_Init
 .text.SPI_Cmd  0x08003834       0x40 ..\obj\stm32f37x_spi.o
                0x08003834                SPI_Cmd
 .text.SPI_RxFIFOThresholdConfig
                0x08003874       0x38 ..\obj\stm32f37x_spi.o
                0x08003874                SPI_RxFIFOThresholdConfig
 .text.SPI_SendData8
                0x080038ac       0x2c ..\obj\stm32f37x_spi.o
                0x080038ac                SPI_SendData8
 .text.SPI_ReceiveData8
                0x080038d8       0x28 ..\obj\stm32f37x_spi.o
                0x080038d8                SPI_ReceiveData8
 .text.SPI_I2S_GetFlagStatus
                0x08003900       0x38 ..\obj\stm32f37x_spi.o
                0x08003900                SPI_I2S_GetFlagStatus
 .text.SPI_I2S_ClearFlag
                0x08003938       0x22 ..\obj\stm32f37x_spi.o
                0x08003938                SPI_I2S_ClearFlag
 *fill*         0x0800395a        0x2 
 .text.InitGPIO
                0x0800395c       0x48 ..\obj\hvac.o
 .text.InitTimer
                0x080039a4       0x90 ..\obj\hvac.o
 .text.HVAC_Init
                0x08003a34       0x60 ..\obj\hvac.o
                0x08003a34                HVAC_Init
 .text.HVAC_Handler
                0x08003a94       0xe4 ..\obj\hvac.o
                0x08003a94                HVAC_Handler
 .text.HVAC_SetHeaterMode
                0x08003b78       0xbc ..\obj\hvac.o
                0x08003b78                HVAC_SetHeaterMode
 .text.HVAC_EnablePWM
                0x08003c34       0x60 ..\obj\hvac.o
                0x08003c34                HVAC_EnablePWM
 .text.HVAC_DisablePWM
                0x08003c94       0x30 ..\obj\hvac.o
                0x08003c94                HVAC_DisablePWM
 .text.I2C_DeInit
                0x08003cc4       0x48 ..\obj\stm32f37x_i2c.o
                0x08003cc4                I2C_DeInit
 .text.I2C_Init
                0x08003d0c       0xcc ..\obj\stm32f37x_i2c.o
                0x08003d0c                I2C_Init
 .text.I2C_Cmd  0x08003dd8       0x38 ..\obj\stm32f37x_i2c.o
                0x08003dd8                I2C_Cmd
 .text.I2C_TransferHandling
                0x08003e10       0x58 ..\obj\stm32f37x_i2c.o
                0x08003e10                I2C_TransferHandling
 .text.I2C_SendData
                0x08003e68       0x1e ..\obj\stm32f37x_i2c.o
                0x08003e68                I2C_SendData
 .text.I2C_ReceiveData
                0x08003e86       0x1a ..\obj\stm32f37x_i2c.o
                0x08003e86                I2C_ReceiveData
 .text.I2C_GetFlagStatus
                0x08003ea0       0x3e ..\obj\stm32f37x_i2c.o
                0x08003ea0                I2C_GetFlagStatus
 .text.I2C_ClearFlag
                0x08003ede       0x1c ..\obj\stm32f37x_i2c.o
                0x08003ede                I2C_ClearFlag
 *fill*         0x08003efa        0x2 
 .text.InitLEDs
                0x08003efc       0x98 ..\obj\user.o
 .text.SetLEDs  0x08003f94       0xa0 ..\obj\user.o
 .text.ToggleLEDs
                0x08004034       0x90 ..\obj\user.o
 .text.InitPushbuttonInput
                0x080040c4       0x3c ..\obj\user.o
 .text.InitPowerOnOutput
                0x08004100       0x44 ..\obj\user.o
 .text.InitUserTimer
                0x08004144       0x74 ..\obj\user.o
 .text.PushButtonHandler
                0x080041b8      0x190 ..\obj\user.o
 .text.LEDHandler
                0x08004348       0xc4 ..\obj\user.o
 .text.UserInterface_Init
                0x0800440c       0xb4 ..\obj\user.o
                0x0800440c                UserInterface_Init
 .text.UserInterface_Handler
                0x080044c0       0x1c ..\obj\user.o
                0x080044c0                UserInterface_Handler
 .text.UserInterface_EnableLED
                0x080044dc       0x2c ..\obj\user.o
                0x080044dc                UserInterface_EnableLED
 .text.UserInterface_SetLED
                0x08004508       0x38 ..\obj\user.o
                0x08004508                UserInterface_SetLED
 .text.UserInterface_ChangeChannel
                0x08004540       0xa8 ..\obj\user.o
                0x08004540                UserInterface_ChangeChannel
 .text.NVIC_SystemReset
                0x080045e8       0x2c ..\obj\interrupts.o
 .text.USART1_IRQHandler
                0x08004614       0x70 ..\obj\interrupts.o
                0x08004614                USART1_IRQHandler
 .text.USART2_IRQHandler
                0x08004684       0xb8 ..\obj\interrupts.o
                0x08004684                USART2_IRQHandler
 .text.SDADC1_IRQHandler
                0x0800473c       0x68 ..\obj\interrupts.o
                0x0800473c                SDADC1_IRQHandler
 .text.TIM2_IRQHandler
                0x080047a4       0x26 ..\obj\interrupts.o
                0x080047a4                TIM2_IRQHandler
 *fill*         0x080047ca        0x2 
 .text.TIM3_IRQHandler
                0x080047cc       0xb0 ..\obj\interrupts.o
                0x080047cc                TIM3_IRQHandler
 .text.TIM12_IRQHandler
                0x0800487c       0xb4 ..\obj\interrupts.o
                0x0800487c                TIM12_IRQHandler
 .text.TIM13_IRQHandler
                0x08004930       0x38 ..\obj\interrupts.o
                0x08004930                TIM13_IRQHandler
 .text.TIM7_IRQHandler
                0x08004968       0x28 ..\obj\interrupts.o
                0x08004968                TIM7_IRQHandler
 .text.HardFault_Handler
                0x08004990        0xc ..\obj\interrupts.o
                0x08004990                HardFault_Handler
 .text.MemManage_Handler
                0x0800499c        0xc ..\obj\interrupts.o
                0x0800499c                MemManage_Handler
 .text.BusFault_Handler
                0x080049a8        0xc ..\obj\interrupts.o
                0x080049a8                BusFault_Handler
 .text.UsageFault_Handler
                0x080049b4        0xc ..\obj\interrupts.o
                0x080049b4                UsageFault_Handler
 .text.InitTASK
                0x080049c0       0x68 ..\obj\packets.o
 .text.crc16_msb
                0x08004a28       0x88 ..\obj\packets.o
 .text.CalculateBattery
                0x08004ab0       0x50 ..\obj\packets.o
 .text.Flip16   0x08004b00       0x2e ..\obj\packets.o
 .text.Flip32   0x08004b2e       0x46 ..\obj\packets.o
 .text.Build_iMet1_PTUX
                0x08004b74      0x124 ..\obj\packets.o
 .text.Build_iMet1_GPS
                0x08004c98      0x238 ..\obj\packets.o
 .text.Packets_Init
                0x08004ed0       0x58 ..\obj\packets.o
                0x08004ed0                Packets_Init
 .text.Packets_Build_TASK
                0x08004f28      0x310 ..\obj\packets.o
                0x08004f28                Packets_Build_TASK
 .text.Packets_Build_iMet1
                0x08005238       0x1c ..\obj\packets.o
                0x08005238                Packets_Build_iMet1
 .text.InitCRC  0x08005254       0x14 ..\obj\config.o
 .text.Config_Init
                0x08005268      0x114 ..\obj\config.o
                0x08005268                Config_Init
 .text.Config_Save
                0x0800537c       0xc4 ..\obj\config.o
                0x0800537c                Config_Save
 .text.Config_Get
                0x08005440       0x98 ..\obj\config.o
                0x08005440                Config_Get
 .text.Reset_Handler
                0x080054d8       0x4c ..\obj\startup_stm32f37x.o
                0x080054d8                Reset_Handler
 .text.Default_Handler
                0x08005524        0x2 ..\obj\startup_stm32f37x.o
                0x08005524                RTC_Alarm_IRQHandler
                0x08005524                DebugMon_Handler
                0x08005524                USB_HP_IRQHandler
                0x08005524                SysTick_Handler
                0x08005524                PVD_IRQHandler
                0x08005524                PendSV_Handler
                0x08005524                NMI_Handler
                0x08005524                EXTI3_IRQHandler
                0x08005524                EXTI0_IRQHandler
                0x08005524                I2C2_EV_IRQHandler
                0x08005524                CAN1_RX0_IRQHandler
                0x08005524                FPU_IRQHandler
                0x08005524                EXTI2_TS_IRQHandler
                0x08005524                SPI1_IRQHandler
                0x08005524                DMA2_Channel2_IRQHandler
                0x08005524                DMA1_Channel4_IRQHandler
                0x08005524                ADC1_IRQHandler
                0x08005524                TIM17_IRQHandler
                0x08005524                USART3_IRQHandler
                0x08005524                DMA1_Channel7_IRQHandler
                0x08005524                CAN1_RX1_IRQHandler
                0x08005524                TIM4_IRQHandler
                0x08005524                DMA2_Channel1_IRQHandler
                0x08005524                I2C1_EV_IRQHandler
                0x08005524                DMA1_Channel6_IRQHandler
                0x08005524                TIM16_IRQHandler
                0x08005524                DMA2_Channel4_IRQHandler
                0x08005524                RCC_IRQHandler
                0x08005524                DMA1_Channel1_IRQHandler
                0x08005524                Default_Handler
                0x08005524                CEC_IRQHandler
                0x08005524                EXTI15_10_IRQHandler
                0x08005524                TIM14_IRQHandler
                0x08005524                TIM5_IRQHandler
                0x08005524                SDADC2_IRQHandler
                0x08005524                TIM15_IRQHandler
                0x08005524                TIM6_DAC1_IRQHandler
                0x08005524                EXTI9_5_IRQHandler
                0x08005524                TAMPER_STAMP_IRQHandler
                0x08005524                RTC_WKUP_IRQHandler
                0x08005524                SPI2_IRQHandler
                0x08005524                CAN1_TX_IRQHandler
                0x08005524                SVC_Handler
                0x08005524                DMA2_Channel5_IRQHandler
                0x08005524                DMA1_Channel5_IRQHandler
                0x08005524                USB_LP_IRQHandler
                0x08005524                EXTI4_IRQHandler
                0x08005524                TIM18_DAC2_IRQHandler
                0x08005524                DMA1_Channel3_IRQHandler
                0x08005524                COMP_IRQHandler
                0x08005524                WWDG_IRQHandler
                0x08005524                EXTI1_IRQHandler
                0x08005524                SDADC3_IRQHandler
                0x08005524                TIM19_IRQHandler
                0x08005524                I2C2_ER_IRQHandler
                0x08005524                DMA1_Channel2_IRQHandler
                0x08005524                CAN1_SCE_IRQHandler
                0x08005524                FLASH_IRQHandler
                0x08005524                SPI3_IRQHandler
                0x08005524                I2C1_ER_IRQHandler
                0x08005524                USBWakeUp_IRQHandler
                0x08005524                DMA2_Channel3_IRQHandler
 *fill*         0x08005526        0x2 
 .text.TIM_DeInit
                0x08005528      0x1c8 ..\obj\stm32f37x_tim.o
                0x08005528                TIM_DeInit
 .text.TIM_TimeBaseInit
                0x080056f0       0xec ..\obj\stm32f37x_tim.o
                0x080056f0                TIM_TimeBaseInit
 .text.TIM_PrescalerConfig
                0x080057dc       0x28 ..\obj\stm32f37x_tim.o
                0x080057dc                TIM_PrescalerConfig
 .text.TIM_SetCounter
                0x08005804       0x1c ..\obj\stm32f37x_tim.o
                0x08005804                TIM_SetCounter
 .text.TIM_SetAutoreload
                0x08005820       0x1c ..\obj\stm32f37x_tim.o
                0x08005820                TIM_SetAutoreload
 .text.TIM_Cmd  0x0800583c       0x40 ..\obj\stm32f37x_tim.o
                0x0800583c                TIM_Cmd
 .text.TIM_SetCompare1
                0x0800587c       0x1c ..\obj\stm32f37x_tim.o
                0x0800587c                TIM_SetCompare1
 .text.TIM_SetCompare2
                0x08005898       0x1c ..\obj\stm32f37x_tim.o
                0x08005898                TIM_SetCompare2
 .text.TIM_ICInit
                0x080058b4       0xa8 ..\obj\stm32f37x_tim.o
                0x080058b4                TIM_ICInit
 .text.TIM_GetCapture1
                0x0800595c       0x18 ..\obj\stm32f37x_tim.o
                0x0800595c                TIM_GetCapture1
 .text.TIM_GetCapture2
                0x08005974       0x18 ..\obj\stm32f37x_tim.o
                0x08005974                TIM_GetCapture2
 .text.TIM_GetCapture4
                0x0800598c       0x18 ..\obj\stm32f37x_tim.o
                0x0800598c                TIM_GetCapture4
 .text.TIM_SetIC1Prescaler
                0x080059a4       0x38 ..\obj\stm32f37x_tim.o
                0x080059a4                TIM_SetIC1Prescaler
 .text.TIM_SetIC2Prescaler
                0x080059dc       0x3c ..\obj\stm32f37x_tim.o
                0x080059dc                TIM_SetIC2Prescaler
 .text.TIM_SetIC3Prescaler
                0x08005a18       0x38 ..\obj\stm32f37x_tim.o
                0x08005a18                TIM_SetIC3Prescaler
 .text.TIM_SetIC4Prescaler
                0x08005a50       0x3c ..\obj\stm32f37x_tim.o
                0x08005a50                TIM_SetIC4Prescaler
 .text.TIM_ITConfig
                0x08005a8c       0x48 ..\obj\stm32f37x_tim.o
                0x08005a8c                TIM_ITConfig
 .text.TIM_ClearFlag
                0x08005ad4       0x22 ..\obj\stm32f37x_tim.o
                0x08005ad4                TIM_ClearFlag
 .text.TIM_GetITStatus
                0x08005af6       0x54 ..\obj\stm32f37x_tim.o
                0x08005af6                TIM_GetITStatus
 .text.TIM_ClearITPendingBit
                0x08005b4a       0x22 ..\obj\stm32f37x_tim.o
                0x08005b4a                TIM_ClearITPendingBit
 .text.TI1_Config
                0x08005b6c       0x86 ..\obj\stm32f37x_tim.o
 .text.TI2_Config
                0x08005bf2       0x9a ..\obj\stm32f37x_tim.o
 .text.TI3_Config
                0x08005c8c       0x90 ..\obj\stm32f37x_tim.o
 .text.TI4_Config
                0x08005d1c       0x9e ..\obj\stm32f37x_tim.o
 .text.DelayMs  0x08005dba       0x34 ..\obj\utilities.o
                0x08005dba                DelayMs
 .text.ReadInt  0x08005dee       0xa4 ..\obj\utilities.o
                0x08005dee                ReadInt
 *fill*         0x08005e92        0x6 
 .text.ReadDouble
                0x08005e98      0x344 ..\obj\utilities.o
                0x08005e98                ReadDouble
 .text.sprintUnsignedNumber
                0x080061dc       0x80 ..\obj\utilities.o
                0x080061dc                sprintUnsignedNumber
 .text.sprintSignedNumber
                0x0800625c       0x9c ..\obj\utilities.o
                0x0800625c                sprintSignedNumber
 .text.sprintScientific
                0x080062f8      0x300 ..\obj\utilities.o
                0x080062f8                sprintScientific
 .text.sprintHex
                0x080065f8       0x80 ..\obj\utilities.o
                0x080065f8                sprintHex
 .text.StrCat   0x08006678       0x4a ..\obj\utilities.o
                0x08006678                StrCat
 .text.StrUpr   0x080066c2       0x42 ..\obj\utilities.o
                0x080066c2                StrUpr
 .text.WWDG_SetCounter
                0x08006704       0x24 ..\obj\stm32f37x_wwdg.o
                0x08006704                WWDG_SetCounter
 .text.WWDG_Enable
                0x08006728       0x28 ..\obj\stm32f37x_wwdg.o
                0x08006728                WWDG_Enable
 .text.SDADC_DeInit
                0x08006750       0x68 ..\obj\stm32f37x_sdadc.o
                0x08006750                SDADC_DeInit
 .text.SDADC_AINInit
                0x080067b8       0x48 ..\obj\stm32f37x_sdadc.o
                0x080067b8                SDADC_AINInit
 .text.SDADC_ChannelConfig
                0x08006800       0x4c ..\obj\stm32f37x_sdadc.o
                0x08006800                SDADC_ChannelConfig
 .text.SDADC_Cmd
                0x0800684c       0x38 ..\obj\stm32f37x_sdadc.o
                0x0800684c                SDADC_Cmd
 .text.SDADC_InitModeCmd
                0x08006884       0x38 ..\obj\stm32f37x_sdadc.o
                0x08006884                SDADC_InitModeCmd
 .text.SDADC_VREFSelect
                0x080068bc       0x34 ..\obj\stm32f37x_sdadc.o
                0x080068bc                SDADC_VREFSelect
 .text.SDADC_CalibrationSequenceConfig
                0x080068f0       0x32 ..\obj\stm32f37x_sdadc.o
                0x080068f0                SDADC_CalibrationSequenceConfig
 .text.SDADC_StartCalibration
                0x08006922       0x20 ..\obj\stm32f37x_sdadc.o
                0x08006922                SDADC_StartCalibration
 .text.SDADC_SoftwareStartInjectedConv
                0x08006942       0x20 ..\obj\stm32f37x_sdadc.o
                0x08006942                SDADC_SoftwareStartInjectedConv
 .text.SDADC_InjectedChannelSelect
                0x08006962       0x1e ..\obj\stm32f37x_sdadc.o
                0x08006962                SDADC_InjectedChannelSelect
 .text.SDADC_InjectedContinuousModeCmd
                0x08006980       0x38 ..\obj\stm32f37x_sdadc.o
                0x08006980                SDADC_InjectedContinuousModeCmd
 .text.SDADC_GetInjectedConversionValue
                0x080069b8       0x3c ..\obj\stm32f37x_sdadc.o
                0x080069b8                SDADC_GetInjectedConversionValue
 .text.SDADC_SlowClockCmd
                0x080069f4       0x38 ..\obj\stm32f37x_sdadc.o
                0x080069f4                SDADC_SlowClockCmd
 .text.SDADC_ITConfig
                0x08006a2c       0x3c ..\obj\stm32f37x_sdadc.o
                0x08006a2c                SDADC_ITConfig
 .text.SDADC_GetFlagStatus
                0x08006a68       0x32 ..\obj\stm32f37x_sdadc.o
                0x08006a68                SDADC_GetFlagStatus
 .text.SDADC_ClearFlag
                0x08006a9a       0x22 ..\obj\stm32f37x_sdadc.o
                0x08006a9a                SDADC_ClearFlag
 .text.InitGPIO
                0x08006abc       0x42 ..\obj\defroster.o
 *fill*         0x08006afe        0x2 
 .text.BenoitAlgorithm
                0x08006b00      0x354 ..\obj\defroster.o
 .text.MeulenbergAlgorithm
                0x08006e54       0x68 ..\obj\defroster.o
 .text.Defroster_Init
                0x08006ebc       0x28 ..\obj\defroster.o
                0x08006ebc                Defroster_Init
 .text.Defroster_Handler
                0x08006ee4       0x4e ..\obj\defroster.o
                0x08006ee4                Defroster_Handler
 .text.Defroster_SetMode
                0x08006f32       0x6e ..\obj\defroster.o
                0x08006f32                Defroster_SetMode
 .text.InitGPIO
                0x08006fa0       0x68 ..\obj\thermistor.o
 .text.InitTimer
                0x08007008       0x6c ..\obj\thermistor.o
 .text.InitComparator
                0x08007074       0x44 ..\obj\thermistor.o
 .text.SetComparator
                0x080070b8       0x98 ..\obj\thermistor.o
 .text.SetReference
                0x08007150       0x58 ..\obj\thermistor.o
 .text.SetNTC   0x080071a8       0x58 ..\obj\thermistor.o
 .text.Discharge
                0x08007200       0x8c ..\obj\thermistor.o
 .text.FilterCounts
                0x0800728c       0xf4 ..\obj\thermistor.o
 .text.CalculateResistance
                0x08007380       0xc0 ..\obj\thermistor.o
 .text.CorrectResistance
                0x08007440       0xf0 ..\obj\thermistor.o
 .text.CalculateTemperature
                0x08007530      0x114 ..\obj\thermistor.o
 *fill*         0x08007644        0x4 
 .text.NTC_Init
                0x08007648       0xd4 ..\obj\thermistor.o
                0x08007648                NTC_Init
 .text.NTC_Handler
                0x0800771c      0x178 ..\obj\thermistor.o
                0x0800771c                NTC_Handler
 *fill*         0x08007894        0x4 
 .text.NTC_CalibrateParallelR
                0x08007898       0x84 ..\obj\thermistor.o
                0x08007898                NTC_CalibrateParallelR
 .text.main     0x0800791c      0x364 ..\obj\main.o
                0x0800791c                main
 .text.Fletcher8Bit
                0x08007c80       0x60 ..\obj\ublox.o
 .text.InitGPSUART
                0x08007ce0       0xe0 ..\obj\ublox.o
 .text.ClearTxBuffer
                0x08007dc0       0x40 ..\obj\ublox.o
 .text.ClearRxBuffer
                0x08007e00       0x42 ..\obj\ublox.o
 *fill*         0x08007e42        0x2 
 .text.ClearMessageBuffers
                0x08007e44       0xac ..\obj\ublox.o
 .text.MessageHandler
                0x08007ef0      0x1d8 ..\obj\ublox.o
 .text.GetAcknowledge
                0x080080c8      0x108 ..\obj\ublox.o
 .text.ValidateSOL
                0x080081d0       0x30 ..\obj\ublox.o
 .text.FormatSatFlags
                0x08008200       0x96 ..\obj\ublox.o
 *fill*         0x08008296        0x2 
 .text.ConfigurePort
                0x08008298       0xd8 ..\obj\ublox.o
 .text.ConfigureNavEngine
                0x08008370      0x138 ..\obj\ublox.o
 .text.ConfigureNavEngineExpert
                0x080084a8      0x168 ..\obj\ublox.o
 .text.ConfigureMeasurementRate
                0x08008610       0xa0 ..\obj\ublox.o
 .text.ConfigureMessage
                0x080086b0       0xd0 ..\obj\ublox.o
 .text.DecodeSAT
                0x08008780      0x1ee ..\obj\ublox.o
 .text.DecodeSOL
                0x0800896e      0x126 ..\obj\ublox.o
 .text.DecodePOSLLH
                0x08008a94       0xa0 ..\obj\ublox.o
 .text.Ublox_Init
                0x08008b34      0x1c0 ..\obj\ublox.o
                0x08008b34                Ublox_Init
 .text.Ublox_WatchdogReset
                0x08008cf4       0x60 ..\obj\ublox.o
                0x08008cf4                Ublox_WatchdogReset
 .text.Ublox_GNSS_Start
                0x08008d54       0x60 ..\obj\ublox.o
                0x08008d54                Ublox_GNSS_Start
 .text.Ublox_GNSS_Stop
                0x08008db4       0x60 ..\obj\ublox.o
                0x08008db4                Ublox_GNSS_Stop
 .text.Ublox_TxHandler
                0x08008e14       0x70 ..\obj\ublox.o
                0x08008e14                Ublox_TxHandler
 .text.Ublox_RxHandler
                0x08008e84       0xcc ..\obj\ublox.o
                0x08008e84                Ublox_RxHandler
 .text.Ublox_Transmit
                0x08008f50       0x7c ..\obj\ublox.o
                0x08008f50                Ublox_Transmit
 .text.Ublox_SendByte
                0x08008fcc       0x60 ..\obj\ublox.o
                0x08008fcc                Ublox_SendByte
 .text.Ublox_Handler
                0x0800902c      0x1c4 ..\obj\ublox.o
                0x0800902c                Ublox_Handler
 .text.IWDG_WriteAccessCmd
                0x080091f0       0x20 ..\obj\stm32f37x_iwdg.o
                0x080091f0                IWDG_WriteAccessCmd
 .text.IWDG_SetPrescaler
                0x08009210       0x20 ..\obj\stm32f37x_iwdg.o
                0x08009210                IWDG_SetPrescaler
 .text.IWDG_ReloadCounter
                0x08009230       0x1c ..\obj\stm32f37x_iwdg.o
                0x08009230                IWDG_ReloadCounter
 .text.IWDG_Enable
                0x0800924c       0x1c ..\obj\stm32f37x_iwdg.o
                0x0800924c                IWDG_Enable
 .text.ClearFlightBuffer
                0x08009268       0x48 ..\obj\flight.o
 .text.CalculateLOS
                0x080092b0       0xcc ..\obj\flight.o
 .text.Flight_Init
                0x0800937c       0x6c ..\obj\flight.o
                0x0800937c                Flight_Init
 .text.Flight_StatusHandler
                0x080093e8      0x2d4 ..\obj\flight.o
                0x080093e8                Flight_StatusHandler
 .text.PWR_PVDLevelConfig
                0x080096bc       0x38 ..\obj\stm32f37x_pwr.o
                0x080096bc                PWR_PVDLevelConfig
 .text.PWR_PVDCmd
                0x080096f4       0x20 ..\obj\stm32f37x_pwr.o
                0x080096f4                PWR_PVDCmd
 .text.PWR_SDADCAnalogCmd
                0x08009714       0x40 ..\obj\stm32f37x_pwr.o
                0x08009714                PWR_SDADCAnalogCmd
 .text.PWR_GetFlagStatus
                0x08009754       0x34 ..\obj\stm32f37x_pwr.o
                0x08009754                PWR_GetFlagStatus
 .text.USART_Init
                0x08009788      0x154 ..\obj\stm32f37x_usart.o
                0x08009788                USART_Init
 .text.USART_Cmd
                0x080098dc       0x38 ..\obj\stm32f37x_usart.o
                0x080098dc                USART_Cmd
 .text.USART_SendData
                0x08009914       0x24 ..\obj\stm32f37x_usart.o
                0x08009914                USART_SendData
 .text.USART_ReceiveData
                0x08009938       0x20 ..\obj\stm32f37x_usart.o
                0x08009938                USART_ReceiveData
 .text.USART_ITConfig
                0x08009958       0x84 ..\obj\stm32f37x_usart.o
                0x08009958                USART_ITConfig
 .text.USART_GetFlagStatus
                0x080099dc       0x32 ..\obj\stm32f37x_usart.o
                0x080099dc                USART_GetFlagStatus
 .text.USART_ClearFlag
                0x08009a0e       0x1c ..\obj\stm32f37x_usart.o
                0x08009a0e                USART_ClearFlag
 .text.USART_GetITStatus
                0x08009a2a       0xa0 ..\obj\stm32f37x_usart.o
                0x08009a2a                USART_GetITStatus
 .text.USART_ClearITPendingBit
                0x08009aca       0x34 ..\obj\stm32f37x_usart.o
                0x08009aca                USART_ClearITPendingBit
 .text.InitGPIO
                0x08009afe       0x46 ..\obj\modulation.o
 .text.InitTaskTimer
                0x08009b44       0x68 ..\obj\modulation.o
 .text.InitiMet1Timer
                0x08009bac       0x84 ..\obj\modulation.o
 .text.ResetBuffer
                0x08009c30       0x50 ..\obj\modulation.o
 .text.Modulation_Init
                0x08009c80       0x4c ..\obj\modulation.o
                0x08009c80                Modulation_Init
 .text.Modulation_Enable
                0x08009ccc       0x6c ..\obj\modulation.o
                0x08009ccc                Modulation_Enable
 .text.Modulation_Disable
                0x08009d38       0x74 ..\obj\modulation.o
                0x08009d38                Modulation_Disable
 .text.Modulation_TASK_Handler
                0x08009dac       0xf0 ..\obj\modulation.o
                0x08009dac                Modulation_TASK_Handler
 .text.Modulation_iMet1_Handler
                0x08009e9c       0xd4 ..\obj\modulation.o
                0x08009e9c                Modulation_iMet1_Handler
 .text.Modulation_iMet1_Send
                0x08009f70       0x6c ..\obj\modulation.o
                0x08009f70                Modulation_iMet1_Send
 .text.ASCIItoBytes
                0x08009fdc       0xb2 ..\obj\xdata.o
 .text.XDATA_Init
                0x0800a08e       0x98 ..\obj\xdata.o
                0x0800a08e                XDATA_Init
 *fill*         0x0800a126        0x2 
 .text.XDATA_Build
                0x0800a128      0x298 ..\obj\xdata.o
                0x0800a128                XDATA_Build
 .text.XDATA_GetBufferSpace
                0x0800a3c0       0x3a ..\obj\xdata.o
                0x0800a3c0                XDATA_GetBufferSpace
 *fill*         0x0800a3fa        0x2 
 .text.crc16    0x0800a3fc       0x4c ..\obj\crc.o
                0x0800a3fc                crc16
 .text.calc_crc
                0x0800a448       0x72 ..\obj\crc.o
                0x0800a448                calc_crc
 *fill*         0x0800a4ba        0x2 
 .text.CRC_DeInit
                0x0800a4bc       0x38 ..\obj\stm32f37x_crc.o
                0x0800a4bc                CRC_DeInit
 .text.CRC_CalcBlockCRC
                0x0800a4f4       0x44 ..\obj\stm32f37x_crc.o
                0x0800a4f4                CRC_CalcBlockCRC
 .text.SystemInit
                0x0800a538       0x90 ..\obj\system_stm32f37x.o
                0x0800a538                SystemInit
 .text.SetSysClock
                0x0800a5c8       0xe4 ..\obj\system_stm32f37x.o
 .text.MeasurementRequest
                0x0800a6ac       0x7c ..\obj\HYT271.o
 .text.DataFetch
                0x0800a728      0x134 ..\obj\HYT271.o
 *fill*         0x0800a85c        0x4 
 .text.ProcessCounts
                0x0800a860      0x134 ..\obj\HYT271.o
 *fill*         0x0800a994        0x4 
 .text.CalculateSaturationVapourPressure
                0x0800a998      0x1ec ..\obj\HYT271.o
 .text.TranslateHumidity
                0x0800ab84       0xec ..\obj\HYT271.o
 .text.CalculateHumidityValues
                0x0800ac70       0x80 ..\obj\HYT271.o
 .text.HYT271_Init
                0x0800acf0       0x84 ..\obj\HYT271.o
                0x0800acf0                HYT271_Init
 .text.HYT271_Handler
                0x0800ad74       0xd0 ..\obj\HYT271.o
                0x0800ad74                HYT271_Handler
 .text.RCC_SDADCCLKConfig
                0x0800ae44       0x30 ..\obj\stm32f37x_rcc.o
                0x0800ae44                RCC_SDADCCLKConfig
 .text.RCC_I2CCLKConfig
                0x0800ae74       0x50 ..\obj\stm32f37x_rcc.o
                0x0800ae74                RCC_I2CCLKConfig
 .text.RCC_GetClocksFreq
                0x0800aec4      0x308 ..\obj\stm32f37x_rcc.o
                0x0800aec4                RCC_GetClocksFreq
 .text.RCC_AHBPeriphClockCmd
                0x0800b1cc       0x40 ..\obj\stm32f37x_rcc.o
                0x0800b1cc                RCC_AHBPeriphClockCmd
 .text.RCC_APB2PeriphClockCmd
                0x0800b20c       0x40 ..\obj\stm32f37x_rcc.o
                0x0800b20c                RCC_APB2PeriphClockCmd
 .text.RCC_APB1PeriphClockCmd
                0x0800b24c       0x40 ..\obj\stm32f37x_rcc.o
                0x0800b24c                RCC_APB1PeriphClockCmd
 .text.RCC_APB2PeriphResetCmd
                0x0800b28c       0x40 ..\obj\stm32f37x_rcc.o
                0x0800b28c                RCC_APB2PeriphResetCmd
 .text.RCC_APB1PeriphResetCmd
                0x0800b2cc       0x40 ..\obj\stm32f37x_rcc.o
                0x0800b2cc                RCC_APB1PeriphResetCmd
 .text.InitPSS  0x0800b30c       0x24 ..\obj\peripherals.o
 .text.InitWaitChannels
                0x0800b330       0x40 ..\obj\peripherals.o
 .text.InitWaitTimer
                0x0800b370       0x78 ..\obj\peripherals.o
 .text.InitPressureI2C
                0x0800b3e8       0xc0 ..\obj\peripherals.o
 .text.InitBoomI2C
                0x0800b4a8       0xc0 ..\obj\peripherals.o
 .text.InitSDADC1
                0x0800b568      0x178 ..\obj\peripherals.o
 .text.Peripherals_Init
                0x0800b6e0       0x70 ..\obj\peripherals.o
                0x0800b6e0                Peripherals_Init
 .text.Peripherals_CalculateADCVoltage
                0x0800b750       0x6c ..\obj\peripherals.o
                0x0800b750                Peripherals_CalculateADCVoltage
 .text.Peripherals_ADC1_Handler
                0x0800b7bc       0x34 ..\obj\peripherals.o
                0x0800b7bc                Peripherals_ADC1_Handler
 .text.Peripherals_Disable
                0x0800b7f0       0x74 ..\obj\peripherals.o
                0x0800b7f0                Peripherals_Disable
 .text.Peripherals_Enable
                0x0800b864       0x74 ..\obj\peripherals.o
                0x0800b864                Peripherals_Enable
 .text.Wait     0x0800b8d8       0x44 ..\obj\peripherals.o
                0x0800b8d8                Wait
 .text.GetWaitFlagStatus
                0x0800b91c       0x24 ..\obj\peripherals.o
                0x0800b91c                GetWaitFlagStatus
 .text.WaitHandler
                0x0800b940       0x58 ..\obj\peripherals.o
                0x0800b940                WaitHandler
 .text.InitRFPA
                0x0800b998       0x8c ..\obj\CC115L.o
 .text.InitSPI  0x0800ba24       0xd4 ..\obj\CC115L.o
 .text.WriteRegister
                0x0800baf8       0x94 ..\obj\CC115L.o
 .text.ReadRegister
                0x0800bb8c       0x94 ..\obj\CC115L.o
 .text.CommandStrobe
                0x0800bc20       0x7c ..\obj\CC115L.o
 .text.ManualReset
                0x0800bc9c      0x11c ..\obj\CC115L.o
 .text.ConfigureRegisters
                0x0800bdb8       0xec ..\obj\CC115L.o
 .text.GetState
                0x0800bea4       0x3c ..\obj\CC115L.o
 .text.CC115L_Init
                0x0800bee0       0xa8 ..\obj\CC115L.o
                0x0800bee0                CC115L_Init
 .text.CC115L_SetState
                0x0800bf88       0x28 ..\obj\CC115L.o
                0x0800bf88                CC115L_SetState
 .text.CC115L_SetPowerAmpLevel
                0x0800bfb0       0xb8 ..\obj\CC115L.o
                0x0800bfb0                CC115L_SetPowerAmpLevel
 .text.CC115L_SetAutoLevel
                0x0800c068       0x2c ..\obj\CC115L.o
                0x0800c068                CC115L_SetAutoLevel
 .text.CC115L_SetFrequency
                0x0800c094       0xbc ..\obj\CC115L.o
                0x0800c094                CC115L_SetFrequency
 .text.CC115L_SetDeviation
                0x0800c150       0xbc ..\obj\CC115L.o
                0x0800c150                CC115L_SetDeviation
 .text.CC115L_SetModulationFormat
                0x0800c20c       0x82 ..\obj\CC115L.o
                0x0800c20c                CC115L_SetModulationFormat
 *fill*         0x0800c28e        0x2 
 .text._sbrk    0x0800c290       0x40 ..\obj\syscalls.o
                0x0800c290                _sbrk
 .text._close   0x0800c2d0       0x18 ..\obj\syscalls.o
                0x0800c2d0                _close
 .text._fstat   0x0800c2e8       0x20 ..\obj\syscalls.o
                0x0800c2e8                _fstat
 .text._isatty  0x0800c308       0x16 ..\obj\syscalls.o
                0x0800c308                _isatty
 .text._lseek   0x0800c31e       0x1a ..\obj\syscalls.o
                0x0800c31e                _lseek
 .text._read    0x0800c338       0x1a ..\obj\syscalls.o
                0x0800c338                _read
 .text._write   0x0800c352       0x1a ..\obj\syscalls.o
                0x0800c352                _write
 .text.abort    0x0800c36c        0x6 ..\obj\syscalls.o
                0x0800c36c                abort
 *fill*         0x0800c372        0x2 
 .text.COMP_Init
                0x0800c374       0x64 ..\obj\stm32f37x_comp.o
                0x0800c374                COMP_Init
 .text.COMP_Cmd
                0x0800c3d8       0x4c ..\obj\stm32f37x_comp.o
                0x0800c3d8                COMP_Cmd
 .text.COMP_GetOutputLevel
                0x0800c424       0x40 ..\obj\stm32f37x_comp.o
                0x0800c424                COMP_GetOutputLevel
 .text.COMP_WindowCmd
                0x0800c464       0x3c ..\obj\stm32f37x_comp.o
                0x0800c464                COMP_WindowCmd
 .text.GPIO_Init
                0x0800c4a0      0x12c ..\obj\stm32f37x_gpio.o
                0x0800c4a0                GPIO_Init
 .text.GPIO_ReadInputDataBit
                0x0800c5cc       0x38 ..\obj\stm32f37x_gpio.o
                0x0800c5cc                GPIO_ReadInputDataBit
 .text.GPIO_SetBits
                0x0800c604       0x1e ..\obj\stm32f37x_gpio.o
                0x0800c604                GPIO_SetBits
 .text.GPIO_ResetBits
                0x0800c622       0x1e ..\obj\stm32f37x_gpio.o
                0x0800c622                GPIO_ResetBits
 .text.GPIO_PinAFConfig
                0x0800c640       0x92 ..\obj\stm32f37x_gpio.o
                0x0800c640                GPIO_PinAFConfig
 *fill*         0x0800c6d2        0x2 
 .text.CalculateBatteryVoltage
                0x0800c6d4       0x78 ..\obj\battery.o
 .text.Battery_Init
                0x0800c74c       0x9c ..\obj\battery.o
                0x0800c74c                Battery_Init
 .text.Battery_Handler
                0x0800c7e8       0xec ..\obj\battery.o
                0x0800c7e8                Battery_Handler
 .text.FLASH_Unlock
                0x0800c8d4       0x34 ..\obj\stm32f37x_flash.o
                0x0800c8d4                FLASH_Unlock
 .text.FLASH_Lock
                0x0800c908       0x20 ..\obj\stm32f37x_flash.o
                0x0800c908                FLASH_Lock
 .text.FLASH_ErasePage
                0x0800c928       0x64 ..\obj\stm32f37x_flash.o
                0x0800c928                FLASH_ErasePage
 .text.FLASH_ProgramHalfWord
                0x0800c98c       0x5c ..\obj\stm32f37x_flash.o
                0x0800c98c                FLASH_ProgramHalfWord
 .text.FLASH_GetFlagStatus
                0x0800c9e8       0x34 ..\obj\stm32f37x_flash.o
                0x0800c9e8                FLASH_GetFlagStatus
 .text.FLASH_ClearFlag
                0x0800ca1c       0x20 ..\obj\stm32f37x_flash.o
                0x0800ca1c                FLASH_ClearFlag
 .text.FLASH_GetStatus
                0x0800ca3c       0x58 ..\obj\stm32f37x_flash.o
                0x0800ca3c                FLASH_GetStatus
 .text.FLASH_WaitForLastOperation
                0x0800ca94       0x44 ..\obj\stm32f37x_flash.o
                0x0800ca94                FLASH_WaitForLastOperation
 .text.round    0x0800cad8       0xa0 c:/storage/toolchains/gcc-arm-none-eabi-10.3-2021.10-win32/bin/../lib/gcc/arm-none-eabi/10.3.1/../../../../arm-none-eabi/lib/thumb/v7e-m+fp/hard\libm.a(lib_a-s_round.o)
                0x0800cad8                round
 .text.exp      0x0800cb78       0xa0 c:/storage/toolchains/gcc-arm-none-eabi-10.3-2021.10-win32/bin/../lib/gcc/arm-none-eabi/10.3.1/../../../../arm-none-eabi/lib/thumb/v7e-m+fp/hard\libm.a(lib_a-w_exp.o)
                0x0800cb78                exp
 .text.log      0x0800cc18       0x84 c:/storage/toolchains/gcc-arm-none-eabi-10.3-2021.10-win32/bin/../lib/gcc/arm-none-eabi/10.3.1/../../../../arm-none-eabi/lib/thumb/v7e-m+fp/hard\libm.a(lib_a-w_log.o)
                0x0800cc18                log
 *fill*         0x0800cc9c        0x4 
 .text.pow      0x0800cca0       0xf0 c:/storage/toolchains/gcc-arm-none-eabi-10.3-2021.10-win32/bin/../lib/gcc/arm-none-eabi/10.3.1/../../../../arm-none-eabi/lib/thumb/v7e-m+fp/hard\libm.a(lib_a-w_pow.o)
                0x0800cca0                pow
 .text.sqrt     0x0800cd90       0x68 c:/storage/toolchains/gcc-arm-none-eabi-10.3-2021.10-win32/bin/../lib/gcc/arm-none-eabi/10.3.1/../../../../arm-none-eabi/lib/thumb/v7e-m+fp/hard\libm.a(lib_a-w_sqrt.o)
                0x0800cd90                sqrt
 .text.__ieee754_exp
                0x0800cdf8      0x3dc c:/storage/toolchains/gcc-arm-none-eabi-10.3-2021.10-win32/bin/../lib/gcc/arm-none-eabi/10.3.1/../../../../arm-none-eabi/lib/thumb/v7e-m+fp/hard\libm.a(lib_a-e_exp.o)
                0x0800cdf8                __ieee754_exp
 *fill*         0x0800d1d4        0x4 
 .text.__ieee754_log
                0x0800d1d8      0x438 c:/storage/toolchains/gcc-arm-none-eabi-10.3-2021.10-win32/bin/../lib/gcc/arm-none-eabi/10.3.1/../../../../arm-none-eabi/lib/thumb/v7e-m+fp/hard\libm.a(lib_a-e_log.o)
                0x0800d1d8                __ieee754_log
 .text.__ieee754_pow
                0x0800d610      0xb74 c:/storage/toolchains/gcc-arm-none-eabi-10.3-2021.10-win32/bin/../lib/gcc/arm-none-eabi/10.3.1/../../../../arm-none-eabi/lib/thumb/v7e-m+fp/hard\libm.a(lib_a-e_pow.o)
                0x0800d610                __ieee754_pow
 .text.__ieee754_sqrt
                0x0800e184      0x198 c:/storage/toolchains/gcc-arm-none-eabi-10.3-2021.10-win32/bin/../lib/gcc/arm-none-eabi/10.3.1/../../../../arm-none-eabi/lib/thumb/v7e-m+fp/hard\libm.a(lib_a-e_sqrt.o)
                0x0800e184                __ieee754_sqrt
 .text.with_errno
                0x0800e31c       0x18 c:/storage/toolchains/gcc-arm-none-eabi-10.3-2021.10-win32/bin/../lib/gcc/arm-none-eabi/10.3.1/../../../../arm-none-eabi/lib/thumb/v7e-m+fp/hard\libm.a(lib_a-math_err.o)
 .text.xflow    0x0800e334       0x2c c:/storage/toolchains/gcc-arm-none-eabi-10.3-2021.10-win32/bin/../lib/gcc/arm-none-eabi/10.3.1/../../../../arm-none-eabi/lib/thumb/v7e-m+fp/hard\libm.a(lib_a-math_err.o)
 .text.__math_uflow
                0x0800e360       0x14 c:/storage/toolchains/gcc-arm-none-eabi-10.3-2021.10-win32/bin/../lib/gcc/arm-none-eabi/10.3.1/../../../../arm-none-eabi/lib/thumb/v7e-m+fp/hard\libm.a(lib_a-math_err.o)
                0x0800e360                __math_uflow
 .text.__math_oflow
                0x0800e374       0x14 c:/storage/toolchains/gcc-arm-none-eabi-10.3-2021.10-win32/bin/../lib/gcc/arm-none-eabi/10.3.1/../../../../arm-none-eabi/lib/thumb/v7e-m+fp/hard\libm.a(lib_a-math_err.o)
                0x0800e374                __math_oflow
 .text.fabs     0x0800e388       0x14 c:/storage/toolchains/gcc-arm-none-eabi-10.3-2021.10-win32/bin/../lib/gcc/arm-none-eabi/10.3.1/../../../../arm-none-eabi/lib/thumb/v7e-m+fp/hard\libm.a(lib_a-s_fabs.o)
                0x0800e388                fabs
 .text.finite   0x0800e39c       0x18 c:/storage/toolchains/gcc-arm-none-eabi-10.3-2021.10-win32/bin/../lib/gcc/arm-none-eabi/10.3.1/../../../../arm-none-eabi/lib/thumb/v7e-m+fp/hard\libm.a(lib_a-s_finite.o)
                0x0800e39c                finite
 *fill*         0x0800e3b4        0x4 
 .text.nan      0x0800e3b8       0x10 c:/storage/toolchains/gcc-arm-none-eabi-10.3-2021.10-win32/bin/../lib/gcc/arm-none-eabi/10.3.1/../../../../arm-none-eabi/lib/thumb/v7e-m+fp/hard\libm.a(lib_a-s_nan.o)
                0x0800e3b8                nan
 .text.scalbn   0x0800e3c8      0x124 c:/storage/toolchains/gcc-arm-none-eabi-10.3-2021.10-win32/bin/../lib/gcc/arm-none-eabi/10.3.1/../../../../arm-none-eabi/lib/thumb/v7e-m+fp/hard\libm.a(lib_a-s_scalbn.o)
                0x0800e3c8                scalbn
 .text          0x0800e4ec      0x378 c:/storage/toolchains/gcc-arm-none-eabi-10.3-2021.10-win32/bin/../lib/gcc/arm-none-eabi/10.3.1/thumb/v7e-m+fp/hard\libgcc.a(_arm_addsubdf3.o)
                0x0800e4ec                __aeabi_drsub
                0x0800e4f4                __aeabi_dsub
                0x0800e4f4                __subdf3
                0x0800e4f8                __aeabi_dadd
                0x0800e4f8                __adddf3
                0x0800e770                __floatunsidf
                0x0800e770                __aeabi_ui2d
                0x0800e790                __floatsidf
                0x0800e790                __aeabi_i2d
                0x0800e7b4                __aeabi_f2d
                0x0800e7b4                __extendsfdf2
                0x0800e7f8                __floatundidf
                0x0800e7f8                __aeabi_ul2d
                0x0800e808                __floatdidf
                0x0800e808                __aeabi_l2d
 .text          0x0800e864      0x424 c:/storage/toolchains/gcc-arm-none-eabi-10.3-2021.10-win32/bin/../lib/gcc/arm-none-eabi/10.3.1/thumb/v7e-m+fp/hard\libgcc.a(_arm_muldivdf3.o)
                0x0800e864                __aeabi_dmul
                0x0800e864                __muldf3
                0x0800eab8                __divdf3
                0x0800eab8                __aeabi_ddiv
 .text          0x0800ec88      0x110 c:/storage/toolchains/gcc-arm-none-eabi-10.3-2021.10-win32/bin/../lib/gcc/arm-none-eabi/10.3.1/thumb/v7e-m+fp/hard\libgcc.a(_arm_cmpdf2.o)
                0x0800ec88                __gtdf2
                0x0800ec88                __gedf2
                0x0800ec90                __ltdf2
                0x0800ec90                __ledf2
                0x0800ec98                __nedf2
                0x0800ec98                __eqdf2
                0x0800ec98                __cmpdf2
                0x0800ed14                __aeabi_cdrcmple
                0x0800ed24                __aeabi_cdcmpeq
                0x0800ed24                __aeabi_cdcmple
                0x0800ed34                __aeabi_dcmpeq
                0x0800ed48                __aeabi_dcmplt
                0x0800ed5c                __aeabi_dcmple
                0x0800ed70                __aeabi_dcmpge
                0x0800ed84                __aeabi_dcmpgt
 .text          0x0800ed98       0x2c c:/storage/toolchains/gcc-arm-none-eabi-10.3-2021.10-win32/bin/../lib/gcc/arm-none-eabi/10.3.1/thumb/v7e-m+fp/hard\libgcc.a(_arm_unorddf2.o)
                0x0800ed98                __unorddf2
                0x0800ed98                __aeabi_dcmpun
 .text          0x0800edc4       0x50 c:/storage/toolchains/gcc-arm-none-eabi-10.3-2021.10-win32/bin/../lib/gcc/arm-none-eabi/10.3.1/thumb/v7e-m+fp/hard\libgcc.a(_arm_fixdfsi.o)
                0x0800edc4                __aeabi_d2iz
                0x0800edc4                __fixdfsi
 .text          0x0800ee14       0x40 c:/storage/toolchains/gcc-arm-none-eabi-10.3-2021.10-win32/bin/../lib/gcc/arm-none-eabi/10.3.1/thumb/v7e-m+fp/hard\libgcc.a(_arm_fixunsdfsi.o)
                0x0800ee14                __aeabi_d2uiz
                0x0800ee14                __fixunsdfsi
 .text          0x0800ee54       0xa0 c:/storage/toolchains/gcc-arm-none-eabi-10.3-2021.10-win32/bin/../lib/gcc/arm-none-eabi/10.3.1/thumb/v7e-m+fp/hard\libgcc.a(_arm_truncdfsf2.o)
                0x0800ee54                __truncdfsf2
                0x0800ee54                __aeabi_d2f
 .text.__errno  0x0800eef4        0xc c:/storage/toolchains/gcc-arm-none-eabi-10.3-2021.10-win32/bin/../lib/gcc/arm-none-eabi/10.3.1/../../../../arm-none-eabi/lib/thumb/v7e-m+fp/hard\libg.a(lib_a-errno.o)
                0x0800eef4                __errno
 .text          0x0800ef00      0x134 c:/storage/toolchains/gcc-arm-none-eabi-10.3-2021.10-win32/bin/../lib/gcc/arm-none-eabi/10.3.1/../../../../arm-none-eabi/lib/thumb/v7e-m+fp/hard\libg.a(lib_a-memcpy.o)
                0x0800ef00                memcpy
 .text.sprintf  0x0800f034       0x40 c:/storage/toolchains/gcc-arm-none-eabi-10.3-2021.10-win32/bin/../lib/gcc/arm-none-eabi/10.3.1/../../../../arm-none-eabi/lib/thumb/v7e-m+fp/hard\libg.a(lib_a-sprintf.o)
                0x0800f034                sprintf
 .text.strcat   0x0800f074       0x40 c:/storage/toolchains/gcc-arm-none-eabi-10.3-2021.10-win32/bin/../lib/gcc/arm-none-eabi/10.3.1/../../../../arm-none-eabi/lib/thumb/v7e-m+fp/hard\libg.a(lib_a-strcat.o)
                0x0800f074                strcat
 .text.strchr   0x0800f0b4       0xcc c:/storage/toolchains/gcc-arm-none-eabi-10.3-2021.10-win32/bin/../lib/gcc/arm-none-eabi/10.3.1/../../../../arm-none-eabi/lib/thumb/v7e-m+fp/hard\libg.a(lib_a-strchr.o)
                0x0800f0b4                strchr
 .text          0x0800f180      0x2dc c:/storage/toolchains/gcc-arm-none-eabi-10.3-2021.10-win32/bin/../lib/gcc/arm-none-eabi/10.3.1/../../../../arm-none-eabi/lib/thumb/v7e-m+fp/hard\libg.a(lib_a-strcmp.o)
                0x0800f188                strcmp
 .text.strcpy   0x0800f45c       0xbc c:/storage/toolchains/gcc-arm-none-eabi-10.3-2021.10-win32/bin/../lib/gcc/arm-none-eabi/10.3.1/../../../../arm-none-eabi/lib/thumb/v7e-m+fp/hard\libg.a(lib_a-strcpy.o)
                0x0800f45c                strcpy
 *fill*         0x0800f518       0x28 
 .text          0x0800f540       0xdc c:/storage/toolchains/gcc-arm-none-eabi-10.3-2021.10-win32/bin/../lib/gcc/arm-none-eabi/10.3.1/../../../../arm-none-eabi/lib/thumb/v7e-m+fp/hard\libg.a(lib_a-strlen.o)
                0x0800f540                strlen
 .text.strncpy  0x0800f61c       0x64 c:/storage/toolchains/gcc-arm-none-eabi-10.3-2021.10-win32/bin/../lib/gcc/arm-none-eabi/10.3.1/../../../../arm-none-eabi/lib/thumb/v7e-m+fp/hard\libg.a(lib_a-strncpy.o)
                0x0800f61c                strncpy
 .text.two_way_long_needle
                0x0800f680      0x2b4 c:/storage/toolchains/gcc-arm-none-eabi-10.3-2021.10-win32/bin/../lib/gcc/arm-none-eabi/10.3.1/../../../../arm-none-eabi/lib/thumb/v7e-m+fp/hard\libg.a(lib_a-strstr.o)
 .text.strstr   0x0800f934      0x168 c:/storage/toolchains/gcc-arm-none-eabi-10.3-2021.10-win32/bin/../lib/gcc/arm-none-eabi/10.3.1/../../../../arm-none-eabi/lib/thumb/v7e-m+fp/hard\libg.a(lib_a-strstr.o)
                0x0800f934                strstr
 .text.strtok   0x0800fa9c       0x10 c:/storage/toolchains/gcc-arm-none-eabi-10.3-2021.10-win32/bin/../lib/gcc/arm-none-eabi/10.3.1/../../../../arm-none-eabi/lib/thumb/v7e-m+fp/hard\libg.a(lib_a-strtok.o)
                0x0800fa9c                strtok
 .text.__strtok_r
                0x0800faac       0x64 c:/storage/toolchains/gcc-arm-none-eabi-10.3-2021.10-win32/bin/../lib/gcc/arm-none-eabi/10.3.1/../../../../arm-none-eabi/lib/thumb/v7e-m+fp/hard\libg.a(lib_a-strtok_r.o)
                0x0800faac                __strtok_r
 .text._strtol_l.part.0
                0x0800fb10      0x120 c:/storage/toolchains/gcc-arm-none-eabi-10.3-2021.10-win32/bin/../lib/gcc/arm-none-eabi/10.3.1/../../../../arm-none-eabi/lib/thumb/v7e-m+fp/hard\libg.a(lib_a-strtol.o)
 .text.strtol   0x0800fc30       0x2c c:/storage/toolchains/gcc-arm-none-eabi-10.3-2021.10-win32/bin/../lib/gcc/arm-none-eabi/10.3.1/../../../../arm-none-eabi/lib/thumb/v7e-m+fp/hard\libg.a(lib_a-strtol.o)
                0x0800fc30                strtol
 *fill*         0x0800fc5c        0x4 
 .text._svfprintf_r
                0x0800fc60     0x1acc c:/storage/toolchains/gcc-arm-none-eabi-10.3-2021.10-win32/bin/../lib/gcc/arm-none-eabi/10.3.1/../../../../arm-none-eabi/lib/thumb/v7e-m+fp/hard\libg.a(lib_a-svfprintf.o)
                0x0800fc60                _svfprintf_r
 .text.quorem   0x0801172c      0x128 c:/storage/toolchains/gcc-arm-none-eabi-10.3-2021.10-win32/bin/../lib/gcc/arm-none-eabi/10.3.1/../../../../arm-none-eabi/lib/thumb/v7e-m+fp/hard\libg.a(lib_a-dtoa.o)
 *fill*         0x08011854        0x4 
 .text._dtoa_r  0x08011858      0xf3c c:/storage/toolchains/gcc-arm-none-eabi-10.3-2021.10-win32/bin/../lib/gcc/arm-none-eabi/10.3.1/../../../../arm-none-eabi/lib/thumb/v7e-m+fp/hard\libg.a(lib_a-dtoa.o)
                0x08011858                _dtoa_r
 .text._malloc_trim_r
                0x08012794       0xa0 c:/storage/toolchains/gcc-arm-none-eabi-10.3-2021.10-win32/bin/../lib/gcc/arm-none-eabi/10.3.1/../../../../arm-none-eabi/lib/thumb/v7e-m+fp/hard\libg.a(lib_a-freer.o)
                0x08012794                _malloc_trim_r
 .text._free_r  0x08012834      0x20c c:/storage/toolchains/gcc-arm-none-eabi-10.3-2021.10-win32/bin/../lib/gcc/arm-none-eabi/10.3.1/../../../../arm-none-eabi/lib/thumb/v7e-m+fp/hard\libg.a(lib_a-freer.o)
                0x08012834                _free_r
 .text._localeconv_r
                0x08012a40        0x8 c:/storage/toolchains/gcc-arm-none-eabi-10.3-2021.10-win32/bin/../lib/gcc/arm-none-eabi/10.3.1/../../../../arm-none-eabi/lib/thumb/v7e-m+fp/hard\libg.a(lib_a-localeconv.o)
                0x08012a40                _localeconv_r
 .text._malloc_r
                0x08012a48      0x560 c:/storage/toolchains/gcc-arm-none-eabi-10.3-2021.10-win32/bin/../lib/gcc/arm-none-eabi/10.3.1/../../../../arm-none-eabi/lib/thumb/v7e-m+fp/hard\libg.a(lib_a-mallocr.o)
                0x08012a48                _malloc_r
 *fill*         0x08012fa8        0x8 
 .text          0x08012fb0       0xa0 c:/storage/toolchains/gcc-arm-none-eabi-10.3-2021.10-win32/bin/../lib/gcc/arm-none-eabi/10.3.1/../../../../arm-none-eabi/lib/thumb/v7e-m+fp/hard\libg.a(lib_a-memchr.o)
                0x08012fb0                memchr
 .text.memcmp   0x08013050       0x64 c:/storage/toolchains/gcc-arm-none-eabi-10.3-2021.10-win32/bin/../lib/gcc/arm-none-eabi/10.3.1/../../../../arm-none-eabi/lib/thumb/v7e-m+fp/hard\libg.a(lib_a-memcmp.o)
                0x08013050                memcmp
 .text.memset   0x080130b4       0xa4 c:/storage/toolchains/gcc-arm-none-eabi-10.3-2021.10-win32/bin/../lib/gcc/arm-none-eabi/10.3.1/../../../../arm-none-eabi/lib/thumb/v7e-m+fp/hard\libg.a(lib_a-memset.o)
                0x080130b4                memset
 .text.__malloc_lock
                0x08013158        0xc c:/storage/toolchains/gcc-arm-none-eabi-10.3-2021.10-win32/bin/../lib/gcc/arm-none-eabi/10.3.1/../../../../arm-none-eabi/lib/thumb/v7e-m+fp/hard\libg.a(lib_a-mlock.o)
                0x08013158                __malloc_lock
 .text.__malloc_unlock
                0x08013164        0xc c:/storage/toolchains/gcc-arm-none-eabi-10.3-2021.10-win32/bin/../lib/gcc/arm-none-eabi/10.3.1/../../../../arm-none-eabi/lib/thumb/v7e-m+fp/hard\libg.a(lib_a-mlock.o)
                0x08013164                __malloc_unlock
 .text._Balloc  0x08013170       0x4c c:/storage/toolchains/gcc-arm-none-eabi-10.3-2021.10-win32/bin/../lib/gcc/arm-none-eabi/10.3.1/../../../../arm-none-eabi/lib/thumb/v7e-m+fp/hard\libg.a(lib_a-mprec.o)
                0x08013170                _Balloc
 .text._Bfree   0x080131bc       0x14 c:/storage/toolchains/gcc-arm-none-eabi-10.3-2021.10-win32/bin/../lib/gcc/arm-none-eabi/10.3.1/../../../../arm-none-eabi/lib/thumb/v7e-m+fp/hard\libg.a(lib_a-mprec.o)
                0x080131bc                _Bfree
 .text.__multadd
                0x080131d0       0xa8 c:/storage/toolchains/gcc-arm-none-eabi-10.3-2021.10-win32/bin/../lib/gcc/arm-none-eabi/10.3.1/../../../../arm-none-eabi/lib/thumb/v7e-m+fp/hard\libg.a(lib_a-mprec.o)
                0x080131d0                __multadd
 .text.__hi0bits
                0x08013278       0x40 c:/storage/toolchains/gcc-arm-none-eabi-10.3-2021.10-win32/bin/../lib/gcc/arm-none-eabi/10.3.1/../../../../arm-none-eabi/lib/thumb/v7e-m+fp/hard\libg.a(lib_a-mprec.o)
                0x08013278                __hi0bits
 .text.__lo0bits
                0x080132b8       0x60 c:/storage/toolchains/gcc-arm-none-eabi-10.3-2021.10-win32/bin/../lib/gcc/arm-none-eabi/10.3.1/../../../../arm-none-eabi/lib/thumb/v7e-m+fp/hard\libg.a(lib_a-mprec.o)
                0x080132b8                __lo0bits
 .text.__i2b    0x08013318       0x5c c:/storage/toolchains/gcc-arm-none-eabi-10.3-2021.10-win32/bin/../lib/gcc/arm-none-eabi/10.3.1/../../../../arm-none-eabi/lib/thumb/v7e-m+fp/hard\libg.a(lib_a-mprec.o)
                0x08013318                __i2b
 .text.__multiply
                0x08013374      0x15c c:/storage/toolchains/gcc-arm-none-eabi-10.3-2021.10-win32/bin/../lib/gcc/arm-none-eabi/10.3.1/../../../../arm-none-eabi/lib/thumb/v7e-m+fp/hard\libg.a(lib_a-mprec.o)
                0x08013374                __multiply
 .text.__pow5mult
                0x080134d0       0xc0 c:/storage/toolchains/gcc-arm-none-eabi-10.3-2021.10-win32/bin/../lib/gcc/arm-none-eabi/10.3.1/../../../../arm-none-eabi/lib/thumb/v7e-m+fp/hard\libg.a(lib_a-mprec.o)
                0x080134d0                __pow5mult
 .text.__lshift
                0x08013590       0xf0 c:/storage/toolchains/gcc-arm-none-eabi-10.3-2021.10-win32/bin/../lib/gcc/arm-none-eabi/10.3.1/../../../../arm-none-eabi/lib/thumb/v7e-m+fp/hard\libg.a(lib_a-mprec.o)
                0x08013590                __lshift
 .text.__mcmp   0x08013680       0x44 c:/storage/toolchains/gcc-arm-none-eabi-10.3-2021.10-win32/bin/../lib/gcc/arm-none-eabi/10.3.1/../../../../arm-none-eabi/lib/thumb/v7e-m+fp/hard\libg.a(lib_a-mprec.o)
                0x08013680                __mcmp
 .text.__mdiff  0x080136c4      0x14c c:/storage/toolchains/gcc-arm-none-eabi-10.3-2021.10-win32/bin/../lib/gcc/arm-none-eabi/10.3.1/../../../../arm-none-eabi/lib/thumb/v7e-m+fp/hard\libg.a(lib_a-mprec.o)
                0x080136c4                __mdiff
 .text.__d2b    0x08013810       0xd0 c:/storage/toolchains/gcc-arm-none-eabi-10.3-2021.10-win32/bin/../lib/gcc/arm-none-eabi/10.3.1/../../../../arm-none-eabi/lib/thumb/v7e-m+fp/hard\libg.a(lib_a-mprec.o)
                0x08013810                __d2b
 .text.frexp    0x080138e0       0x6c c:/storage/toolchains/gcc-arm-none-eabi-10.3-2021.10-win32/bin/../lib/gcc/arm-none-eabi/10.3.1/../../../../arm-none-eabi/lib/thumb/v7e-m+fp/hard\libg.a(lib_a-s_frexp.o)
                0x080138e0                frexp
 .text._sbrk_r  0x0801394c       0x24 c:/storage/toolchains/gcc-arm-none-eabi-10.3-2021.10-win32/bin/../lib/gcc/arm-none-eabi/10.3.1/../../../../arm-none-eabi/lib/thumb/v7e-m+fp/hard\libg.a(lib_a-sbrkr.o)
                0x0801394c                _sbrk_r
 .text.strnlen  0x08013970       0x24 c:/storage/toolchains/gcc-arm-none-eabi-10.3-2021.10-win32/bin/../lib/gcc/arm-none-eabi/10.3.1/../../../../arm-none-eabi/lib/thumb/v7e-m+fp/hard\libg.a(lib_a-strnlen.o)
                0x08013970                strnlen
 .text.__ssprint_r
                0x08013994       0xf8 c:/storage/toolchains/gcc-arm-none-eabi-10.3-2021.10-win32/bin/../lib/gcc/arm-none-eabi/10.3.1/../../../../arm-none-eabi/lib/thumb/v7e-m+fp/hard\libg.a(lib_a-svfiprintf.o)
                0x08013994                __ssprint_r
 .text.__assert_func
                0x08013a8c       0x40 c:/storage/toolchains/gcc-arm-none-eabi-10.3-2021.10-win32/bin/../lib/gcc/arm-none-eabi/10.3.1/../../../../arm-none-eabi/lib/thumb/v7e-m+fp/hard\libg.a(lib_a-assert.o)
                0x08013a8c                __assert_func
 .text._calloc_r
                0x08013acc       0x78 c:/storage/toolchains/gcc-arm-none-eabi-10.3-2021.10-win32/bin/../lib/gcc/arm-none-eabi/10.3.1/../../../../arm-none-eabi/lib/thumb/v7e-m+fp/hard\libg.a(lib_a-callocr.o)
                0x08013acc                _calloc_r
 .text.fiprintf
                0x08013b44       0x28 c:/storage/toolchains/gcc-arm-none-eabi-10.3-2021.10-win32/bin/../lib/gcc/arm-none-eabi/10.3.1/../../../../arm-none-eabi/lib/thumb/v7e-m+fp/hard\libg.a(lib_a-fiprintf.o)
                0x08013b44                fiprintf
 .text.__locale_mb_cur_max
                0x08013b6c        0xc c:/storage/toolchains/gcc-arm-none-eabi-10.3-2021.10-win32/bin/../lib/gcc/arm-none-eabi/10.3.1/../../../../arm-none-eabi/lib/thumb/v7e-m+fp/hard\libg.a(lib_a-locale.o)
                0x08013b6c                __locale_mb_cur_max
 .text.__retarget_lock_init_recursive
                0x08013b78        0x4 c:/storage/toolchains/gcc-arm-none-eabi-10.3-2021.10-win32/bin/../lib/gcc/arm-none-eabi/10.3.1/../../../../arm-none-eabi/lib/thumb/v7e-m+fp/hard\libg.a(lib_a-lock.o)
                0x08013b78                __retarget_lock_init_recursive
 .text.__retarget_lock_close_recursive
                0x08013b7c        0x4 c:/storage/toolchains/gcc-arm-none-eabi-10.3-2021.10-win32/bin/../lib/gcc/arm-none-eabi/10.3.1/../../../../arm-none-eabi/lib/thumb/v7e-m+fp/hard\libg.a(lib_a-lock.o)
                0x08013b7c                __retarget_lock_close_recursive
 .text.__retarget_lock_acquire_recursive
                0x08013b80        0x4 c:/storage/toolchains/gcc-arm-none-eabi-10.3-2021.10-win32/bin/../lib/gcc/arm-none-eabi/10.3.1/../../../../arm-none-eabi/lib/thumb/v7e-m+fp/hard\libg.a(lib_a-lock.o)
                0x08013b80                __retarget_lock_acquire_recursive
 .text.__retarget_lock_release_recursive
                0x08013b84        0x4 c:/storage/toolchains/gcc-arm-none-eabi-10.3-2021.10-win32/bin/../lib/gcc/arm-none-eabi/10.3.1/../../../../arm-none-eabi/lib/thumb/v7e-m+fp/hard\libg.a(lib_a-lock.o)
                0x08013b84                __retarget_lock_release_recursive
 .text.__ascii_mbtowc
                0x08013b88       0x2c c:/storage/toolchains/gcc-arm-none-eabi-10.3-2021.10-win32/bin/../lib/gcc/arm-none-eabi/10.3.1/../../../../arm-none-eabi/lib/thumb/v7e-m+fp/hard\libg.a(lib_a-mbtowc_r.o)
                0x08013b88                __ascii_mbtowc
 .text.memmove  0x08013bb4       0xf8 c:/storage/toolchains/gcc-arm-none-eabi-10.3-2021.10-win32/bin/../lib/gcc/arm-none-eabi/10.3.1/../../../../arm-none-eabi/lib/thumb/v7e-m+fp/hard\libg.a(lib_a-memmove.o)
                0x08013bb4                memmove
 .text._realloc_r
                0x08013cac      0x3d8 c:/storage/toolchains/gcc-arm-none-eabi-10.3-2021.10-win32/bin/../lib/gcc/arm-none-eabi/10.3.1/../../../../arm-none-eabi/lib/thumb/v7e-m+fp/hard\libg.a(lib_a-reallocr.o)
                0x08013cac                _realloc_r
 .text.__sprint_r.part.0
                0x08014084       0x78 c:/storage/toolchains/gcc-arm-none-eabi-10.3-2021.10-win32/bin/../lib/gcc/arm-none-eabi/10.3.1/../../../../arm-none-eabi/lib/thumb/v7e-m+fp/hard\libg.a(lib_a-vfiprintf.o)
 .text._vfiprintf_r
                0x080140fc      0xdfc c:/storage/toolchains/gcc-arm-none-eabi-10.3-2021.10-win32/bin/../lib/gcc/arm-none-eabi/10.3.1/../../../../arm-none-eabi/lib/thumb/v7e-m+fp/hard\libg.a(lib_a-vfiprintf.o)
                0x080140fc                _vfiprintf_r
 .text.__sbprintf
                0x08014ef8       0x80 c:/storage/toolchains/gcc-arm-none-eabi-10.3-2021.10-win32/bin/../lib/gcc/arm-none-eabi/10.3.1/../../../../arm-none-eabi/lib/thumb/v7e-m+fp/hard\libg.a(lib_a-vfiprintf.o)
 .text.__ascii_wctomb
                0x08014f78       0x1c c:/storage/toolchains/gcc-arm-none-eabi-10.3-2021.10-win32/bin/../lib/gcc/arm-none-eabi/10.3.1/../../../../arm-none-eabi/lib/thumb/v7e-m+fp/hard\libg.a(lib_a-wctomb_r.o)
                0x08014f78                __ascii_wctomb
 .text.__swsetup_r
                0x08014f94       0xd4 c:/storage/toolchains/gcc-arm-none-eabi-10.3-2021.10-win32/bin/../lib/gcc/arm-none-eabi/10.3.1/../../../../arm-none-eabi/lib/thumb/v7e-m+fp/hard\libg.a(lib_a-wsetup.o)
                0x08014f94                __swsetup_r
 .text.__sflush_r
                0x08015068      0x130 c:/storage/toolchains/gcc-arm-none-eabi-10.3-2021.10-win32/bin/../lib/gcc/arm-none-eabi/10.3.1/../../../../arm-none-eabi/lib/thumb/v7e-m+fp/hard\libg.a(lib_a-fflush.o)
                0x08015068                __sflush_r
 .text._fflush_r
                0x08015198       0x5c c:/storage/toolchains/gcc-arm-none-eabi-10.3-2021.10-win32/bin/../lib/gcc/arm-none-eabi/10.3.1/../../../../arm-none-eabi/lib/thumb/v7e-m+fp/hard\libg.a(lib_a-fflush.o)
                0x08015198                _fflush_r
 .text._cleanup_r
                0x080151f4        0xc c:/storage/toolchains/gcc-arm-none-eabi-10.3-2021.10-win32/bin/../lib/gcc/arm-none-eabi/10.3.1/../../../../arm-none-eabi/lib/thumb/v7e-m+fp/hard\libg.a(lib_a-findfp.o)
                0x080151f4                _cleanup_r
 .text.__sinit  0x08015200      0x10c c:/storage/toolchains/gcc-arm-none-eabi-10.3-2021.10-win32/bin/../lib/gcc/arm-none-eabi/10.3.1/../../../../arm-none-eabi/lib/thumb/v7e-m+fp/hard\libg.a(lib_a-findfp.o)
                0x08015200                __sinit
 .text.__sfp_lock_acquire
                0x0801530c        0xc c:/storage/toolchains/gcc-arm-none-eabi-10.3-2021.10-win32/bin/../lib/gcc/arm-none-eabi/10.3.1/../../../../arm-none-eabi/lib/thumb/v7e-m+fp/hard\libg.a(lib_a-findfp.o)
                0x0801530c                __sfp_lock_acquire
 .text.__sfp_lock_release
                0x08015318        0xc c:/storage/toolchains/gcc-arm-none-eabi-10.3-2021.10-win32/bin/../lib/gcc/arm-none-eabi/10.3.1/../../../../arm-none-eabi/lib/thumb/v7e-m+fp/hard\libg.a(lib_a-findfp.o)
                0x08015318                __sfp_lock_release
 .text.__fputwc
                0x08015324       0xa8 c:/storage/toolchains/gcc-arm-none-eabi-10.3-2021.10-win32/bin/../lib/gcc/arm-none-eabi/10.3.1/../../../../arm-none-eabi/lib/thumb/v7e-m+fp/hard\libg.a(lib_a-fputwc.o)
                0x08015324                __fputwc
 .text._fputwc_r
                0x080153cc       0x68 c:/storage/toolchains/gcc-arm-none-eabi-10.3-2021.10-win32/bin/../lib/gcc/arm-none-eabi/10.3.1/../../../../arm-none-eabi/lib/thumb/v7e-m+fp/hard\libg.a(lib_a-fputwc.o)
                0x080153cc                _fputwc_r
 .text.__sfvwrite_r
                0x08015434      0x2f0 c:/storage/toolchains/gcc-arm-none-eabi-10.3-2021.10-win32/bin/../lib/gcc/arm-none-eabi/10.3.1/../../../../arm-none-eabi/lib/thumb/v7e-m+fp/hard\libg.a(lib_a-fvwrite.o)
                0x08015434                __sfvwrite_r
 .text._fwalk_reent
                0x08015724       0x48 c:/storage/toolchains/gcc-arm-none-eabi-10.3-2021.10-win32/bin/../lib/gcc/arm-none-eabi/10.3.1/../../../../arm-none-eabi/lib/thumb/v7e-m+fp/hard\libg.a(lib_a-fwalk.o)
                0x08015724                _fwalk_reent
 .text.__smakebuf_r
                0x0801576c       0xe0 c:/storage/toolchains/gcc-arm-none-eabi-10.3-2021.10-win32/bin/../lib/gcc/arm-none-eabi/10.3.1/../../../../arm-none-eabi/lib/thumb/v7e-m+fp/hard\libg.a(lib_a-makebuf.o)
                0x0801576c                __smakebuf_r
 .text.__sread  0x0801584c       0x24 c:/storage/toolchains/gcc-arm-none-eabi-10.3-2021.10-win32/bin/../lib/gcc/arm-none-eabi/10.3.1/../../../../arm-none-eabi/lib/thumb/v7e-m+fp/hard\libg.a(lib_a-stdio.o)
                0x0801584c                __sread
 .text.__swrite
                0x08015870       0x40 c:/storage/toolchains/gcc-arm-none-eabi-10.3-2021.10-win32/bin/../lib/gcc/arm-none-eabi/10.3.1/../../../../arm-none-eabi/lib/thumb/v7e-m+fp/hard\libg.a(lib_a-stdio.o)
                0x08015870                __swrite
 .text.__sseek  0x080158b0       0x20 c:/storage/toolchains/gcc-arm-none-eabi-10.3-2021.10-win32/bin/../lib/gcc/arm-none-eabi/10.3.1/../../../../arm-none-eabi/lib/thumb/v7e-m+fp/hard\libg.a(lib_a-stdio.o)
                0x080158b0                __sseek
 .text.__sclose
                0x080158d0        0x8 c:/storage/toolchains/gcc-arm-none-eabi-10.3-2021.10-win32/bin/../lib/gcc/arm-none-eabi/10.3.1/../../../../arm-none-eabi/lib/thumb/v7e-m+fp/hard\libg.a(lib_a-stdio.o)
                0x080158d0                __sclose
 .text.__swbuf_r
                0x080158d8       0xb0 c:/storage/toolchains/gcc-arm-none-eabi-10.3-2021.10-win32/bin/../lib/gcc/arm-none-eabi/10.3.1/../../../../arm-none-eabi/lib/thumb/v7e-m+fp/hard\libg.a(lib_a-wbuf.o)
                0x080158d8                __swbuf_r
 .text._wcrtomb_r
                0x08015988       0x3c c:/storage/toolchains/gcc-arm-none-eabi-10.3-2021.10-win32/bin/../lib/gcc/arm-none-eabi/10.3.1/../../../../arm-none-eabi/lib/thumb/v7e-m+fp/hard\libg.a(lib_a-wcrtomb.o)
                0x08015988                _wcrtomb_r
 .text._write_r
                0x080159c4       0x2c c:/storage/toolchains/gcc-arm-none-eabi-10.3-2021.10-win32/bin/../lib/gcc/arm-none-eabi/10.3.1/../../../../arm-none-eabi/lib/thumb/v7e-m+fp/hard\libg.a(lib_a-writer.o)
                0x080159c4                _write_r
 .text._close_r
                0x080159f0       0x24 c:/storage/toolchains/gcc-arm-none-eabi-10.3-2021.10-win32/bin/../lib/gcc/arm-none-eabi/10.3.1/../../../../arm-none-eabi/lib/thumb/v7e-m+fp/hard\libg.a(lib_a-closer.o)
                0x080159f0                _close_r
 .text._fclose_r
                0x08015a14       0xcc c:/storage/toolchains/gcc-arm-none-eabi-10.3-2021.10-win32/bin/../lib/gcc/arm-none-eabi/10.3.1/../../../../arm-none-eabi/lib/thumb/v7e-m+fp/hard\libg.a(lib_a-fclose.o)
                0x08015a14                _fclose_r
 .text._fstat_r
                0x08015ae0       0x2c c:/storage/toolchains/gcc-arm-none-eabi-10.3-2021.10-win32/bin/../lib/gcc/arm-none-eabi/10.3.1/../../../../arm-none-eabi/lib/thumb/v7e-m+fp/hard\libg.a(lib_a-fstatr.o)
                0x08015ae0                _fstat_r
 .text._isatty_r
                0x08015b0c       0x24 c:/storage/toolchains/gcc-arm-none-eabi-10.3-2021.10-win32/bin/../lib/gcc/arm-none-eabi/10.3.1/../../../../arm-none-eabi/lib/thumb/v7e-m+fp/hard\libg.a(lib_a-isattyr.o)
                0x08015b0c                _isatty_r
 .text._lseek_r
                0x08015b30       0x2c c:/storage/toolchains/gcc-arm-none-eabi-10.3-2021.10-win32/bin/../lib/gcc/arm-none-eabi/10.3.1/../../../../arm-none-eabi/lib/thumb/v7e-m+fp/hard\libg.a(lib_a-lseekr.o)
                0x08015b30                _lseek_r
 .text._read_r  0x08015b5c       0x2c c:/storage/toolchains/gcc-arm-none-eabi-10.3-2021.10-win32/bin/../lib/gcc/arm-none-eabi/10.3.1/../../../../arm-none-eabi/lib/thumb/v7e-m+fp/hard\libg.a(lib_a-readr.o)
                0x08015b5c                _read_r
 .text          0x08015b88       0x30 c:/storage/toolchains/gcc-arm-none-eabi-10.3-2021.10-win32/bin/../lib/gcc/arm-none-eabi/10.3.1/thumb/v7e-m+fp/hard\libgcc.a(_aeabi_uldivmod.o)
                0x08015b88                __aeabi_uldivmod
 .text          0x08015bb8      0x2d0 c:/storage/toolchains/gcc-arm-none-eabi-10.3-2021.10-win32/bin/../lib/gcc/arm-none-eabi/10.3.1/thumb/v7e-m+fp/hard\libgcc.a(_udivmoddi4.o)
                0x08015bb8                __udivmoddi4
 .text          0x08015e88        0x4 c:/storage/toolchains/gcc-arm-none-eabi-10.3-2021.10-win32/bin/../lib/gcc/arm-none-eabi/10.3.1/thumb/v7e-m+fp/hard\libgcc.a(_dvmd_tls.o)
                0x08015e88                __aeabi_idiv0
                0x08015e88                __aeabi_ldiv0
 *(.init)
 *(.fini)
 *crtbegin.o(.ctors)
 *crtbegin?.o(.ctors)
 *(EXCLUDE_FILE(*crtend.o *crtend?.o) .ctors)
 *(SORT_BY_NAME(.ctors.*))
 *(.ctors)
 *crtbegin.o(.dtors)
 *crtbegin?.o(.dtors)
 *(EXCLUDE_FILE(*crtend.o *crtend?.o) .dtors)
 *(SORT_BY_NAME(.dtors.*))
 *(.dtors)
 *(.rodata*)
 .rodata        0x08015e8c      0x293 ..\obj\mfg.o
 *fill*         0x0801611f        0x1 
 .rodata        0x08016120       0x36 ..\obj\MS5607.o
 *fill*         0x08016156        0x2 
 .rodata        0x08016158        0xf ..\obj\utilities.o
 *fill*         0x08016167        0x1 
 .rodata        0x08016168        0xc ..\obj\thermistor.o
 .rodata        0x08016174       0x7c ..\obj\main.o
 .rodata        0x080161f0       0x5f ..\obj\ublox.o
 *fill*         0x0801624f        0x1 
 .rodata        0x08016250        0x9 ..\obj\xdata.o
 *fill*         0x08016259        0x3 
 .rodata        0x0801625c      0x200 ..\obj\crc.o
                0x0801625c                CRC_TABLE
 .rodata        0x0801645c       0x49 ..\obj\CC115L.o
 .rodata.log.str1.4
                0x080164a5        0x0 c:/storage/toolchains/gcc-arm-none-eabi-10.3-2021.10-win32/bin/../lib/gcc/arm-none-eabi/10.3.1/../../../../arm-none-eabi/lib/thumb/v7e-m+fp/hard\libm.a(lib_a-w_log.o)
                                  0x1 (size before relaxing)
 *fill*         0x080164a5        0x3 
 .rodata.halF   0x080164a8       0x10 c:/storage/toolchains/gcc-arm-none-eabi-10.3-2021.10-win32/bin/../lib/gcc/arm-none-eabi/10.3.1/../../../../arm-none-eabi/lib/thumb/v7e-m+fp/hard\libm.a(lib_a-e_exp.o)
 .rodata.ln2HI  0x080164b8       0x10 c:/storage/toolchains/gcc-arm-none-eabi-10.3-2021.10-win32/bin/../lib/gcc/arm-none-eabi/10.3.1/../../../../arm-none-eabi/lib/thumb/v7e-m+fp/hard\libm.a(lib_a-e_exp.o)
 .rodata.ln2LO  0x080164c8       0x10 c:/storage/toolchains/gcc-arm-none-eabi-10.3-2021.10-win32/bin/../lib/gcc/arm-none-eabi/10.3.1/../../../../arm-none-eabi/lib/thumb/v7e-m+fp/hard\libm.a(lib_a-e_exp.o)
 .rodata._svfprintf_r.str1.4
                0x080164d8       0x42 c:/storage/toolchains/gcc-arm-none-eabi-10.3-2021.10-win32/bin/../lib/gcc/arm-none-eabi/10.3.1/../../../../arm-none-eabi/lib/thumb/v7e-m+fp/hard\libg.a(lib_a-svfprintf.o)
 *fill*         0x0801651a        0x2 
 .rodata.blanks.1
                0x0801651c       0x10 c:/storage/toolchains/gcc-arm-none-eabi-10.3-2021.10-win32/bin/../lib/gcc/arm-none-eabi/10.3.1/../../../../arm-none-eabi/lib/thumb/v7e-m+fp/hard\libg.a(lib_a-svfprintf.o)
 .rodata.zeroes.0
                0x0801652c       0x10 c:/storage/toolchains/gcc-arm-none-eabi-10.3-2021.10-win32/bin/../lib/gcc/arm-none-eabi/10.3.1/../../../../arm-none-eabi/lib/thumb/v7e-m+fp/hard\libg.a(lib_a-svfprintf.o)
 .rodata._ctype_
                0x0801653c      0x101 c:/storage/toolchains/gcc-arm-none-eabi-10.3-2021.10-win32/bin/../lib/gcc/arm-none-eabi/10.3.1/../../../../arm-none-eabi/lib/thumb/v7e-m+fp/hard\libg.a(lib_a-ctype_.o)
                0x0801653c                _ctype_
 *fill*         0x0801663d        0x3 
 .rodata._dtoa_r.str1.4
                0x08016640       0xa2 c:/storage/toolchains/gcc-arm-none-eabi-10.3-2021.10-win32/bin/../lib/gcc/arm-none-eabi/10.3.1/../../../../arm-none-eabi/lib/thumb/v7e-m+fp/hard\libg.a(lib_a-dtoa.o)
                                 0xa6 (size before relaxing)
 *fill*         0x080166e2        0x2 
 .rodata.__multadd.str1.4
                0x080166e4       0x7f c:/storage/toolchains/gcc-arm-none-eabi-10.3-2021.10-win32/bin/../lib/gcc/arm-none-eabi/10.3.1/../../../../arm-none-eabi/lib/thumb/v7e-m+fp/hard\libg.a(lib_a-mprec.o)
                                 0x93 (size before relaxing)
 *fill*         0x08016763        0x5 
 .rodata.__mprec_bigtens
                0x08016768       0x28 c:/storage/toolchains/gcc-arm-none-eabi-10.3-2021.10-win32/bin/../lib/gcc/arm-none-eabi/10.3.1/../../../../arm-none-eabi/lib/thumb/v7e-m+fp/hard\libg.a(lib_a-mprec.o)
                0x08016768                __mprec_bigtens
 .rodata.__mprec_tens
                0x08016790       0xc8 c:/storage/toolchains/gcc-arm-none-eabi-10.3-2021.10-win32/bin/../lib/gcc/arm-none-eabi/10.3.1/../../../../arm-none-eabi/lib/thumb/v7e-m+fp/hard\libg.a(lib_a-mprec.o)
                0x08016790                __mprec_tens
 .rodata.p05.0  0x08016858        0xc c:/storage/toolchains/gcc-arm-none-eabi-10.3-2021.10-win32/bin/../lib/gcc/arm-none-eabi/10.3.1/../../../../arm-none-eabi/lib/thumb/v7e-m+fp/hard\libg.a(lib_a-mprec.o)
 .rodata.__assert_func.str1.4
                0x08016864       0x3f c:/storage/toolchains/gcc-arm-none-eabi-10.3-2021.10-win32/bin/../lib/gcc/arm-none-eabi/10.3.1/../../../../arm-none-eabi/lib/thumb/v7e-m+fp/hard\libg.a(lib_a-assert.o)
                                 0x43 (size before relaxing)
 *fill*         0x080168a3        0x1 
 .rodata._setlocale_r.str1.4
                0x080168a4        0xa c:/storage/toolchains/gcc-arm-none-eabi-10.3-2021.10-win32/bin/../lib/gcc/arm-none-eabi/10.3.1/../../../../arm-none-eabi/lib/thumb/v7e-m+fp/hard\libg.a(lib_a-locale.o)
                                  0xd (size before relaxing)
 *fill*         0x080168ae        0x2 
 .rodata.str1.4
                0x080168b0        0x2 c:/storage/toolchains/gcc-arm-none-eabi-10.3-2021.10-win32/bin/../lib/gcc/arm-none-eabi/10.3.1/../../../../arm-none-eabi/lib/thumb/v7e-m+fp/hard\libg.a(lib_a-locale.o)
 .rodata._vfiprintf_r.str1.4
                0x080168b2       0x2f c:/storage/toolchains/gcc-arm-none-eabi-10.3-2021.10-win32/bin/../lib/gcc/arm-none-eabi/10.3.1/../../../../arm-none-eabi/lib/thumb/v7e-m+fp/hard\libg.a(lib_a-vfiprintf.o)
 *fill*         0x080168b2        0x2 
 .rodata.blanks.1
                0x080168b4       0x10 c:/storage/toolchains/gcc-arm-none-eabi-10.3-2021.10-win32/bin/../lib/gcc/arm-none-eabi/10.3.1/../../../../arm-none-eabi/lib/thumb/v7e-m+fp/hard\libg.a(lib_a-vfiprintf.o)
 .rodata.zeroes.0
                0x080168c4       0x10 c:/storage/toolchains/gcc-arm-none-eabi-10.3-2021.10-win32/bin/../lib/gcc/arm-none-eabi/10.3.1/../../../../arm-none-eabi/lib/thumb/v7e-m+fp/hard\libg.a(lib_a-vfiprintf.o)
 *(.eh_fram e*)

.glue_7         0x080168d4        0x0
 .glue_7        0x080168d4        0x0 linker stubs

.glue_7t        0x080168d4        0x0
 .glue_7t       0x080168d4        0x0 linker stubs

.vfp11_veneer   0x080168d4        0x0
 .vfp11_veneer  0x080168d4        0x0 linker stubs

.v4_bx          0x080168d4        0x0
 .v4_bx         0x080168d4        0x0 linker stubs

.iplt           0x080168d4        0x0
 .iplt          0x080168d4        0x0 ..\obj\mfg.o

.ARM.extab
 *(.ARM.extab* .gnu.linkonce.armextab.*)
                0x080168d4                __exidx_start = .

.ARM.exidx      0x080168d4        0x8
 *(.ARM.exidx* .gnu.linkonce.armexidx.*)
 .ARM.exidx     0x080168d4        0x8 c:/storage/toolchains/gcc-arm-none-eabi-10.3-2021.10-win32/bin/../lib/gcc/arm-none-eabi/10.3.1/thumb/v7e-m+fp/hard\libgcc.a(_udivmoddi4.o)
                0x080168dc                __exidx_end = .
                0x080168dc                __etext = .
                0x080168dc                _sidata = __etext

.rel.dyn        0x080168dc        0x0
 .rel.iplt      0x080168dc        0x0 ..\obj\mfg.o

.data           0x20000000      0x9fc load address 0x080168dc
                0x20000000                __data_start__ = .
                0x20000000                _sdata = __data_start__
 *(vtable)
 *(.data*)
 .data          0x20000000        0x4 ..\obj\packets.o
                0x20000000                TXmsgPointer
 .data          0x20000004        0x1 ..\obj\config.o
                0x20000004                Flag_Config_Defaults
 *fill*         0x20000005        0x3 
 .data          0x20000008        0xf ..\obj\main.o
                0x20000008                FirmwareVersion
                0x20000010                SoftwareNumber
 .data          0x20000017        0x2 ..\obj\modulation.o
                0x20000017                ModulationMode
 *fill*         0x20000019        0x3 
 .data          0x2000001c       0x14 ..\obj\system_stm32f37x.o
                0x2000001c                SystemCoreClock
                0x20000020                AHBPrescTable
 .data          0x20000030       0x24 ..\obj\stm32f37x_rcc.o
 .data._impure_ptr
                0x20000054        0x4 c:/storage/toolchains/gcc-arm-none-eabi-10.3-2021.10-win32/bin/../lib/gcc/arm-none-eabi/10.3.1/../../../../arm-none-eabi/lib/thumb/v7e-m+fp/hard\libg.a(lib_a-impure.o)
                0x20000054                _impure_ptr
 .data.impure_data
                0x20000058      0x428 c:/storage/toolchains/gcc-arm-none-eabi-10.3-2021.10-win32/bin/../lib/gcc/arm-none-eabi/10.3.1/../../../../arm-none-eabi/lib/thumb/v7e-m+fp/hard\libg.a(lib_a-impure.o)
 .data.__malloc_av_
                0x20000480      0x408 c:/storage/toolchains/gcc-arm-none-eabi-10.3-2021.10-win32/bin/../lib/gcc/arm-none-eabi/10.3.1/../../../../arm-none-eabi/lib/thumb/v7e-m+fp/hard\libg.a(lib_a-mallocr.o)
                0x20000480                __malloc_av_
 .data.__malloc_sbrk_base
                0x20000888        0x4 c:/storage/toolchains/gcc-arm-none-eabi-10.3-2021.10-win32/bin/../lib/gcc/arm-none-eabi/10.3.1/../../../../arm-none-eabi/lib/thumb/v7e-m+fp/hard\libg.a(lib_a-mallocr.o)
                0x20000888                __malloc_sbrk_base
 .data.__malloc_trim_threshold
                0x2000088c        0x4 c:/storage/toolchains/gcc-arm-none-eabi-10.3-2021.10-win32/bin/../lib/gcc/arm-none-eabi/10.3.1/../../../../arm-none-eabi/lib/thumb/v7e-m+fp/hard\libg.a(lib_a-mallocr.o)
                0x2000088c                __malloc_trim_threshold
 .data.__global_locale
                0x20000890      0x16c c:/storage/toolchains/gcc-arm-none-eabi-10.3-2021.10-win32/bin/../lib/gcc/arm-none-eabi/10.3.1/../../../../arm-none-eabi/lib/thumb/v7e-m+fp/hard\libg.a(lib_a-locale.o)
                0x20000890                __global_locale
                0x200009fc                . = ALIGN (0x4)
                [!provide]                PROVIDE (__preinit_array_start = .)
 *(.preinit_array)
                [!provide]                PROVIDE (__preinit_array_end = .)
                0x200009fc                . = ALIGN (0x4)
                [!provide]                PROVIDE (__init_array_start = .)
 *(SORT_BY_NAME(.init_array.*))
 *(.init_array)
                [!provide]                PROVIDE (__init_array_end = .)
                0x200009fc                . = ALIGN (0x4)
                [!provide]                PROVIDE (__fini_array_start = .)
 *(SORT_BY_NAME(.fini_array.*))
 *(.fini_array)
                [!provide]                PROVIDE (__fini_array_end = .)
 *(.jcr*)
                0x200009fc                . = ALIGN (0x4)
                0x200009fc                __data_end__ = .
                0x200009fc                _edata = __data_end__

.igot.plt       0x200009fc        0x0 load address 0x080172d8
 .igot.plt      0x200009fc        0x0 ..\obj\mfg.o

.bss            0x20000a00     0x2b14 load address 0x080172e0
                0x20000a00                . = ALIGN (0x4)
                0x20000a00                __bss_start__ = .
                0x20000a00                _sbss = __bss_start__
 *(.bss*)
 .bss           0x20000a00      0x20a ..\obj\mfg.o
                0x20000a00                TX_Buffer
                0x20000b04                RX_Buffer
                0x20000c08                Flag_GPS_Loopback
                0x20000c09                ASCII_Mode
 *fill*         0x20000c0a        0x2 
 .bss           0x20000c0c       0x34 ..\obj\MS5607.o
                0x20000c0c                PressureSensor
 .bss           0x20000c40        0x5 ..\obj\hvac.o
                0x20000c40                Heater
 *fill*         0x20000c45        0x3 
 .bss           0x20000c48       0x1c ..\obj\user.o
                0x20000c48                PushButton
                0x20000c4c                UserLEDs
                0x20000c54                FrequencyChannels
 .bss           0x20000c64       0x12 ..\obj\interrupts.o
 *fill*         0x20000c76        0x2 
 .bss           0x20000c78      0x144 ..\obj\packets.o
                0x20000c78                TXmsgOut
                0x20000d78                TXmsgByteNumber
                0x20000d7c                TXmsgNumber
                0x20000d80                packetMessageCounter
                0x20000d84                iMet1_PTU_Packet
                0x20000d94                iMet1_PTUX_Packet
                0x20000da8                iMet1_GPS_Packet
                0x20000dba                iMet1_PacketNumber
 *fill*         0x20000dbc        0x4 
 .bss           0x20000dc0       0xb0 ..\obj\config.o
                0x20000dc0                iQ_Config
                0x20000e18                iQ_Default
 .bss           0x20000e70        0x3 ..\obj\defroster.o
                0x20000e70                Defroster
 *fill*         0x20000e73        0x5 
 .bss           0x20000e78       0x74 ..\obj\thermistor.o
                0x20000e78                Thermistor
                0x20000ee8                CounterValue
 .bss           0x20000eec       0x7c ..\obj\main.o
                0x20000eec                i
                0x20000ef0                string
                0x20000f54                variable
 .bss           0x20000f68     0x1ffc ..\obj\ublox.o
                0x20000f68                UBX_Status
                0x20000f6c                GPS_TX_Buffer
                0x20000ff0                GPS_RX_Buffer
                0x200013f4                Flag_SOL_Ready
                0x200013f5                Flag_POSLLH_Ready
                0x200013f6                Flag_SAT_Ready
                0x200013f7                Flag_GPS_Valid
                0x200013f8                UBX_MSG_Buffer
                0x20002c50                UBX_SOL_Buffer
                0x20002d14                UBX_POSLLH_Buffer
                0x20002d50                UBX_SAT_Buffer
 .bss           0x20002f64       0xa8 ..\obj\flight.o
                0x20002f64                FlightStatus
 .bss           0x2000300c      0x118 ..\obj\modulation.o
                0x2000300c                Flag_Build_TASK
                0x20003010                iMet1Modulation
 .bss           0x20003124      0x33a ..\obj\xdata.o
                0x20003124                xData
 *fill*         0x2000345e        0x2 
 .bss           0x20003460       0x18 ..\obj\HYT271.o
                0x20003460                HumiditySensor
 .bss           0x20003478       0x34 ..\obj\peripherals.o
                0x20003478                Wait_Tics
                0x2000347c                ADC_Coefficients
 .bss           0x200034ac        0x5 ..\obj\CC115L.o
                0x200034ac                Transmitter
 *fill*         0x200034b1        0x3 
 .bss           0x200034b4        0x4 ..\obj\syscalls.o
 .bss           0x200034b8       0x18 ..\obj\battery.o
                0x200034b8                Battery
 .bss.__malloc_current_mallinfo
                0x200034d0       0x28 c:/storage/toolchains/gcc-arm-none-eabi-10.3-2021.10-win32/bin/../lib/gcc/arm-none-eabi/10.3.1/../../../../arm-none-eabi/lib/thumb/v7e-m+fp/hard\libg.a(lib_a-mallocr.o)
                0x200034d0                __malloc_current_mallinfo
 .bss.__malloc_max_sbrked_mem
                0x200034f8        0x4 c:/storage/toolchains/gcc-arm-none-eabi-10.3-2021.10-win32/bin/../lib/gcc/arm-none-eabi/10.3.1/../../../../arm-none-eabi/lib/thumb/v7e-m+fp/hard\libg.a(lib_a-mallocr.o)
                0x200034f8                __malloc_max_sbrked_mem
 .bss.__malloc_max_total_mem
                0x200034fc        0x4 c:/storage/toolchains/gcc-arm-none-eabi-10.3-2021.10-win32/bin/../lib/gcc/arm-none-eabi/10.3.1/../../../../arm-none-eabi/lib/thumb/v7e-m+fp/hard\libg.a(lib_a-mallocr.o)
                0x200034fc                __malloc_max_total_mem
 .bss.__malloc_top_pad
                0x20003500        0x4 c:/storage/toolchains/gcc-arm-none-eabi-10.3-2021.10-win32/bin/../lib/gcc/arm-none-eabi/10.3.1/../../../../arm-none-eabi/lib/thumb/v7e-m+fp/hard\libg.a(lib_a-mallocr.o)
                0x20003500                __malloc_top_pad
 .bss.__lock___malloc_recursive_mutex
                0x20003504        0x1 c:/storage/toolchains/gcc-arm-none-eabi-10.3-2021.10-win32/bin/../lib/gcc/arm-none-eabi/10.3.1/../../../../arm-none-eabi/lib/thumb/v7e-m+fp/hard\libg.a(lib_a-lock.o)
                0x20003504                __lock___malloc_recursive_mutex
 *fill*         0x20003505        0x3 
 .bss.__lock___sfp_recursive_mutex
                0x20003508        0x1 c:/storage/toolchains/gcc-arm-none-eabi-10.3-2021.10-win32/bin/../lib/gcc/arm-none-eabi/10.3.1/../../../../arm-none-eabi/lib/thumb/v7e-m+fp/hard\libg.a(lib_a-lock.o)
                0x20003508                __lock___sfp_recursive_mutex
 *fill*         0x20003509        0x3 
 .bss.__lock___sinit_recursive_mutex
                0x2000350c        0x1 c:/storage/toolchains/gcc-arm-none-eabi-10.3-2021.10-win32/bin/../lib/gcc/arm-none-eabi/10.3.1/../../../../arm-none-eabi/lib/thumb/v7e-m+fp/hard\libg.a(lib_a-lock.o)
                0x2000350c                __lock___sinit_recursive_mutex
 *fill*         0x2000350d        0x3 
 .bss.errno     0x20003510        0x4 c:/storage/toolchains/gcc-arm-none-eabi-10.3-2021.10-win32/bin/../lib/gcc/arm-none-eabi/10.3.1/../../../../arm-none-eabi/lib/thumb/v7e-m+fp/hard\libg.a(lib_a-reent.o)
                0x20003510                errno
 *(COMMON)
                0x20003514                . = ALIGN (0x4)
                0x20003514                __bss_end__ = .
                0x20003514                _ebss = __bss_end__

.heap           0x20003514        0x0
                0x20003514                __end__ = .
                0x20003514                _end = __end__
                0x20003514                end = __end__
 *(.heap*)
                0x20003514                __HeapLimit = .

.co_stack       0x20003514        0x4 load address 0x08019df4
                0x20003518                . = ALIGN (0x8)
 *fill*         0x20003514        0x4 
 *(.co_stack .co_stack.*)
                0x20008000                __StackTop = (ORIGIN (ram) + LENGTH (ram))
                0x20007ffc                __StackLimit = (__StackTop - SIZEOF (.co_stack))
                [!provide]                PROVIDE (__stack = __StackTop)
                0x00000001                ASSERT ((__StackLimit >= __HeapLimit), region ram  overflowed with stack)
LOAD ..\obj\stm32f37x_dbgmcu.o
LOAD ..\obj\mfg.o
LOAD ..\obj\stm32f37x_misc.o
LOAD ..\obj\MS5607.o
LOAD ..\obj\stm32f37x_spi.o
LOAD ..\obj\hvac.o
LOAD ..\obj\stm32f37x_i2c.o
LOAD ..\obj\user.o
LOAD ..\obj\interrupts.o
LOAD ..\obj\stm32f37x_rtc.o
LOAD ..\obj\packets.o
LOAD ..\obj\config.o
LOAD ..\obj\startup_stm32f37x.o
LOAD ..\obj\stm32f37x_tim.o
LOAD ..\obj\utilities.o
LOAD ..\obj\stm32f37x_wwdg.o
LOAD ..\obj\stm32f37x_sdadc.o
LOAD ..\obj\defroster.o
LOAD ..\obj\thermistor.o
LOAD ..\obj\main.o
LOAD ..\obj\ublox.o
LOAD ..\obj\stm32f37x_iwdg.o
LOAD ..\obj\stm32f37x_syscfg.o
LOAD ..\obj\flight.o
LOAD ..\obj\stm32f37x_pwr.o
LOAD ..\obj\stm32f37x_can.o
LOAD ..\obj\stm32f37x_dac.o
LOAD ..\obj\stm32f37x_usart.o
LOAD ..\obj\modulation.o
LOAD ..\obj\xdata.o
LOAD ..\obj\crc.o
LOAD ..\obj\stm32f37x_crc.o
LOAD ..\obj\system_stm32f37x.o
LOAD ..\obj\HYT271.o
LOAD ..\obj\stm32f37x_rcc.o
LOAD ..\obj\peripherals.o
LOAD ..\obj\CC115L.o
LOAD ..\obj\syscalls.o
LOAD ..\obj\stm32f37x_comp.o
LOAD ..\obj\stm32f37x_gpio.o
LOAD ..\obj\stm32f37x_adc.o
LOAD ..\obj\stm32f37x_cec.o
LOAD ..\obj\stm32f37x_exti.o
LOAD ..\obj\battery.o
LOAD ..\obj\stm32f37x_dma.o
LOAD ..\obj\stm32f37x_flash.o
LOAD c:/storage/toolchains/gcc-arm-none-eabi-10.3-2021.10-win32/bin/../lib/gcc/arm-none-eabi/10.3.1/../../../../arm-none-eabi/lib/thumb/v7e-m+fp/hard\libm.a
START GROUP
LOAD c:/storage/toolchains/gcc-arm-none-eabi-10.3-2021.10-win32/bin/../lib/gcc/arm-none-eabi/10.3.1/thumb/v7e-m+fp/hard\libgcc.a
LOAD c:/storage/toolchains/gcc-arm-none-eabi-10.3-2021.10-win32/bin/../lib/gcc/arm-none-eabi/10.3.1/../../../../arm-none-eabi/lib/thumb/v7e-m+fp/hard\libg.a
LOAD c:/storage/toolchains/gcc-arm-none-eabi-10.3-2021.10-win32/bin/../lib/gcc/arm-none-eabi/10.3.1/../../../../arm-none-eabi/lib/thumb/v7e-m+fp/hard\libc.a
END GROUP
OUTPUT(iQ.elf elf32-littlearm)
LOAD linker stubs

.debug_info     0x00000000    0x171eb
 .debug_info    0x00000000     0x1f8a ..\obj\mfg.o
 .debug_info    0x00001f8a      0x55c ..\obj\stm32f37x_misc.o
 .debug_info    0x000024e6      0x880 ..\obj\MS5607.o
 .debug_info    0x00002d66      0xb7c ..\obj\stm32f37x_spi.o
 .debug_info    0x000038e2      0xe05 ..\obj\hvac.o
 .debug_info    0x000046e7      0xc67 ..\obj\stm32f37x_i2c.o
 .debug_info    0x0000534e      0xe84 ..\obj\user.o
 .debug_info    0x000061d2      0xd38 ..\obj\interrupts.o
 .debug_info    0x00006f0a     0x10d6 ..\obj\packets.o
 .debug_info    0x00007fe0      0x580 ..\obj\config.o
 .debug_info    0x00008560       0x22 ..\obj\startup_stm32f37x.o
 .debug_info    0x00008582     0x1d98 ..\obj\stm32f37x_tim.o
 .debug_info    0x0000a31a      0x519 ..\obj\utilities.o
 .debug_info    0x0000a833      0x23f ..\obj\stm32f37x_wwdg.o
 .debug_info    0x0000aa72      0xbc1 ..\obj\stm32f37x_sdadc.o
 .debug_info    0x0000b633      0x949 ..\obj\defroster.o
 .debug_info    0x0000bf7c      0xc9f ..\obj\thermistor.o
 .debug_info    0x0000cc1b      0xed2 ..\obj\main.o
 .debug_info    0x0000daed     0x1300 ..\obj\ublox.o
 .debug_info    0x0000eded      0x231 ..\obj\stm32f37x_iwdg.o
 .debug_info    0x0000f01e      0x6e5 ..\obj\flight.o
 .debug_info    0x0000f703      0x54e ..\obj\stm32f37x_pwr.o
 .debug_info    0x0000fc51      0xf51 ..\obj\stm32f37x_usart.o
 .debug_info    0x00010ba2      0xe43 ..\obj\modulation.o
 .debug_info    0x000119e5      0x3b2 ..\obj\xdata.o
 .debug_info    0x00011d97      0x210 ..\obj\crc.o
 .debug_info    0x00011fa7      0x397 ..\obj\stm32f37x_crc.o
 .debug_info    0x0001233e      0x4d8 ..\obj\system_stm32f37x.o
 .debug_info    0x00012816      0x626 ..\obj\HYT271.o
 .debug_info    0x00012e3c      0xad5 ..\obj\stm32f37x_rcc.o
 .debug_info    0x00013911     0x10a2 ..\obj\peripherals.o
 .debug_info    0x000149b3      0xc86 ..\obj\CC115L.o
 .debug_info    0x00015639      0x49e ..\obj\syscalls.o
 .debug_info    0x00015ad7      0x298 ..\obj\stm32f37x_comp.o
 .debug_info    0x00015d6f      0x63f ..\obj\stm32f37x_gpio.o
 .debug_info    0x000163ae      0x5c9 ..\obj\battery.o
 .debug_info    0x00016977      0x874 ..\obj\stm32f37x_flash.o

.debug_abbrev   0x00000000     0x3ffd
 .debug_abbrev  0x00000000      0x26d ..\obj\mfg.o
 .debug_abbrev  0x0000026d      0x170 ..\obj\stm32f37x_misc.o
 .debug_abbrev  0x000003dd      0x20e ..\obj\MS5607.o
 .debug_abbrev  0x000005eb      0x1af ..\obj\stm32f37x_spi.o
 .debug_abbrev  0x0000079a      0x1fb ..\obj\hvac.o
 .debug_abbrev  0x00000995      0x193 ..\obj\stm32f37x_i2c.o
 .debug_abbrev  0x00000b28      0x258 ..\obj\user.o
 .debug_abbrev  0x00000d80      0x1bf ..\obj\interrupts.o
 .debug_abbrev  0x00000f3f      0x263 ..\obj\packets.o
 .debug_abbrev  0x000011a2      0x1ee ..\obj\config.o
 .debug_abbrev  0x00001390       0x12 ..\obj\startup_stm32f37x.o
 .debug_abbrev  0x000013a2      0x19c ..\obj\stm32f37x_tim.o
 .debug_abbrev  0x0000153e      0x163 ..\obj\utilities.o
 .debug_abbrev  0x000016a1      0x14f ..\obj\stm32f37x_wwdg.o
 .debug_abbrev  0x000017f0      0x1d2 ..\obj\stm32f37x_sdadc.o
 .debug_abbrev  0x000019c2      0x1db ..\obj\defroster.o
 .debug_abbrev  0x00001b9d      0x1e5 ..\obj\thermistor.o
 .debug_abbrev  0x00001d82      0x18b ..\obj\main.o
 .debug_abbrev  0x00001f0d      0x2ba ..\obj\ublox.o
 .debug_abbrev  0x000021c7      0x146 ..\obj\stm32f37x_iwdg.o
 .debug_abbrev  0x0000230d      0x171 ..\obj\flight.o
 .debug_abbrev  0x0000247e      0x194 ..\obj\stm32f37x_pwr.o
 .debug_abbrev  0x00002612      0x182 ..\obj\stm32f37x_usart.o
 .debug_abbrev  0x00002794      0x284 ..\obj\modulation.o
 .debug_abbrev  0x00002a18      0x1da ..\obj\xdata.o
 .debug_abbrev  0x00002bf2       0xf7 ..\obj\crc.o
 .debug_abbrev  0x00002ce9      0x193 ..\obj\stm32f37x_crc.o
 .debug_abbrev  0x00002e7c      0x176 ..\obj\system_stm32f37x.o
 .debug_abbrev  0x00002ff2      0x1ff ..\obj\HYT271.o
 .debug_abbrev  0x000031f1      0x200 ..\obj\stm32f37x_rcc.o
 .debug_abbrev  0x000033f1      0x25b ..\obj\peripherals.o
 .debug_abbrev  0x0000364c      0x220 ..\obj\CC115L.o
 .debug_abbrev  0x0000386c      0x113 ..\obj\syscalls.o
 .debug_abbrev  0x0000397f      0x168 ..\obj\stm32f37x_comp.o
 .debug_abbrev  0x00003ae7      0x1af ..\obj\stm32f37x_gpio.o
 .debug_abbrev  0x00003c96      0x17c ..\obj\battery.o
 .debug_abbrev  0x00003e12      0x1eb ..\obj\stm32f37x_flash.o

.debug_aranges  0x00000000     0x16e0
 .debug_aranges
                0x00000000      0x168 ..\obj\mfg.o
 .debug_aranges
                0x00000168       0x40 ..\obj\stm32f37x_misc.o
 .debug_aranges
                0x000001a8       0x68 ..\obj\MS5607.o
 .debug_aranges
                0x00000210      0x110 ..\obj\stm32f37x_spi.o
 .debug_aranges
                0x00000320       0x50 ..\obj\hvac.o
 .debug_aranges
                0x00000370      0x168 ..\obj\stm32f37x_i2c.o
 .debug_aranges
                0x000004d8       0x80 ..\obj\user.o
 .debug_aranges
                0x00000558       0x80 ..\obj\interrupts.o
 .debug_aranges
                0x000005d8       0x68 ..\obj\packets.o
 .debug_aranges
                0x00000640       0x40 ..\obj\config.o
 .debug_aranges
                0x00000680       0x28 ..\obj\startup_stm32f37x.o
 .debug_aranges
                0x000006a8      0x2f0 ..\obj\stm32f37x_tim.o
 .debug_aranges
                0x00000998       0x78 ..\obj\utilities.o
 .debug_aranges
                0x00000a10       0x58 ..\obj\stm32f37x_wwdg.o
 .debug_aranges
                0x00000a68      0x150 ..\obj\stm32f37x_sdadc.o
 .debug_aranges
                0x00000bb8       0x48 ..\obj\defroster.o
 .debug_aranges
                0x00000c00       0x88 ..\obj\thermistor.o
 .debug_aranges
                0x00000c88       0x20 ..\obj\main.o
 .debug_aranges
                0x00000ca8       0xe8 ..\obj\ublox.o
 .debug_aranges
                0x00000d90       0x50 ..\obj\stm32f37x_iwdg.o
 .debug_aranges
                0x00000de0       0x38 ..\obj\flight.o
 .debug_aranges
                0x00000e18       0x70 ..\obj\stm32f37x_pwr.o
 .debug_aranges
                0x00000e88      0x1a0 ..\obj\stm32f37x_usart.o
 .debug_aranges
                0x00001028       0x68 ..\obj\modulation.o
 .debug_aranges
                0x00001090       0x38 ..\obj\xdata.o
 .debug_aranges
                0x000010c8       0x30 ..\obj\crc.o
 .debug_aranges
                0x000010f8       0x88 ..\obj\stm32f37x_crc.o
 .debug_aranges
                0x00001180       0x30 ..\obj\system_stm32f37x.o
 .debug_aranges
                0x000011b0       0x58 ..\obj\HYT271.o
 .debug_aranges
                0x00001208      0x150 ..\obj\stm32f37x_rcc.o
 .debug_aranges
                0x00001358       0x88 ..\obj\peripherals.o
 .debug_aranges
                0x000013e0       0x90 ..\obj\CC115L.o
 .debug_aranges
                0x00001470       0x60 ..\obj\syscalls.o
 .debug_aranges
                0x000014d0       0x58 ..\obj\stm32f37x_comp.o
 .debug_aranges
                0x00001528       0x80 ..\obj\stm32f37x_gpio.o
 .debug_aranges
                0x000015a8       0x30 ..\obj\battery.o
 .debug_aranges
                0x000015d8      0x108 ..\obj\stm32f37x_flash.o

.debug_ranges   0x00000000     0x1498
 .debug_ranges  0x00000000      0x158 ..\obj\mfg.o
 .debug_ranges  0x00000158       0x30 ..\obj\stm32f37x_misc.o
 .debug_ranges  0x00000188       0x58 ..\obj\MS5607.o
 .debug_ranges  0x000001e0      0x100 ..\obj\stm32f37x_spi.o
 .debug_ranges  0x000002e0       0x40 ..\obj\hvac.o
 .debug_ranges  0x00000320      0x158 ..\obj\stm32f37x_i2c.o
 .debug_ranges  0x00000478       0x70 ..\obj\user.o
 .debug_ranges  0x000004e8       0x70 ..\obj\interrupts.o
 .debug_ranges  0x00000558       0x58 ..\obj\packets.o
 .debug_ranges  0x000005b0       0x30 ..\obj\config.o
 .debug_ranges  0x000005e0       0x20 ..\obj\startup_stm32f37x.o
 .debug_ranges  0x00000600      0x2e0 ..\obj\stm32f37x_tim.o
 .debug_ranges  0x000008e0       0x68 ..\obj\utilities.o
 .debug_ranges  0x00000948       0x48 ..\obj\stm32f37x_wwdg.o
 .debug_ranges  0x00000990      0x140 ..\obj\stm32f37x_sdadc.o
 .debug_ranges  0x00000ad0       0x38 ..\obj\defroster.o
 .debug_ranges  0x00000b08       0x78 ..\obj\thermistor.o
 .debug_ranges  0x00000b80       0x10 ..\obj\main.o
 .debug_ranges  0x00000b90       0xd8 ..\obj\ublox.o
 .debug_ranges  0x00000c68       0x40 ..\obj\stm32f37x_iwdg.o
 .debug_ranges  0x00000ca8       0x28 ..\obj\flight.o
 .debug_ranges  0x00000cd0       0x60 ..\obj\stm32f37x_pwr.o
 .debug_ranges  0x00000d30      0x190 ..\obj\stm32f37x_usart.o
 .debug_ranges  0x00000ec0       0x58 ..\obj\modulation.o
 .debug_ranges  0x00000f18       0x28 ..\obj\xdata.o
 .debug_ranges  0x00000f40       0x20 ..\obj\crc.o
 .debug_ranges  0x00000f60       0x78 ..\obj\stm32f37x_crc.o
 .debug_ranges  0x00000fd8       0x20 ..\obj\system_stm32f37x.o
 .debug_ranges  0x00000ff8       0x48 ..\obj\HYT271.o
 .debug_ranges  0x00001040      0x140 ..\obj\stm32f37x_rcc.o
 .debug_ranges  0x00001180       0x78 ..\obj\peripherals.o
 .debug_ranges  0x000011f8       0x80 ..\obj\CC115L.o
 .debug_ranges  0x00001278       0x50 ..\obj\syscalls.o
 .debug_ranges  0x000012c8       0x48 ..\obj\stm32f37x_comp.o
 .debug_ranges  0x00001310       0x70 ..\obj\stm32f37x_gpio.o
 .debug_ranges  0x00001380       0x20 ..\obj\battery.o
 .debug_ranges  0x000013a0       0xf8 ..\obj\stm32f37x_flash.o

.debug_line     0x00000000     0xd2f6
 .debug_line    0x00000000     0x122b ..\obj\mfg.o
 .debug_line    0x0000122b      0x342 ..\obj\stm32f37x_misc.o
 .debug_line    0x0000156d      0x60b ..\obj\MS5607.o
 .debug_line    0x00001b78      0x70c ..\obj\stm32f37x_spi.o
 .debug_line    0x00002284      0x430 ..\obj\hvac.o
 .debug_line    0x000026b4      0x809 ..\obj\stm32f37x_i2c.o
 .debug_line    0x00002ebd      0x5de ..\obj\user.o
 .debug_line    0x0000349b      0x48d ..\obj\interrupts.o
 .debug_line    0x00003928      0x61f ..\obj\packets.o
 .debug_line    0x00003f47      0x38d ..\obj\config.o
 .debug_line    0x000042d4       0xbc ..\obj\startup_stm32f37x.o
 .debug_line    0x00004390     0x1073 ..\obj\stm32f37x_tim.o
 .debug_line    0x00005403      0x77a ..\obj\utilities.o
 .debug_line    0x00005b7d      0x299 ..\obj\stm32f37x_wwdg.o
 .debug_line    0x00005e16      0x734 ..\obj\stm32f37x_sdadc.o
 .debug_line    0x0000654a      0x3e0 ..\obj\defroster.o
 .debug_line    0x0000692a      0x616 ..\obj\thermistor.o
 .debug_line    0x00006f40      0x38d ..\obj\main.o
 .debug_line    0x000072cd      0xdd9 ..\obj\ublox.o
 .debug_line    0x000080a6      0x25e ..\obj\stm32f37x_iwdg.o
 .debug_line    0x00008304      0x3a9 ..\obj\flight.o
 .debug_line    0x000086ad      0x3a1 ..\obj\stm32f37x_pwr.o
 .debug_line    0x00008a4e      0x92b ..\obj\stm32f37x_usart.o
 .debug_line    0x00009379      0x530 ..\obj\modulation.o
 .debug_line    0x000098a9      0x36c ..\obj\xdata.o
 .debug_line    0x00009c15      0x1e3 ..\obj\crc.o
 .debug_line    0x00009df8      0x371 ..\obj\stm32f37x_crc.o
 .debug_line    0x0000a169      0x317 ..\obj\system_stm32f37x.o
 .debug_line    0x0000a480      0x4ae ..\obj\HYT271.o
 .debug_line    0x0000a92e      0x910 ..\obj\stm32f37x_rcc.o
 .debug_line    0x0000b23e      0x5b2 ..\obj\peripherals.o
 .debug_line    0x0000b7f0      0x65f ..\obj\CC115L.o
 .debug_line    0x0000be4f      0x24f ..\obj\syscalls.o
 .debug_line    0x0000c09e      0x336 ..\obj\stm32f37x_comp.o
 .debug_line    0x0000c3d4      0x499 ..\obj\stm32f37x_gpio.o
 .debug_line    0x0000c86d      0x2e6 ..\obj\battery.o
 .debug_line    0x0000cb53      0x7a3 ..\obj\stm32f37x_flash.o

.debug_str      0x00000000     0x6219
 .debug_str     0x00000000     0x12fd ..\obj\mfg.o
                               0x1518 (size before relaxing)
 .debug_str     0x000012fd      0x1cb ..\obj\stm32f37x_misc.o
                                0x40d (size before relaxing)
 .debug_str     0x000014c8      0x159 ..\obj\MS5607.o
                                0x61c (size before relaxing)
 .debug_str     0x00001621      0x587 ..\obj\stm32f37x_spi.o
                                0x7ae (size before relaxing)
 .debug_str     0x00001ba8      0x1bd ..\obj\hvac.o
                                0xd76 (size before relaxing)
 .debug_str     0x00001d65      0x44f ..\obj\stm32f37x_i2c.o
                                0x68c (size before relaxing)
 .debug_str     0x000021b4      0x284 ..\obj\user.o
                                0xe3b (size before relaxing)
 .debug_str     0x00002438      0x259 ..\obj\interrupts.o
                                0x724 (size before relaxing)
 .debug_str     0x00002691      0x211 ..\obj\packets.o
                                0xa95 (size before relaxing)
 .debug_str     0x000028a2       0xdc ..\obj\config.o
                                0x544 (size before relaxing)
 .debug_str     0x0000297e       0x6c ..\obj\startup_stm32f37x.o
                                 0xb0 (size before relaxing)
 .debug_str     0x000029ea      0xa8c ..\obj\stm32f37x_tim.o
                                0xe01 (size before relaxing)
 .debug_str     0x00003476      0x16b ..\obj\utilities.o
                                0x357 (size before relaxing)
 .debug_str     0x000035e1       0xee ..\obj\stm32f37x_wwdg.o
                                0x2ac (size before relaxing)
 .debug_str     0x000036cf      0x568 ..\obj\stm32f37x_sdadc.o
                                0x808 (size before relaxing)
 .debug_str     0x00003c37       0xcd ..\obj\defroster.o
                                0x832 (size before relaxing)
 .debug_str     0x00003d04      0x206 ..\obj\thermistor.o
                                0x9e8 (size before relaxing)
 .debug_str     0x00003f0a       0xa7 ..\obj\main.o
                                0xb06 (size before relaxing)
 .debug_str     0x00003fb1      0x279 ..\obj\ublox.o
                                0xd82 (size before relaxing)
 .debug_str     0x0000422a      0x10b ..\obj\stm32f37x_iwdg.o
                                0x2c6 (size before relaxing)
 .debug_str     0x00004335       0xae ..\obj\flight.o
                                0x5cc (size before relaxing)
 .debug_str     0x000043e3      0x185 ..\obj\stm32f37x_pwr.o
                                0x3ba (size before relaxing)
 .debug_str     0x00004568      0x66d ..\obj\stm32f37x_usart.o
                                0xa03 (size before relaxing)
 .debug_str     0x00004bd5      0x12c ..\obj\modulation.o
                                0xdcb (size before relaxing)
 .debug_str     0x00004d01       0xd4 ..\obj\xdata.o
                                0x320 (size before relaxing)
 .debug_str     0x00004dd5       0x6e ..\obj\crc.o
                                0x217 (size before relaxing)
 .debug_str     0x00004e43      0x1c4 ..\obj\stm32f37x_crc.o
                                0x39d (size before relaxing)
 .debug_str     0x00005007      0x109 ..\obj\system_stm32f37x.o
                                0x346 (size before relaxing)
 .debug_str     0x00005110      0x148 ..\obj\HYT271.o
                                0x579 (size before relaxing)
 .debug_str     0x00005258      0x464 ..\obj\stm32f37x_rcc.o
                                0x7eb (size before relaxing)
 .debug_str     0x000056bc      0x180 ..\obj\peripherals.o
                                0xe4b (size before relaxing)
 .debug_str     0x0000583c      0x1bb ..\obj\CC115L.o
                                0xa05 (size before relaxing)
 .debug_str     0x000059f7      0x197 ..\obj\syscalls.o
                                0x35c (size before relaxing)
 .debug_str     0x00005b8e       0xf9 ..\obj\stm32f37x_comp.o
                                0x2e9 (size before relaxing)
 .debug_str     0x00005c87      0x186 ..\obj\stm32f37x_gpio.o
                                0x4de (size before relaxing)
 .debug_str     0x00005e0d       0x93 ..\obj\battery.o
                                0x4e8 (size before relaxing)
 .debug_str     0x00005ea0      0x379 ..\obj\stm32f37x_flash.o
                                0x607 (size before relaxing)

.comment        0x00000000       0x49
 .comment       0x00000000       0x49 ..\obj\mfg.o
                                 0x4a (size before relaxing)
 .comment       0x00000049       0x4a ..\obj\stm32f37x_misc.o
 .comment       0x00000049       0x4a ..\obj\MS5607.o
 .comment       0x00000049       0x4a ..\obj\stm32f37x_spi.o
 .comment       0x00000049       0x4a ..\obj\hvac.o
 .comment       0x00000049       0x4a ..\obj\stm32f37x_i2c.o
 .comment       0x00000049       0x4a ..\obj\user.o
 .comment       0x00000049       0x4a ..\obj\interrupts.o
 .comment       0x00000049       0x4a ..\obj\packets.o
 .comment       0x00000049       0x4a ..\obj\config.o
 .comment       0x00000049       0x4a ..\obj\stm32f37x_tim.o
 .comment       0x00000049       0x4a ..\obj\utilities.o
 .comment       0x00000049       0x4a ..\obj\stm32f37x_wwdg.o
 .comment       0x00000049       0x4a ..\obj\stm32f37x_sdadc.o
 .comment       0x00000049       0x4a ..\obj\defroster.o
 .comment       0x00000049       0x4a ..\obj\thermistor.o
 .comment       0x00000049       0x4a ..\obj\main.o
 .comment       0x00000049       0x4a ..\obj\ublox.o
 .comment       0x00000049       0x4a ..\obj\stm32f37x_iwdg.o
 .comment       0x00000049       0x4a ..\obj\flight.o
 .comment       0x00000049       0x4a ..\obj\stm32f37x_pwr.o
 .comment       0x00000049       0x4a ..\obj\stm32f37x_usart.o
 .comment       0x00000049       0x4a ..\obj\modulation.o
 .comment       0x00000049       0x4a ..\obj\xdata.o
 .comment       0x00000049       0x4a ..\obj\crc.o
 .comment       0x00000049       0x4a ..\obj\stm32f37x_crc.o
 .comment       0x00000049       0x4a ..\obj\system_stm32f37x.o
 .comment       0x00000049       0x4a ..\obj\HYT271.o
 .comment       0x00000049       0x4a ..\obj\stm32f37x_rcc.o
 .comment       0x00000049       0x4a ..\obj\peripherals.o
 .comment       0x00000049       0x4a ..\obj\CC115L.o
 .comment       0x00000049       0x4a ..\obj\syscalls.o
 .comment       0x00000049       0x4a ..\obj\stm32f37x_comp.o
 .comment       0x00000049       0x4a ..\obj\stm32f37x_gpio.o
 .comment       0x00000049       0x4a ..\obj\battery.o
 .comment       0x00000049       0x4a ..\obj\stm32f37x_flash.o

.ARM.attributes
                0x00000000       0x32
 .ARM.attributes
                0x00000000       0x34 ..\obj\mfg.o
 .ARM.attributes
                0x00000034       0x34 ..\obj\stm32f37x_misc.o
 .ARM.attributes
                0x00000068       0x34 ..\obj\MS5607.o
 .ARM.attributes
                0x0000009c       0x34 ..\obj\stm32f37x_spi.o
 .ARM.attributes
                0x000000d0       0x34 ..\obj\hvac.o
 .ARM.attributes
                0x00000104       0x34 ..\obj\stm32f37x_i2c.o
 .ARM.attributes
                0x00000138       0x34 ..\obj\user.o
 .ARM.attributes
                0x0000016c       0x34 ..\obj\interrupts.o
 .ARM.attributes
                0x000001a0       0x34 ..\obj\packets.o
 .ARM.attributes
                0x000001d4       0x34 ..\obj\config.o
 .ARM.attributes
                0x00000208       0x21 ..\obj\startup_stm32f37x.o
 .ARM.attributes
                0x00000229       0x34 ..\obj\stm32f37x_tim.o
 .ARM.attributes
                0x0000025d       0x34 ..\obj\utilities.o
 .ARM.attributes
                0x00000291       0x34 ..\obj\stm32f37x_wwdg.o
 .ARM.attributes
                0x000002c5       0x34 ..\obj\stm32f37x_sdadc.o
 .ARM.attributes
                0x000002f9       0x34 ..\obj\defroster.o
 .ARM.attributes
                0x0000032d       0x34 ..\obj\thermistor.o
 .ARM.attributes
                0x00000361       0x34 ..\obj\main.o
 .ARM.attributes
                0x00000395       0x34 ..\obj\ublox.o
 .ARM.attributes
                0x000003c9       0x34 ..\obj\stm32f37x_iwdg.o
 .ARM.attributes
                0x000003fd       0x34 ..\obj\flight.o
 .ARM.attributes
                0x00000431       0x34 ..\obj\stm32f37x_pwr.o
 .ARM.attributes
                0x00000465       0x34 ..\obj\stm32f37x_usart.o
 .ARM.attributes
                0x00000499       0x34 ..\obj\modulation.o
 .ARM.attributes
                0x000004cd       0x34 ..\obj\xdata.o
 .ARM.attributes
                0x00000501       0x34 ..\obj\crc.o
 .ARM.attributes
                0x00000535       0x34 ..\obj\stm32f37x_crc.o
 .ARM.attributes
                0x00000569       0x34 ..\obj\system_stm32f37x.o
 .ARM.attributes
                0x0000059d       0x34 ..\obj\HYT271.o
 .ARM.attributes
                0x000005d1       0x34 ..\obj\stm32f37x_rcc.o
 .ARM.attributes
                0x00000605       0x34 ..\obj\peripherals.o
 .ARM.attributes
                0x00000639       0x34 ..\obj\CC115L.o
 .ARM.attributes
                0x0000066d       0x34 ..\obj\syscalls.o
 .ARM.attributes
                0x000006a1       0x34 ..\obj\stm32f37x_comp.o
 .ARM.attributes
                0x000006d5       0x34 ..\obj\stm32f37x_gpio.o
 .ARM.attributes
                0x00000709       0x34 ..\obj\battery.o
 .ARM.attributes
                0x0000073d       0x34 ..\obj\stm32f37x_flash.o
 .ARM.attributes
                0x00000771       0x34 c:/storage/toolchains/gcc-arm-none-eabi-10.3-2021.10-win32/bin/../lib/gcc/arm-none-eabi/10.3.1/../../../../arm-none-eabi/lib/thumb/v7e-m+fp/hard\libm.a(lib_a-s_round.o)
 .ARM.attributes
                0x000007a5       0x34 c:/storage/toolchains/gcc-arm-none-eabi-10.3-2021.10-win32/bin/../lib/gcc/arm-none-eabi/10.3.1/../../../../arm-none-eabi/lib/thumb/v7e-m+fp/hard\libm.a(lib_a-w_exp.o)
 .ARM.attributes
                0x000007d9       0x34 c:/storage/toolchains/gcc-arm-none-eabi-10.3-2021.10-win32/bin/../lib/gcc/arm-none-eabi/10.3.1/../../../../arm-none-eabi/lib/thumb/v7e-m+fp/hard\libm.a(lib_a-w_log.o)
 .ARM.attributes
                0x0000080d       0x34 c:/storage/toolchains/gcc-arm-none-eabi-10.3-2021.10-win32/bin/../lib/gcc/arm-none-eabi/10.3.1/../../../../arm-none-eabi/lib/thumb/v7e-m+fp/hard\libm.a(lib_a-w_pow.o)
 .ARM.attributes
                0x00000841       0x34 c:/storage/toolchains/gcc-arm-none-eabi-10.3-2021.10-win32/bin/../lib/gcc/arm-none-eabi/10.3.1/../../../../arm-none-eabi/lib/thumb/v7e-m+fp/hard\libm.a(lib_a-w_sqrt.o)
 .ARM.attributes
                0x00000875       0x34 c:/storage/toolchains/gcc-arm-none-eabi-10.3-2021.10-win32/bin/../lib/gcc/arm-none-eabi/10.3.1/../../../../arm-none-eabi/lib/thumb/v7e-m+fp/hard\libm.a(lib_a-e_exp.o)
 .ARM.attributes
                0x000008a9       0x34 c:/storage/toolchains/gcc-arm-none-eabi-10.3-2021.10-win32/bin/../lib/gcc/arm-none-eabi/10.3.1/../../../../arm-none-eabi/lib/thumb/v7e-m+fp/hard\libm.a(lib_a-e_log.o)
 .ARM.attributes
                0x000008dd       0x34 c:/storage/toolchains/gcc-arm-none-eabi-10.3-2021.10-win32/bin/../lib/gcc/arm-none-eabi/10.3.1/../../../../arm-none-eabi/lib/thumb/v7e-m+fp/hard\libm.a(lib_a-e_pow.o)
 .ARM.attributes
                0x00000911       0x34 c:/storage/toolchains/gcc-arm-none-eabi-10.3-2021.10-win32/bin/../lib/gcc/arm-none-eabi/10.3.1/../../../../arm-none-eabi/lib/thumb/v7e-m+fp/hard\libm.a(lib_a-e_sqrt.o)
 .ARM.attributes
                0x00000945       0x34 c:/storage/toolchains/gcc-arm-none-eabi-10.3-2021.10-win32/bin/../lib/gcc/arm-none-eabi/10.3.1/../../../../arm-none-eabi/lib/thumb/v7e-m+fp/hard\libm.a(lib_a-math_err.o)
 .ARM.attributes
                0x00000979       0x34 c:/storage/toolchains/gcc-arm-none-eabi-10.3-2021.10-win32/bin/../lib/gcc/arm-none-eabi/10.3.1/../../../../arm-none-eabi/lib/thumb/v7e-m+fp/hard\libm.a(lib_a-s_fabs.o)
 .ARM.attributes
                0x000009ad       0x34 c:/storage/toolchains/gcc-arm-none-eabi-10.3-2021.10-win32/bin/../lib/gcc/arm-none-eabi/10.3.1/../../../../arm-none-eabi/lib/thumb/v7e-m+fp/hard\libm.a(lib_a-s_finite.o)
 .ARM.attributes
                0x000009e1       0x34 c:/storage/toolchains/gcc-arm-none-eabi-10.3-2021.10-win32/bin/../lib/gcc/arm-none-eabi/10.3.1/../../../../arm-none-eabi/lib/thumb/v7e-m+fp/hard\libm.a(lib_a-s_nan.o)
 .ARM.attributes
                0x00000a15       0x34 c:/storage/toolchains/gcc-arm-none-eabi-10.3-2021.10-win32/bin/../lib/gcc/arm-none-eabi/10.3.1/../../../../arm-none-eabi/lib/thumb/v7e-m+fp/hard\libm.a(lib_a-s_scalbn.o)
 .ARM.attributes
                0x00000a49       0x1e c:/storage/toolchains/gcc-arm-none-eabi-10.3-2021.10-win32/bin/../lib/gcc/arm-none-eabi/10.3.1/thumb/v7e-m+fp/hard\libgcc.a(_arm_addsubdf3.o)
 .ARM.attributes
                0x00000a67       0x1e c:/storage/toolchains/gcc-arm-none-eabi-10.3-2021.10-win32/bin/../lib/gcc/arm-none-eabi/10.3.1/thumb/v7e-m+fp/hard\libgcc.a(_arm_muldivdf3.o)
 .ARM.attributes
                0x00000a85       0x1e c:/storage/toolchains/gcc-arm-none-eabi-10.3-2021.10-win32/bin/../lib/gcc/arm-none-eabi/10.3.1/thumb/v7e-m+fp/hard\libgcc.a(_arm_cmpdf2.o)
 .ARM.attributes
                0x00000aa3       0x1e c:/storage/toolchains/gcc-arm-none-eabi-10.3-2021.10-win32/bin/../lib/gcc/arm-none-eabi/10.3.1/thumb/v7e-m+fp/hard\libgcc.a(_arm_unorddf2.o)
 .ARM.attributes
                0x00000ac1       0x1e c:/storage/toolchains/gcc-arm-none-eabi-10.3-2021.10-win32/bin/../lib/gcc/arm-none-eabi/10.3.1/thumb/v7e-m+fp/hard\libgcc.a(_arm_fixdfsi.o)
 .ARM.attributes
                0x00000adf       0x1e c:/storage/toolchains/gcc-arm-none-eabi-10.3-2021.10-win32/bin/../lib/gcc/arm-none-eabi/10.3.1/thumb/v7e-m+fp/hard\libgcc.a(_arm_fixunsdfsi.o)
 .ARM.attributes
                0x00000afd       0x1e c:/storage/toolchains/gcc-arm-none-eabi-10.3-2021.10-win32/bin/../lib/gcc/arm-none-eabi/10.3.1/thumb/v7e-m+fp/hard\libgcc.a(_arm_truncdfsf2.o)
 .ARM.attributes
                0x00000b1b       0x34 c:/storage/toolchains/gcc-arm-none-eabi-10.3-2021.10-win32/bin/../lib/gcc/arm-none-eabi/10.3.1/../../../../arm-none-eabi/lib/thumb/v7e-m+fp/hard\libg.a(lib_a-errno.o)
 .ARM.attributes
                0x00000b4f       0x34 c:/storage/toolchains/gcc-arm-none-eabi-10.3-2021.10-win32/bin/../lib/gcc/arm-none-eabi/10.3.1/../../../../arm-none-eabi/lib/thumb/v7e-m+fp/hard\libg.a(lib_a-impure.o)
 .ARM.attributes
                0x00000b83       0x1c c:/storage/toolchains/gcc-arm-none-eabi-10.3-2021.10-win32/bin/../lib/gcc/arm-none-eabi/10.3.1/../../../../arm-none-eabi/lib/thumb/v7e-m+fp/hard\libg.a(lib_a-memcpy.o)
 .ARM.attributes
                0x00000b9f       0x34 c:/storage/toolchains/gcc-arm-none-eabi-10.3-2021.10-win32/bin/../lib/gcc/arm-none-eabi/10.3.1/../../../../arm-none-eabi/lib/thumb/v7e-m+fp/hard\libg.a(lib_a-sprintf.o)
 .ARM.attributes
                0x00000bd3       0x34 c:/storage/toolchains/gcc-arm-none-eabi-10.3-2021.10-win32/bin/../lib/gcc/arm-none-eabi/10.3.1/../../../../arm-none-eabi/lib/thumb/v7e-m+fp/hard\libg.a(lib_a-strcat.o)
 .ARM.attributes
                0x00000c07       0x34 c:/storage/toolchains/gcc-arm-none-eabi-10.3-2021.10-win32/bin/../lib/gcc/arm-none-eabi/10.3.1/../../../../arm-none-eabi/lib/thumb/v7e-m+fp/hard\libg.a(lib_a-strchr.o)
 .ARM.attributes
                0x00000c3b       0x1c c:/storage/toolchains/gcc-arm-none-eabi-10.3-2021.10-win32/bin/../lib/gcc/arm-none-eabi/10.3.1/../../../../arm-none-eabi/lib/thumb/v7e-m+fp/hard\libg.a(lib_a-strcmp.o)
 .ARM.attributes
                0x00000c57       0x34 c:/storage/toolchains/gcc-arm-none-eabi-10.3-2021.10-win32/bin/../lib/gcc/arm-none-eabi/10.3.1/../../../../arm-none-eabi/lib/thumb/v7e-m+fp/hard\libg.a(lib_a-strcpy.o)
 .ARM.attributes
                0x00000c8b       0x1c c:/storage/toolchains/gcc-arm-none-eabi-10.3-2021.10-win32/bin/../lib/gcc/arm-none-eabi/10.3.1/../../../../arm-none-eabi/lib/thumb/v7e-m+fp/hard\libg.a(lib_a-strlen.o)
 .ARM.attributes
                0x00000ca7       0x34 c:/storage/toolchains/gcc-arm-none-eabi-10.3-2021.10-win32/bin/../lib/gcc/arm-none-eabi/10.3.1/../../../../arm-none-eabi/lib/thumb/v7e-m+fp/hard\libg.a(lib_a-strncpy.o)
 .ARM.attributes
                0x00000cdb       0x34 c:/storage/toolchains/gcc-arm-none-eabi-10.3-2021.10-win32/bin/../lib/gcc/arm-none-eabi/10.3.1/../../../../arm-none-eabi/lib/thumb/v7e-m+fp/hard\libg.a(lib_a-strstr.o)
 .ARM.attributes
                0x00000d0f       0x34 c:/storage/toolchains/gcc-arm-none-eabi-10.3-2021.10-win32/bin/../lib/gcc/arm-none-eabi/10.3.1/../../../../arm-none-eabi/lib/thumb/v7e-m+fp/hard\libg.a(lib_a-strtok.o)
 .ARM.attributes
                0x00000d43       0x34 c:/storage/toolchains/gcc-arm-none-eabi-10.3-2021.10-win32/bin/../lib/gcc/arm-none-eabi/10.3.1/../../../../arm-none-eabi/lib/thumb/v7e-m+fp/hard\libg.a(lib_a-strtok_r.o)
 .ARM.attributes
                0x00000d77       0x34 c:/storage/toolchains/gcc-arm-none-eabi-10.3-2021.10-win32/bin/../lib/gcc/arm-none-eabi/10.3.1/../../../../arm-none-eabi/lib/thumb/v7e-m+fp/hard\libg.a(lib_a-strtol.o)
 .ARM.attributes
                0x00000dab       0x34 c:/storage/toolchains/gcc-arm-none-eabi-10.3-2021.10-win32/bin/../lib/gcc/arm-none-eabi/10.3.1/../../../../arm-none-eabi/lib/thumb/v7e-m+fp/hard\libg.a(lib_a-svfprintf.o)
 .ARM.attributes
                0x00000ddf       0x34 c:/storage/toolchains/gcc-arm-none-eabi-10.3-2021.10-win32/bin/../lib/gcc/arm-none-eabi/10.3.1/../../../../arm-none-eabi/lib/thumb/v7e-m+fp/hard\libg.a(lib_a-ctype_.o)
 .ARM.attributes
                0x00000e13       0x34 c:/storage/toolchains/gcc-arm-none-eabi-10.3-2021.10-win32/bin/../lib/gcc/arm-none-eabi/10.3.1/../../../../arm-none-eabi/lib/thumb/v7e-m+fp/hard\libg.a(lib_a-dtoa.o)
 .ARM.attributes
                0x00000e47       0x34 c:/storage/toolchains/gcc-arm-none-eabi-10.3-2021.10-win32/bin/../lib/gcc/arm-none-eabi/10.3.1/../../../../arm-none-eabi/lib/thumb/v7e-m+fp/hard\libg.a(lib_a-freer.o)
 .ARM.attributes
                0x00000e7b       0x34 c:/storage/toolchains/gcc-arm-none-eabi-10.3-2021.10-win32/bin/../lib/gcc/arm-none-eabi/10.3.1/../../../../arm-none-eabi/lib/thumb/v7e-m+fp/hard\libg.a(lib_a-localeconv.o)
 .ARM.attributes
                0x00000eaf       0x34 c:/storage/toolchains/gcc-arm-none-eabi-10.3-2021.10-win32/bin/../lib/gcc/arm-none-eabi/10.3.1/../../../../arm-none-eabi/lib/thumb/v7e-m+fp/hard\libg.a(lib_a-mallocr.o)
 .ARM.attributes
                0x00000ee3       0x1c c:/storage/toolchains/gcc-arm-none-eabi-10.3-2021.10-win32/bin/../lib/gcc/arm-none-eabi/10.3.1/../../../../arm-none-eabi/lib/thumb/v7e-m+fp/hard\libg.a(lib_a-memchr.o)
 .ARM.attributes
                0x00000eff       0x34 c:/storage/toolchains/gcc-arm-none-eabi-10.3-2021.10-win32/bin/../lib/gcc/arm-none-eabi/10.3.1/../../../../arm-none-eabi/lib/thumb/v7e-m+fp/hard\libg.a(lib_a-memcmp.o)
 .ARM.attributes
                0x00000f33       0x34 c:/storage/toolchains/gcc-arm-none-eabi-10.3-2021.10-win32/bin/../lib/gcc/arm-none-eabi/10.3.1/../../../../arm-none-eabi/lib/thumb/v7e-m+fp/hard\libg.a(lib_a-memset.o)
 .ARM.attributes
                0x00000f67       0x34 c:/storage/toolchains/gcc-arm-none-eabi-10.3-2021.10-win32/bin/../lib/gcc/arm-none-eabi/10.3.1/../../../../arm-none-eabi/lib/thumb/v7e-m+fp/hard\libg.a(lib_a-mlock.o)
 .ARM.attributes
                0x00000f9b       0x34 c:/storage/toolchains/gcc-arm-none-eabi-10.3-2021.10-win32/bin/../lib/gcc/arm-none-eabi/10.3.1/../../../../arm-none-eabi/lib/thumb/v7e-m+fp/hard\libg.a(lib_a-mprec.o)
 .ARM.attributes
                0x00000fcf       0x34 c:/storage/toolchains/gcc-arm-none-eabi-10.3-2021.10-win32/bin/../lib/gcc/arm-none-eabi/10.3.1/../../../../arm-none-eabi/lib/thumb/v7e-m+fp/hard\libg.a(lib_a-s_frexp.o)
 .ARM.attributes
                0x00001003       0x34 c:/storage/toolchains/gcc-arm-none-eabi-10.3-2021.10-win32/bin/../lib/gcc/arm-none-eabi/10.3.1/../../../../arm-none-eabi/lib/thumb/v7e-m+fp/hard\libg.a(lib_a-sbrkr.o)
 .ARM.attributes
                0x00001037       0x34 c:/storage/toolchains/gcc-arm-none-eabi-10.3-2021.10-win32/bin/../lib/gcc/arm-none-eabi/10.3.1/../../../../arm-none-eabi/lib/thumb/v7e-m+fp/hard\libg.a(lib_a-strnlen.o)
 .ARM.attributes
                0x0000106b       0x34 c:/storage/toolchains/gcc-arm-none-eabi-10.3-2021.10-win32/bin/../lib/gcc/arm-none-eabi/10.3.1/../../../../arm-none-eabi/lib/thumb/v7e-m+fp/hard\libg.a(lib_a-svfiprintf.o)
 .ARM.attributes
                0x0000109f       0x34 c:/storage/toolchains/gcc-arm-none-eabi-10.3-2021.10-win32/bin/../lib/gcc/arm-none-eabi/10.3.1/../../../../arm-none-eabi/lib/thumb/v7e-m+fp/hard\libg.a(lib_a-assert.o)
 .ARM.attributes
                0x000010d3       0x34 c:/storage/toolchains/gcc-arm-none-eabi-10.3-2021.10-win32/bin/../lib/gcc/arm-none-eabi/10.3.1/../../../../arm-none-eabi/lib/thumb/v7e-m+fp/hard\libg.a(lib_a-callocr.o)
 .ARM.attributes
                0x00001107       0x34 c:/storage/toolchains/gcc-arm-none-eabi-10.3-2021.10-win32/bin/../lib/gcc/arm-none-eabi/10.3.1/../../../../arm-none-eabi/lib/thumb/v7e-m+fp/hard\libg.a(lib_a-fiprintf.o)
 .ARM.attributes
                0x0000113b       0x34 c:/storage/toolchains/gcc-arm-none-eabi-10.3-2021.10-win32/bin/../lib/gcc/arm-none-eabi/10.3.1/../../../../arm-none-eabi/lib/thumb/v7e-m+fp/hard\libg.a(lib_a-locale.o)
 .ARM.attributes
                0x0000116f       0x34 c:/storage/toolchains/gcc-arm-none-eabi-10.3-2021.10-win32/bin/../lib/gcc/arm-none-eabi/10.3.1/../../../../arm-none-eabi/lib/thumb/v7e-m+fp/hard\libg.a(lib_a-lock.o)
 .ARM.attributes
                0x000011a3       0x34 c:/storage/toolchains/gcc-arm-none-eabi-10.3-2021.10-win32/bin/../lib/gcc/arm-none-eabi/10.3.1/../../../../arm-none-eabi/lib/thumb/v7e-m+fp/hard\libg.a(lib_a-mbtowc_r.o)
 .ARM.attributes
                0x000011d7       0x34 c:/storage/toolchains/gcc-arm-none-eabi-10.3-2021.10-win32/bin/../lib/gcc/arm-none-eabi/10.3.1/../../../../arm-none-eabi/lib/thumb/v7e-m+fp/hard\libg.a(lib_a-memmove.o)
 .ARM.attributes
                0x0000120b       0x34 c:/storage/toolchains/gcc-arm-none-eabi-10.3-2021.10-win32/bin/../lib/gcc/arm-none-eabi/10.3.1/../../../../arm-none-eabi/lib/thumb/v7e-m+fp/hard\libg.a(lib_a-reallocr.o)
 .ARM.attributes
                0x0000123f       0x34 c:/storage/toolchains/gcc-arm-none-eabi-10.3-2021.10-win32/bin/../lib/gcc/arm-none-eabi/10.3.1/../../../../arm-none-eabi/lib/thumb/v7e-m+fp/hard\libg.a(lib_a-reent.o)
 .ARM.attributes
                0x00001273       0x34 c:/storage/toolchains/gcc-arm-none-eabi-10.3-2021.10-win32/bin/../lib/gcc/arm-none-eabi/10.3.1/../../../../arm-none-eabi/lib/thumb/v7e-m+fp/hard\libg.a(lib_a-vfiprintf.o)
 .ARM.attributes
                0x000012a7       0x34 c:/storage/toolchains/gcc-arm-none-eabi-10.3-2021.10-win32/bin/../lib/gcc/arm-none-eabi/10.3.1/../../../../arm-none-eabi/lib/thumb/v7e-m+fp/hard\libg.a(lib_a-wctomb_r.o)
 .ARM.attributes
                0x000012db       0x34 c:/storage/toolchains/gcc-arm-none-eabi-10.3-2021.10-win32/bin/../lib/gcc/arm-none-eabi/10.3.1/../../../../arm-none-eabi/lib/thumb/v7e-m+fp/hard\libg.a(lib_a-wsetup.o)
 .ARM.attributes
                0x0000130f       0x34 c:/storage/toolchains/gcc-arm-none-eabi-10.3-2021.10-win32/bin/../lib/gcc/arm-none-eabi/10.3.1/../../../../arm-none-eabi/lib/thumb/v7e-m+fp/hard\libg.a(lib_a-fflush.o)
 .ARM.attributes
                0x00001343       0x34 c:/storage/toolchains/gcc-arm-none-eabi-10.3-2021.10-win32/bin/../lib/gcc/arm-none-eabi/10.3.1/../../../../arm-none-eabi/lib/thumb/v7e-m+fp/hard\libg.a(lib_a-findfp.o)
 .ARM.attributes
                0x00001377       0x34 c:/storage/toolchains/gcc-arm-none-eabi-10.3-2021.10-win32/bin/../lib/gcc/arm-none-eabi/10.3.1/../../../../arm-none-eabi/lib/thumb/v7e-m+fp/hard\libg.a(lib_a-fputwc.o)
 .ARM.attributes
                0x000013ab       0x34 c:/storage/toolchains/gcc-arm-none-eabi-10.3-2021.10-win32/bin/../lib/gcc/arm-none-eabi/10.3.1/../../../../arm-none-eabi/lib/thumb/v7e-m+fp/hard\libg.a(lib_a-fvwrite.o)
 .ARM.attributes
                0x000013df       0x34 c:/storage/toolchains/gcc-arm-none-eabi-10.3-2021.10-win32/bin/../lib/gcc/arm-none-eabi/10.3.1/../../../../arm-none-eabi/lib/thumb/v7e-m+fp/hard\libg.a(lib_a-fwalk.o)
 .ARM.attributes
                0x00001413       0x34 c:/storage/toolchains/gcc-arm-none-eabi-10.3-2021.10-win32/bin/../lib/gcc/arm-none-eabi/10.3.1/../../../../arm-none-eabi/lib/thumb/v7e-m+fp/hard\libg.a(lib_a-makebuf.o)
 .ARM.attributes
                0x00001447       0x34 c:/storage/toolchains/gcc-arm-none-eabi-10.3-2021.10-win32/bin/../lib/gcc/arm-none-eabi/10.3.1/../../../../arm-none-eabi/lib/thumb/v7e-m+fp/hard\libg.a(lib_a-stdio.o)
 .ARM.attributes
                0x0000147b       0x34 c:/storage/toolchains/gcc-arm-none-eabi-10.3-2021.10-win32/bin/../lib/gcc/arm-none-eabi/10.3.1/../../../../arm-none-eabi/lib/thumb/v7e-m+fp/hard\libg.a(lib_a-wbuf.o)
 .ARM.attributes
                0x000014af       0x34 c:/storage/toolchains/gcc-arm-none-eabi-10.3-2021.10-win32/bin/../lib/gcc/arm-none-eabi/10.3.1/../../../../arm-none-eabi/lib/thumb/v7e-m+fp/hard\libg.a(lib_a-wcrtomb.o)
 .ARM.attributes
                0x000014e3       0x34 c:/storage/toolchains/gcc-arm-none-eabi-10.3-2021.10-win32/bin/../lib/gcc/arm-none-eabi/10.3.1/../../../../arm-none-eabi/lib/thumb/v7e-m+fp/hard\libg.a(lib_a-writer.o)
 .ARM.attributes
                0x00001517       0x34 c:/storage/toolchains/gcc-arm-none-eabi-10.3-2021.10-win32/bin/../lib/gcc/arm-none-eabi/10.3.1/../../../../arm-none-eabi/lib/thumb/v7e-m+fp/hard\libg.a(lib_a-closer.o)
 .ARM.attributes
                0x0000154b       0x34 c:/storage/toolchains/gcc-arm-none-eabi-10.3-2021.10-win32/bin/../lib/gcc/arm-none-eabi/10.3.1/../../../../arm-none-eabi/lib/thumb/v7e-m+fp/hard\libg.a(lib_a-fclose.o)
 .ARM.attributes
                0x0000157f       0x34 c:/storage/toolchains/gcc-arm-none-eabi-10.3-2021.10-win32/bin/../lib/gcc/arm-none-eabi/10.3.1/../../../../arm-none-eabi/lib/thumb/v7e-m+fp/hard\libg.a(lib_a-fstatr.o)
 .ARM.attributes
                0x000015b3       0x34 c:/storage/toolchains/gcc-arm-none-eabi-10.3-2021.10-win32/bin/../lib/gcc/arm-none-eabi/10.3.1/../../../../arm-none-eabi/lib/thumb/v7e-m+fp/hard\libg.a(lib_a-isattyr.o)
 .ARM.attributes
                0x000015e7       0x34 c:/storage/toolchains/gcc-arm-none-eabi-10.3-2021.10-win32/bin/../lib/gcc/arm-none-eabi/10.3.1/../../../../arm-none-eabi/lib/thumb/v7e-m+fp/hard\libg.a(lib_a-lseekr.o)
 .ARM.attributes
                0x0000161b       0x34 c:/storage/toolchains/gcc-arm-none-eabi-10.3-2021.10-win32/bin/../lib/gcc/arm-none-eabi/10.3.1/../../../../arm-none-eabi/lib/thumb/v7e-m+fp/hard\libg.a(lib_a-readr.o)
 .ARM.attributes
                0x0000164f       0x1e c:/storage/toolchains/gcc-arm-none-eabi-10.3-2021.10-win32/bin/../lib/gcc/arm-none-eabi/10.3.1/thumb/v7e-m+fp/hard\libgcc.a(_aeabi_uldivmod.o)
 .ARM.attributes
                0x0000166d       0x34 c:/storage/toolchains/gcc-arm-none-eabi-10.3-2021.10-win32/bin/../lib/gcc/arm-none-eabi/10.3.1/thumb/v7e-m+fp/hard\libgcc.a(_udivmoddi4.o)
 .ARM.attributes
                0x000016a1       0x1e c:/storage/toolchains/gcc-arm-none-eabi-10.3-2021.10-win32/bin/../lib/gcc/arm-none-eabi/10.3.1/thumb/v7e-m+fp/hard\libgcc.a(_dvmd_tls.o)

.debug_frame    0x00000000     0x7a50
 .debug_frame   0x00000000      0x5f8 ..\obj\mfg.o
 .debug_frame   0x000005f8       0xd8 ..\obj\stm32f37x_misc.o
 .debug_frame   0x000006d0      0x19c ..\obj\MS5607.o
 .debug_frame   0x0000086c      0x4e0 ..\obj\stm32f37x_spi.o
 .debug_frame   0x00000d4c       0xfc ..\obj\hvac.o
 .debug_frame   0x00000e48      0x69c ..\obj\stm32f37x_i2c.o
 .debug_frame   0x000014e4      0x1cc ..\obj\user.o
 .debug_frame   0x000016b0      0x178 ..\obj\interrupts.o
 .debug_frame   0x00001828      0x18c ..\obj\packets.o
 .debug_frame   0x000019b4       0xb4 ..\obj\config.o
 .debug_frame   0x00001a68      0xe2c ..\obj\stm32f37x_tim.o
 .debug_frame   0x00002894      0x1f0 ..\obj\utilities.o
 .debug_frame   0x00002a84      0x134 ..\obj\stm32f37x_wwdg.o
 .debug_frame   0x00002bb8      0x604 ..\obj\stm32f37x_sdadc.o
 .debug_frame   0x000031bc       0xe8 ..\obj\defroster.o
 .debug_frame   0x000032a4      0x210 ..\obj\thermistor.o
 .debug_frame   0x000034b4       0x2c ..\obj\main.o
 .debug_frame   0x000034e0      0x3dc ..\obj\ublox.o
 .debug_frame   0x000038bc      0x118 ..\obj\stm32f37x_iwdg.o
 .debug_frame   0x000039d4       0xa8 ..\obj\flight.o
 .debug_frame   0x00003a7c      0x1b4 ..\obj\stm32f37x_pwr.o
 .debug_frame   0x00003c30      0x7b0 ..\obj\stm32f37x_usart.o
 .debug_frame   0x000043e0      0x168 ..\obj\modulation.o
 .debug_frame   0x00004548       0xac ..\obj\xdata.o
 .debug_frame   0x000045f4       0x80 ..\obj\crc.o
 .debug_frame   0x00004674      0x220 ..\obj\stm32f37x_crc.o
 .debug_frame   0x00004894       0x7c ..\obj\system_stm32f37x.o
 .debug_frame   0x00004910      0x134 ..\obj\HYT271.o
 .debug_frame   0x00004a44      0x60c ..\obj\stm32f37x_rcc.o
 .debug_frame   0x00005050      0x1f4 ..\obj\peripherals.o
 .debug_frame   0x00005244      0x228 ..\obj\CC115L.o
 .debug_frame   0x0000546c      0x168 ..\obj\syscalls.o
 .debug_frame   0x000055d4      0x148 ..\obj\stm32f37x_comp.o
 .debug_frame   0x0000571c      0x214 ..\obj\stm32f37x_gpio.o
 .debug_frame   0x00005930       0x7c ..\obj\battery.o
 .debug_frame   0x000059ac      0x44c ..\obj\stm32f37x_flash.o
 .debug_frame   0x00005df8       0x28 c:/storage/toolchains/gcc-arm-none-eabi-10.3-2021.10-win32/bin/../lib/gcc/arm-none-eabi/10.3.1/../../../../arm-none-eabi/lib/thumb/v7e-m+fp/hard\libm.a(lib_a-s_round.o)
 .debug_frame   0x00005e20       0x54 c:/storage/toolchains/gcc-arm-none-eabi-10.3-2021.10-win32/bin/../lib/gcc/arm-none-eabi/10.3.1/../../../../arm-none-eabi/lib/thumb/v7e-m+fp/hard\libm.a(lib_a-w_exp.o)
 .debug_frame   0x00005e74       0x4c c:/storage/toolchains/gcc-arm-none-eabi-10.3-2021.10-win32/bin/../lib/gcc/arm-none-eabi/10.3.1/../../../../arm-none-eabi/lib/thumb/v7e-m+fp/hard\libm.a(lib_a-w_log.o)
 .debug_frame   0x00005ec0       0x44 c:/storage/toolchains/gcc-arm-none-eabi-10.3-2021.10-win32/bin/../lib/gcc/arm-none-eabi/10.3.1/../../../../arm-none-eabi/lib/thumb/v7e-m+fp/hard\libm.a(lib_a-w_pow.o)
 .debug_frame   0x00005f04       0x48 c:/storage/toolchains/gcc-arm-none-eabi-10.3-2021.10-win32/bin/../lib/gcc/arm-none-eabi/10.3.1/../../../../arm-none-eabi/lib/thumb/v7e-m+fp/hard\libm.a(lib_a-w_sqrt.o)
 .debug_frame   0x00005f4c       0xa8 c:/storage/toolchains/gcc-arm-none-eabi-10.3-2021.10-win32/bin/../lib/gcc/arm-none-eabi/10.3.1/../../../../arm-none-eabi/lib/thumb/v7e-m+fp/hard\libm.a(lib_a-e_exp.o)
 .debug_frame   0x00005ff4       0x78 c:/storage/toolchains/gcc-arm-none-eabi-10.3-2021.10-win32/bin/../lib/gcc/arm-none-eabi/10.3.1/../../../../arm-none-eabi/lib/thumb/v7e-m+fp/hard\libm.a(lib_a-e_log.o)
 .debug_frame   0x0000606c      0x12c c:/storage/toolchains/gcc-arm-none-eabi-10.3-2021.10-win32/bin/../lib/gcc/arm-none-eabi/10.3.1/../../../../arm-none-eabi/lib/thumb/v7e-m+fp/hard\libm.a(lib_a-e_pow.o)
 .debug_frame   0x00006198       0x30 c:/storage/toolchains/gcc-arm-none-eabi-10.3-2021.10-win32/bin/../lib/gcc/arm-none-eabi/10.3.1/../../../../arm-none-eabi/lib/thumb/v7e-m+fp/hard\libm.a(lib_a-e_sqrt.o)
 .debug_frame   0x000061c8      0x124 c:/storage/toolchains/gcc-arm-none-eabi-10.3-2021.10-win32/bin/../lib/gcc/arm-none-eabi/10.3.1/../../../../arm-none-eabi/lib/thumb/v7e-m+fp/hard\libm.a(lib_a-math_err.o)
 .debug_frame   0x000062ec       0x20 c:/storage/toolchains/gcc-arm-none-eabi-10.3-2021.10-win32/bin/../lib/gcc/arm-none-eabi/10.3.1/../../../../arm-none-eabi/lib/thumb/v7e-m+fp/hard\libm.a(lib_a-s_fabs.o)
 .debug_frame   0x0000630c       0x28 c:/storage/toolchains/gcc-arm-none-eabi-10.3-2021.10-win32/bin/../lib/gcc/arm-none-eabi/10.3.1/../../../../arm-none-eabi/lib/thumb/v7e-m+fp/hard\libm.a(lib_a-s_finite.o)
 .debug_frame   0x00006334       0x20 c:/storage/toolchains/gcc-arm-none-eabi-10.3-2021.10-win32/bin/../lib/gcc/arm-none-eabi/10.3.1/../../../../arm-none-eabi/lib/thumb/v7e-m+fp/hard\libm.a(lib_a-s_nan.o)
 .debug_frame   0x00006354       0x2c c:/storage/toolchains/gcc-arm-none-eabi-10.3-2021.10-win32/bin/../lib/gcc/arm-none-eabi/10.3.1/../../../../arm-none-eabi/lib/thumb/v7e-m+fp/hard\libm.a(lib_a-s_scalbn.o)
 .debug_frame   0x00006380       0xac c:/storage/toolchains/gcc-arm-none-eabi-10.3-2021.10-win32/bin/../lib/gcc/arm-none-eabi/10.3.1/thumb/v7e-m+fp/hard\libgcc.a(_arm_addsubdf3.o)
 .debug_frame   0x0000642c       0x50 c:/storage/toolchains/gcc-arm-none-eabi-10.3-2021.10-win32/bin/../lib/gcc/arm-none-eabi/10.3.1/thumb/v7e-m+fp/hard\libgcc.a(_arm_muldivdf3.o)
 .debug_frame   0x0000647c       0xc4 c:/storage/toolchains/gcc-arm-none-eabi-10.3-2021.10-win32/bin/../lib/gcc/arm-none-eabi/10.3.1/thumb/v7e-m+fp/hard\libgcc.a(_arm_cmpdf2.o)
 .debug_frame   0x00006540       0x20 c:/storage/toolchains/gcc-arm-none-eabi-10.3-2021.10-win32/bin/../lib/gcc/arm-none-eabi/10.3.1/thumb/v7e-m+fp/hard\libgcc.a(_arm_unorddf2.o)
 .debug_frame   0x00006560       0x24 c:/storage/toolchains/gcc-arm-none-eabi-10.3-2021.10-win32/bin/../lib/gcc/arm-none-eabi/10.3.1/thumb/v7e-m+fp/hard\libgcc.a(_arm_fixdfsi.o)
 .debug_frame   0x00006584       0x24 c:/storage/toolchains/gcc-arm-none-eabi-10.3-2021.10-win32/bin/../lib/gcc/arm-none-eabi/10.3.1/thumb/v7e-m+fp/hard\libgcc.a(_arm_fixunsdfsi.o)
 .debug_frame   0x000065a8       0x24 c:/storage/toolchains/gcc-arm-none-eabi-10.3-2021.10-win32/bin/../lib/gcc/arm-none-eabi/10.3.1/thumb/v7e-m+fp/hard\libgcc.a(_arm_truncdfsf2.o)
 .debug_frame   0x000065cc       0x20 c:/storage/toolchains/gcc-arm-none-eabi-10.3-2021.10-win32/bin/../lib/gcc/arm-none-eabi/10.3.1/../../../../arm-none-eabi/lib/thumb/v7e-m+fp/hard\libg.a(lib_a-errno.o)
 .debug_frame   0x000065ec       0x74 c:/storage/toolchains/gcc-arm-none-eabi-10.3-2021.10-win32/bin/../lib/gcc/arm-none-eabi/10.3.1/../../../../arm-none-eabi/lib/thumb/v7e-m+fp/hard\libg.a(lib_a-sprintf.o)
 .debug_frame   0x00006660       0x28 c:/storage/toolchains/gcc-arm-none-eabi-10.3-2021.10-win32/bin/../lib/gcc/arm-none-eabi/10.3.1/../../../../arm-none-eabi/lib/thumb/v7e-m+fp/hard\libg.a(lib_a-strcat.o)
 .debug_frame   0x00006688       0x34 c:/storage/toolchains/gcc-arm-none-eabi-10.3-2021.10-win32/bin/../lib/gcc/arm-none-eabi/10.3.1/../../../../arm-none-eabi/lib/thumb/v7e-m+fp/hard\libg.a(lib_a-strchr.o)
 .debug_frame   0x000066bc       0x68 c:/storage/toolchains/gcc-arm-none-eabi-10.3-2021.10-win32/bin/../lib/gcc/arm-none-eabi/10.3.1/../../../../arm-none-eabi/lib/thumb/v7e-m+fp/hard\libg.a(lib_a-strcmp.o)
 .debug_frame   0x00006724       0x20 c:/storage/toolchains/gcc-arm-none-eabi-10.3-2021.10-win32/bin/../lib/gcc/arm-none-eabi/10.3.1/../../../../arm-none-eabi/lib/thumb/v7e-m+fp/hard\libg.a(lib_a-strcpy.o)
 .debug_frame   0x00006744       0x2c c:/storage/toolchains/gcc-arm-none-eabi-10.3-2021.10-win32/bin/../lib/gcc/arm-none-eabi/10.3.1/../../../../arm-none-eabi/lib/thumb/v7e-m+fp/hard\libg.a(lib_a-strncpy.o)
 .debug_frame   0x00006770       0x9c c:/storage/toolchains/gcc-arm-none-eabi-10.3-2021.10-win32/bin/../lib/gcc/arm-none-eabi/10.3.1/../../../../arm-none-eabi/lib/thumb/v7e-m+fp/hard\libg.a(lib_a-strstr.o)
 .debug_frame   0x0000680c       0x20 c:/storage/toolchains/gcc-arm-none-eabi-10.3-2021.10-win32/bin/../lib/gcc/arm-none-eabi/10.3.1/../../../../arm-none-eabi/lib/thumb/v7e-m+fp/hard\libg.a(lib_a-strtok.o)
 .debug_frame   0x0000682c       0x50 c:/storage/toolchains/gcc-arm-none-eabi-10.3-2021.10-win32/bin/../lib/gcc/arm-none-eabi/10.3.1/../../../../arm-none-eabi/lib/thumb/v7e-m+fp/hard\libg.a(lib_a-strtok_r.o)
 .debug_frame   0x0000687c       0x80 c:/storage/toolchains/gcc-arm-none-eabi-10.3-2021.10-win32/bin/../lib/gcc/arm-none-eabi/10.3.1/../../../../arm-none-eabi/lib/thumb/v7e-m+fp/hard\libg.a(lib_a-strtol.o)
 .debug_frame   0x000068fc       0x7c c:/storage/toolchains/gcc-arm-none-eabi-10.3-2021.10-win32/bin/../lib/gcc/arm-none-eabi/10.3.1/../../../../arm-none-eabi/lib/thumb/v7e-m+fp/hard\libg.a(lib_a-svfprintf.o)
 .debug_frame   0x00006978       0xdc c:/storage/toolchains/gcc-arm-none-eabi-10.3-2021.10-win32/bin/../lib/gcc/arm-none-eabi/10.3.1/../../../../arm-none-eabi/lib/thumb/v7e-m+fp/hard\libg.a(lib_a-dtoa.o)
 .debug_frame   0x00006a54       0x8c c:/storage/toolchains/gcc-arm-none-eabi-10.3-2021.10-win32/bin/../lib/gcc/arm-none-eabi/10.3.1/../../../../arm-none-eabi/lib/thumb/v7e-m+fp/hard\libg.a(lib_a-freer.o)
 .debug_frame   0x00006ae0       0x40 c:/storage/toolchains/gcc-arm-none-eabi-10.3-2021.10-win32/bin/../lib/gcc/arm-none-eabi/10.3.1/../../../../arm-none-eabi/lib/thumb/v7e-m+fp/hard\libg.a(lib_a-localeconv.o)
 .debug_frame   0x00006b20       0x4c c:/storage/toolchains/gcc-arm-none-eabi-10.3-2021.10-win32/bin/../lib/gcc/arm-none-eabi/10.3.1/../../../../arm-none-eabi/lib/thumb/v7e-m+fp/hard\libg.a(lib_a-mallocr.o)
 .debug_frame   0x00006b6c       0x2c c:/storage/toolchains/gcc-arm-none-eabi-10.3-2021.10-win32/bin/../lib/gcc/arm-none-eabi/10.3.1/../../../../arm-none-eabi/lib/thumb/v7e-m+fp/hard\libg.a(lib_a-memcmp.o)
 .debug_frame   0x00006b98       0x2c c:/storage/toolchains/gcc-arm-none-eabi-10.3-2021.10-win32/bin/../lib/gcc/arm-none-eabi/10.3.1/../../../../arm-none-eabi/lib/thumb/v7e-m+fp/hard\libg.a(lib_a-memset.o)
 .debug_frame   0x00006bc4       0x30 c:/storage/toolchains/gcc-arm-none-eabi-10.3-2021.10-win32/bin/../lib/gcc/arm-none-eabi/10.3.1/../../../../arm-none-eabi/lib/thumb/v7e-m+fp/hard\libg.a(lib_a-mlock.o)
 .debug_frame   0x00006bf4      0x280 c:/storage/toolchains/gcc-arm-none-eabi-10.3-2021.10-win32/bin/../lib/gcc/arm-none-eabi/10.3.1/../../../../arm-none-eabi/lib/thumb/v7e-m+fp/hard\libg.a(lib_a-mprec.o)
 .debug_frame   0x00006e74       0x2c c:/storage/toolchains/gcc-arm-none-eabi-10.3-2021.10-win32/bin/../lib/gcc/arm-none-eabi/10.3.1/../../../../arm-none-eabi/lib/thumb/v7e-m+fp/hard\libg.a(lib_a-s_frexp.o)
 .debug_frame   0x00006ea0       0x2c c:/storage/toolchains/gcc-arm-none-eabi-10.3-2021.10-win32/bin/../lib/gcc/arm-none-eabi/10.3.1/../../../../arm-none-eabi/lib/thumb/v7e-m+fp/hard\libg.a(lib_a-sbrkr.o)
 .debug_frame   0x00006ecc       0x20 c:/storage/toolchains/gcc-arm-none-eabi-10.3-2021.10-win32/bin/../lib/gcc/arm-none-eabi/10.3.1/../../../../arm-none-eabi/lib/thumb/v7e-m+fp/hard\libg.a(lib_a-strnlen.o)
 .debug_frame   0x00006eec       0x88 c:/storage/toolchains/gcc-arm-none-eabi-10.3-2021.10-win32/bin/../lib/gcc/arm-none-eabi/10.3.1/../../../../arm-none-eabi/lib/thumb/v7e-m+fp/hard\libg.a(lib_a-svfiprintf.o)
 .debug_frame   0x00006f74       0x40 c:/storage/toolchains/gcc-arm-none-eabi-10.3-2021.10-win32/bin/../lib/gcc/arm-none-eabi/10.3.1/../../../../arm-none-eabi/lib/thumb/v7e-m+fp/hard\libg.a(lib_a-assert.o)
 .debug_frame   0x00006fb4       0x2c c:/storage/toolchains/gcc-arm-none-eabi-10.3-2021.10-win32/bin/../lib/gcc/arm-none-eabi/10.3.1/../../../../arm-none-eabi/lib/thumb/v7e-m+fp/hard\libg.a(lib_a-callocr.o)
 .debug_frame   0x00006fe0       0x70 c:/storage/toolchains/gcc-arm-none-eabi-10.3-2021.10-win32/bin/../lib/gcc/arm-none-eabi/10.3.1/../../../../arm-none-eabi/lib/thumb/v7e-m+fp/hard\libg.a(lib_a-fiprintf.o)
 .debug_frame   0x00007050       0x68 c:/storage/toolchains/gcc-arm-none-eabi-10.3-2021.10-win32/bin/../lib/gcc/arm-none-eabi/10.3.1/../../../../arm-none-eabi/lib/thumb/v7e-m+fp/hard\libg.a(lib_a-locale.o)
 .debug_frame   0x000070b8       0xb0 c:/storage/toolchains/gcc-arm-none-eabi-10.3-2021.10-win32/bin/../lib/gcc/arm-none-eabi/10.3.1/../../../../arm-none-eabi/lib/thumb/v7e-m+fp/hard\libg.a(lib_a-lock.o)
 .debug_frame   0x00007168       0x4c c:/storage/toolchains/gcc-arm-none-eabi-10.3-2021.10-win32/bin/../lib/gcc/arm-none-eabi/10.3.1/../../../../arm-none-eabi/lib/thumb/v7e-m+fp/hard\libg.a(lib_a-mbtowc_r.o)
 .debug_frame   0x000071b4       0x40 c:/storage/toolchains/gcc-arm-none-eabi-10.3-2021.10-win32/bin/../lib/gcc/arm-none-eabi/10.3.1/../../../../arm-none-eabi/lib/thumb/v7e-m+fp/hard\libg.a(lib_a-memmove.o)
 .debug_frame   0x000071f4       0x48 c:/storage/toolchains/gcc-arm-none-eabi-10.3-2021.10-win32/bin/../lib/gcc/arm-none-eabi/10.3.1/../../../../arm-none-eabi/lib/thumb/v7e-m+fp/hard\libg.a(lib_a-reallocr.o)
 .debug_frame   0x0000723c       0x64 c:/storage/toolchains/gcc-arm-none-eabi-10.3-2021.10-win32/bin/../lib/gcc/arm-none-eabi/10.3.1/../../../../arm-none-eabi/lib/thumb/v7e-m+fp/hard\libg.a(lib_a-reent.o)
 .debug_frame   0x000072a0       0xf4 c:/storage/toolchains/gcc-arm-none-eabi-10.3-2021.10-win32/bin/../lib/gcc/arm-none-eabi/10.3.1/../../../../arm-none-eabi/lib/thumb/v7e-m+fp/hard\libg.a(lib_a-vfiprintf.o)
 .debug_frame   0x00007394       0x3c c:/storage/toolchains/gcc-arm-none-eabi-10.3-2021.10-win32/bin/../lib/gcc/arm-none-eabi/10.3.1/../../../../arm-none-eabi/lib/thumb/v7e-m+fp/hard\libg.a(lib_a-wctomb_r.o)
 .debug_frame   0x000073d0       0x2c c:/storage/toolchains/gcc-arm-none-eabi-10.3-2021.10-win32/bin/../lib/gcc/arm-none-eabi/10.3.1/../../../../arm-none-eabi/lib/thumb/v7e-m+fp/hard\libg.a(lib_a-wsetup.o)
 .debug_frame   0x000073fc       0x70 c:/storage/toolchains/gcc-arm-none-eabi-10.3-2021.10-win32/bin/../lib/gcc/arm-none-eabi/10.3.1/../../../../arm-none-eabi/lib/thumb/v7e-m+fp/hard\libg.a(lib_a-fflush.o)
 .debug_frame   0x0000746c      0x154 c:/storage/toolchains/gcc-arm-none-eabi-10.3-2021.10-win32/bin/../lib/gcc/arm-none-eabi/10.3.1/../../../../arm-none-eabi/lib/thumb/v7e-m+fp/hard\libg.a(lib_a-findfp.o)
 .debug_frame   0x000075c0       0x8c c:/storage/toolchains/gcc-arm-none-eabi-10.3-2021.10-win32/bin/../lib/gcc/arm-none-eabi/10.3.1/../../../../arm-none-eabi/lib/thumb/v7e-m+fp/hard\libg.a(lib_a-fputwc.o)
 .debug_frame   0x0000764c       0x64 c:/storage/toolchains/gcc-arm-none-eabi-10.3-2021.10-win32/bin/../lib/gcc/arm-none-eabi/10.3.1/../../../../arm-none-eabi/lib/thumb/v7e-m+fp/hard\libg.a(lib_a-fvwrite.o)
 .debug_frame   0x000076b0       0x54 c:/storage/toolchains/gcc-arm-none-eabi-10.3-2021.10-win32/bin/../lib/gcc/arm-none-eabi/10.3.1/../../../../arm-none-eabi/lib/thumb/v7e-m+fp/hard\libg.a(lib_a-fwalk.o)
 .debug_frame   0x00007704       0x70 c:/storage/toolchains/gcc-arm-none-eabi-10.3-2021.10-win32/bin/../lib/gcc/arm-none-eabi/10.3.1/../../../../arm-none-eabi/lib/thumb/v7e-m+fp/hard\libg.a(lib_a-makebuf.o)
 .debug_frame   0x00007774       0x8c c:/storage/toolchains/gcc-arm-none-eabi-10.3-2021.10-win32/bin/../lib/gcc/arm-none-eabi/10.3.1/../../../../arm-none-eabi/lib/thumb/v7e-m+fp/hard\libg.a(lib_a-stdio.o)
 .debug_frame   0x00007800       0x4c c:/storage/toolchains/gcc-arm-none-eabi-10.3-2021.10-win32/bin/../lib/gcc/arm-none-eabi/10.3.1/../../../../arm-none-eabi/lib/thumb/v7e-m+fp/hard\libg.a(lib_a-wbuf.o)
 .debug_frame   0x0000784c       0x60 c:/storage/toolchains/gcc-arm-none-eabi-10.3-2021.10-win32/bin/../lib/gcc/arm-none-eabi/10.3.1/../../../../arm-none-eabi/lib/thumb/v7e-m+fp/hard\libg.a(lib_a-wcrtomb.o)
 .debug_frame   0x000078ac       0x2c c:/storage/toolchains/gcc-arm-none-eabi-10.3-2021.10-win32/bin/../lib/gcc/arm-none-eabi/10.3.1/../../../../arm-none-eabi/lib/thumb/v7e-m+fp/hard\libg.a(lib_a-writer.o)
 .debug_frame   0x000078d8       0x2c c:/storage/toolchains/gcc-arm-none-eabi-10.3-2021.10-win32/bin/../lib/gcc/arm-none-eabi/10.3.1/../../../../arm-none-eabi/lib/thumb/v7e-m+fp/hard\libg.a(lib_a-closer.o)
 .debug_frame   0x00007904       0x3c c:/storage/toolchains/gcc-arm-none-eabi-10.3-2021.10-win32/bin/../lib/gcc/arm-none-eabi/10.3.1/../../../../arm-none-eabi/lib/thumb/v7e-m+fp/hard\libg.a(lib_a-fclose.o)
 .debug_frame   0x00007940       0x2c c:/storage/toolchains/gcc-arm-none-eabi-10.3-2021.10-win32/bin/../lib/gcc/arm-none-eabi/10.3.1/../../../../arm-none-eabi/lib/thumb/v7e-m+fp/hard\libg.a(lib_a-fstatr.o)
 .debug_frame   0x0000796c       0x2c c:/storage/toolchains/gcc-arm-none-eabi-10.3-2021.10-win32/bin/../lib/gcc/arm-none-eabi/10.3.1/../../../../arm-none-eabi/lib/thumb/v7e-m+fp/hard\libg.a(lib_a-isattyr.o)
 .debug_frame   0x00007998       0x2c c:/storage/toolchains/gcc-arm-none-eabi-10.3-2021.10-win32/bin/../lib/gcc/arm-none-eabi/10.3.1/../../../../arm-none-eabi/lib/thumb/v7e-m+fp/hard\libg.a(lib_a-lseekr.o)
 .debug_frame   0x000079c4       0x2c c:/storage/toolchains/gcc-arm-none-eabi-10.3-2021.10-win32/bin/../lib/gcc/arm-none-eabi/10.3.1/../../../../arm-none-eabi/lib/thumb/v7e-m+fp/hard\libg.a(lib_a-readr.o)
 .debug_frame   0x000079f0       0x2c c:/storage/toolchains/gcc-arm-none-eabi-10.3-2021.10-win32/bin/../lib/gcc/arm-none-eabi/10.3.1/thumb/v7e-m+fp/hard\libgcc.a(_aeabi_uldivmod.o)
 .debug_frame   0x00007a1c       0x34 c:/storage/toolchains/gcc-arm-none-eabi-10.3-2021.10-win32/bin/../lib/gcc/arm-none-eabi/10.3.1/thumb/v7e-m+fp/hard\libgcc.a(_udivmoddi4.o)
